:020000040800F2
:10000000484A0020E10100085B1000085310000876
:10001000571000081D0D00085917000800000000C7
:10002000000000000000000000000000490100087E
:10003000210F0008000000008D01000819150008BC
:10004000FB010008FB010008FB010008FB010008A0
:10005000FB010008FB010008FB010008FB01000890
:10006000FB010008FB010008FB010008FB01000880
:10007000FB010008FB010008FB010008FB01000870
:10008000FB010008FB0100085D050008FB010008FA
:10009000FB010008FB010008FB010008FB01000850
:1000A000FB010008FB010008FB010008FB01000840
:1000B000FB010008FB010008FB010008FB01000830
:1000C000FB010008FB010008FB010008FB01000820
:1000D000FB010008FB010008FB010008FB01000810
:1000E000FB010008FB010008FB010008FB01000800
:1000F000FB010008FB010008FB010008FB010008F0
:10010000FB010008FB010008FB010008FB010008DF
:10011000FB010008FB010008FB010008FB010008CF
:10012000FB010008FB010008FB010008FB010008BF
:10013000DFF810D000F000FA004800476919000805
:10014000AFF30080484A0020224B19680868B0E8E5
:10015000F00F80F30988BFF36F8F4FF0000080F33A
:1001600011884EF00D0E7047000000000648006830
:10017000006880F3088862B661B6BFF34F8FBFF3A3
:100180006F8F00DF00BF00BF08ED00E0EFF30980D4
:10019000BFF36F8F0F4B1A6820E9F00F106008B59E
:1001A0004FF0BF0080F31188BFF34F8FBFF36F8F05
:1001B00002F05CF94FF0000080F31188BDE80840C0
:1001C00019680868B0E8F00F80F30988BFF36F8FF3
:1001D000704700BF28000020EFF305807047000043
:1001E0000648804706480047FEE7FEE7FEE7FEE7D1
:1001F000FEE7FEE7FEE7FEE7FEE7FEE72115000863
:100200003101000840EA01039B0703D009E008C957
:10021000121F08C0042AFAD203E011F8013B00F8CB
:10022000013B521EF9D27047D2B201E000F8012B17
:10023000491EFBD270470022F6E710B513460A4666
:1002400004461946FFF7F0FF204610BD2DE9FE4F8A
:1002500081EA030404F0004421F0004100944FF0CF
:10026000000B23F0004350EA01045ED052EA03047D
:100270005BD0C3F30A54C1F30A552C44A4F2F334FF
:100280000194A0FB0254C1F3130141F48011C3F3A4
:10029000130343F4801301FB024400FB034E840A62
:1002A000970A44EA815447EA8357A4FB07680295FA
:1002B0008D0A05FB07854FEA932C04FB0C54270598
:1002C000029D4FEA065847EA1637B5EB08056EEB74
:1002D000070C870E920E47EA811742EA8312A7FBAA
:1002E0000201B6EB0B0164EB00042B0D43EA0C3367
:1002F0005E1844EB1C50DA465146E7FB0201C5F399
:1003000013044FEA0B3343EA14534FEA0432019CBF
:1003100043EA0603A4F10C040294009CCDE900B466
:1003200000F0BBF803B0BDE8F08F00200146F9E70C
:100330000EB5C10F80EAE0700844CA07002140F200
:1003400033438DE80E000A460B4600F0A6F803B0D2
:1003500000BD0EB540F2334102910021CDE90011FC
:100360000A460B4600F099F803B000BD01F00043C7
:1003700030B421F0004150EA010206D00A0DA2F586
:100380006072C1F31301002A02DC30BC0020704708
:10039000440F44EAC104C100E01830BC00EBC25075
:1003A00000F035B830B50B4601460020202201246C
:1003B00009E021FA02F59D4205D303FA02F5491B33
:1003C00004FA02F52844151EA2F10102F1DC30BD49
:1003D000202A04DB203A00FA02F100207047914005
:1003E000C2F1200320FA03F3194390407047202AFA
:1003F00004DB203A21FA02F00021704721FA02F3CF
:10040000D040C2F1200291400843194670470029AC
:10041000A8BF7047401C490008BF20F0010070478A
:1004200010B4B0FA80FC00FA0CF050EA010404BFEA
:1004300010BC704749B1CCF1200421FA04F411FA40
:100440000CF118BF012121430843A3EB0C01CB1D84
:100450004FEA00614FEA102042BF002010BC7047F5
:1004600000EBC35010440029A4BF10BC7047401CCF
:10047000490008BF20F0010010BC704710B5141EE1
:1004800073F1000408DA401C41F1000192185B414D
:100490001A4301D120F0010010BD2DE9F04D924624
:1004A0009B4611B1B1FA81F202E0B0FA80F220323B
:1004B0009046FFF78DFF04460F4640EA0A0041EAE6
:1004C0000B0153465A46084313D0114653EA010024
:1004D00019D0C8F140025046FFF789FF05460E4685
:1004E000504659464246FFF773FF084305D00120A6
:1004F00004E020463946BDE8F08D0020054346EA79
:10050000E0762C4337430A986305E40AA0EB080021
:100510000022FD0A44EA47540A3002D50020014671
:10052000E9E7010510196941DDE90845001969414C
:10053000BDE8F04DA2E70000064C074D06E0E0687C
:1005400040F0010394E8070098471034AC42F6D31A
:10055000FFF7F2FD7C2D00089C2D000810B5034824
:1005600000F056F80249088010BD00000028014044
:100570000C00002021B1826842F00102826003E099
:10058000826822F001028260704721B1826842F4E1
:100590008072826003E0826822F480728260704719
:1005A00010B504461248844208D10121401500F0DC
:1005B00003FE0021601500F0FFFD17E00D488442A6
:1005C00008D10121001500F0F7FD0021201500F0F1
:1005D000F3FD0BE00848844208D10121C80300F074
:1005E000EBFD00214FF4004000F0E6FD10BD0000DF
:1005F0000024014000280140003C01400146002049
:100600008A6802F004020AB1012000E0002070476D
:100610000146C86C80B27047014600208A6802F02B
:1006200008020AB1012000E00020704730B5024600
:100630000020002350680F4C20400D790C6844EADC
:1006400005242043506090680B4C2040D1E90254AF
:100650002C434D7944EA450420439060D06A20F44D
:1006600070000C7C641EE4B2234340EA0350D06265
:1006700030BD0000FFFEF0FFFDF7F1FF00B587B0D1
:1006800001214FF4037000F087FD4FF4004000F0AB
:1006900057FDFF20ADF8040000208DF8070001A9E8
:1006A000404800F03EFC0320ADF8040000208DF827
:1006B000070001A93C4800F034FC00F03DFB3B483A
:1006C000FFF76EFF0020029001208DF80C008DF8DE
:1006D0000D004FF460200490002005900A208DF852
:1006E000180002A93148FFF7A1FF072301220021CA
:1006F0002E4800F05DF80723022201212B4800F06C
:1007000057F8072303220221284800F051F8072355
:1007100004220321254800F04BF807230522042179
:10072000224800F045F80723062205211F4800F063
:100730003FF807231A4606211C4800F039F8072322
:1007400008221946194800F033F807230922082126
:10075000164800F02DF807230A220921134800F05B
:1007600027F801211148FFF710FF01210F48FFF77B
:1007700001FF0E4800F078F800BF0C48FFF74CFF6F
:100780000028FAD1094800F07FF800BF0748FFF7BA
:1007900035FF0028FAD10121044800F06AF807B0BB
:1007A00000BD000000080140000C01400024014091
:1007B000F0B504460D4600200021092D11DDE0684A
:1007C000A5F10A0606EB4607072606FA07F1884355
:1007D000A5F10A0606EB460603FA06F10843E060B7
:1007E0000CE0206905EB4507072606FA07F1884368
:1007F00005EB450603FA06F108432061072A0FDAE4
:10080000606B561E06EB86071F2606FA07F1884323
:10081000561E06EB860605FA06F10843606322E0E1
:100820000D2A0FDA206BD61F06EB86071F2606FA65
:1008300007F18843D61F06EB860605FA06F1084342
:10084000206310E0E06AA2F10D0606EB86071F2682
:1008500006FA07F18843A2F10D0606EB860605FAB3
:1008600006F10843E062F0BD816841F00801816053
:10087000704721B1826842F4A002826003E082687E
:1008800022F4A00282607047816841F00401816017
:100890007047000070B50025002400264FF48051F9
:1008A000144800F0D2FB00BF4FF48061114800F003
:1008B000C3FB0028F8D1FC2000F09CFD002000F0D4
:1008C00099FD012000F096FDFF2000F093FD44EA21
:1008D0000044FF2000F08EFD44EA0024FF2000F0D9
:1008E00089FD04434FF48051024800F0B0FB2046DC
:1008F00070BD0000000C014070B504460D464FF479
:1009000080510E4800F0A1FB00BF4FF480610B48FE
:1009100000F092FB0028F8D104F00F0141F05000E4
:1009200000F068FD002000F065FD284600F062FD43
:100930004FF48051014800F08AFB70BD000C01406B
:1009400010B504210020FFF7D7FF00210220FFF798
:10095000D3FFA1210320FFF7CFFF00210420FFF7E1
:10096000CBFF10BD08B50121082000F015FC4FF4A5
:100970000060ADF8000010208DF8030003208DF812
:10098000020069460C4800F0CCFA4FF400610A48B6
:1009900000F05BFB4FF48060ADF8000048208DF85C
:1009A000030003208DF802006946034800F0B9FAFD
:1009B00000F094FC08BD0000000C014010B5FFF7EA
:1009C000D1FF4FF40061034800F041FBFFF7B8FF8F
:1009D00010BD0000000C014010B504462146012066
:1009E000FFF78AFFFFF756FF10BD000090B000240C
:1009F00000BF20216846FFF71EFC202108A8FFF752
:100A00001AFC92E0002000F051FC8146FFF7A1FCA7
:100A100007460022454BFFF719FC0546FFF7A6FCE9
:100A200004460894012000F041FC8146FFF791FC48
:100A3000074600223D4BFFF709FC0546FFF796FCF1
:100A400004460994022000F031FC8146FFF781FC46
:100A500007460022354BFFF7F9FB0546FFF786FCFA
:100A600004460A94032000F021FC8146FFF771FC44
:100A7000074600222D4BFFF7E9FB0546FFF776FC02
:100A800004460B94042000F011FC8146FFF761FC42
:100A900007460022254BFFF7D9FB0546FFF766FC0A
:100AA00004460C94052000F001FC8146FFF751FC40
:100AB000074600221D4BFFF7C9FB0546FFF756FC12
:100AC00004460D94062000F0F1FB8146FFF741FC3F
:100AD00007460022154BFFF7B9FB0546FFF746FC1A
:100AE00004460E94072000F0E1FB8146FFF731FC3D
:100AF000074600220D4BFFF7A9FB0546FFF736FC22
:100B0000044600200F9000230A2208A90848006824
:100B100001F086FD012805D040F25312054906A0D8
:100B200000F01CFE0C2001F027FC6BE70000F03FFA
:100B300000000020212D000825732C206174204C1A
:100B4000696E653A25642C20616453616D706C6533
:100B50004461746151756575652069732066756CB3
:100B60006C0A000088B04FF00009CA462021684690
:100B7000FFF761FB50E04FF0000938E009F0070093
:100B800018B109F00700401E00E0072000F0FF0A3E
:100B9000082141EA0911C8B2FFF71EFF0446BAF165
:100BA000000F1DD104F4000020B1E443C4F3160487
:100BB000641C64422046FFF7BBFB07460022174B2C
:100BC000FFF744FB05460E460022154B28463146EA
:100BD000FFF73CFB0746FFF7C9FB4DF82A0002E090
:100BE00000204DF82A0009F1010000F0FF09B9F1D9
:100BF000080FC3DB00230A2269460A48006801F097
:100C00000FFD012805D04FF49572074907A000F0A9
:100C1000A5FD0C2001F0B0FBADE70000D012E33FD2
:100C20000000F03F04000020FD2C000825732C205C
:100C30006174204C696E653A25642C20707265736E
:100C40007353616D706C6544617461517565756550
:100C50002069732066756C6C0A000000B6B0002035
:100C6000239020211BA8FFF7E6FA202113A8FFF705
:100C7000E2FA482101A8FFF7DEFA3FE020480068C9
:100C800001F0F2FA20B11F48006801F0EDFA18B93E
:100C9000012001F071FB31E04FF0FF321BA9184831
:100CA000006801F049FD4FF0FF3213A915480068B4
:100CB00001F042FDFF208DF89000AA208DF89100F0
:100CC00040202390BDF88C00ADF8920020221BA993
:100CD00025A8FFF797FA202213A92DA8FFF792FA6B
:100CE000AA208DF8D400EE208DF8D500462124A846
:100CF00000F01AFD0A2001F03FFB00BFBEE7000034
:100D0000000000200400002010B500F0A7F9FFF754
:100D100055FEFFF7B3FC00F033FC10BD00BFFEE74B
:100D200021B1026842F00102026004E002684FF65D
:100D3000FE731A400260704710B50121084600F0AA
:100D40000BFA114800F028F81048114908601148C2
:100D50004860002088606420C8600020086180200E
:100D60004861400088618000C8612020086200025C
:100D7000486200208862044800F0B4F8012102486B
:100D8000FFF7CEFF10BD0000080002404C240140D8
:100D9000540100208C00002001684FF6FE721140C3
:100DA00001600021016041608160C1604B4988425F
:100DB00008D14A490839496841F00F01474A083AC1
:100DC00051608AE045491431884208D143490839C5
:100DD000496841F0F001414A083A51607DE03F49DD
:100DE0002831884208D13D490839496841F4706189
:100DF0003A4A083A516070E038493C31884208D19B
:100E000036490839496841F47041344A083A51601A
:100E100063E032495031884208D130490839496885
:100E200041F470212D4A083A516056E02B49643153
:100E3000884208D129490839496841F47001274A94
:100E4000083A516049E025497831884208D1234960
:100E50000839496841F07061204A083A51603CE025
:100E60001F49884206D1011F096841F00F01021F86
:100E7000116032E01A491431884208D11849091F1B
:100E8000096841F0F001164A121F116025E014496B
:100E90002831884208D11249091F096841F470615C
:100EA0000F4A121F116018E00D493C31884208D1E9
:100EB0000B49091F096841F47041094A121F11606A
:100EC0000BE007495031884207D10549091F0968DD
:100ED00041F47021024A121F11607047080002405D
:100EE0000804024010B50022026847F6F0739A43E6
:100EF0000C6A8B6823430C6923434C6923438C6938
:100F00002343CC6923434C6A23438C6A23431A430B
:100F10000260CB6843600B6883604B68C36010BDA0
:100F200070472DE9F04102460025002600200023ED
:100F30000024002791F803C00CF00F0591F803C0BE
:100F40000CF0100CBCF1000F03D091F802C04CEA79
:100F5000050591F800C0BCF1000F31D014680020E5
:100F60002BE04FF0010C0CFA00F3B1F800C00CEAD2
:100F700003069E4220D183004FF00F0C0CFA03F7BA
:100F8000BC4305FA03FC4CEA040491F803C0BCF12D
:100F9000280F06D14FF0010C0CFA00FCC2F814C067
:100FA0000AE091F803C0BCF1480F05D14FF0010CE5
:100FB0000CFA00FCC2F810C0401C0828D1D3146001
:100FC000B1F800C0BCF1FF0F34DD546800202EE002
:100FD00000F1080C4FF0010808FA0CF3B1F800C05A
:100FE0000CEA03069E4221D183004FF00F0C0CFA4D
:100FF00003F7BC4305FA03FC4CEA040491F803C070
:10100000BCF1280F05D100F1080C08FA0CF8C2F861
:10101000148091F803C0BCF1480F07D100F1080C0F
:101020004FF0010808FA0CF8C2F81080401C08289C
:10103000CED35460BDE8F0810246002093680B4097
:101040000BB1012000E00020704741617047016151
:10105000704700BFFEE700BFFEE7704710B50021F4
:101060004FF0006000F062F84FF4A06000F054F818
:1010700026200C490870012048700020887001204B
:10108000C870084600F010F81720064908700220C2
:101090004870002088700120C870084600F004F8ED
:1010A00010BD00000E00002070B5002100230F22AB
:1010B000C47804B3154C246804F4E064C4F5E06417
:1010C000210AC1F10403CA40447804FA03F1847888
:1010D0001440214309010E4C0678A155047804F010
:1010E0001F050124AC4005786D11AD0005F1E02528
:1010F000C5F8004109E0047804F01F050124AC4064
:10110000044D0678761145F8264070BD0CED00E0E0
:1011100000E400E080E100E002490143024A11607E
:10112000704700000000FA050CED00E0024A0A409A
:101130000243024B1A60704780FFFF1F08ED00E07A
:1011400001460020034A506820F4404008435060A4
:10115000704700000010024029B1064A526902435C
:10116000044B5A6104E0034A52698243014B5A61BD
:10117000704700000010024029B1064AD2690243BC
:10118000044BDA6104E0034AD2698243014BDA611D
:10119000704700000010024029B1064A92690243DC
:1011A000044B9A6104E0034A92698243014B9A61BD
:1011B000704700000010024029B1064AD26802437D
:1011C000044BDA6004E0034AD2688243014BDA60E0
:1011D000704700000010024030B5002100220024BA
:1011E00000232D4D6D6805F00C0121B1042905D0B7
:1011F000082923D105E0294D056022E0274D05602F
:101200001FE0254D6D6805F47012234D6D6805F4DF
:101210008034022505EB92421CB9214D55430560EF
:101220000BE01D4D6D6805F400351DB11C4D554397
:10123000056002E0194D5543056002E0174D056059
:1012400000BF00BF144D6D6805F0F0010909154D90
:101250006B5C0568DD4045600F4D6D6805F4E0612D
:10126000090A104D6B5C4568DD4085600A4D6D686C
:1012700005F46051C90A0B4D6B5C4568DD40C560E3
:10128000054D6D6805F44041890B074D6B5CC568E1
:10129000B5FBF3F5056130BD0010024000127A0085
:1012A00000093D00120000202200002010B5024677
:1012B0000023002109E001EB8100074C04EB8000D2
:1012C00030F812000344481CC1B20A29F3DB0A209B
:1012D000B3FBF0F080B210BD8C00002000B587B0E9
:1012E00001210820FFF758FF01218803FFF744FF81
:1012F0004FF46040ADF8040003208DF8060018207C
:101300008DF8070001A91D48FFF70BFE4FF4805030
:10131000ADF8040003208DF8060010208DF80700BA
:1013200001A91648FFF7FDFD4FF480511348FFF760
:101330008EFE0020ADF808004FF48270ADF80A0070
:101340000020ADF80C00ADF80E000120ADF8100043
:101350004002ADF812003820ADF814000020ADF8BE
:1013600016000720ADF8180002A9054800F024F87F
:101370000121034800F006F807B000BD000C014051
:101380000038004021B1028842F04002028004E0AF
:1013900002884FF6BF731A40028070470246002051
:1013A00013890B400BB1012000E00020704701467B
:1013B000888970478181704710B50022028802F445
:1013C00041520B884C8823438C882343CC88234389
:1013D0000C8923434C8923438C892343CC892343A1
:1013E0001A430280838B4FF2FF74234083830B8A5E
:1013F000038210BD70B50446002500BF02210B48D2
:10140000FFF7CCFF0028F9D021460848FFF7D2FFAC
:1014100000BF01210548FFF7C1FF0028F9D00348AC
:10142000FFF7C5FFC5B2284670BD00000038004078
:1014300010B500F001F810BD0CB50020019000902F
:101440003348006840F480303149086000BF3048BC
:10145000006800F4003000900198401C0190009852
:1014600018B90198B0F5A06FF1D12948006800F4CF
:10147000003010B10120009001E0002000900098A1
:10148000012843D12348006840F01000214908603A
:101490000846006820F0070008600846006840F031
:1014A000020008601A4840681949486008464068C8
:1014B00048600846406840F48060486008464068DC
:1014C00020F47C1048600846406840F4E81048600A
:1014D0000846006840F08070086000BF0C48006853
:1014E00000F000700028F9D00948406820F003009F
:1014F000074948600846406840F00200486000BF65
:101500000348406800F00C000828F9D10CBD000029
:10151000001002400020024010B500F0F1FF10BDA5
:1015200010B51348006840F00100114908600846F2
:101530004068104908400E494860084600680E4956
:1015400008400B4908600846006820F480200860C5
:101550000846406820F4FE0048604FF41F00886091
:10156000FFF766FF4FF000600449086010BD0000FF
:10157000001002400000FFF8FFFFF6FE08ED00E05B
:1015800010B500F0C3F800F02BF800F00DF810BD16
:1015900021B1828942F40052828104E082894DF6B1
:1015A000FF731A40828170471FB54FF4E1300090FD
:1015B0000020ADF80400ADF80600ADF80800ADF865
:1015C0000C000C20ADF80A006946044800F032F81F
:1015D00001210248FFF7DCFF1FBD00000038014079
:1015E00008B518208DF803004FF40070ADF8000026
:1015F00003208DF8020069460648FFF792FC04209C
:101600008DF803000002ADF8000069460148FFF7BD
:1016100088FC08BD0008014002460020B1F5007FAB
:1016200000D100BF13880B400BB1012000E0002067
:10163000704700002DE9F04786B005460E460024AD
:10164000A24600BFA1460027B08900B100BF2F46C7
:101650002C8A4CF6FF700440F08804432C82AC893D
:101660004EF6F3100440B08831890843718908436D
:101670000443AC81AC8A4FF6FF400440B089044378
:10168000AC8201A8FFF7A8FD1F48874202D1DDF810
:1016900010A001E0DDF80CA0A88900F4004040B1E2
:1016A0000AEBCA0000EB0A1031684900B0FBF1F800
:1016B00007E00AEBCA0000EB0A1031688900B0FBB2
:1016C000F1F86420B8FBF0F004012009642101FB6B
:1016D0001089A88900F4004040B1322000EBC90015
:1016E000B0FBF1F000F00700044308E0322000EB0B
:1016F00009106421B0FBF1F000F00F0004432C81CD
:1017000006B0BDE8F08700000038014010B50121A7
:101710000520FFF741FD01218803FFF73DFD10BDC6
:10172000C1F308028280704770B505460E4600245A
:1017300000BF0BE0295D0748FFF7F2FF00BF8021E3
:101740000448FFF769FF0028F9D0641CB442F1DBBC
:1017500070BD00000038014000BFFEE70FB4054B2C
:1017600010B503A9044A029800F018F810BC5DF8FF
:1017700014FB0000551900088800002002E008C88A
:10178000121F08C1002AFAD170477047002001E0FB
:1017900001C1121F002AFBD1704700002DE9FF4F45
:1017A0008BB09A460F460546002606E025280BD04A
:1017B00052460D9990476D1C761C28780028F5D16B
:1017C0000FB03046BDE8F08F0024A04601226049EA
:1017D00000E0044315F8013F203B02FA03F0084201
:1017E000F7D128782E2817D115F8010F44F00404FA
:1017F0002A280ED06FF02F022878A0F13001092995
:101800000AD808EB880102EB410100EB01086D1CCE
:10181000F2E757F8048B6D1C287869283ED006DC67
:101820000028CDD063280BD0642804D136E073287B
:1018300010D075284BD052460D999047761C85E004
:1018400017F8040B8DF8000000208DF80100E94620
:10185000012003E057F8049B4FF0FF3061074FF081
:10186000000401D40AE0641C44450DDA8442FADB2A
:1018700019F804100029F6D106E0641C8442FCDB50
:1018800019F804100029F8D1264404E019F8010BD6
:1018900052460D999047641EF8D257E001CF4FF0A1
:1018A0000A0B002802DA40422D2102E0210504D56E
:1018B0002B218DF82410012103E0E10705D0202120
:1018C000F7E70DF1200908910CE00021F9E701CFBD
:1018D0004FF00A0BF9E75946FEF764FD01F13002BB
:1018E00009F8012D0028F6D1ADEB090000F1200B1D
:1018F000600701D44FF00108D84502DDA8EB0B00CA
:1019000000E000208046002406E009A85246005D61
:101910000D999047641C761C08988442F5DB04E01E
:10192000302052460D999047761CB8F10001A8F17D
:101930000108F5DC05E019F8010B52460D999047B6
:10194000761CBBF10001ABF1010BF4DC6D1C34E73C
:101950000928010038B504468DF8000069460320C7
:10196000ABBE204638BD00001CB5FFF7CDF9002204
:101970002021084600F0DEFD3449086030B9C1225C
:10198000334934A0FFF7EAFE00201CBD00222021CD
:10199000084600F0CFFD3C49086030B9C6222C490A
:1019A0002CA0FFF7DBFE0020EFE7002248212020DB
:1019B00000F0C0FD3549086030B9CB22244925A08C
:1019C000FFF7CCFE0020E0E7002004210346B2220E
:1019D000CDE900102EA1374800F060FF012806D0A5
:1019E000D0221B493448FFF7B9FE0020CDE7002084
:1019F00003210346B222CDE9001030A1354800F0A2
:101A00004DFF012806D0D622114933A0FFF7A6FECC
:101A10000020BAE7002003210346B222CDE90010DE
:101A20003BA1434800F03AFF012806D0DB220849D9
:101A300040A0FFF793FE0020A7E700F0D9FCF922B1
:101A400003494CA0FFF78AFE00209EE7000000201B
:101A5000F82C000825732C206174204C696E653ABF
:101A600025642C20785175657565437265617465D0
:101A700020626C655374617475735175657565206A
:101A80006973206572720A000400002008000020BB
:101A90004170705461736B414453313235364D752A
:101AA0006C746950726573734368616E43617074DE
:101AB00075726500650B0008382D00084170705480
:101AC00061736B41444368616E4361707475726504
:101AD00000000000ED09000825732C206174204CE3
:101AE000696E653A25642C20785461736B43726586
:101AF000617465204170705461736B414443686147
:101B00006E43617074757265206572726F0A0000B1
:101B10004170705461736B53656E736F724461747E
:101B20006155706C6F616453657276657200000078
:101B30005D0C000825732C206174204C696E653A99
:101B400025642C20785461736B4372656174652041
:101B50004170705461736B53656E736F724461743E
:101B60006155706C6F616453657276657220657241
:101B7000726F0A0025732C206174204C696E653ADF
:101B800025642C2053797374656D2042535020498D
:101B90006E697420737563636573732100000000C0
:101BA0002DE9F04105460E4626480768264800689C
:101BB000001D00F045FB50B92348006890F82C1038
:101BC0000120884021490968814320480160681C40
:101BD000D8B9D6B11E4948681B49096888601A49B6
:101BE00082680968CA6018490968091D82685160DD
:101BF00015490968091D8160154A134909684A6138
:101C000011460968491C11601AE07C190E480068E9
:101C10004460BC4207D20C480168091D0D480068A9
:101C200000F03BFB0CE008480168091D0A48006809
:101C300000F033FB09480068844201D20748046081
:101C4000BDE8F0813C00002028000020400000207A
:101C500034020020300000202C000020580000201A
:101C600010B5044600F034FB2F480068401C2E4994
:101C700008602E48006840B92C4804600846006897
:101C800001280DD100F072F90AE02948006838B93E
:101C900026480068C06AE16A884201D82348046087
:101CA00024480068401C2349086094F82C10012047
:101CB00088402149096808431F490860E16A01EB2F
:101CC00081011E4A02EB81014868A0608268E260DF
:101CD000211D826851608160E16A01EB8101174A30
:101CE00002EB81026261E16A01EB8101134A52F861
:101CF0002110491CE26A02EB8202104B43F82210C9
:101D000000F0F8FA0A48006868B108480068C06A3C
:101D1000E16A884207D24FF0805009490860BFF35A
:101D20004F8FBFF36F8F10BD3800002028000020B8
:101D300044000020540000204000002080010020CA
:101D400004ED00E010B516E000F0C2FA0C48C068DF
:101D5000C468201D00F074FA0A480068401E094952
:101D6000086009480068401E0749086000F0C2FA90
:101D7000204600F055F8044800680028E4D110BD62
:101D800020020020380000203400002070B50446F6
:101D90000D46206C70B1216CE0680144E160D4E92B
:101DA0000210884201D32168E1602846226CE16874
:101DB000FEF728FA70BD2DE9F04104460F4615469E
:101DC0004FF00008A66B206C28B37DB93946226C11
:101DD0006068FEF717FA216C606808446060D4E917
:101DE0000101884217D32068606014E03946226CF4
:101DF000E068FEF707FA216CE068411AE1602168AB
:101E0000E068884203D2216CA068411AE160022D8B
:101E100001D106B1761E701CA0634046BDE8F0817A
:101E200010B50446206B00F075FA204600F072FAF7
:101E300010BD000030B54FF48843154800F007048A
:101E40002CB1C01D20F00700114C041B1B1B0246C7
:101E5000104C226000240F4D6C60D018083820F020
:101E600007000D4C206000240B4D2D686C600A4D5E
:101E70002D682C601146441A4C60074C24680C6095
:101E8000064D4C682C60064D4C682C6030BD00003F
:101E9000480200206C000020740000207C0000201C
:101EA0007800002000BFFFF74DFF064800680128BA
:101EB000F9D94FF0805004490860BFF34F8FBFF34A
:101EC0006F8FF0E78001002004ED00E02DE9F04184
:101ED00006460D4617469846069C0DB9246000E05C
:101EE0002760E66325640121204600F049FBBDE838
:101EF000F0812DE9FF5F80460E469146DDE90E7ABE
:101F0000109CA9F10100216B01EB800B2BF0070B5A
:101F10007EB1002507E0715D04F134004155705D2C
:101F200000B902E06D1C102DF5D300BF0021432045
:101F30000155052F00D30427E762201D00F0AAF900
:101F400004F1180000F0A6F92461C7F10500A061B2
:101F5000646241465846039A00F060F92060BAF185
:101F6000000F01D0CAF80040BDE8FF9F10B5002463
:101F700007E004EB84010F4A02EB810000F07DF9D9
:101F8000641C052CF5D30C4800F077F90B4800F0E1
:101F900074F90B4800F071F90A4800F06EF90A482C
:101FA00000F06BF9044809490860044808490860D2
:101FB00010BD000080010020E4010020F801002095
:101FC0000C02002020020020340200202C000020FF
:101FD0003000002010B50146164800E00068036894
:101FE0008B42FBD30246436813448B4204D14368BF
:101FF0004C682344436001460A464B681344046816
:10200000A34211D10C4C03682468A34208D04B684A
:102010000468646823444B6003681B680B6005E038
:10202000054B1B680B6001E003680B60884200D021
:10203000016010BD6C0000207400002070B50546E2
:1020400000F046F9A86B08B9012400E0002400F074
:1020500051F9204670BD70B5054600F039F9A86BFE
:10206000E96B884201D1012400E0002400F042F92C
:10207000204670BD09480068006808B9012000E0EA
:10208000002020B14FF0FF300549086005E003480B
:102090000068C06800680249086070472C00002092
:1020A0005800002000BFBF2080F31188BFF34F8F7E
:1020B000BFF36F8F00BF00BFFEE770B5044600F0AE
:1020C00007F994F9455010E0606A08B9012000E072
:1020D000002038B904F1240000F0DCFC18B100F055
:1020E00071F900E003E0681E45B2002DECDC00BF92
:1020F000FF2084F8450000F0FDF800F0E9F894F9BD
:10210000445010E0206908B9012000E0002048B9DF
:1021100004F1100000F0BEFC08B100F053F9681E95
:1021200045B200E001E0002DECDC00BFFF2084F8A8
:10213000440000F0DFF870BD2DE9F04705464FF090
:10214000000900F08BF93048006808B9FFF772FE0B
:1021500075B105F00700C0F11008C8F1FF30A842C2
:1021600001D2012000E0002008B9454400E000252C
:10217000012000EBE570002841D0002D3FD023481E
:10218000006885423BD8224E3046046801E026466E
:1021900024686068A84202D220680028F7D11A4853
:1021A000006884422BD0306800F108092068306054
:1021B0006068401B102807D967196068401B786069
:1021C00065603846FFF706FF104960680968081A1D
:1021D0000E490860084600680E490968884203D223
:1021E0000A4800680B490860606840F00040606081
:1021F0000020206008480068401C0749086000F083
:10220000CDFC4846BDE8F08774000020780000202F
:102210006C0000207C00002080000020001F4FF098
:1022200080730360001F21F001030360001F034B54
:10223000036014380260203870470000A5200008B1
:1022400001460A69D1E901309860D1E9010358607B
:102250005068884201D18868506000200861106889
:10226000401E10601068704770B5044600F030F8EA
:10227000A56B00F03FF8284670BD00F108014160F1
:102280004FF0FF31816000F10801C1600161002160
:102290000160704700210161704710B502460B686C
:1022A0005C1C0CB9106907E002F1080000E040680E
:1022B000446824689C42FAD944684C604C68A16028
:1022C000886041600A611468641C146010BD0000DD
:1022D00000BFBF2080F31188BFF34F8FBFF36F8F14
:1022E00000BF03480068401C0149086070470000B7
:1022F0006800002006480068401E0549086008463E
:10230000006820B9002080F3118800BF00BF70472B
:102310006800002070B506463546E6B1083D2C46FB
:102320006068C00FB8B12068A8B9606820F00040AC
:10233000606000F093F8084960680968084406493D
:1023400008602046FFF746FE04480068401C034929
:10235000086000F023FC70BD78000020840000209D
:1023600000204FF0E02108618861024848610720A1
:10237000086170473F19010070B50446002544B15B
:1023800000F06CF800212046FFF70AFC00F006FC84
:1023900005463DB94FF0805003490860BFF34F8FA9
:1023A000BFF36F8F70BD000004ED00E003490968C2
:1023B0000160034909684160704700005000002037
:1023C0003C00002001200149086070474C000020BB
:1023D00070B505460C460548016818312846FFF7D8
:1023E0005CFF01212046FFF7DBFB70BD28000020C9
:1023F0001CB5124800210B468022CDE9001010A127
:10240000114800F04BFA0446012C14D100BFBF2044
:1024100080F31188BFF34F8FBFF36F8F00BF4FF072
:10242000FF300A4908600120094908600020094975
:10243000086000F04BF8084800681CBD5C000020F4
:1024400049444C4500000000A51E0008580000202B
:10245000440000203C00002060000020024800688A
:10246000401C014908607047640000201248006861
:1024700018B10120114908601DE000200F490860D3
:102480000F480068B0FA80F0C0F11F0101EB810233
:102490000C4B03EB820042685268426000F1080274
:1024A0004368934202D14268526842604268D268EF
:1024B000054B1A6000BF7047640000204C000020EC
:1024C00040000020800100202800002010B50A48AC
:1024D000006840F47F00084908600846006840F042
:1024E0007F400860FFF73CFF002004490860FDF7CB
:1024F0003DFE002010BD000020ED00E0680000203F
:1025000010B500BFBF2080F31188BFF34F8FBFF31A
:102510006F8F00BF00F0F6F918B14FF080500449FA
:10252000086000BF002080F3118800BF10BD0000CC
:1025300004ED00E02DE9F84304460E461746002559
:10254000DCB1681EB0FBF4F0B04216D304FB06F019
:1025500010F1490F11D804FB06F909F14800FFF703
:10256000EBFD05464DB1A84608F148083B464246FA
:10257000314620460095FFF7A9FC2846BDE8F883C0
:102580002DE9F04105460E4601272C46002C41D08E
:10259000E06B00283ED0B91EE06BB1FBF0F0216C7F
:1025A000884237D3FFF794FED4E90F12206801FB6D
:1025B0000200A0600020A06320686060E06B401E05
:1025C000226C216800FB0211E160FF2084F84400C6
:1025D00084F845009EB9206908B9012000E0002078
:1025E000A8B904F1100000F055FA80B14FF0805006
:1025F0000A490860BFF34F8FBFF36F8F07E004F104
:102600001000FFF73AFE04F12400FFF736FEFFF753
:1026100071FE00E000273846BDE8F08104ED00E0DF
:102620002DE9FF4383B0074688461D464FF0000959
:102630003C4600BFFFF74CFEA06BE16B884201D324
:10264000022D28D12A4641462046FFF7B4FB064614
:10265000606A08B9012000E0002068B904F1240094
:1026600000F018FA88B14FF0805032490860BFF38B
:102670004F8FBFF36F8F08E03EB14FF080502D4970
:102680000860BFF34F8FBFF36F8FFFF733FE01205A
:1026900007B0BDE8F083059818B9FFF72BFE0020BE
:1026A000F6E7B9F1000F04D101A8FFF77FFE4FF064
:1026B0000109FFF71FFEFFF7D1FEFFF709FE94F9AE
:1026C0004400401C10B9002084F8440094F94500EF
:1026D000401C10B9002084F84500FFF70BFE05A947
:1026E00001A800F0ABF8F0B92046FFF7B4FCA0B1A8
:1026F00004F110000599FFF76BFE2046FFF7DDFCA3
:1027000000F04CFA002895D14FF08050094908603C
:10271000BFF34F8FBFF36F8F8CE72046FFF7CDFCE1
:1027200000F03CFA86E72046FFF7C7FC00F036FAD7
:102730000020ADE704ED00E02DE9F74183B0054648
:102740000F464FF000082C4600BFFFF7C1FDA66BF7
:10275000F6B139462046FFF719FB701EA0632069C9
:1027600008B9012000E0002060B904F1100000F079
:1027700091F938B14FF080502F490860BFF34F8F67
:10278000BFF36F8FFFF7B6FD012006B0BDE8F08103
:10279000059818B9FFF7AEFD0020F6E7B8F1000F75
:1027A00004D101A8FFF702FE4FF00108FFF7A2FDD8
:1027B000FFF754FEFFF78CFD94F94400401C10B95C
:1027C000002084F8440094F94500401C10B9002012
:1027D00084F84500FFF78EFD05A901A800F02EF84A
:1027E000F0B92046FFF72AFCA0B104F124000599B6
:1027F000FFF7EEFD2046FFF760FC00F0CFF9002860
:10280000A3D14FF080500C490860BFF34F8FBFF346
:102810006F8F9AE72046FFF750FC00F0BFF994E76E
:102820002046FFF74AFC00F0B9F92046FFF706FC06
:1028300000288AD00020A8E704ED00E070B5064625
:102840000C46FFF745FD134802687068131A2068AC
:10285000401C08B9002519E00F4930680968884212
:1028600006D07068904203D80125002020600DE05A
:102870002068984207D92068C01A20603046FFF7C8
:1028800095FD002502E0002020600125FFF732FDC4
:10289000284670BD3C000020500000202DE9FF4F6D
:1028A00085B0804689461746DDE912ABB800FFF7D0
:1028B00043FC064676B14C20FFF73EFC04462CB1A3
:1028C0004C212046FDF7B7FC266304E03046FFF7B5
:1028D00021FD00E000247CB10020CDE900ABCDE972
:1028E00002403A4649464046089BFFF702FB204615
:1028F000FFF7B6F9012501E04FF0FF35284609B092
:10290000BDE8F08F2DE9F041002757480068002806
:102910007ED156480068451C544805608DB954481E
:10292000D0F8008053480068514908605148C0F809
:10293000008051480068401C4F490860FFF79AFB2F
:1029400000BF4E480068854276D300BF4848006803
:10295000006808B9012000E0002020B14FF0FF30EE
:102960004649086067E042480068C068C468666815
:10297000B54202D2414806605DE06069D4E90212C6
:102980008A60D4E902214A60211D42688A4201D14D
:10299000E1684160002262610168491E0160A06A2D
:1029A00098B1A06AD4E907128A60D4E907214A6085
:1029B00004F1180142688A4201D1216A4160002273
:1029C000A2620168491E016000BF94F82C1001202A
:1029D00088402B490968084329490860E16A01EBEE
:1029E0008101284A02EB81014868A0608268E260A8
:1029F000211D826851608160E16A01EB8101214AF9
:102A000002EB81026261E16A01EB81011D4A00E093
:102A100022E052F82110491CE26A02EB8202194BB3
:102A200043F822101849E06A0968C96A88428DD9BA
:102A300001278BE700E000BF13480068C06A00EB85
:102A40008000104951F82000012800D901270F48C3
:102A5000006800B1012704E00D480068401C0C49E3
:102A600008603846BDE8F081640000203C0000208A
:102A70002C000020300000205000002058000020D2
:102A80004000002080010020280000204C00002091
:102A90004800002070B50346D868C168886AD1E94B
:102AA0000745A560D1E90754656001F11804456840
:102AB000A54201D10C6A446000258D620468641E41
:102AC00004603048006800283DD14869D1E90245DA
:102AD000A560D1E9025465600C1D4568A54201D18D
:102AE000CC68446000254D610468641E046091F860
:102AF0002C400120A040244C24682043224C20601C
:102B0000CC6A04EB8404214D05EB84046068886082
:102B10008568CD600C1D85686C608460CC6A04EBB0
:102B200084041A4D05EB84054D61CC6A04EB8404E2
:102B3000164D55F82440641CCD6A05EB8505134EEF
:102B400046F8254010E0124C6068C86185680D6247
:102B500001F1180485686C6084600D4D8D622C460F
:102B60002468641C2C6000BF0A4CC86A2468E46AAC
:102B7000A04204D901220120074C206000E000227D
:102B8000104670BD6400002040000020800100203D
:102B90000C020020280000204C00002070B500240A
:102BA0000026FFF795FB4B480068401E4949086026
:102BB0000846006800287DD147480068002879D081
:102BC0005BE04648C068C468A06AD4E907128A601E
:102BD000D4E907214A6004F1180142688A4201D110
:102BE000216A41600022A2620168491E0160606999
:102BF000D4E902128A60D4E902214A60211D4268A8
:102C00008A4201D1E1684160002262610168491E87
:102C1000016094F82C10012088403149096808436C
:102C20002F490860E16A01EB81012E4A02EB810124
:102C30004868A0608268E260211D826851608160FE
:102C4000E16A01EB8101274A02EB81026261E16ADC
:102C500001EB8101234A52F82110491CE26A02EB80
:102C60008202204B43F822101F49E06A0968C96AB2
:102C7000884202D301201D4908601848006808B93D
:102C8000012000E0002000289BD00CB1FFF7F2F9F2
:102C90001748056865B100BFFFF734FE10B1012089
:102CA000124908606D1E002DF6D100201049086001
:102CB0000E4800E009E0006838B1012630070D49F0
:102CC0000860BFF34F8FBFF36F8FFFF713FB3046E2
:102CD00070BD000064000020380000200C020020BD
:102CE0004000002080010020280000204C0000202F
:102CF0004800002004ED00E06D61696E00417070D5
:102D00005461736B414453313235364D756C74697F
:102D100050726573734368616E4361707475726558
:102D2000004170705461736B41444368616E43614C
:102D3000707475726500000025732C206174204C3E
:102D4000696E653A25642C20785461736B43726513
:102D5000617465204170705461736B41445331322A
:102D600035364D756C74694368616E436170747576
:102D70007265206572726F0A000000009C2D0008C9
:102D8000000000208C0000007C170008282E00089E
:102D90008C000020BC4900008C17000800000000D7
:102DA0000000000000000000000000000000000023
:102DB00000000102030401020304060708090204DB
:102DC00006080000000000000000000000000000F5
:102DD00000000000000000000000000000000000F3
:102DE00000000000000000000000000000000000E3
:102DF00000000000000000000000000004000000CF
:102E000000000000AAAAAAAA00000000000000001A
:102E100000000000000000000000000000000000B2
:082E20000000000000000000AA
:0400000508000131BD
:00000001FF
