:020000040800F2
:1000000040760120E1010008A31B0008991B0008AD
:100010009F1B0008B116000803350008000000000F
:10002000000000000000000000000000490100087E
:10003000B5180008000000008D010008212F0008FD
:10004000FB010008FB010008FB010008FB010008A0
:10005000FB010008FB010008FB010008FB01000890
:10006000FB010008FB010008FB010008FB01000880
:10007000FB010008FB010008FB010008FB01000870
:10008000FB010008FB010008FD080008FB01000857
:10009000FB010008FB010008FB010008B91800087B
:1000A000FB010008FB010008FB010008FB01000840
:1000B000FB010008FB010008892F0008FB01000874
:1000C000FB010008FB010008FB010008FB01000820
:1000D000FB0100080D3100086D310008FB0100082C
:1000E000FB010008FB010008FB010008FB01000800
:1000F000FB010008FB010008FB010008FB010008F0
:10010000FB010008FB010008FB010008FB010008DF
:10011000FB010008FB010008FB010008FB010008CF
:10012000FB010008FB010008FB010008FB010008BF
:10013000DFF810D000F090FB00480047016E000887
:10014000AFF3008040760120224B19680868B0E8C0
:10015000F00F80F30988BFF36F8F4FF0000080F33A
:1001600011884EF00D0E7047000000000648006830
:10017000006880F3088862B661B6BFF34F8FBFF3A3
:100180006F8F00DF00BF00BF08ED00E0EFF30980D4
:10019000BFF36F8F0F4B1A6820E9F00F106008B59E
:1001A0004FF0BF0080F31188BFF34F8FBFF36F8F05
:1001B00009F04CFC4FF0000080F31188BDE80840C6
:1001C00019680868B0E8F00F80F30988BFF36F8FF3
:1001D000704700BFB40F0020EFF3058070470000A8
:1001E0000648804706480047FEE7FEE7FEE7FEE7D1
:1001F000FEE7FEE7FEE7FEE7FEE7FEE7292F000841
:100200003101000840EA01039B0703D009E008C957
:10021000121F08C0042AFAD203E011F8013B00F8CB
:10022000013B521EF9D27047D2B201E000F8012B17
:10023000491EFBD270470022F6E710B513460A4666
:1002400004461946FFF7F0FF204610BD421C10F887
:10025000011B0029FBD1801A70472DE9FE4F804613
:1002600081EA0300C00F0C46009021F0004123F00A
:100270000045B8EB0200A94105D240462146904610
:100280001C460B46024623F00040104347D0270D82
:10029000C7F30A00C3F30A510290401A01904028A4
:1002A0006BDAC3F3130040F4801B0098924620B130
:1002B0000023D2EB030A63EB0B0B01985946C0F104
:1002C0004002504600F0E3F906460D4650465946B6
:1002D000019A00F0EBF910EB08006141002487EA75
:1002E000115284EAE7731A4340D0009A62B3019A2C
:1002F000012A4FEA075215DC001B61EB02014FF0A7
:10030000004202EA0752CDE90042001C41F580118B
:1003100032462B4600F022FA03B0BDE8F08F40468B
:100320002146F9E7001B61EB0201001C41F5801337
:1003300000185B412018A2F5001747EB030140EAC3
:10034000D570B6196D4111E06D084FEA360645EAE1
:10035000C0754FEA0752001B61EB0201001C41F51A
:10036000801149084FEA30000019514132462B46AE
:1003700003B0BDE8F04F00F0E2B900980122400060
:100380000023D0EB020263EBE073009821464FEAB2
:10039000E074B8EB000061EB0401E9E783F000438F
:1003A0005BE781F0004158E72DE9FE4F81EA030445
:1003B00004F0004421F0004100944FF0000B23F0C2
:1003C000004350EA01045ED052EA03045BD0C3F359
:1003D0000A54C1F30A552C44A4F2F3340194A0FB4F
:1003E0000254C1F3130141F48011C3F3130343F426
:1003F000801301FB024400FB034E840A970A44EA7F
:10040000815447EA8357A4FB076802958D0A05FBD0
:1004100007854FEA932C04FB0C542705029D4FEAF5
:10042000065847EA1637B5EB08056EEB070C870E42
:10043000920E47EA811742EA8312A7FB0201B6EB4C
:100440000B0164EB00042B0D43EA0C335E1844EB04
:100450001C50DA465146E7FB0201C5F313044FEA8C
:100460000B3343EA14534FEA0432019C43EA060378
:10047000A4F10C040294009CCDE900B400F06EF9E4
:1004800003B0BDE8F08F00200146F9E72DE9F04DFB
:1004900081EA030404F0004B21F0004514464FF0BC
:1004A000000A23F0004150EA050220D054EA01027C
:1004B0001DD0C5F30A570246C5F31303C1F3130059
:1004C000C1F30A5640F4801543F48013A7EB0608E5
:1004D000101BD64608F2FD3873EB050002D308F175
:1004E000010801E092185B41B8F1000F03DA002027
:1004F0000146BDE8F08D00204FF480110646844689
:100500000EE0171B73EB050705D3121B63EB050306
:1005100006434CEA010C49084FEA300092185B414F
:1005200050EA0107EDD152EA030012D082EA04003A
:1005300083EA0501084305D0101BAB4106D2012216
:10054000002306E000224FF0004302E06FF00102BA
:1005500053101AEB06004CEB085110EB0A0041EB6C
:100560000B01BDE8F04D00F0EAB80EB5C10F80EA0E
:10057000E0700844CA07002140F233438DE80E00C2
:100580000A460B4600F0EAF803B000BD00F0004256
:1005900030F000400AD0C10D01F56071C0F31600C3
:1005A00042EA0151C208400711437047002001464A
:1005B000704701F0004330B421F0004150EA0102DD
:1005C00006D00A0DA2F56072C1F31301002A02DC05
:1005D00030BC00207047440F44EAC104C100E01859
:1005E00030BC00EBC25000F073B80000002801DB03
:1005F000C0F10040002901DBC1F100418142704798
:1006000030B50B46014600202022012409E021FAE2
:1006100002F59D4205D303FA02F5491B04FA02F5DF
:100620002844151EA2F10102F1DC30BD2DE9F05F76
:100630000546002092469B46884606468146402451
:100640001BE0284641464746224600F017F953462C
:100650005A46C01A914110D311461846224600F05E
:1006600016F82D1A67EB01084F462246012000219B
:1006700000F00DF817EB00094E41201EA4F1010413
:10068000DFDC484631462A464346BDE8F09F202A33
:1006900004DB203A00FA02F1002070479140C2F1D9
:1006A000200320FA03F3194390407047202A06DB09
:1006B000CB17203A41FA02F043EAE07306E041FA30
:1006C00002F3D040C2F1200291400843194670471E
:1006D0000029A8BF7047401C490008BF20F0010056
:1006E000704710B4B0FA80FC00FA0CF050EA010434
:1006F00004BF10BC704749B1CCF1200421FA04F4C6
:1007000011FA0CF118BF012121430843A3EB0C019E
:10071000CB1D4FEA00614FEA102042BF002010BC01
:10072000704700EBC35010440029A4BF10BC7047B1
:10073000401C490008BF20F0010010BC704710B5F4
:10074000141E73F1000408DA401C41F100019218F4
:100750005B411A4301D120F0010010BD2DE9F04D9D
:1007600092469B4611B1B1FA81F202E0B0FA80F2F2
:1007700020329046FFF78BFF04460F4640EA0A00FE
:1007800041EA0B0153465A46084313D0114653EA37
:10079000010019D0C8F14002504600F06FF805463C
:1007A0000E46504659464246FFF771FF084305D0B2
:1007B000012004E020463946BDE8F08D00200543C5
:1007C00046EAE0762C4337430A986305E40AA0EB37
:1007D00008000022FD0A44EA47540A3002D50020EE
:1007E0000146E9E7010510196941DDE908450019ED
:1007F0006941BDE8F04DA2E7C1F30A52C1F313010C
:1008000040F2FF3341F480119A4202DA002001469F
:10081000704740F233439A42A2F2334202DC524222
:1008200000F02CB8FFF733BF30B5041E71F100049F
:1008300004DB4FF00044404264EB0101141E73F1ED
:10084000000405DB1C464FF00043524263EB0403F7
:10085000994208BF904230BD064C074D06E0E06863
:1008600040F0010394E8070098471034AC42F6D3F7
:10087000FFF762FCFC5603081C570308202A04DB20
:10088000203A21FA02F00021704721FA02F3D04009
:10089000C2F12002914008431946704770B58D1887
:1008A00010F8014B14F0030201D110F8012B2311B1
:1008B00006D110F8013B03E010F8016B01F8016B61
:1008C000521EF9D1ABB110F8012B04F00C048A1AB6
:1008D0000C2C03D0A2EB84129B1C08E010F8014BF7
:1008E000A2EB0422F8E712F8014B01F8014B5B1E62
:1008F000F9D5A942D4D3002070BD000010B503483B
:1009000000F056F80249088010BD000000280140A0
:100910002402002021B1826842F00102826003E0DB
:10092000826822F001028260704721B1826842F43D
:100930008072826003E0826822F480728260704775
:1009400010B504461248844208D10121401501F037
:10095000B1FB0021601501F0ADFB17E00D488442AA
:1009600008D10121001501F0A5FB0021201501F09F
:10097000A1FB0BE00848844208D10121C80301F023
:1009800099FB00214FF4004001F094FB10BD0000E2
:100990000024014000280140003C014001460020A5
:1009A0008A6802F004020AB1012000E000207047CA
:1009B0000146C86C80B27047014600208A6802F088
:1009C00008020AB1012000E00020704730B502465D
:1009D0000020002350680F4C20400D790C6844EA39
:1009E00005242043506090680B4C2040D1E902540C
:1009F0002C434D7944EA450420439060D06A20F4AA
:100A000070000C7C641EE4B2234340EA0350D062C1
:100A100030BD0000FFFEF0FFFDF7F1FF00B587B02D
:100A200001214FF4017001F035FB4FF4004001F05B
:100A3000F5FA0220ADF8040000208DF8070001A9A6
:100A4000204800F0D1FF00F041FE1F48FFF778FF7B
:100A50000020029001208DF80C008DF80D004FF45D
:100A6000602004900020059001208DF8180002A954
:100A70001548FFF7ABFF072301221146124800F08B
:100A800025F801211048FFF750FF01210E48FFF71C
:100A900041FF0D4800F076F800BF0B48FFF78CFFD0
:100AA0000028FAD1084800F07DF800BF0648FFF79B
:100AB00075FF0028FAD10121034800F068F807B05B
:100AC00000BD00000008014000240140F0B50446CC
:100AD0000D4600200021092D11DDE068A5F10A0670
:100AE00006EB4607072606FA07F18843A5F10A0632
:100AF00006EB460603FA06F10843E0600CE02069C5
:100B000005EB4507072606FA07F1884305EB45067E
:100B100003FA06F108432061072A0FDA606B561EBC
:100B200006EB86071F2606FA07F18843561E06EBDA
:100B3000860605FA06F10843606322E00D2A0FDA03
:100B4000206BD61F06EB86071F2606FA07F188439F
:100B5000D61F06EB860605FA06F10843206310E06F
:100B6000E06AA2F10D0606EB86071F2606FA07F1DA
:100B70008843A2F10D0606EB860605FA06F1084346
:100B8000E062F0BD816841F008018160704721B1E9
:100B9000826842F4A002826003E0826822F4A0022C
:100BA00082607047816841F00401816070470000F5
:100BB0008AB0002008900790069051E0002001F0D4
:100BC0003BFB0446C11700EB11510813FFF7CDFCA6
:100BD00007464FF06632234BFFF7E6FB0546FFF76B
:100BE000E8FC08900898FFF7D1FC04464FF0663205
:100BF0001D4BFFF7D9FBCDE902010898FFF7C6FCB2
:100C000004460D460898FFF7C1FC8046174A184B6A
:100C1000FFF7CAFB064622462B46FFF7C5FBCDE988
:100C20000001DDE90223FFF718FB4FF03332114BCF
:100C3000CDE90401FFF711FB8246FFF7BAFC0790EC
:100C40000D490798FFF7D2FC03D2012001F0D6F935
:100C500002E0002001F0D2F94FF47A7008F012FEA1
:100C6000ACE7000066660A4066464E40C3F5285C65
:100C70008F82414033B33240000020C288B000BFB1
:100C800099E04D48007800287CD04C480078FF2837
:100C90001AD14A484078FB287CD14848407801283E
:100CA00013D1FF208DF80000FB208DF80100FF20FC
:100CB0008DF80E00FE208DF80F0001208DF8020047
:100CC0001021684601F08CF864E03C4880780228E6
:100CD0002BD1FF208DF80000FB208DF80100FF20B4
:100CE0008DF80E00FE208DF80F0002208DF8020016
:100CF000334801F033FE18B1324801F02FFE18B925
:100D00002E48C01C01F0C0FA1021684601F068F8B6
:100D10004FF47A7008F0B6FD012001F017F800F0EA
:100D200061FF29A002F0F0FB34E02448807803281A
:100D300029D1FF208DF80000FB208DF80100FF2055
:100D40008DF80E00FE208DF80F0003208DF80200B4
:100D50001B4801F091FA1B4801F08EFA4FF47A70AB
:100D600008F090FD002000F0F1FF00F04FFF1EA002
:100D700002F0CAFB00231A4619462348006808F00F
:100D80006FFF07E014E00D488078042802D10020AE
:100D900000F0DCFF0020084908700848FFF756FA09
:100DA000044621460548FFF746FA00201749088007
:100DB000642008F067FD64E72C060020381000204E
:100DC00090130020B8150020525820737973746571
:100DD0006D2073656E6420737461727420746F206B
:100DE0005458206465760A005258207379737465EC
:100DF0006D207472616E736D69742064617461201A
:100E0000746F2050430A0000100200202E060020BC
:100E10008CB000BF00270024A3460026A046002077
:100E20000B9081460025824666E0242102A8FFF748
:100E300002FA4FF0FF3202A93048006808F09CFF28
:100E4000012858D10DF1080A9DF828502C4908684E
:100E50004FF0FF3109F012F82948C789048AD0F809
:100E60000490468AA74201DD381B01E0B819001B37
:100E70001FFA80FB5D4512DD2B4640F24D222149D1
:100E800021A0009602F040FB1D4900231A46086885
:100E9000194608F0E5FE012008F0F4FC2CE060198A
:100EA000B04206DC09EB04002A465146FFF7AAF9D6
:100EB00012E0301B1FFA80F8A5EB080080B20B90FF
:100EC00009EB040042465146FFF79CF90AEB080182
:100ED00048460B9AFFF796F9601990FBF6F106FB6E
:100EE000110081B206480182014600231A460868B3
:100EF000194608F0B5FE00BF97E700001402002075
:100F00001810002023A6000825732C206174204CA3
:100F1000696E653A25642C2073706163652069737E
:100F2000206E756C6C202C20726563764C656E3A71
:100F300025642C20746F74616C4C656E3A256400D6
:100F40008AB00024242101A8FFF775F900BF5DE0F5
:100F5000072000F0CBFE044604F0400090B3602070
:100F600000F0C4FE8DF824009DF8242001A9612022
:100F700000F09AFE2146072000F082FF00F032FECA
:100F80000023012201A92248006808F069FE012817
:100F90003CD02048006896280ED11D48006808F013
:100FA000E9FB05462B464FF402721B491B4802F031
:100FB000ABFA00201749086016480068401C154924
:100FC000086023E0FFE704F0100058B12146072035
:100FD00000F056FF00F01AFE012000F0B7FE00F00E
:100FE00001FE13E004F0200048B12146072000F084
:100FF00047FF00F00BFE012000F0A8FE06E02146AE
:10100000072000F03DFF012008F03CFCA0E70000B5
:10101000140200201C02002005A600084C530308FF
:10102000EAB000206990689080466790002400270D
:101030006690659000268246834664906390629035
:101040000025619060905F905E905D9000BF5C9025
:101050005B9081465A90599058905790569000BF97
:10106000642129A8FFF7E7F800BF00BFD9E2FE49D5
:1010700008684FF0FF3108F001FFFB48008A6690D6
:10108000F948C78940686290F7488569806861902F
:10109000F548B0F812A06698B84202DB6698C01B0B
:1010A00002E066985044C01B86B2EF48B0F80CB01E
:1010B00056B9014600231A460868194608F0D0FDC3
:1010C000012008F0DFFBACE2B819504507DC629A5A
:1010D000D11905EB0B003246FFF794F815E0AAEBA7
:1010E000070080B26490649806466390629AD119B2
:1010F00005EB0B00649AFFF785F805EB0B01649E86
:101100008819639A6299FFF77DF8B81990FBFAF194
:101110000AFB110081B2D448C181D4480068642818
:1011200002D10020D1490860D0480068401CCF4956
:101130000860CD4900231A460868194608F090FD5A
:1011400006EB0B0086B2042E75DB002462E2285DFC
:10115000FF2803D1601C285CBB2800D058E2A01CEB
:10116000284400886590BDF894010006000CBDF885
:10117000941140EA11206590BDF89401002805DB28
:10118000BDF8940140F2DC51884200DD40E2BDF838
:1011900094012044801DB0427EDC28190022BDF855
:1011A0009411091D02F0EEFE5E90201DBDF8941111
:1011B0000844284400885F90BDF87C010006000CBC
:1011C000BDF87C1140EA11205F90BDF87C115E985B
:1011D00081420FD0BDF87C010090BDF894212146DA
:1011E000A3A05E9B02F090F9BDF894012044401D3D
:1011F00084B20DE29D480068642802D100209B491A
:101200000860BDF89401801D82B22946A74802F00B
:1012100060F996480068401C94490860642129A838
:10122000FFF709F8A879022877D105F10F0060903F
:101230004FF000088EE0F1E1609800EB8800006854
:101240005D90DDF8749109F4000038B16FEA090986
:10125000C9F3160909F10109C9F100094846FFF768
:1012600084F90022924BCDE90A01FFF79DF85591D0
:10127000549048AB679A03EBC2025599549803C245
:101280006798401C80B26790679806285ED1539992
:101290005298CDE90A0100E0AAE151995098CDE9B0
:1012A00008014F994E98CDE906014D994C98CDE92A
:1012B00004014B994A98CDE9020149994898CDE932
:1012C00000017CA129A8699A02F02EF94FF4FA7165
:1012D0006998B0FBF1F201FB120008B901205C90A3
:1012E0005698B0F1C87F19DB7D4800F0C5FF5A98C9
:1012F000401C5A907BA17DA25A98824BCDE90020D8
:10130000029181A281A11CA802F00EF91CA97448C7
:1013100001F084F80020569012E027E029A8FEF79B
:1013200095FF0C900222014629A85C9B01F086F8EB
:1013300029A8FEF78BFF5890589956980844569064
:101340006998401C699000205C90679008F101004A
:1013500000F0FF08BDF89411A1F10B00C11700EBDC
:101360009171B8EBA10FFFF667AF32E1A8790128C0
:10137000FBD105F10F0060904FF0000820E108EB71
:101380004801609800EB410001680D918088ADF83C
:101390003800BDF93410B1F5006F05DBBDF834102D
:1013A000A1F5805109B201E0BDF934100846FFF7FC
:1013B000DCF84391429043994298574A574BCDE904
:1013C0000A01FFF763F843914290BDF93610B1F579
:1013D000006F05DBBDF83610A1F5805109B201E0C0
:1013E000BDF936100846FFF7C0F84591449045997D
:1013F0004498494A494BCDE90A01FFF747F845911E
:101400004490BDF93810B1F5006F05DBBDF8381018
:10141000A1F5805109B201E0BDF938100846FFF787
:10142000A4F847914690479946983B4A3B4BCDE9F3
:101430000A01FFF72BF84791469047994698CDE966
:10144000040145994498CDE9020143994298CDE9B8
:10145000000133A129A8689A02F066F84FF47A7166
:101460006898B0FBF1F26BE0181000202002002019
:101470006964783A25642C207061636B4C656E3A20
:1014800025642C204352432063616C2076616C7587
:10149000653A253034782C206372632076616C7550
:1014A00065203A253034780A0000000000440040EE
:1014B000D012E33F73747261696E2025642C20257D
:1014C0002E336620252E336620252E336620252ECA
:1014D000336620252E336620252E33660A00000051
:1014E000B81500202E747874000000005F737472C9
:1014F00061696E5361766546696C655F706172748F
:101500005F000000E0170020303A000025732573CB
:1015100025732564257300009D11A5BDC197234047
:10152000766962726174696F6E2025642C20252EA5
:10153000336620252E336620252E33660A000000F0
:1015400001FB120008B901205B905798B0F1487F69
:101550001BDB344800F090FE5998401C5990AFF2C4
:101560007C0131A25998354BCDE900200291AFF2B0
:101570006802AFF268010FA801F0D6FF0FA9294851
:1015800000F04CFF0020579011E029A8FEF75EFE06
:101590000C900122014629A85B9B00F04FFF29A86F
:1015A000FEF754FE589058995798084457906898F9
:1015B000401C689000205B9008F1010000F0FF08DB
:1015C000BDF894010B38062190FBF1F040453FF740
:1015D000D6AEBDF894012044801D301A81B218485F
:1015E0008181BDF89401801D2044401E84B20EE02C
:1015F000321B29196198FEF705FE321B28466199B6
:10160000FEF700FE301B81B20D48818108E000BF6B
:10161000601C84B2B442FFF69AAD00E001E000BF66
:1016200000BF24E5901300205F6164786C536176FD
:101630006546696C655F706172745F00E017002039
:101640001810002010B500F0B7F900F061FCFFF7AA
:10165000E5F901F0BBFD03F055FA03F0CBFA00F019
:10166000E9FA00F027FC00F09FFD00F073FE5B221A
:10167000024903A001F048FF10BD000041A6000888
:1016800025732C206174204C696E653A25642C20EA
:1016900052582053797374656D2042535020496E1F
:1016A00069742073756363657373210A0000000019
:1016B00000BFFEE721B1026842F00102026004E0CF
:1016C00002684FF6FE731A400260704710B50121A0
:1016D000084600F0AFFC114800F028F81048114906
:1016E000086011484860002088600A20C860002017
:1016F000086180204861400088618000C861202026
:1017000008620002486200208862044800F0B4F8D1
:1017100001210248FFF7CEFF10BD00000800024083
:101720004C240140341100202011002001684FF6A4
:10173000FE72114001600021016041608160C16062
:101740004B49884208D14A490839496841F00F019C
:10175000474A083A51608AE045491431884208D125
:1017600043490839496841F0F001414A083A51605B
:101770007DE03F492831884208D13D490839496810
:1017800041F470613A4A083A516070E038493C319E
:10179000884208D136490839496841F47041344AD1
:1017A000083A516063E032495031884208D13049EB
:1017B0000839496841F470212D4A083A516056E0D1
:1017C0002B496431884208D129490839496841F4D4
:1017D0007001274A083A516049E02549783188422A
:1017E00008D123490839496841F07061204A083A14
:1017F00051603CE01F49884206D1011F096841F051
:101800000F01021F116032E01A491431884208D1D9
:101810001849091F096841F0F001164A121F1160AA
:1018200025E014492831884208D11249091F096866
:1018300041F470610F4A121F116018E00D493C31EC
:10184000884208D10B49091F096841F47041094ACF
:10185000121F11600BE007495031884207D105493A
:10186000091F096841F47021024A121F1160704774
:10187000080002400804024010B50022026847F642
:10188000F0739A430C6A8B6823430C6923434C69B9
:1018900023438C692343CC6923434C6A23438C6ADA
:1018A00023431A430260CB6843600B6883604B6834
:1018B000C36010BD7047000030B589B000242421FA
:1018C0006846FEF7B8FC0025402000F061F80028CB
:1018D00047D038E0072000F009FA044604F0400041
:1018E00088B1602000F002FA8DF820009DF82020D9
:1018F0006946612000F0D8F92146072000F0C0FABF
:1019000000F070F91FE004F0100058B121460720E4
:1019100000F0B6FA00F07AF9012000F017FA00F0B2
:1019200061F910E004F0200048B12146072000F0E2
:10193000A7FA00F06BF9012000F008FA03E0214655
:10194000072000F09DFA0D48006800F04000402894
:1019500001D0012000E000200028BBD1402000F091
:1019600011F800BF3DB14FF0805005490860BFF34A
:101970004F8FBFF36F8F00BF09B030BD080C01401F
:1019800004ED00E0014908607047000014040140C4
:10199000014600200022074B1B6803EA0102054BA9
:1019A00014331B680B4013B10AB1012000E0002082
:1019B000704700000004014010B50121212000F013
:1019C00069FB0420064908801820C870032088702D
:1019D000044800F009F8002000F010FB10BD0000E2
:1019E000340A0020001401402DE9F0410246002590
:1019F0000026002000230024002791F803C00CF0EB
:101A00000F0591F803C00CF0100CBCF1000F03D0CF
:101A100091F802C04CEA050591F800C0BCF1000F36
:101A200031D0146800202BE04FF0010C0CFA00F3C9
:101A3000B1F800C00CEA03069E4220D183004FF0AB
:101A40000F0C0CFA03F7BC4305FA03FC4CEA040440
:101A500091F803C0BCF1280F06D14FF0010C0CFA2D
:101A600000FCC2F814C00AE091F803C0BCF1480FB2
:101A700005D14FF0010C0CFA00FCC2F810C0401C5C
:101A80000828D1D31460B1F800C0BCF1FF0F34DDD9
:101A9000546800202EE000F1080C4FF0010808FA0D
:101AA0000CF3B1F800C00CEA03069E4221D183007A
:101AB0004FF00F0C0CFA03F7BC4305FA03FC4CEA99
:101AC000040491F803C0BCF1280F05D100F1080C03
:101AD00008FA0CF8C2F8148091F803C0BCF1480F62
:101AE00007D100F1080C4FF0010808FA0CF8C2F811
:101AF0001080401C0828CED35460BDE8F08100005F
:101B0000F0B50A46002300240021002500F000461D
:101B1000B6F1004F02D11D4EF16901E01B4E716814
:101B2000C0F3034583B200F44016B6F5401F08D158
:101B300021F07061154E766826F07066134F7E6056
:101B400012E000F48016B6F5801F06D1032606FACF
:101B500005F4A14341F0706106E0460D360103FA39
:101B600006F6B14341F0706122B1460D360103FA29
:101B700006F6314300F00046B6F1004F02D1034EA5
:101B8000F16101E0014E7160F0BD00000000014014
:101B9000416170470161704700E001BEFDE700BF91
:101BA000FEE7704770B50446002504F0700400F0AD
:101BB000B7F805460A48006820F010000849086098
:101BC000272003F07DF844EA050003F079F8044883
:101BD000006840F010000249086000F0A1F870BDF4
:101BE0000C08014010B50848006820F010000649B4
:101BF0000860E22003F064F80348006840F0100039
:101C00000149086010BD00000C08014010B50848EB
:101C1000006820F0100006490860E12003F050F849
:101C20000348006840F010000149086010BD000042
:101C30000C08014008B50121082000F02BFA102003
:101C40008DF8030003208DF802008020ADF800001D
:101C500069461348FFF7C8FE80211148FFF79AFF35
:101C600048208DF8030003208DF802004020ADF8D5
:101C7000000069460A48FFF7B7FE40210848FFF711
:101C800089FF07480C30006820F0800004490C31BF
:101C900008600448006840F010000249086008BD70
:101CA000000C01400C0801402DE9F04104460E46AD
:101CB00017460D48006820F010000B4908602046C8
:101CC00002F0FEFF002505E0FF2002F0F9FF70554D
:101CD000681CC5B2BD42F7DB0348006840F0100045
:101CE00001490860BDE8F0810C08014070B5044668
:101CF0000A48006820F0100008490860204602F0F9
:101D0000DFFFFF2002F0DCFF05460448006840F0DA
:101D1000100002490860284670BD00000C08014010
:101D200010B50948006820F0100007490860072036
:101D300002F0C6FF04460448006840F01000024963
:101D40000860204610BD00000C08014070B5044634
:101D500000250E48006820F080000C490860002033
:101D6000FFF7C4FF054614B925F0010503E0012C77
:101D700001D145F001052946002000F081F8034813
:101D8000006840F080000149086070BD0C0C014003
:101D900070B504460E461546052D01DD052000E010
:101DA00028460546052C01DD052000E020460446B6
:101DB00004F10A01C8B22A46314600F03FF870BD6E
:101DC00070B505460C46052C01DD052000E02046D7
:101DD000044622462946102000F030F870BD00006D
:101DE0002DE9F04104460D46002600271148006801
:101DF00020F010000F490860E12002F061FF0D485B
:101E0000006840F010000B4908600B48006820F0A3
:101E10008000094908602A462146A02000F00EF8FB
:101E20000548006840F0800003490860FF20BDE8D5
:101E3000F08100000C0801400C0C01402DE9F0413C
:101E400005460E4617460D48006820F010000B4965
:101E5000086045F0200002F033FF002404E0305D0C
:101E600002F02EFF601CC4B2BC42F8DB03480068DD
:101E700040F0100001490860BDE8F0810C08014005
:101E800070B504460D460A48006820F01000084965
:101E9000086044F0200002F013FF284602F010FF13
:101EA0000348006840F010000149086070BD000060
:101EB0000C0801401FB514A103C9CDE9020100209F
:101EC000009001901DE0052202A91020FFF7B6FF47
:101ED000052269461020FFF7E7FE002408E002A86B
:101EE000005D1DF80410884200D003E0601CC4B2FD
:101EF000052CF4DB00BF052C00D103E0042002F028
:101F0000DAFDE0E700BF1FBDA5A5A5A5A50000005F
:101F100008B500214FF0006000F066F84FF48060D3
:101F200000F058F825208DF8000002208DF80100FF
:101F300000208DF8020001208DF80300684600F0B3
:101F400011F826208DF8000003208DF801000020F4
:101F50008DF8020001208DF80300684600F002F8B9
:101F600008BD000070B5002100230F22C47804B31F
:101F7000154C246804F4E064C4F5E064210AC1F15E
:101F80000403CA40447804FA03F1847814402143DE
:101F900009010E4C0678A155047804F01F050124B0
:101FA000AC4005786D11AD0005F1E025C5F80041A4
:101FB00009E0047804F01F050124AC40044D0678C4
:101FC000761145F8264070BD0CED00E000E400E01D
:101FD00080E100E002490143024A116070470000BD
:101FE0000000FA050CED00E0024A0A400243024BF1
:101FF0001A60704780FFFF1F08ED00E010B504462F
:1020000024B104210448FFF7C5FD03E00421024880
:10201000FFF7BEFD10BD0000001401400146002086
:10202000034A506820F44040084350607047000065
:102030000010024029B1064A52690243044B5A611A
:1020400004E0034A52698243014B5A617047000021
:102050000010024029B1064AD2690243044BDA61FA
:1020600004E0034AD2698243014BDA617047000001
:102070000010024029B1064A12690243044B1A615A
:1020800004E0034A12698243014B1A617047000061
:102090000010024029B1064A92690243044B9A613A
:1020A00004E0034A92698243014B9A617047000041
:1020B0000010024029B1064AD2680243044BDA609C
:1020C00004E0034AD2688243014BDA6070470000A3
:1020D0000010024030B500210022002400232D4DC5
:1020E0006D6805F00C0121B1042905D0082923D120
:1020F00005E0294D056022E0274D05601FE0254DD4
:102100006D6805F47012234D6D6805F48034022566
:1021100005EB92421CB9214D554305600BE01D4D66
:102120006D6805F400351DB11C4D5543056002E096
:10213000194D5543056002E0174D056000BF00BF13
:10214000144D6D6805F0F0010909154D6B5C0568CB
:10215000DD4045600F4D6D6805F4E061090A104DE2
:102160006B5C4568DD4085600A4D6D6805F4605123
:10217000C90A0B4D6B5C4568DD40C560054D6D6857
:1021800005F44041890B074D6B5CC568B5FBF3F561
:10219000056130BD0010024000127A0000093D00C8
:1021A0009E0F0020AE0F00201CB520A103C9CDE971
:1021B00000012048006840F080001E49086070203F
:1021C000FFF7F0FC01211C20FFF75AFE07211D201C
:1021D000FFF756FE1C20FFF789FD1D20FFF786FD47
:1021E0000A210020FFF74CFE01210846FFF748FEB8
:1021F00001210220FFF744FE03210846FFF740FEBD
:10220000FF210420FFF73CFE3C210520FFF738FEAC
:102210002F210620FFF734FE05216846FFF7D0FD89
:10222000052269460020FFF7B3FD1CBD34431010A2
:10223000010000000C0C014002460023002107E0D1
:10224000074800EB410030F812000344481CC1B2BB
:102250000A29F5DB0A20B3FBF0F080B270470000DA
:102260002011002010B5012002490860FF2000F075
:1022700097FA10BDBC01214210B50446204602F079
:102280004FFD002010BD000070B59CB00446002634
:102290000025172221461848FDF7B4FF17A0164B5A
:1022A0001BA21CA100900FA801F03EF91BA0124B2D
:1022B00017A218A1009002A801F036F90B2202A97A
:1022C0001B4803F0A5FB05460B220FA9194803F094
:1022D0009FFB05460DB901260AE00026144802F0CE
:1022E0001FFD144802F01CFD294613A001F00CF953
:1022F00030461CB070BD0000E01700205F737472A0
:1023000061696E5361766546696C652E74787400F8
:10231000303A000025732573257300005F616478EF
:102320006C5361766546696C652E747874000000A4
:1023300090130020B81500206F70656E206F72201A
:10234000637265617465206572726F202564200D6B
:102350000A00000070B500250024012600BF0020FF
:1023600002F0B8FA0646012EF9D0012216A117484C
:1023700003F020FB04460D2C1CD10022114612A0B4
:1023800002F0F8FF04467CB911A001F0BDF801226B
:102390000DA1002003F00EFB044601220AA10B4808
:1023A00003F008FB04460DE021460EA001F0ACF856
:1023B000002507E02CB1214611A001F0A5F8002569
:1023C00000E00125284670BD303A00006011002071
:1023D00073646361726420697320666F726D6174E7
:1023E0000D0A000073646361726420666F726D6130
:1023F00074206572726F203A25640D0A0000000097
:10240000736463617264206D6F756E7420697320EC
:102410006572726F282564290D0A000070B50446A4
:102420000D4600260B222946204603F0F1FA064607
:1024300016B1204602F074FC002070BD2DE9FF416A
:10244000074615461E46012D0CD101AB39460E48F4
:10245000019A03F082FF044694B98EB10A4803F052
:10246000C3FE0DE0022D0BD101AB39460748019A9E
:1024700003F073FF04461CB916B1044803F0B4FE20
:10248000002004B0BDE8F08190130020B8150020B2
:1024900070B5054601220021092000F0CAF9044662
:1024A00024B91021284600F055F90446FFF7DAFE5A
:1024B0000CB1012070BD0020FCE770B505464FF659
:1024C000FF7401E0601E84B2FF2000F069F9A842A9
:1024D00001D0002CF6D10CB9FF2070BD0020FCE724
:1024E0007FB56846FFF7D4FF10B1002004B070BD7F
:1024F0009DF8000000F0C000402809D19DF80900B7
:102500009DF8081000EB0120401C84B2A50220E0D9
:102510009DF8050000F00F009DF80A1000EBD110A7
:102520009DF8091001F0030100EB4100861C9DF8A5
:10253000080080119DF8071000EB81009DF806103F
:1025400001F0030100EB8120441CA6F1090004FA0C
:1025500000F52846CAE70000F8B500F017F900F0CA
:102560002AF9002504E0FF2000F01AF9681C85B262
:102570000A2DF8DB142600BF95220021084600F042
:1025800058F90446012C04D0301EA6F101018EB288
:10259000F2D1002051490870012C4AD187224FF412
:1025A000D571082000F045F9012847D1002506E043
:1025B000FF2000F0F5F80DF80500681C85B2042D29
:1025C000F6DB9DF80200012879D19DF80300AA28C6
:1025D00075D14FF6FE7600BF01220021372000F0B2
:1025E00028F901229107292000F023F9044624B19B
:1025F000301EA6F101018EB2EED1002E5FD0012275
:1026000000213A2000F015F9002858D1002506E0F5
:10261000FF2000F0C5F80DF80500681C85B2042DF8
:10262000F6DB9DF8000000F0400018B106202B49B1
:10263000087044E004202949087040E0012200218C
:10264000372000F0F6F801220021292000F0F1F8EF
:102650000446012C17DC0220204908704FF6FE7654
:1026600000BF01220021372000F0E3F80122002101
:10267000292000F0DEF80446BCB1301EA6F10101AD
:102680008EB2EED111E00120144908704FF6FE76AB
:1026900000BF01220021104600F0CBF8044624B10F
:1026A000301EA6F101018EB2F3D12EB101225102EA
:1026B000102000F0BEF810B1002008490870FFF7A4
:1026C000D1FD00F073F80548007808B10020F8BD8E
:1026D0000CB12046FBE7AA20F9E7000032080020F1
:1026E0002DE9F04106460F461546194800780628A0
:1026F00000D07F02012D0CD101223946112000F0BB
:1027000098F80446FCB96902304600F023F8044604
:1027100019E001223946122000F08BF8044600BF70
:102720004FF40071304600F015F8044606F50076C7
:10273000681EC0B2051E01D0002CF1D0012200217C
:102740000C2000F076F8FFF78DFD2046BDE8F08103
:102750003208002070B504460D46FE20FFF7ADFE9E
:1027600008B1012070BD04E0FF2000F029FB2070BB
:10277000641C281EA5F101018DB2F5D1FF2000F0E7
:102780000FF8FF2000F00CF80020EBE710B500F088
:10279000BDFA01200149086010BD0000BC012142C2
:1027A00010B50446204600F00BFB10BD10B500200C
:1027B00000F030FB10BD10B5382000F02BFB10BD31
:1027C00010B500200549086000F06FF808B9002036
:1027D00010BDFFF747FD0120FAE70000BC012142D0
:1027E00070B506460D4600F060F808B1012070BDD6
:1027F0002846FFF7D5FFFD2D19D0002404E0305DF9
:1028000000F0DEFA601C84B2B4F5007FF7DBFF2035
:10281000FFF7C6FFFF20FFF7C3FFFF20FFF7C0FF52
:10282000044604F01F00052801D00220DFE7002045
:10283000DDE72DE9F04105460C4617464FF000084C
:10284000FFF710FDFFF7BCFF10B1FF20BDE8F081DE
:1028500045F04000FFF7A4FF200EFFF7A1FFC4F3EF
:102860000740FFF79DFFC4F30720FFF799FFE0B291
:10287000FFF796FF3846FFF793FF0C2D02D1FF209C
:10288000FFF78EFF4FF01F0800BFFF20FFF788FF04
:10289000064606F0800030B1B8F10000A8F1010151
:1028A00001F0FF08F1D13046D0E710B5002400BF99
:1028B000FF20FFF775FFFF2801D1002010BD641C29
:1028C0006FF07F408442F3D30120F7E72DE9F04118
:1028D00006460F46154620480078062800D07F029D
:1028E000012D0CD1012239461820FFF7A2FF044622
:1028F0006CBBFE213046FFF773FF044627E0164805
:102900000078012809D0012200213720FFF791FF2C
:10291000012229461720FFF78CFF01223946192092
:10292000FFF787FF044694B900BFFC213046FFF74C
:1029300057FF044606F50076681EC0B2051E01D09A
:10294000002CF2D0FD210020FFF74AFF0446FFF7DC
:1029500089FC2046BDE8F0813208002001460020B5
:1029600019B10A6802B900E00120704721B102885C
:1029700042F04002028004E002884FF6BF731A4022
:102980000280704710B5002004490860062000F05E
:1029900017FA01200249C1F8880110BD88012142BF
:1029A0000000214210B504462403FFF7EBFF00F0BE
:1029B000A3F800200B490860202000F001FAC4F3BE
:1029C000074000F0FDF9C4F3072000F0F9F9E0B288
:1029D00000F0F6F901200449C1F8880100F08CF8F4
:1029E00010BD0000880121420000214208B50121EC
:1029F0000420FFF74FFB1C20ADF8000010208DF8DD
:102A0000030003208DF8020069460848FEF7ECFF3A
:102A10001C210648FFF7BEF800F078F9082000F006
:102A2000F9F900F02FF80249088008BD00080140BC
:102A30009C0F00202DE9F04106460C461746002069
:102A40000F490860032000F0BBF9C4F3074000F011
:102A5000B7F9C4F3072000F0B3F9E0B200F0B0F921
:102A6000002505E0FF2000F0ABF97055681C85B229
:102A7000BD42F7DB012002490860BDE8F08100009B
:102A80008801214210B5002400200E4908609020E2
:102A900000F096F9002000F093F9002000F090F982
:102AA000002000F08DF9FF2000F08AF944EA0024AC
:102AB000FF2000F085F9044301200349C1F8880193
:102AC000204610BD880121420000214210B500249B
:102AD000002007490860052000F072F9FF2000F08F
:102AE0006FF9044601200349C1F88801204610BD52
:102AF000880121420000214210B500BFFFF7E6FF28
:102B000000F001000028F9D110BD00002DE9F047C8
:102B100081460F4616464FEA1738C7F30B0ACAF527
:102B20008054A64200DC344644E04FEA08314FF4BA
:102B300080522248FFF77EFF002508E00AEB0500DF
:102B40001E49085CFF2800D003E0681C85B2A5423E
:102B5000F4DB00BFA54216DA4046FFF723FF00254D
:102B600007E019F8050005EB0A01144A5054681CE7
:102B700085B2A542F5DB4FEA08314FF480520F4889
:102B800000F01EF804E022463946484600F018F8E6
:102B9000A64200D10FE008F101084FF0000AA1445D
:102BA0002744301B86B2B6F5805F02DD4FF48054B7
:102BB00000E03446B9E700BFBDE8F08710AD002063
:102BC0002DE9F04107460E461446F0B2C0F5807577
:102BD000AC4200DC254612E02A463146384600F079
:102BE00013F8AC4200D10BE02F442E44601B84B29A
:102BF000B4F5807F02DD4FF4807500E02546EBE7F9
:102C000000BFBDE8F08100002DE9F04106460C460A
:102C10001746FFF7B7FE00200F490860022000F0BA
:102C2000CFF8C4F3074000F0CBF8C4F3072000F05E
:102C3000C7F8E0B200F0C4F8002504E0705D00F0D1
:102C4000BFF8681C85B2BD42F8DB0120024908606C
:102C5000FFF752FFBDE8F0818801214210B504461C
:102C60001148844208D101218014FFF723FA002182
:102C7000A014FFF71FFA16E00C48844208D1012186
:102C80000014FFF7F7F900212014FFF7F3F90AE029
:102C90000748844207D10121C013FFF7EBF9002157
:102CA000E013FFF7E7F910BD0030014000380040A5
:102CB000003C00400246002013890B400BB101206C
:102CC00000E0002070470146888970478181704785
:102CD00010B50022028802F441520B884C8823432D
:102CE0008C882343CC8823430C8923434C8923437A
:102CF0008C892343CC8923431A430280838B4FF270
:102D0000FF74234083830B8A038210BD08B5012121
:102D10000D20FFF7BFF90121C803FFF79BF901213F
:102D20002248FEF7EDFE3820ADF8000018208DF89F
:102D3000030003208DF8020069461D48FEF754FE8B
:102D400038211B48FEF726FF4FF40040ADF8000085
:102D500010208DF8030003208DF802006946154805
:102D6000FEF742FE4FF400411248FEF713FF002029
:102D7000114908804FF4827048800020888002202A
:102D8000C8800120088140024881382088810020C5
:102D9000C881072008820948FFF79AFF01210748E8
:102DA000FFF7E4FDFF2000F00BF808BD0002300043
:102DB000000C014000080140F8170020003C0040D2
:102DC00070B50546002405E0601CC4B2C82C01DDC6
:102DD000002070BD02210E48FFF76CFF0028F3D0E1
:102DE00029460B48FFF772FF002405E0601CC4B2BF
:102DF000C82C01DD0020ECE701210548FFF75AFF50
:102E00000028F3D00248FFF75EFFC0B2E1E7000000
:102E1000003C004010B50446054884810146054841
:102E2000FFF756FF01210348FFF7A0FD10BD00008A
:102E3000F8170020003C004010B500F001F810BD6C
:102E40000CB50020019000903348006840F48030B9
:102E50003149086000BF3048006800F4003000903D
:102E60000198401C0190009818B90198B0F5A06F26
:102E7000F1D12948006800F4003010B10120009021
:102E800001E0002000900098012843D12348006809
:102E900040F01000214908600846006820F0070053
:102EA00008600846006840F0020008601A48406860
:102EB000194948600846406848600846406840F440
:102EC000806048600846406820F47C1048600846EE
:102ED000406840F4E81048600846006840F08070A0
:102EE000086000BF0C48006800F000700028F9D0AE
:102EF0000948406820F003000749486008464068D8
:102F000040F00200486000BF0348406800F00C0039
:102F10000828F9D10CBD000000100240002002403A
:102F200010B506F0FBFD10BD10B51348006840F069
:102F300001001149086008464068104908400E49E0
:102F40004860084600680E4908400B49086008467A
:102F5000006820F4802008600846406820F4FE00E5
:102F600048604FF41F008860FFF766FF4FF0006075
:102F70000449086010BD0000001002400000FFF886
:102F8000FFFFF6FE08ED00E010B50C48008800F0E9
:102F9000010058B10A4908698047002007491431E7
:102FA00008804FF47A7005491C3108800348008876
:102FB00020F001000149088010BD00001008004009
:102FC000940E0020CA430282704721B1028842F069
:102FD0000102028004E002884FF6FE731A4002806C
:102FE000704702460020138A0B400BB1012000E01D
:102FF000002070471AB183890B43838102E08389E3
:103000008B438381704781847047000000220288CF
:103010001D4B98420ED01D4B98420BD0B0F1804F03
:1030200008D01B4B984205D01A4B984202D01A4B3D
:10303000984204D14FF68F731A404B881A43174BAE
:10304000984207D0164B984204D04FF6FF431A40DF
:10305000CB881A4302808B8883850B8803850A4BB3
:1030600098420BD0094B984208D00E4B984205D09D
:103070000D4B984202D00D4B984201D10B7A03863A
:103080000123838270470000002C0140003401407E
:103090000004004000080040000C00400010004008
:1030A000001400400040014000440140004801403D
:1030B0007FB505460C4601210420FEF7CBFFADF895
:1030C0000850ADF804400020ADF80A00ADF8060045
:1030D00001A90D48FFF79AFF012241210A48FFF795
:1030E00089FF1E208DF8000003208DF801008DF867
:1030F000020001208DF803006846FEF733FF01212E
:103100000148FFF762FF7FBD0008004010B540F2A4
:103110002551124800F00BF988B140F225510F48B3
:1031200000F05CF80D4800F0CBF90D490D4A12880B
:1031300088540C480088401C0A4908800CE0102183
:10314000064800F0E7F838B1044800880348001D3D
:10315000008801200449087010BD000000380140BB
:10316000381000202E0600202C06002010B540F25A
:103170002551124800F0DBF888B140F225510F4884
:1031800000F02CF80D4800F09BF90D490D4A12880B
:1031900088540C480088401C0A4908800CE0102123
:1031A000064800F0B7F838B1044800880348001D0D
:1031B000008801200449087010BD00000044004050
:1031C000381000202E0600202C06002010B500F03C
:1031D00069F900F06BF800F01DF810BD10B5002281
:1031E000002340F66A14A14200D100BF0A12012454
:1031F0009440A3B2DC43048010BD21B1828942F423
:103200000052828104E082894DF6FF731A40828168
:10321000704700001FB54FF4E13000900020ADF87A
:103220000400ADF80600ADF80800ADF80C000C2065
:10323000ADF80A0069461B4800F0C8F8012240F2C8
:103240002551184800F09DF8012240F2244115480C
:1032500000F097F801211348FFF7CFFF4FF46120EA
:1032600000900020ADF80400ADF80600ADF80800AD
:10327000ADF80C000C20ADF80A0069460A4800F0D1
:10328000A5F8012240F22551074800F07AF8012202
:1032900040F22441044800F074F801210248FFF78D
:1032A000ACFF1FBD003801400044004008B51820A5
:1032B0008DF803004FF40070ADF8000003208DF886
:1032C000020069461248FEF78FFB04208DF80300C8
:1032D0000002ADF8000069460D48FEF785FB182096
:1032E0008DF803000420ADF8000003208DF80200E3
:1032F00069460748FEF778FB04208DF80300082094
:10330000ADF8000069460248FEF76EFB08BD0000FC
:103310000008014002460020B1F5007F00D100BF47
:1033200013880B400BB1012000E00020704770B5FE
:103330000246002400230025002040F66A16B14210
:1033400000D100BFC1F3421501F01F03012606FAA8
:1033500003F3012D02D19689334006E0022D02D1FC
:10336000168A334001E0968A33400C12012606FA91
:1033700004F41688344013B10CB1012000E00020A1
:1033800070BDF0B50346002400260025002040F65D
:103390006A17B94200D100BF1846C1F3421401F0C8
:1033A0001F06012707FA06F5012C01D10C3004E0B5
:1033B000022C01D1103000E014301AB107682F43FD
:1033C000076002E00768AF430760F0BD2DE9F047F2
:1033D00086B005460E460024A24600BFA14600273F
:1033E000B08900B100BF2F462C8A4CF6FF70044014
:1033F000F08804432C82AC894EF6F3100440B08868
:1034000031890843718908430443AC81AC8A4FF683
:10341000FF400440B0890443AC8201A8FEF75AFE85
:103420001F48874202D1DDF810A001E0DDF80CA0B2
:10343000A88900F4004040B10AEBCA0000EB0A1072
:1034400031684900B0FBF1F807E00AEBCA0000EB75
:103450000A1031688900B0FBF1F86420B8FBF0F085
:1034600004012009642101FB1089A88900F40040AF
:1034700040B1322000EBC900B0FBF1F000F00700D2
:10348000044308E0322000EB09106421B0FBF1F0A6
:1034900000F00F0004432C8106B0BDE8F087000067
:1034A0000038014010B501210520FEF7F3FD012190
:1034B0008803FEF7EFFD01214804FEF7CBFD10BDA8
:1034C00001468888C0F308007047C1F30802828073
:1034D00070472DE9F04107460D461646002400BF0F
:1034E0000BE0295D3846FFF7F0FF00BF802138462A
:1034F000FFF710FF0028F9D0641CB442F1DBBDE8EF
:10350000F08100BFFEE700000FB4054B10B503A922
:10351000044A029800F0EEF810BC5DF814FB0000BD
:10352000B16A0008141000200FB4084B10B504A9AC
:1035300002AA039800F0DEF8044602A9002000F079
:103540005CFC204610BC5DF814FB0000FB3D00084D
:1035500002E008C8121F08C1002AFAD1704770475C
:10356000002001E001C1121F002AFBD170470000BA
:103570002DE9FF5F82B00021DDE90430020DDDF8A6
:1035800040B0034318D044F61050A2F2FF32424339
:103590001514119801281FD0A5EB0B00401C5FEA01
:1035A000000A4FF000064E4FDFF83891B046504603
:1035B00015D5CAF1000413E0119801244AA301288B
:1035C00001D16FEA0B010298119AC0E90031C0E9FC
:1035D000024206B0BDE8F09FCBF10000DFE70446F1
:1035E0000021404A491842EB0450CDE9001012E096
:1035F000E00707D032463B4640464946FCF7D4FE3A
:103600008046894632463B4610461946FCF7CCFEBA
:1036100006460F466410002CEAD1DDE90401DDE91D
:103620000023BAF1000F06DAFCF7BEFE42464B4615
:10363000FCF7BAFE05E0FCF729FF42464B46FCF7D3
:1036400025FF04460E460022284BFDF7EDF803D86F
:103650004FF0FF30014607E00022254B204631465F
:10366000FCF7FBFDFDF7C8F8102409E0002C0ADB8D
:103670000A220023FCF7DAFF039B30321A55641E3E
:1036800050EA0102F2D1641C039AC4F111031444FC
:10369000119A012A03D0012208430DD10AE0084300
:1036A00004D000204FF0110B119072E7A3EB0B0533
:1036B0006D1E0DE05B4504DD4FF0000205F10105D4
:1036C00004E003DA4FF00002A5F10105002AECD076
:1036D00002981199C0E90231C0E9004579E700007C
:1036E000000014400000F03F300000000000F043F4
:1036F0000000E03F2DE9FF4F95B09A468846064608
:103700000025EEE1252877D100242746F94A01213A
:10371000039400E0044316F8013F203B01FA03F054
:103720001042F7D130782A2811D06FF02F0330786B
:10373000A0F13002092A16D8039A44F0020402EBE1
:10374000820203EB42021044761C0390EFE758F824
:10375000042B0392002A03DA504244F400540390ED
:1037600044F00204761C30782E2816D116F8010F8A
:1037700044F004042A280DD06FF02F023078A0F115
:103780003003092B09D807EB870302EB4303C71863
:10379000761CF3E758F8047B761C30786C280FD041
:1037A00006DC4C2817D068280DD06A2814D104E014
:1037B000742810D07A280FD10DE044F400140AE0E8
:1037C00044F4801401E044F440147278824202D13F
:1037D00004F58014761C761C307866280BD013DC38
:1037E000582877D009DC002875D04528F6D046281F
:1037F000F4D047281AD193E118E0632835D0642823
:1038000079D0652812D18BE1702873D008DC672845
:10381000F1D069286FD06E280DD06F2806D1ACE0AA
:1038200073282CD0752874D0782853D05246179915
:1038300090476D1C54E1C4F30250022809D00328BC
:103840000DD0D8F8001004280DD00D6008F1040840
:1038500046E1D8F80010EA17C1E90052F6E7D8F8B7
:1038600000100D80F2E70D70F0E718F8041B8DF8DA
:10387000001000208DF80100EB46012003E058F80D
:1038800004BB4FF0FF3061074FF0000102D40DE0A0
:1038900009F101018946B9420FDA8145F8DB1BF8CD
:1038A00009100029F4D108E009F10101894681429B
:1038B000FADB1BF809100029F6D103985346A0EB58
:1038C000090721463846179A00F080FA284400EB91
:1038D000090507E044E008E10DE01BF8010B524642
:1038E00017999047B9F10109F7D253462146384656
:1038F000179AF2E039E00A21C4F302524FF0000BAC
:103900000091022A06D058F8040BC117032A09D0E7
:103910000AE023E008F1070020F00702F2E80201C4
:10392000904605E000B2C117042A01D140B2C11788
:10393000002906DA0A460021404261EB02012D22ED
:1039400002E0220504D52B228DF80420012203E099
:10395000E20701D02022F7E7914657E00A2100E074
:1039600010214FF0000B00910BE010214FF0000BE5
:1039700044F004040827009103E008204FF0000BF6
:103980000090C4F30252022A05D058F8040B00211B
:10399000032A08D008E008F1070020F00702F2E847
:1039A0000201904603E080B2042A00D1C0B24FF079
:1039B000000922072AD53278702A07D0DDF800C026
:1039C0008CF0100C5CEA0B0C05D00EE040228DF858
:1039D0000420012208E050EA010306D030238DF8CC
:1039E00004308DF8052002229146009B83F00803E5
:1039F00053EA0B030AD150EA010201D1620705D54F
:103A000030228DF804204FF001097F1E3278582AA9
:103A100004D039A20C920CAA02920BE03BA2F9E767
:103A20005B46009AFCF702FE0C9B9B5C029A521EBE
:103A30000292137050EA0102F2D1029804A9081A06
:103A400000F1200B600702D524F4803400E0012748
:103A50005F4502DDA7EB0B0000E0002000EB0B014F
:103A6000009003984944401A0390E00306D453465B
:103A70002146179A039800F0A9F90544002706E0AB
:103A800001A85246C05D179990476D1C7F1C4F4599
:103A9000F6DBE0030CD553462146179A039800F055
:103AA00095F9054404E030205246179990476D1C63
:103AB0000099481E00900029F5DC08E00298029960
:103AC00052460078491C0291179990476D1CBBF132
:103AD0000001ABF1010BF1DC5BE100F065F905449D
:103AE000761C307800287FF40DAE19B02846BDE86A
:103AF000F08F000009280100303132333435363779
:103B00003839616263646566000000003031323329
:103B100034353637383941424344454600000000C9
:103B2000600700D4062708F1070020F00700F0E83E
:103B30000223804603F0004C5FEA0C0001D097A0FE
:103B400009E0200501D596A005E0E00701D095A089
:103B500001E0AFF24C001390307823F00043652869
:103B60000CD006DC452809D046281DD047287FD137
:103B70003BE0662818D067287AD136E00021112F63
:103B800001DB112000E0781CCDE9000104A90CA89C
:103B9000FFF7EEFCDDE90D010C9A4FF0000B07F189
:103BA0000109109200914EE04FF000400097CDE9DE
:103BB000011004A90CA8FFF7DBFCDDE90D020C9B4A
:103BC0000F994FF0000B91461093009211B9791C98
:103BD00000EB0109B7EB090003D4C0F1FF3B07F18B
:103BE0000109A9EB0700019042E0012F00DA01274B
:103BF0000021112F01DD112000E03846CDE9000140
:103C000004A90CA8FFF7B4FCDDE90D010C9A0091A2
:103C10004FF0000BB946109221070FD4009A4A4585
:103C200003DA914601E0A9F10109B9F1010F05DDBF
:103C3000109AA9F10101515C3029F4D0B84202DA9E
:103C400010F1040F03DA0121CDE9011010E0002882
:103C500003DC8344A9EB000102E0411C494500DD7F
:103C60008946A0EB0B00401C01904FF000400290F1
:103C7000200705D40198484502DB4FF0FF30019042
:103C800000208DF84B0002980DF14B07B0F1004F6A
:103C900025D002200C902B200D90029800280CDAE1
:103CA000404202902D200D9007E00A210298FCF777
:103CB000A7FC3031029007F8011D0C99481E0C90AA
:103CC0000029F2DC02980028EFD1791E0D980870C7
:103CD000307800F0200040F0450007F8020D11A8F0
:103CE000C01BC01D02901398007800B1012000EBAA
:103CF0000901019801EBE071029801440398401A10
:103D0000401E0390E00306D453462146179A0398B9
:103D100000F05CF805441398007818B152461799E2
:103D200090476D1CE00323D553462146179A03980C
:103D300000F04CF805441BE0BBF1000F07DB0098D6
:103D4000584504DD1098179910F80B0001E01799F9
:103D500030205246904701980BF1010B401E05F1AF
:103D60000105019004D12E205246179990476D1CF1
:103D7000B9F10001A9F10109DEDC05E017F8010B3A
:103D80005246179990476D1C0299481E02900029CF
:103D9000F4DC53462146179A03989EE62D00000056
:103DA0002B000000200000002DE9F0410446002512
:103DB0001E461746880404D405E039462020B04743
:103DC0006D1C641EF9D52846BDE8F0812DE9F0414F
:103DD000044600251E469046C80301D5302700E062
:103DE0002027880404D505E041463846B0476D1CBD
:103DF000641EF9D52846BDE8F0810A68531C0B60A3
:103E00001070704770B504460D4600202071401EAA
:103E1000E0622946204603F07FFE08B1032070BD12
:103E200094F82E1294F82F0241EA00204AF6552108
:103E3000884201D00220F2E794F86900010694F864
:103E4000680041EA004194F8670041EA002094F8D4
:103E50006610084320F07F400D49884201D10020C0
:103E6000DDE794F88500010694F8840041EA0041FA
:103E700094F8830041EA002094F88210084320F06F
:103E80007F400349884201D10020C8E70120C6E7EE
:103E900046415400024600E0521C107810B11078E0
:103EA0008842F9D11078704770B503460D46586ABC
:103EB000021D680A1E68B678B0FBF6F400BF02CA9D
:103EC00009B9002070BD8C4200D202E0641A121DB4
:103ED000F5E700BF10682044F4E70246891E5069E8
:103EE000801E884201D8002070479378906A01FBB9
:103EF0000300F9E72DE9F04705460C46207820F04D
:103F00004000401E00EB800101EBC00600274FF08F
:103F1000010800BF1A48C05D205C1949C95D2144F1
:103F2000497840EA0129B8F1000F10D0484602F064
:103F300057FB8046FF2E07D23146761C35F811001C
:103F400002F04EFB404508D00020BDE8F0874FF658
:103F5000FF70814501D00020F7E7781C07460D2847
:103F6000D8D3207800F0400038B1B8F1000F04D069
:103F700035F8160008B10020E7E70120E5E700006A
:103F80004AA600082DE9F04703460D4616460022D2
:103F900000201A4682B100240CE0117880EA010763
:103FA00007F0FF09DFF828A03AF8199089EA2020E5
:103FB000521C641CAC42F0D33EB14FEA102C4FEAC5
:103FC00000694FEA19484CEA0800BDE8F087000094
:103FD0002C0200202DE9F04704468946B9F1000F74
:103FE00006D1E76817B16069B84215D8012713E018
:103FF0004946204602F0D2FD0646022E02D201209A
:10400000BDE8F087701C08B93046F9E76069B04236
:1040100001D93046F4E74F463D4600BF6D1C60694C
:10402000A84204D80225BD4201D90020E8E729466C
:10403000204602F0B3FD064606B909E0701C08B13F
:10404000012E01D13046DBE7BD42E7D10020D7E7A2
:1040500000BF6FF070422946204604F0CFF880463A
:10406000B8F1000F08D1B9F1000F05D02A46494632
:10407000204604F0C3F88046B8F1000F0BD1E5608C
:104080002069401C78B12069401E2061607940F0B1
:104090000100607107E0B8F1010F02D14FF0FF306D
:1040A00000E0012005462846AAE700002DE9F34F6D
:1040B00083B0814604980068019002E00198401C9A
:1040C0000190019800782F28F8D0019800785C289A
:1040D000F4D0D9F81CA000252F4600BF38467F1C1D
:1040E00001990C5C202C03DB2F2C01D05C2C00D11F
:1040F00032E0FF2D03D3062005B0BDE8F08FE4B217
:10410000812C13DBE0B2FE2810DC38467F1C0199BD
:104110000E5C402E01DB7E2E05DD802E01DBFE2EA7
:1041200001DD0620E8E706EB042084B201212046E9
:1041300002F00CFA04460CB90620DDE7802C06DA02
:10414000214671A0FFF7A6FE08B10620D4E7284655
:104150006D1C2AF81040C1E700BF0198C1190498EE
:104160000160202C01DA042000E00020804608E0F5
:10417000681E3AF81040202C02D02E2C00D002E00D
:104180006D1E002DF4D100BF0DB90620B4E700204C
:104190002AF815000B222021D9F8180003F032F973
:1041A000002700E07F1C3AF817002028FAD03AF8E0
:1041B00017002E28F6D00FB148F0030800E06D1E5E
:1041C00025B1681E3AF810002E28F8D100200646C6
:1041D00002904FF0080B00BF38467F1C3AF81040A1
:1041E00004B963E0202C03D02E2C04D1AF4202D0BE
:1041F00048F00308F0E70298584501D2AF4214D1C5
:10420000BBF10B0F02D148F003084FE0AF4201D0E1
:1042100048F00308AF4200D948E02F46082002903A
:104220004FF00B0BB006060ED6E7802C09DB2046BC
:1042300002F0D6F90021009002F088F9044648F017
:104240000208FF2C11DDABF101000299884204D86D
:1042500048F00308CDF808B0BEE72212D9F81830AC
:104260000298411C02911A5419E024B1214629A058
:10427000FFF710FE18B15F2448F003080FE0412C4F
:1042800004DB5A2C02DC46F0020608E0612C06DB57
:104290007A2C04DC46F00106A4F1200084B2D9F89F
:1042A00018300298411C02911C5495E700BFD9F8C0
:1042B00018000078E52803D10520D9F818100870F7
:1042C000BBF1080F01D1B006060E06F00C000C2859
:1042D00003D006F00300032801D148F0020808F0DB
:1042E000020058B906F00300012801D148F0100877
:1042F00006F00C00042801D148F00808D9F818008D
:1043000080F80B800020F7E6222A3A3C3E3F7C7F73
:10431000000000002B2C3B3D5B5D000001460D4A78
:1043200012884A434FF0E0235A6100229A61012229
:104330001A6100BF4FF0E022106900F001021AB1CB
:1043400000F48032002AF5D000224FF0E0231A61F9
:104350009A617047420A002001460D4A12784A438A
:104360004FF0E0235A6100229A6101221A6100BFD6
:104370004FF0E022106900F001021AB100F480321F
:10438000002AF5D000224FF0E0231A619A617047AD
:10439000400A00202DE9F04104460E460021204647
:1043A00000F049FA0546EDB9002700BF21692068F1
:1043B00003F0B2FB054605B113E060690078E5281B
:1043C00002D06069007820B9781C0746B04201D15C
:1043D00007E000270121204600F079F80546002D6E
:1043E000E4D000BF042D00D107252846BDE8F081A8
:1043F0002DE9F04704460021204600F01CFA07464C
:1044000017B13846BDE8F0874FF0FF09CA4600BF34
:104410002169206803F080FB074607B154E0656915
:104420002E780EB904274FE0E87A00F03F08E52E19
:1044300005D008F0080028B1B8F10F0F02D04FF0F6
:10444000FF093AE0B8F10F0F1CD1E069A0B306F004
:10445000400030B195F80DA026F04006B146E08846
:1044600020844E450AD1687B504507D12946E06932
:10447000FFF740FD10B1A9F1010000E0FF2000F0BE
:10448000FF091AE0B9F1000F05D1284604F049F8F8
:10449000504500D118E04FF0FF094FF6FF7020841F
:1044A000A069C07A00F0010030B90B222846A1694A
:1044B00002F0FAFE00B907E0FFE70021204600F015
:1044C00006F80746002FA3D000BF38469AE72DE92B
:1044D000F04104468846E088461CB0B208B1206925
:1044E00010B90420BDE8F08106F00F0000286CD15F
:1044F0002069401C2061E06828B920680089B0422A
:1045000063D80420EEE720688078401E00EA161089
:1045100000285AD1E168206802F040FB0546012DD1
:1045200001D80220DEE7681C08B90120DAE720681C
:104530004069A84243D8B8F1000F01D10420D1E767
:10454000E1682068FFF746FD05460DB90720C9E779
:10455000012D01D10220C5E7681C08B90120C1E77F
:10456000206804F052F808B10120BBE7216801F18E
:1045700030004FF40072002102F044FF2946206809
:10458000FFF7ABFC2168C86200270EE0012021681C
:104590000871206804F039F808B10120A2E720680A
:1045A000C06A401C2168C8627F1C20688078B842BD
:1045B000ECD82068C06AC01B2168C86200BFE560F3
:1045C00029462068FFF789FC2061E68020683030AA
:1045D00006F00F0100EB41106061002082E72DE939
:1045E000F05F04468A464FF0FF09CB4604274EE0B1
:1045F0002169206803F090FA074607B14AE066692E
:1046000035780DB9042745E0F07A00F03F08E52D34
:1046100009D02E2D07D0B8F1080F01D1012000E0FC
:104620000020504502D04FF0FF0929E0B8F10F0FEC
:104630001AD105F0400030B196F80DB025F04005D4
:10464000A946E08820844D450AD1707B584507D1A2
:104650003146E06903F0A2FA10B1A9F1010000E0CF
:10466000FF2000F0FF090BE0B9F1000F04D1304644
:1046700003F057FF584502D04FF6FF70208409E041
:1046800000212046FFF723FF074607B102E020691B
:104690000028ADD100BF0FB1002020613846BDE831
:1046A000F09F2DE9FE4F0446D4F81880D4F81C90F2
:1046B0000C224146684602F00AFE00BF9DF80B003E
:1046C00000F0010020B3002088F80B00E061012613
:1046D0000CE033464A466946404602F0FBF9204664
:1046E000FFF786FE054605B102E0761C642EF0D386
:1046F00000BF642E02D10720BDE8FE8F042D01D03B
:104700002846F9E79DF80B0088F80B00C4F81C90C8
:104710009DF80B0000F0020060B1002600E0761C5E
:1047200039F816000028FAD106F119000D21B0FB66
:10473000F1F700E0012739462046FFF72BFE05463A
:1047400045BB781E071E25D0E088C11B204600F01F
:1047500072F80546F5B9A06903F0E3FE824600BF92
:104760002169206803F0D8F9054605B111E0FAB2D5
:1047700053466169E06902F013F90120216808716C
:1047800000212046FFF7A3FE054615B9781E071E37
:10479000E6D100BFC5B92169206803F0BDF905461F
:1047A00095B920220021606902F02CFE0B22D4E989
:1047B000050102F08CFDA069C07A00F01800616963
:1047C0000873012021680871284695E770B50446F2
:1047D000E688208C4FF6FF72904201D1304600E00F
:1047E000208C0146204600F026F805460DBB00BF90
:1047F0002169206803F090F9054605B115E02022F3
:104800000021606902F0FEFDE52061690870012069
:1048100021680871E088B04200D306E000212046FC
:10482000FFF755FE0546002DE2D000BF042D00D154
:104830000225284670BD2DE9F04104460E46E6806B
:10484000A568012D03D020684069A84202D8022043
:10485000BDE8F0812DB920680078032801D12068D7
:10486000456A45B920680089B04201D80220EFE7C7
:104870002068476A1EE0206880784FEA001812E03E
:104880002946206802F08AF90546681C08B901200B
:10489000DEE7022D03D320684069A84201D8022038
:1048A000D6E7A6EB08064645EAD229462068FFF778
:1048B00014FB0746E5600FB90220C9E707EB1610A5
:1048C00020612068303006F00F0100EB411060617C
:1048D0000020BDE770B50446002514B1012C1DD1A0
:1048E0000BE0FDF739FE054635B1FDF764FFFF200B
:1048F000FDF756FFFDF75AFF12E0FEF777F80B4879
:1049000000884EF61671884204D142F26860084968
:10491000088002E000200649088001E0012500BF70
:1049200000BF0DB1012070BD0020FCE79C0F0020EE
:10493000980D00202DE9F04106460F4615462EBB86
:1049400037B1012F1AD0022F0FD0032F1BD111E046
:1049500000201F490860FDF7A8FF08B9002400E007
:10496000012401201A4908600FE04FF400702880EC
:1049700000240AE008202880002406E0FDF7B0FDAE
:104980002860002401E0042400BF1DE0012E1AD19C
:1049900037B1012F0FD0022F04D0032F10D106E022
:1049A00000240FE04FF40070288000240AE0082063
:1049B0002880002406E0074800882860002401E0E1
:1049C000042400BF00E001242046BDE8F08100007F
:1049D000BC012142980D00202DE9F04107460E460A
:1049E00015461C464FF0000814B90420BDE8F081BC
:1049F00017B1012F20D110E0E2B229463046FDF771
:104A00006FFE8046B8F1000F06D0FDF7D4FEFF2000
:104A1000FDF7C6FEFDF7CAFE11E009E069024FF49A
:104A200000723046FEF706F86D1C06F50076641E2F
:104A3000002CF3D1A04602E04FF0010800BF00BFF8
:104A4000B8F1000F01D10020D0E70120CEE70146E8
:104A5000002070472DE9F04107460E4615461C46DA
:104A60004FF0000814B90420BDE8F08117B1012F00
:104A700016D106E0E2B229463046FDF727FF804610
:104A800011E009E069024FF400723046FEF73EF88B
:104A90006D1C06F50076641E002CF3D1A04602E0E2
:104AA0004FF0010800BF00BFB8F1000F01D1002096
:104AB000DAE70120D8E700B503461DE0322000F018
:104AC00067F8322000F064F8322000F061F83220FC
:104AD00000F05EF8322000F05BF8322000F058F869
:104AE000322000F055F8322000F052F8322000F069
:104AF0004FF8322000F04CF8181EA3F10101CBB2A0
:104B0000DCD100BD00B589B001A8FDF7E3FA0121B1
:104B10000420FDF79FFA0020ADF81E00ADF81A0042
:104B2000FF20ADF81C0000208DF8200016490398E6
:104B3000B0FBF1F0401E80B2ADF8180006A9134892
:104B4000FEF764FA01211148FEF73CFA00210F48F4
:104B5000FEF759FA01210D48FEF737FA00BF01218F
:104B60000A48FEF73EFA0028F9D000210748FEF770
:104B70002CFA00210548FEF746FA01210348FEF70A
:104B800021FA09B000BD000040420F0000080040BB
:104B900000EB4001C1EBC0114FF6FF7202EAC10108
:104BA000134A11800021124A083A118010492C3909
:104BB000098841F001010E4A2C3A118000BF0C49CE
:104BC0001C39098801F001010029F8D008491C3975
:104BD000098821F00101064A1C3A118004492C3948
:104BE000098821F00101024A2C3A11807047000027
:104BF0002C08004000B587B001210520FDF74AFAD6
:104C000003208DF81A0018208DF81B002020ADF825
:104C1000180006A92848FCF7E7FE8020ADF8180028
:104C200006A92548FCF7E0FE4020ADF8180006A9CB
:104C30002148FCF7D9FE10208DF81B00ADF81800B4
:104C400003208DF81A0006A91B48FCF7CDFE1021A1
:104C50001948FCF79FFF1948FEF700F801210803E7
:104C6000FDF718FA00211548FDF780FE0020ADF889
:104C700004004FF48270ADF806000020ADF80A0081
:104C8000ADF80C00ADF808004FF40070ADF80E0060
:104C90001020ADF810000020ADF812000720ADF88C
:104CA000140001A90548FEF713F801210348FDF798
:104CB0005DFE07B000BD000000080140003001406B
:104CC00070B504460026002507E0681C80B2054642
:104CD0004FF6FF71884200D105E002210F48FDF731
:104CE000E9FF0028F1D000BF47F6FF750B4884812B
:104CF00007E0681C80B205464FF6FF71884200D17C
:104D000005E001210548FDF7D5FF0028F1D000BFDF
:104D100002488089C6B2304670BD000000300140B4
:104D200070B50546284601F05FFA044634B92846B6
:104D300004F0BCFE04460CB900202860204670BD7B
:104D400070B50446204604F0B1FE05460DB90020BA
:104D50002060284670BD2DE9F74F82B08A460022B8
:104D600002A9049801F058FC019004980468019885
:104D700000286DD1D4E90410801E814203D8206937
:104D8000CAF8000064E094F800B00026BBF1010FFF
:104D90001CD1022700BF3946204601F0FFFE8046A5
:104DA00008F1010010B9012001900EE0B8F1010FE7
:104DB00002D10220019008E0B8F1000F00D1761C6A
:104DC000781C074661698842E5D33AE06769206A42
:104DD00000904FF00009002500BFB9F1000F0ED17F
:104DE0000098421C01462046009202F095FE019078
:104DF000019800B124E004F130054FF40079BBF1D3
:104E0000020F09D12878697840EA012000B9761CA0
:104E1000AD1CA9F1020910E0E8780006A97840EA83
:104E20000140697840EA01202978084320F0704069
:104E300000B9761C2D1DA9F10409781E071ECCD1DE
:104E400000BF2661607940F001006071CAF800601F
:104E5000019805B0BDE8F08F2DE9F74189B00D4606
:104E60009046002209A9684601F0D6FB044624BBFF
:104E70001DB30020029000216846FFF7DCFC0446C9
:104E8000DCB901216846FFF7AAFB044684B90B226E
:104E90002846059902F01BFA0B2700BF0020E855B1
:104EA00007B904E0781E0746285C2028F6D000BF2A
:104EB000042C02D100202870002444BBB8F1000F5C
:104EC00025D0009A1046D16902F026FE0446F4B9B6
:104ED00000980078032801D1432000E027200646EF
:104EE000009830303044C0780106009830303044AB
:104EF000807841EA0041009830303044407841EAFF
:104F0000002000993031895D0843C8F80000204630
:104F10000CB0BDE8F0812DE9FC4707468846914674
:104F200000243E4613E06B46012201A9484600F0EA
:104F3000B8FE0098012800D00DE09DF8045000BF95
:104F400006F8015B641C0A2D00D104E000BFA8F143
:104F50000100A042E7DC00BF0020307014B13846E9
:104F6000BDE8FC870020FBE72DE9FE4F04460D4617
:104F7000204604F09BFD0290029810B10298BDE813
:104F8000FE8FE07908B1E079F9E7606A002871D016
:104F9000681C00283BD1D4F8248058F804AB4FF0AB
:104FA000020926693EB300BF00964FF0000B09F1DD
:104FB000020900BF01960BF1010B3146206801F098
:104FC000EDFD0646012E02D80220E071D7E7701CE5
:104FD00010B90120E071D2E70198401C8642E9D067
:104FE000D14504D848F804BB009848F8040B206861
:104FF0004069B042D8D8606AC0F80090D14503D863
:105000000020C8F8000047E01120029044E0E0686A
:10501000A84200D2E568A560002D3DD0691E20465B
:10502000FEF742FF606161692068FEF756FF0746A0
:1050300017B90220E071A2E720688078401E691E3F
:1050400000EA512007442089C0F3080020B3A0697A
:10505000B84221D0A07900F0400080B121684878A2
:10506000012304F12801A269FFF7F4FC18B1012023
:10507000E07184E711E0A07920F04000A071216880
:10508000487801233A4604F12801FFF7A5FC10B146
:105090000120E07173E7A761ABE0E068A84204D2A9
:1050A000A07900F0020000B9E568D4F808904FF04C
:1050B0000008C4F80880002D67D020688078470277
:1050C000B9F1000F11D0681EB0FBF7F1A9F1010092
:1050D000B0FBF7F0814208D3A9F10100791E8843A3
:1050E000A060A0682D1A666912E026697EB90021C9
:1050F0002068FEF76FFF0646012E02D10220E07104
:105100003DE7701C10B90120E07138E72661666147
:10511000C6B323E0A07900F0020038B13146206820
:10512000FEF758FF064636B93D4619E0314620687D
:1051300001F034FD0646701C10B90120E0711EE735
:10514000012E03D920684069B04202D80220E071E4
:1051500015E76661A0683844A060ED1BBD42D9D850
:1051600000BFA0682844A060C5F3080050B13146D4
:105170002068FEF7B2FE8046B8F1000F03D102208E
:10518000E071FCE601E008EB55282089C0F3080037
:1051900020B3A069404521D0A07900F0400078B14B
:1051A00021684878012304F12801A269FFF752FC25
:1051B00010B10120E071E2E6A07920F04000A0717A
:1051C000216848780123424604F12801FFF704FCD6
:1051D00010B10120E071D2E6C4F81880D4E90201D0
:1051E000884205D9A068E060A07940F02000A07155
:1051F00000BF0298C3E62DE9F14F8CB001F042FDEB
:10520000064601220CA903A801F006FA0546002D66
:105210007BD14FF4007001F0D7F98046B8F1000F50
:1052200003D111200DB0BDE8F08FCDF82880CDF866
:1052300024D003A80C9901F0F3FB054605B9082515
:1052400000BF042D7AD100210398FEF7C3FE074664
:10525000002507B90725012F00D10225781C00B9C8
:1052600001251DB9039803F0D0F90546002D5BD147
:1052700039460398FEF731FE8246039800F1300468
:105280004FF400720021204602F0BCF80B222021CE
:10529000204602F0B7F82E2020701020E072A6758C
:1052A000310AE175310C2176310E6176394620469E
:1052B00003F02FF92022214604F1200002F007F824
:1052C0002E2084F82100DDF814B00398007803281C
:1052D00004D10398406A584500D1AB46594604F1C1
:1052E000200003F016F9039890F8029018E0039854
:1052F000C0F82CA00AF1010A012003990871039853
:1053000003F083F905460DB10DE030E04FF4007273
:105310000021204602F076F8A9F1010000F0FF0913
:10532000B9F1000FE3D100BF1DB903A8FFF7B9F928
:10533000054625B13946039803F0B5F814E0089CFA
:105340001020E072A675310AE175310C2176310E1C
:1053500061763946204603F0DCF801200399087194
:10536000039803F0EEF80546404601F033F928466D
:1053700058E700002DE9F74F90B0914610A801F0D2
:1053800009FD0F900F98002803DA0B2013B0BDE839
:10539000F08F1198012801DD1320F7E7A9F1010032
:1053A00000EA090008B11320F0E7FE490F9851F810
:1053B00020B0BBF1000F01D10C20E7E700208BF8F3
:1053C00000000F98C0B20C9000200B900C98FFF7D3
:1053D00081FA0190019800F0010008B10320D5E79F
:1053E000019800F0040008B10A20CFE700BF04AA2A
:1053F00001210C98FFF79EFA10B90498802801D279
:105400000120C3E7119808B1002000E03F2080464A
:105410000498A0EB08000490B9F1000F13D14FF4E9
:10542000FA610498B0FBF1F00A904FF0000A01E035
:105430000AF1010ADC4830F81A100A988142F7D8BC
:10544000DA4830F81A904FEA5929B9F1000F01D122
:105450004FF00109B9F1800F01D94FF0800904988C
:10546000B0FBF9F7012540F6F670874200D302251C
:105470004FF6F670874200D30325032D0AD108208A
:1054800000EB870000F2FF10460A20200390002066
:10549000029011E0012D05D107EB4700401C4008A8
:1054A000C01C01E07800001D064606F2FF10460A07
:1054B0000120039020200290039840440790079811
:1054C000304406900299069808440590059848448F
:1054D000A0EB08000499884201D90E2056E709AADA
:1054E00003210C98FFF726FA28B9099818B10998F2
:1054F000B0F5004F01D90120099009990598084499
:10550000401E491E8843099009990598081A099078
:10551000032D08D109990398084403900999079825
:105520000844079001E009980644DDE90301081AE0
:10553000811B0298081AB0FBF9F7022D03D140F63F
:10554000F670874205D3032D05D14FF6F6708742DA
:1055500001D20E201AE7032D02D10C200D9010E08D
:10556000012D06D10498B0F5803F02D201200D90A4
:1055700007E00498B0F5803F01D2042000E0062047
:105580000D9000BF119810B1F0200E9044E04FF440
:10559000007200210BF1300001F034FF0BF5F774BD
:1055A00001206070A0700020E0700D982071FE2036
:1055B0006071049840443F21B0FBF1F0FF21B0FB43
:1055C000F1F009903F21099841EA9000A0710998F3
:1055D000E0713F20207200216172A172E172049893
:1055E00020730498010A61730498010CA173049854
:1055F000010EE17355218BF82E12AA218BF82F1280
:10560000012300220BF130010C98FFF723FA08B1B7
:105610000120BBE6F8200E900BF130044FF400722D
:105620000021204601F0EEFE0B2261A1204601F090
:105630004EFE4FF4007A84F80BA04FEA1A21217332
:1056400084F80D900398A0730398010AE173012078
:105650002074032D01D1002001E04FF40070824638
:1056600084F811A04FEA1A21A1740498B0F5803F84
:1056700005D20498E0740498010A217510E004989A
:1056800084F820000498C0F30721212001550498D4
:10569000C0F30741222001550498010E2320015533
:1056A0000E9860753F20207600216176FF20A0765D
:1056B000E17684F81C804FEA182161774FEA18419F
:1056C000A1774FEA1861E17701F0DCFA0990032D28
:1056D0003ED1099884F843000998C0F3072144207B
:1056E00001550998C0F30741452001550998010E5D
:1056F0004620015584F82460C6F307212520015572
:10570000C6F3074126200155310E272001550220FE
:1057100084F82C0000212D2001552E2001552F202A
:105720000155012084F8300031200155062084F80D
:10573000320033200155802084F84000292084F86D
:10574000420013221DA104F1470001F0C0FD1FE03B
:10575000099884F827000998C0F3072128200155EB
:105760000998C0F30741292001550998010E2A2004
:105770000155A675310AE175802084F8240029209E
:1057800084F82600132212A104F12B0001F09FFDE2
:10579000552084F8FE01AA2140F2FF100155012393
:1057A00042461FE09C0D002058A600086EA6000887
:1057B000EBFE904D53444F53352E30004E4F204E4C
:1057C000414D4520202020464154333220202000E6
:1057D0004E4F204E414D4520202020464154202050
:1057E0002020200021460C98FFF734F908B1012051
:1057F000CCE5032D06D1012308F1060221460C98C1
:10580000FFF728F9079808904FF0000A61E04FF47D
:1058100000720021204601F0F5FD0E980990032D3D
:1058200014D0012D01D1624801E06FF0FF00099909
:1058300008430990099820700998000A6070099837
:10584000000CA0700998000EE07019E0099860F053
:10585000FF000990099820700998000A6070099863
:10586000000CA0700998000EE070FF202071FF214D
:105870006171A171E17120726172A1720F21E172F7
:105880000898411C02460123089121460C98FFF715
:10589000E1F808B1012079E54FF4007200212046BB
:1058A00001F0B0FD012009900EE00898411C02466D
:1058B0000123089121460C98FFF7CCF808B101208C
:1058C00064E50998401C09900998B042EDD30AF1AB
:1058D000010ABAF1000F9AD0032D01D1484600E029
:1058E0000298824600BF0898411C02460123089195
:1058F00021460C98FFF7AEF808B1012046E5AAF161
:105900000100B0F1000AEED1032D46D152202070E3
:1059100060706120A0704120E070722084F8E40182
:10592000722140F2E51001554121401C01556121D1
:10593000401C0155781E84F8E801C0F3072140F2AD
:10594000E9100155781EC0F307414FF4F570015579
:10595000781E010E40F2EB100155022084F8EC0194
:10596000002140F2ED100155401C0155401C01552D
:10597000552084F8FE01AA2140F2FF1001550123B1
:1059800008F1010221460C98FFF764F8012308F1A1
:10599000070221460C98FFF75DF8002211460C988B
:1059A000FEF7C8FF08B10120F0E40020EEE400009B
:1059B00000FFFF00F7B582B016460398019001A8DA
:1059C00001F0E8F90546002D02DA0B2005B0F0BD24
:1059D0000E4850F825400CB100202070029810B1FC
:1059E0000020029908700949029841F825000298A0
:1059F00008B1012E01D00020E8E7002203A902A887
:105A000000F00AFE07463846E0E700009C0D002043
:105A10002DE9F7478DB0054616461DB9092010B08F
:105A2000BDE8F0870020286006F01F0626F001027E
:105A30000EA904A800F0F0FD0746002F73D14FF423
:105A4000007000F0C1FD8146B9F1000F01D11120B5
:105A5000E5E7CDF82C9001A80A9004A80E9900F073
:105A6000DFFF0746099C0FB904B9062706F01C00A2
:105A7000002851D04FB1042F03D104A8FEF711FE26
:105A8000074646F00806099C09E0E07A00F011009C
:105A900008B1072703E006F0040000B10827002F33
:105AA00039D106F00800002835D001F0EBF8804627
:105AB00084F80E804FEA1821E1734FEA18412174EF
:105AC0004FEA186161740020E0722077002161774D
:105AD000A177E1772146049801F081F982460021FF
