:020000040800F2
:1000000040EE0020E1010008374B0008554600088B
:10001000354B000805100008C75B00080000000011
:10002000000000000000000000000000490100087E
:100030003F100008000000008D01000889560008EC
:10004000FB010008FB010008FB010008FB010008A0
:10005000FB010008FB010008FB010008FB01000890
:10006000FB010008FB010008FB0100080910000863
:10007000FB010008FB010008FB010008FB01000870
:10008000FB010008FB010008FB010008FB01000860
:10009000FB010008FB010008FB01000841100008FB
:1000A000FB01000879570008FB010008FB0100086C
:1000B000FB010008FB010008FB010008FB01000830
:1000C000FB010008FB010008FB010008FB01000820
:1000D000FB010008695B0008955B0008FB01000854
:1000E000FB010008FB010008FB010008FB01000800
:1000F000FB010008FB010008FB010008FB010008F0
:10010000FB010008FB010008FB010008FB010008DF
:10011000FB010008FB010008FB010008FB010008CF
:10012000FB010008FB010008FB010008FB010008BF
:10013000DFF810D000F0A6FB00480047B57D0008AE
:10014000AFF3008040EE0020224B19680868B0E849
:10015000F00F80F30988BFF36F8F4FF0000080F33A
:1001600011884EF00D0E7047000000000648006830
:10017000006880F3088862B661B6BFF34F8FBFF3A3
:100180006F8F00DF00BF00BF08ED00E0EFF30980D4
:10019000BFF36F8F0F4B1A6820E9F00F106008B59E
:1001A0004FF0500080F31188BFF34F8FBFF36F8F74
:1001B00009F0FAF84FF0000080F31188BDE808401C
:1001C00019680868B0E8F00F80F30988BFF36F8FF3
:1001D000704700BF94060020EFF3058070470000D1
:1001E0000648804706480047FEE7FEE7FEE7FEE7D1
:1001F000FEE7FEE7FEE7FEE7FEE7FEE73157000811
:1002000031010008202A04DB203A21FA02F0002103
:10021000704721FA02F3D040C2F120029140084316
:100220001946704740EA01039B0703D009E008C95B
:10023000121F08C0042AFAD203E011F8013B00F8AB
:10024000013B521EF9D27047D2B201E000F8012BF7
:10025000491EFBD270470022F6E710B513460A4646
:1002600004461946FFF7F0FF204610BD421C10F867
:10027000011B0029FBD1801A70472DE9FE4F8046F3
:1002800081EA0300C00F0C46009021F0004123F0EA
:100290000045B8EB0200A94105D2404621469046F0
:1002A0001C460B46024623F00040104347D0270D62
:1002B000C7F30A00C3F30A510290401A0190402884
:1002C0006BDAC3F3130040F4801B0098924620B110
:1002D0000023D2EB030A63EB0B0B01985946C0F1E4
:1002E0004002504600F0E9F906460D465046594690
:1002F000019A00F0F1F910EB08006141002487EA4F
:10030000115284EAE7731A4340D0009A62B3019A0B
:10031000012A4FEA075215DC001B61EB02014FF086
:10032000004202EA0752CDE90042001C41F580116B
:1003300032462B4600F028FA03B0BDE8F08F404665
:100340002146F9E7001B61EB0201001C41F5801317
:1003500000185B412018A2F5001747EB030140EAA3
:10036000D570B6196D4111E06D084FEA360645EAC1
:10037000C0754FEA0752001B61EB0201001C41F5FA
:10038000801149084FEA30000019514132462B468E
:1003900003B0BDE8F04F00F0E8B90098012240003A
:1003A0000023D0EB020263EBE073009821464FEA92
:1003B000E074B8EB000061EB0401E9E783F000436F
:1003C0005BE781F0004158E72DE9FE4F81EA030425
:1003D00004F0004421F0004100944FF0000B23F0A2
:1003E000004350EA01045ED052EA03045BD0C3F339
:1003F0000A54C1F30A552C44A4F2F3340194A0FB2F
:100400000254C1F3130141F48011C3F3130343F405
:10041000801301FB024400FB034E840A970A44EA5E
:10042000815447EA8357A4FB076802958D0A05FBB0
:1004300007854FEA932C04FB0C542705029D4FEAD5
:10044000065847EA1637B5EB08056EEB070C870E22
:10045000920E47EA811742EA8312A7FB0201B6EB2C
:100460000B0164EB00042B0D43EA0C335E1844EBE4
:100470001C50DA465146E7FB0201C5F313044FEA6C
:100480000B3343EA14534FEA0432019C43EA060358
:10049000A4F10C040294009CCDE900B400F074F9BE
:1004A00003B0BDE8F08F00200146F9E72DE9F04DDB
:1004B00081EA030404F0004B21F0004514464FF09C
:1004C000000A23F0004150EA050220D054EA01025C
:1004D0001DD0C5F30A570246C5F31303C1F3130039
:1004E000C1F30A5640F4801543F48013A7EB0608C5
:1004F000101BD64608F2FD3873EB050002D308F155
:10050000010801E092185B41B8F1000F03DA002006
:100510000146BDE8F08D00204FF480110646844668
:100520000EE0171B73EB050705D3121B63EB0503E6
:1005300006434CEA010C49084FEA300092185B412F
:1005400050EA0107EDD152EA030012D082EA04001A
:1005500083EA0501084305D0101BAB4106D20122F6
:10056000002306E000224FF0004302E06FF001029A
:1005700053101AEB06004CEB085110EB0A0041EB4C
:100580000B01BDE8F04D00F0F0B870B521F000436C
:1005900003430CD0C1F30A550024D5EB040564EBEA
:1005A0000403D617AD1AB34102DB0020014670BD2B
:1005B000201841EB025170BD0EB5C10F80EAE0700A
:1005C0000844CA07002140F233438DE80E000A4672
:1005D0000B4600F0D9F803B000BD0EB540F2334130
:1005E00002910021CDE900110A460B4600F0CCF83B
:1005F00003B000BD01F0004330B421F0004150EAE7
:10060000010206D00A0DA2F56072C1F31301002A9F
:1006100002DC30BC00207047440F44EAC104C10032
:10062000E01830BC00EBC25000F068B830B50B46A3
:10063000014600202022012409E021FA02F59D4212
:1006400005D303FA02F5491B04FA02F52844151EE6
:10065000A2F10102F1DC30BD2DE9F05F054600207A
:1006600092469B4688460646814640241BE0284623
:10067000414647462246FFF7C5FD53465A46C01A33
:10068000914110D311461846224600F016F82D1A53
:1006900067EB01084F4622460120002100F00DF8CB
:1006A00017EB00094E41201EA4F10104DFDC48468F
:1006B00031462A464346BDE8F09F202A04DB203A13
:1006C00000FA02F1002070479140C2F1200320FAA5
:1006D00003F3194390407047202A06DBCB17203ADA
:1006E00041FA02F043EAE07306E041FA02F3D04037
:1006F000C2F1200291400843194670470029A8BF63
:100700007047401C490008BF20F00100704710B43A
:10071000B0FA80FC00FA0CF050EA010404BF10BCEF
:10072000704749B1CCF1200421FA04F411FA0CF11C
:1007300018BF012121430843A3EB0C01CB1D4FEA55
:1007400000614FEA102042BF002010BC704700EB50
:10075000C35010440029A4BF10BC7047401C49007E
:1007600008BF20F0010010BC704710B5141E73F1D3
:10077000000408DA401C41F1000192185B411A4361
:1007800001D120F0010010BD2DE9F04D92469B46AD
:1007900011B1B1FA81F202E0B0FA80F22032904653
:1007A000FFF78BFF04460F4640EA0A0041EA0B01BF
:1007B00053465A46084313D0114653EA010019D054
:1007C000C8F140025046FFF71DFD05460E46504653
:1007D00059464246FFF771FF084305D0012004E067
:1007E00020463946BDE8F08D0020054346EAE07614
:1007F0002C4337430A986305E40AA0EB0800002263
:10080000FD0A44EA47540A3002D500200146E9E7D0
:10081000010510196941DDE9084500196941BDE884
:10082000F04DA2E7C1F30A52C1F3130140F2FF33C6
:1008300041F480119A4202DA00200146704740F2EA
:1008400033439A42A2F2334202DC5242FFF7DABC4F
:10085000FFF733BF30B5041E71F1000404DB4FF025
:100860000044404264EB0101141E73F1000405DBF7
:100870001C464FF00043524263EB0403994208BF09
:10088000904230BD064C074D06E0E06840F00103A1
:1008900094E8070098471034AC42F6D3FFF74CFCBD
:1008A000744E0308944E030830B58C1810F8012BD1
:1008B00012F00F0301D110F8013B120906D110F814
:1008C000012B03E010F8015B01F8015B5B1EF9D11D
:1008D00001E001F8013B521EFBD1A142E6D300200A
:1008E00030BD000010B5094800F0B0FB08B100F0C1
:1008F000AAFB0A220649054800F0C0FE002803D0E2
:10090000BDE8104000F09FBB10BD0000500F00205C
:100910001812002010B50021074B0A4603EB4104D2
:1009200034F81040491CC9B222440A29F6D30A20DF
:10093000B2FBF0F080B210BD1812002070B5044672
:1009400000688168C943C90717D1816821F0010196
:10095000816001F0A1FD05460AE000BF01F09CFDA9
:10096000401B022804D920688068C043C00706D015
:1009700020688068C043C007F0D0002070BDA06A26
:1009800040F01000A062E06A40F00100E062012047
:1009900070BD10B50146406A826A12F0500F05D052
:1009A000006A026BBDE8104008461047816A41F4B6
:1009B0000071816201688968C1F3424107290CD145
:1009C000017B51B9816A21F480718162816AC90415
:1009D00003D4816A41F00101816200F0E9FC10BD9D
:1009E00010B5406A816A41F040018162C16A41F0FC
:1009F0000401C16200F0DEFC10BD10B5406A00F0D9
:100A0000D8FC10BDF8B50026044600960068816841
:100A1000C943C9072DD0816841F0010181601648A2
:100A200016490068B0FBF1F000E0401E009000287D
:100A3000FBD101F031FD054616E000BF01F02CFDB1
:100A4000401B022810D920688068C043C0070BD023
:100A5000A06A40F01000A062E06A40F00100E0628D
:100A600084F824600120F8BD20688068C043C00776
:100A7000E4D10020F8BD00009006002040420F00A5
:100A8000104F114C6FF00B054FF066364FF47A782B
:100A90000020FFF73FFFFFF7A0FD2A46FFF775FD97
:100AA00032463B46FFF790FCFFF7A4FDA04201DD74
:100AB000012000E0002004F095F9404607F092FA8A
:100AC000E6E7000066660A4000004040FF253C4C17
:100AD0003C4E88B0FB274FF0FE084FF4FA7930788F
:100AE000002868D02078FF285AD16078FB2857D199
:100AF000A078022804D003282BD004284DD04FE042
:100B00008DF800508DF8017002208DF80E508DF890
:100B100002008DF80F802C4804F0F8FC18B12B4827
:100B200004F0F4FC10B9E01C04F0C6F9172001F041
:100B3000EBFE1021684604F0C7F8484607F052FA69
:100B4000012004F08DF804F015F821A005F03CF820
:100B500026E08DF800508DF8017003208DF80E50BE
:100B60008DF802008DF80F80172001F097FE1648CF
:100B700004F09CF9154804F099F9484607F032FA58
:100B8000002004F06DF804F009F819A005F01CF835
:100B90001F48006907F0E2FB02E0002004F060F863
:100BA0001C490020307008800548FFF75FFB0146B4
:100BB0000348FFF750FB642007F014FA8FE70000AA
:100BC00020110020240000205C1400208416002046
:100BD00052582073797374656D2073656E64207349
:100BE0007461727420746F205458206465760A0012
:100BF00052582073797374656D207472616E736DD1
:100C00006974206461746120746F2050430A00008D
:100C10000000002022000020E4B0002460945A94D8
:100C20005E94A1465B945F94264627465D946421BA
:100C30000CA82794FFF70FFB24212AA8FFF70BFB32
:100C4000B34D4FF0FF3300222AA9E86807F020FADD
:100C50000028F1D1AF489DF8C8202AA9D0F8188003
:100C60006098D0B108F12000FFF7DCFA0020609016
:100C7000002209F10401404605F096FC024608EB0B
:100C800009004946808843BA934225D0A2A004F0C7
:100C90009BFF002509F1040A18E0BDF8AA0090FAAC
:100CA00090F9B9F1200F06D920224046FFF7BAFA91
:100CB00001206090C0E74046FFF7B4FAD8E700BFD4
:100CC00018F80510A1A004F07FFF6D1C5545F7DB57
:100CD000A0A004F079FFAFE709F1060082B2414617
:100CE0009D4804F06DFF68686421401C68600CA892
:100CF000FFF7B1FA98F80600022809D001289BD125
:100D000008F10F002890A9F10B0000250790F7E0EB
:100D10000025A9F10B00C11708F10F0800EB917A2B
:100D200071E000BF08EB85000068010204D5C043F4
:100D3000C0F31600401C4042FFF73EFC0022874BE8
:100D4000FFF742FB34AA02EBC402641CA4B2C2E95E
:100D50000001062C56D1DDE93E01CDE90A01DDE9AD
:100D60003C01CDE90801DDE93A01CDE90601DDE903
:100D70003801CDE90401DDE93601CDE90201DDE903
:100D80003401CDE9000176A10CA85D9A04F02CFF96
:100D90005D984FF4FA71B0FBF1F201FB120008B953
:100DA00001205B902798B0F1C87F16DB774804F0EC
:100DB0007DF85F9878A2401C5F90CDE9002074A177
:100DC00002917B4B7BA27CA140A804F00DFF40A9BF
:100DD0006E4804F045F900200DE00CA8FFF746FA34
:100DE000014602220CA85B9B04F046F90CA8FFF711
:100DF0003DFA2799084427905D98401C5D9000209B
:100E000004465B906D1CB5EBAA0FBFF653AF89E7A4
:100E1000289805EB450100EB41000168619180884D
:100E2000ADF88801BDF98401B0F5006F02DBA0F5D3
:100E3000805000B2FFF7C0FB624A634BFFF736FBFE
:100E40008346BDF986010191B0F5006F02DBA0F584
:100E5000805000B2FFF7B0FB5A4A5B4BFFF726FB0E
:100E60008046BDF988018A46B0F5006F02DBA0F527
:100E7000805000B2FFF7A0FB524A534BFFF716FB1E
:100E8000CDF800B0CDE90401CDE9028A32464FA188
:100E90000CA804F0A9FE4FF47A70B6FBF0F100FB49
:100EA000116008B901205A90B7F1487F16DB4F480E
:100EB00003F0FCFF5E984EA2401CCDE9002034A157
:100EC00002915E903A4B3BA23BA14DA804F08CFEF0
:100ED0004DA9464804F0C4F800270CE00CA8FFF721
:100EE000C5F9014601220CA85A9B04F0C5F80CA8CC
:100EF000FFF7BCF9074400205A906D1C0798761C38
:100F0000062190FBF1F0A8427FF7D4AE80E7000005
:100F100000000020300F00207061636B4C656E3A5A
:100F200025642C204352432063616C2076616C75EC
:100F3000653A253034782C206372632076616C75B5
:100F400065203A253034780A0000000025303258F8
:100F5000200000000A00000088110020D012E33FAA
:100F600073747261696E2025642C20252E336620EF
:100F7000252E336620252E336620252E3366202528
:100F80002E336620252E33660A00000084160020CA
:100F90002E747874000000005F73747261696E5380
:100FA00061766546696C655F706172745F00000010
:100FB000AC180020303A0000257325732573256492
:100FC000257300009D11A5BDC1972340766962720B
:100FD0006174696F6E2025642C20252E33662025D0
:100FE0002E336620252E33660A0000005C14002094
:100FF0005F6164786C5361766546696C655F7061AA
:1010000072745F00FEE70000014800F0A3BC00001E
:10101000800F002030B590F840500124AC40C56BE3
:101020006C60046863604368102B036803D09960A8
:101030000068C26030BD9A600068C16030BD704712
:10104000402001F041B872B6FEE70000F8B5002577
:101050000446009500683949884209D038498842D9
:1010600006D03849884203D07E2137A005F03AFAED
:1010700094F8240001280BD0012084F82400204695
:10108000FFF75CFC2046FFF7BDFC060002D050E0F5
:101090000220F8BDA06A20F4885040F00200A0624F
:1010A000022001F0F3FC37490968B1FBF0F0400081
:1010B00000E0401E00900028FBD12068816841F0CC
:1010C0000801816001F0E8F9074608E001F0E4F961
:1010D000C01B0A2803D920688068000715D420683F
:1010E00080680007F2D42068816841F004018160C3
:1010F00001F0D2F9074612E001F0CEF9C01B0A2830
:101100000DD920688068400709D5A06A20F0020048
:1011100040F01000A06284F824500120F8BD20683F
:1011200080684007E8D4A06A20F0020040F0010087
:10113000A06284F824503046F8BD0000002401402D
:1011400000280140003C01402E2E2F447269766534
:1011500072732F53544D3332463178785F48414C87
:101160005F4472697665722F5372632F73746D33A7
:1011700032663178785F68616C5F6164635F65785F
:101180002E630000900600202DE9F8430026054656
:1011900000960068734F0C46B046B8420AD07249B8
:1011A000884207D07149884204D040F2D67170A0BD
:1011B00005F098F9206830B3012824D0022822D005
:1011C000032820D004281ED005281CD006281AD0B9
:1011D000072818D0082816D0092814D00A2812D0B9
:1011E0000B2810D00C280ED00D280CD00E280AD0B9
:1011F0000F2808D0102806D0112804D040F2D7714B
:101200005BA005F06FF96068012822D0022820D089
:1012100003281ED004281CD005281AD0062818D070
:10122000072816D0082814D0092812D00A2810D070
:101230000B280ED00C280CD00D280AD00E2808D070
:101240000F2806D0102804D04FF4FB6148A005F009
:1012500049F9A06890B1012810D002280ED00328C7
:101260000CD004280AD0052808D0062806D0072864
:1012700004D040F2D9713EA005F034F995F824006D
:10128000012812D0012085F8240060681F2107285A
:101290000ED22B685A6B401E00EB800081408A43BF
:1012A000216881400A435A631AE00220BDE8F883AE
:1012B0002A680D280AD2136BC01F00EB8000814002
:1012C0008B43216881400B43136309E0D36A0D38D7
:1012D00000EB800081408B43216881400B43D36247
:1012E000206807212A680A280AD3D3680A3800EB45
:1012F000400081408B43A16881400B43D36008E0EC
:10130000136900EB400081408B43A16881400B438F
:1013100013612068102801D011281FD12868B84215
:1013200017D18168090219D4816841F400018160F4
:101330002068102812D11C481C490068B0FBF1F04D
:1013400000EB8000400000E0401E00900028FBD130
:1013500004E0A86A40F02000A862012685F82480F5
:101360003046A3E70024014000280140003C014032
:101370002E2E2F447269766572732F53544D33327B
:10138000463178785F48414C5F4472697665722FC8
:101390005372632F73746D3332663178785F68618E
:1013A0006C5F6164632E63009006002040420F0072
:1013B00070477047704700002DE9F04704004FF078
:1013C00000057CD075492068754E884209D0754962
:1013D000884206D0B04204D040F2A91172A005F0B4
:1013E00081F8606838B1B0F5006F04D04FF4D57162
:1013F0006DA005F077F8A0684FF4807930B14845CA
:1014000004D040F2AB1168A005F06CF8207B30B13D
:10141000012804D04FF4D67163A005F063F8E069A9
:101420004FF400284FF4402AB8B1B0F5003F14D073
:10143000B0F5C02F11D040450FD0B0F5202F0CD003
:1014400050450AD0B0F5802F07D0B0F5602F04D0FA
:1014500040F2AD1154A005F045F8A06800281CD05A
:101460002069401E0F2804D940F2B1114EA005F0AA
:1014700039F8207D88B1012806D04FF4D9714AA0EF
:1014800005F030F8207D40B1A069401E072804D93E
:1014900040F2B51144A005F025F8A06A002728B94C
:1014A000E76284F82470204600F0A0F82046FFF799
:1014B00045FAA16AC90600D430B1A06A00E06BE029
:1014C00040F01000A06267E0A16A21F4885141F069
:1014D0000201A1622368E169B34202D1514500D102
:1014E0004146267BCC4641EA460261680A43A16830
:1014F000614509D0012907D05FF0000194F81480FC
:10150000B8F1010F02D00AE04946F7E7C6B1A66A72
:1015100046F02006A662E66A46F00106E6625E68CC
:1015200026F469460E435E60236899682C4E31406C
:1015300011439960A16861450BD0012909D00CE0E5
:10154000DFF8A080A66908EB46360E4346F400613A
:10155000E5E7218A0D05A5F580152168CB6A23F4FE
:1015600070032B43CB62216889681F4B194091425D
:1015700008D1E762A16A21F0020141F00101A162F4
:10158000BDE8F087A06A20F0020040F01000A062E1
:10159000E06A40F00100E0620120F1E70024014030
:1015A000003C0140002801402E2E2F4472697665D0
:1015B00072732F53544D3332463178785F48414C23
:1015C0005F4472697665722F5372632F73746D3343
:1015D00032663178785F68616C5F6164632E6300A6
:1015E000FDF7E1FF00E0FFFFFE0E1FFF70B586B0C4
:1015F00000260546009601960296039600681A4951
:1016000088422FD11949886940F40070886188693F
:1016100000F400700490886940F0040088618869D3
:10162000694600F00400049002200090032001901D
:101630000F4800F055FD104C0E48C4E9000680200C
:10164000C4E9026040002061800060612020A06148
:10165000C001E061204600F0A1FA08B1FFF7F3FCF9
:101660002C62656206B070BD00240140001002408B
:101670000008014008000240800F00202DE9F047DB
:1016800004460068414D90468946A84207D040492B
:10169000884204D040F216613EA004F023FF3B4E86
:1016A00020684A4F361DA84201D0B84207D13068A1
:1016B00010F4702F03D001252846BDE8F08794F878
:1016C000240001280CD0012084F824002046FFF7D4
:1016D00099F905004FF0000004D084F82400EBE7EE
:1016E0000220EAE7A16A40F60162914341F4807169
:1016F000A1622168B94218D1326812F4702F14D057
:10170000A16A41F48011A1623168490505D5A16A39
:1017100021F4005141F48051A162A16AC9040AD5A3
:10172000E16A21F00601E16206E0A26A22F4801279
:10173000A2624968E9E7E06284F82400216A24484B
:101740008862216A2348C862216A234808632168A5
:101750006FF0020008602068816841F48071816048
:10176000216843464A464C31206A00F0EFFA20686F
:101770008168C1F342410729816803D041F4801197
:10178000816099E741F4A001FAE7000000240140DC
:10179000003C01402E2E2F447269766572732F53E0
:1017A000544D3332463178785F48414C5F4472691A
:1017B0007665722F5372632F73746D33326631788E
:1017C000785F68616C5F6164632E6300002801408C
:1017D00093090008FB090008E109000810B590F81A
:1017E00021100022022905D00421816380F82020E5
:1017F000012010BD01680B6823F00E030B60016827
:101800000B6823F001030B6090F84030C46B01219A
:1018100001FA03F3636080F8211080F8202010465D
:1018200010BD00002DE9F05F90F82110002402297E
:1018300003D004218163012485E001680A6822F055
:101840000E020A6001680A6822F001020A603F4E37
:101850003E4FB215DFF8F4C0DFF8F090DFF8ECA0EF
:10186000DFF8E8B0DFF8E4E00168783F1301150223
:10187000ACF1640CA9F15009AAF13C0AABF1280BB8
:10188000AEF1140E4FF48018B14227D9B9420ED0F0
:10189000614512D049451DD0514518D0594518D041
:1018A000714501D1424615E0294EB14201D10122D4
:1018B00010E0274E1436B14201D110220AE0244E26
:1018C0002836B14206D0224A3C32914201D11A4612
:1018D00000E02A461E49091F0A602BE0B94213D0D6
:1018E000614517D0494522D051451DD059451DD0DD
:1018F000714501D142461AE0B14202D14FF08072E7
:1019000015E0134EB14201D1012210E0104E143601
:10191000B14201D110220AE00D4E2836B14206D064
:101920000B4A3C32914201D11A4600E02A4607494F
:1019300080394A60012180F82110002180F82010B0
:10194000416B01B188472046BDE8F09F800002400E
:10195000080402402DE9F05FC16B0A6801680B685A
:10196000046C4FF0040808FA04F8844D844E854F47
:10197000DFF814C2DFF81492DFF814A2DFF814B213
:10198000DFF814E218EA020F65D05FEA437862D507
:101990000A68920603D40A6822F004020A60DFF89B
:1019A000F0814FF48062016808F1140813011402F9
:1019B000414524D9A9420DD0B1420FD0B9421AD025
:1019C000614515D0494515D0514501D1120312E0AA
:1019D000594501D104220EE0714501D140220AE0AF
:1019E0006D4D1435A94206D06B4A2832914201D17F
:1019F0001A4600E022466749091F0A6029E0A94209
:101A000013D0B14215D0B94220D061451BD0494511
:101A10001BD0514502D14FF4800217E0414502D15D
:101A20004FF0806212E0594501D104220EE0714569
:101A300001D140220AE0584D1435A94206D0564A39
:101A40002832914201D11A4600E022464B4908391A
:101A50004A60C16A71E04FF0020808FA04F818EA17
:101A6000020F70D05FEA83786DD50A68920606D4BB
:101A70000A6822F00A020A60012180F82110DFF8CA
:101A800010814FF40072016808F114081301140268
:101A9000414524D9A9420DD0B1420FD0B9421AD044
:101AA000614515D0494515D0514501D1120312E0C9
:101AB000594501D102220EE0714501D120220AE0F0
:101AC000354D1435A94206D0334A2832914201D10E
:101AD0001A4600E022462F49091F0A6029E0A94260
:101AE00013D0B14215D0B94220D061451BD0494531
:101AF0001BD0514502D14FF4001217E0414502D1ED
:101B00004FF0007212E0594501D102220EE07145FA
:101B100001D120220AE0204D1435A94206D01E4AE8
:101B20002832914201D11A4600E022461349083971
:101B30004A60002180F82010816A00291CD0BDE88D
:101B4000F05F0847FFE70825A540154214D01A07A3
:101B500012D50A6822F00E020A6090F84020C36B8A
:101B6000012101FA02F25A60816380F821100021FC
:101B700080F82010016BE0E7BDE8F09F080002400C
:101B80001C00024030000240440002405800024065
:101B90006C000240080402401C04024070B50400BE
:101BA0007ED05A4920685A4D88422DD05749143169
:101BB000884229D055492831884225D053493C31A3
:101BC000884221D05149503188421DD04F4964315B
:101BD000884219D04D497831884215D0A84213D097
:101BE0004B49143188420FD04949283188420BD0E3
:101BF00047493C31884207D045495031884203D09B
:101C0000992144A004F06EFC606840B1102806D011
:101C1000B0F5804F03D09A213EA004F063FCA06889
:101C2000402804D018B19B213AA004F05BFCE06886
:101C3000802804D018B19C2136A004F053FC206900
:101C400048B1B0F5807F06D0B0F5007F03D09D216C
:101C500030A004F047FC606948B1B0F5806F06D051
:101C6000B0F5006F03D09E212AA004F03BFCA069D0
:101C700028B1202803D09F2126A004F033FCE0697E
:101C800060B1B0F5805F09D0B0F5005F06D0B0F567
:101C9000405F03D0A0211FA004F024FC142000E02A
:101CA0000CE02168A9420BD2184A52420A44B2FB06
:101CB000F0F080002064154808380AE0012070BD6B
:101CC000134A52420A44B2FBF0F0800020641048EC
:101CD0000838E063022084F821000A6843F6F070B7
:101CE0008243F4E901031843D4E902352B43184336
:101CF0002369184363691843A369184310430860B4
:101D00000020606301216177207770BD08000240E8
:101D1000080402402E2E2F447269766572732F5389
:101D2000544D3332463178785F48414C5F44726994
:101D30007665722F5372632F73746D333266317808
:101D4000785F68616C5F646D612E63002DE9F0411E
:101D5000884604460025581E4FF6FF711E4617465A
:101D6000884204D34FF4B7711DA004F0BBFB94F874
:101D7000200001280DD0012084F8200094F82110C3
:101D80000020012907D084F8200002252846BDE85C
:101D9000F0810220FBE7022184F82110A063206873
:101DA000016821F00101016033463A464146204670
:101DB000FFF730F9E06A00282068016802D041F09E
:101DC0000E0106E021F0040101602068016841F085
:101DD0000A0101602068016841F001010160D5E756
:101DE0002E2E2F447269766572732F53544D333201
:101DF000463178785F48414C5F4472697665722F4E
:101E00005372632F73746D3332663178785F686113
:101E10006C5F646D612E63002DE9F05F544F002507
:101E2000DFF85091DFF850A1DFF850B10E460446BC
:101E3000B84213D04C4511D054450FD05C450DD05D
:101E40004F4884420AD04F48844207D04E488442CB
:101E500004D04FF4B4714DA004F044FB3004000CE6
:101E600001D0300C7ED040F2691148A004F03AFB5A
:101E700078E00120A840304072D0534925F0030299
:101E80000A44D2F808C0A9070B0F4FF00F0E0EFA44
:101E900003F101EA0C0CBC4202D14FF000081EE035
:101EA0004C4502D14FF0010819E0544502D14FF0E2
:101EB000020814E05C4502D14FF003080FE0DFF8A0
:101EC000C080444502D14FF0040808E0DFF8B48038
:101ED000444502D14FF0050801E04FF0060808FA2A
:101EE00003F8E0451FD1DFF8E4C0DCF8003083439D
:101EF000CCF800300CF1040CDCF800308343CCF853
:101F00000030324B0C33D3F800C02CEA000CC3F87D
:101F100000C01B1FD3F800C02CEA000CC3F800C09F
:101F200093688B439360FF2801D8224601E004F1B7
:101F300004024FEA850101D9A1F12001D2F800C0C5
:101F40000EFA01F32CEA030C4FF0040303FA01F339
:101F50004CEA030CC2F800C0E16821EA0001E1602C
:101F600005F1010536FA05F083D1BDE8F09F0000C8
:101F700000080140000C0140001001400014014025
:101F800000180140001C0140002001402E2E2F446B
:101F90007269766572732F53544D333246317878B7
:101FA0005F48414C5F4472697665722F5372632FAC
:101FB00073746D3332663178785F68616C5F677017
:101FC000696F2E6300000000000001400004014022
:101FD00030B589B0044624216846FEF73CF9402C10
:101FE00030D1072002F010FE044640062CD56020B8
:101FF00002F00AFE8DF8200002466946612002F0D8
:10200000E1FD2146072002F0A9FE02F0B3FD1D4DBF
:1020100000231A466946286806F0C8F8C01C11D18A
:10202000194C206896280BD1286806F06FF80346F3
:102030004FF44472154916A003F0C6FD002020603D
:10204000401C206009B030BDE0060BD521460720BA
:1020500002F084FE02F0A2FD012002F001FE02F077
:1020600089FDEFE7A00621464FF0070007D502F0F3
:1020700075FE02F093FD012002F0F2FDE2E702F0AE
:102080006DFEDFE70C00002028000020B3A0000850
:1020900025732C206174204C696E653A25642C20D0
:1020A00078517565756553656E6420697320657236
:1020B000722C207175657565206E756D2069733A97
:1020C0002564200A00000000044910B50A68024295
:1020D00002D00860FFF77CFF10BD0000140401402F
:1020E0002DE9F84F0027DFF8BCA2DFF8BCB20D469F
:1020F0000446B946504514D05C4512D0AB488442E2
:102100000FD0AB4884420CD0AA48844209D0AA48D8
:10211000844206D0A948844203D0BD21A8A004F07F
:10212000E1F928680104090C01D0000C03D0BE219C
:10213000A3A004F0D7F9686800281FD00128FCD0BC
:102140001128FAD00228F8D01228F6D0AB498842DC
:10215000F3D0AB498842F0D0AA498842EDD0AA49D1
:102160008842EAD0A9498842E7D0A9498842E4D008
:102170000328E2D0BF2192A004F0B4F90BE10120C2
:1021800000FA07F801EA0806464574D1544514D010
:102190005C4512D0854884420FD0854884420CD0DB
:1021A0008448844209D08448844206D083488442CB
:1021B00003D0CD2182A004F095F9904869680A1AED
:1021C000814259D00EDC032975D006DC002953D09A
:1021D000012919D0022969D131E0112921D0122910
:1021E00064D13AE0B2F5881F46D006DCB2F5803FF4
:1021F00042D0B2F5801F59D13EE0B2F5001F3BD06E
:10220000B2F5041F52D137E0E868022807D0012850
:1022100005D0032803D0D52169A004F063F9E8684C
:102220003EE0E868022807D0012805D0032803D043
:10223000DC2163A004F056F9E868001D30E0E8688E
:10224000022807D0012805D0032803D0E3215CA091
:1022500004F048F9E868083022E0E868022807D06E
:10226000012805D0032803D0EA2155A004F03AF94B
:10227000E8680C3014E08DE0A86880B1012811D026
:10228000022807D0F7214EA004F02CF9A86830B13D
:10229000012807D04FF00809C4F8148006E0042094
:1022A000814603E04FF00809C4F81080FF2E05D8DE
:1022B000224605E0FFE74FF00000F1E704F10402D9
:1022C0004FEA870001D9A0F1200013684FF00F01F9
:1022D00001FA00FC23EA0C0309FA00FC43EA0C03B0
:1022E00013606868C00055D54A48826942F001020F
:1022F0008261806927F0030200F0010000904648E7
:1023000013189868BA07120F91408843544501D1B9
:10231000002118E05C4501D1012114E023498C42E1
:1023200001D102210FE022498C4201D103210AE0B0
:1023300020498C4201D1042105E01F498C4201D182
:10234000052100E006219140014399606868C002C0
:102350003248016801D5314300E0B143016068684B
:1023600080022F48016801D5314300E0B14301608C
:10237000686880032B48016801D5314300E0B14310
:1023800001606868C0032848016801D5314300E056
:10239000B14301607F1C2E683146FE407FF4EFAEF2
:1023A000BDE8F88F00080140000C0140001001401A
:1023B0000014014000180140001C014000200140B1
:1023C0002E2E2F447269766572732F53544D33321B
:1023D000463178785F48414C5F4472697665722F68
:1023E0005372632F73746D3332663178785F68612E
:1023F0006C5F6770696F2E630000000000001110B1
:102400000000211000003110000012100000221006
:10241000000032100010024000000140080401409A
:102420000C040140040401400004014070B515464D
:102430000C00064604D14FF4EA7108A004F052F8EB
:1024400045B1012D04D040F2D51104A004F04AF8A2
:10245000346170BD2004306170BD00002E2E2F4409
:102460007269766572732F53544D333246317878E2
:102470005F48414C5F4472697665722F5372632FD7
:1024800073746D3332663178785F68616C5F677042
:10249000696F2E63000000000148806870470000EB
:1024A0008406002070B504007ED0894920688842E7
:1024B00007D08849884204D040F2DB1186A004F09E
:1024C00011F860689249401E884204D94FF4EE71B9
:1024D00081A004F007F8A0684FF4804530B1A8420D
:1024E00004D040F2DD117CA003F0FCFFE068800A1C
:1024F00004D04FF4EF7178A003F0F4FF2069A842F4
:1025000007D0B0F5404F04D040F2DF1172A003F0C5
:10251000E9FF606930B1012804D04FF4F0716EA07A
:1025200003F0E0FFA06930F0FE0004D040F2E111BA
:1025300069A003F0D7FFE06930B1402804D04FF420
:10254000F17165A003F0CEFF206A30B1802804D07D
:1025500040F2E31160A003F0C5FF94F83D000025B0
:1025600020B984F83C50204600F0DCF8242084F8A0
:102570003D002068016821F00101016020680168C8
:1025800041F4004101602068016821F400410160CC
:1025900000F034FD5F4A6168914202D85E4901E073
:1025A00002E05E49884201D2012070BD5C49236887
:1025B000B0FBF1F15E6826F03F060E435E60636893
:1025C000934206D94FF4967359434FF47A73B1FB93
:1025D000F3F12368491C1E6A26F03F063143196255
:1025E0006168914210D84900401EB0FBF1F2521CC4
:1025F000C2F30B02042A01D2042023E0B0FBF1F065
:10260000401CC0F30B001DE0A368EBB301EBC1025B
:1026100002EB0116421EB2FBF6F2521C42F480425B
:1026200012054AD08BB301EBC10202EB0111401E2F
:10263000B0FBF1F0401CC0F30B0040F4804000BF41
:1026400040F400402168CA694CF6FF739A43104376
:10265000C861D4E90701084321680A6822F0C00272
:1026600010430860D4E90310084321688A6848F2DF
:10267000FF339A4310438860D4E905010843216879
:10268000CA6822F0FF0201E010E018E01043C860C1
:102690002068016841F0010101602564202084F870
:1026A0003D00256384F83E50002070BD01EB4106DB
:1026B000421EB2FBF6F2521CB2E70120C2E701EB68
:1026C0004101401EB0FBF1F0401CC0F30B00B7E726
:1026D00000540040005800402E2E2F447269766549
:1026E00072732F53544D3332463178785F48414CE2
:1026F0005F4472697665722F5372632F73746D3302
:1027000032663178785F68616C5F6932632E63008E
:102710007F1A0600A086010080841E0000093D008B
:1027200040420F0010B586B0002100910191029146
:10273000039100681349884222D1134CA06940F0EC
:102740000800A061A069694600F0080004904FF4F9
:102750004070009012200190032003900B48FFF777
:10276000BFFC0B48416841F0E06141F0020141606B
:10277000E06940F40010E061E06900F400100490AA
:1027800006B010BD0054004000100240000C014093
:10279000000001400248816802781144816070475E
:1027A00084060020074810B5016841F0100101605F
:1027B000032000F02BF90F2000F006F800F04AF893
:1027C000002010BD0020024030B505461C4887B0EF
:1027D000816941F400618161806906A900F40060AB
:1027E000009001A800F0C0FB00F018FC1549164A43
:1027F000B0FBF1F11548491E0260416040F2E7323A
:102800000021C0E903218160816101F0AFF904007A
:1028100012D10E4801F004FB04000DD1192000F084
:1028200073F8102D07D200222946192000F09EF8D7
:102830000748056000E0012407B0204630BD0000D5
:102840000010024040420F00002C0140D011002037
:10285000880600200F4808B5816941F001018161B7
:10286000816901F001010091C16941F08051C161AC
:10287000C069002200F0805000900F21901E00F0EF
:1028800075F80548416821F0E06141F00071416050
:1028900008BD0000001002400000014010B5040017
:1028A00003D5CD2109A003F01DFE002C0DDB04F0A3
:1028B0001F01012088406109890001F1E021C1F870
:1028C0008001BFF34F8FBFF36F8F10BD2E2E2F44AB
:1028D0007269766572732F53544D3332463178786E
:1028E0005F48414C5F4472697665722F5372632F63
:1028F00073746D3332663178785F68616C5F636FD3
:10290000727465782E63000010B5040003D5BD21F4
:1029100007A003F0E7FD002C09DB04F01F010120F4
:1029200088406109890001F1E021C1F8000110BD72
:102930002E2E2F447269766572732F53544D3332A5
:10294000463178785F48414C5F4472697665722FF2
:102950005372632F73746D3332663178785F6861B8
:102960006C5F636F727465782E63000070B51546F6
:102970000C460646102A03D3A92114A003F0B2FD89
:10298000102C03D3AA2111A003F0ACFD1E4800684F
:10299000C0F30223C3F107022046042A00D904220F
:1029A000191D072901D2002300E0DB1E012404FACF
:1029B00002F1491E014099409C40641E2C40214375
:1029C0003046BDE8704003F023B900002E2E2F449E
:1029D0007269766572732F53544D3332463178786D
:1029E0005F48414C5F4472697665722F5372632F62
:1029F00073746D3332663178785F68616C5F636FD2
:102A0000727465782E6300000CED00E010B504468A
:102A100007280BD0062C09D0052C07D0042C05D094
:102A2000032C03D0912108A003F05CFD154904F0AC
:102A3000070208684FF6FF03184040EA0220124AD6
:102A40001043086010BD00002E2E2F447269766579
:102A500072732F53544D3332463178785F48414C6E
:102A60005F4472697665722F5372632F73746D338E
:102A700032663178785F68616C5F636F7274657815
:102A80002E6300000CED00E00000FA0570B506466C
:102A90000025C0070CD1B0070AD4700708D430074E
:102AA00006D4F00604D44FF4CA712AA003F01AFD2C
:102AB000374C042E27D004DC012E28D0022E3ED124
:102AC0003FE0082E1FD0102E39D160682168C9015F
:102AD00035D53049C0F38342C0038D5C09D56068A9
:102AE000891EC0F34040085C2B49B1FBF0F0454320
:102AF00001E02A4845436068400220D46800032171
:102B0000B0FBF1F51BE000F099FA054617E0216AE9
:102B1000C1F30120012803D1890701D5C5030EE0C7
:102B2000022805D1616A890702D549F6404506E0C9
:102B3000032804D12068800301D54FF2244528469C
:102B400070BD00F06BFA6168C1F38131491C490026
:102B5000D6E700002E2E2F447269766572732F53CC
:102B6000544D3332463178785F48414C5F44726946
:102B70007665722F5372632F73746D3332663178BA
:102B8000785F68616C5F7263635F65782E630000D5
:102B900000100240DEA0000800127A0000093D008B
:102BA0002DE9F84304460068524DC1070ED1810754
:102BB00073D441077ED40107FCD4C0067BD46A21BC
:102BC0004DA003F08FFC2078C00763D0606800261A
:102BD00060B1B0F5807F09D0B0F5007F06D0B0F5C8
:102BE000407F03D0722144A003F07CFCE869C00060
:102BF00008D4E86940F08050E861E869012600F0F7
:102C0000805000904B480168C90512D40168804685
:102C100041F480710160FFF73FFC074605E000BF0B
:102C2000FFF73AFCC01B642823D8D8F80000C00581
:102C3000F6D5286A10F4407021D0A18801F44071C3
:102C400081421CD0286A3C49012220F440700A606D
:102C500000220A602862C00711D0FFF71DFC07465A
:102C600041F2883808E000BFFFF716FCC11B414560
:102C700002D90320BDE8F883286A8007F4D5286AC2
:102C8000616820F44070084328621EB1E86920F0B2
:102C90008050E8612078800717D5A06878B1B0F53A
:102CA000804F0CD0B0F5004F09D0B0F5404F06D0A2
:102CB000B72101E009E00BE00FA003F013FC686806
:102CC000A16820F44040084368602078C0060FD512
:102CD0006069B0F5800F05D020B140F2131106A055
:102CE00003F000FC6868616920F4800008436860B4
:102CF0000020BFE7001002402E2E2F447269766537
:102D000072732F53544D3332463178785F48414CBB
:102D10005F4472697665722F5372632F73746D33DB
:102D200032663178785F68616C5F7263635F657883
:102D30002E63000000700040400442422DE9F0473D
:102D40000F46050078D02868C1070AD1810708D44A
:102D5000410706D4000704D440F236316FA003F0D7
:102D6000C1FB47B1012F06D0022F04D040F237310A
:102D70006AA003F0B7FB774E306800F00700B84256
:102D800009D2306820F0070038433060306800F026
:102D90000700B84277D128686F4C810729D54007D2
:102DA00003D5606840F4E06060602878000703D5D0
:102DB000606840F460506060A868A0B1802812D0BC
:102DC000902810D0A0280ED0B0280CD0C0280AD04F
:102DD000D02808D0E02806D0F02804D040F25D3199
:102DE0004EA003F07FFB6068A96820F0F000084364
:102DF00060602878C00737D0686868B101281CD0A7
:102E000002281DD04FF4597144A003F06BFB686891
:102E1000012812D0022813D020688007002832DA57
:102E20006068696820F0030008436060FFF734FBC6
:102E3000804641F2883910E025E020688003EDE704
:102E400020688001EAE700BFFFF726FBA0EB08013E
:102E5000494502D90320BDE8F0876068696800F041
:102E60000C00B0EB810FEFD1306800F00700B842E2
:102E70000BD9306820F0070038433060306800F02C
:102E80000700B84201D00120E5E728784FF48066BA
:102E900040074FF4A0674FF4C0684FF4E06914D5C1
:102EA000E86860B1B0420AD0B84208D0404506D0C8
:102EB000484504D040F2A23118A003F013FB60682B
:102EC000E96820F4E060084360602878000715D5C1
:102ED000286960B1B0420AD0B84208D0404506D057
:102EE000484504D040F2A9310CA003F0FBFA606819
:102EF000296920F4605040EAC100606000F09EF84B
:102F00006168164AC1F30311515CC8401449086056
:102F100014480068FFF758FC00209CE72E2E2F4431
:102F20007269766572732F53544D33324631787817
:102F30005F48414C5F4472697665722F5372632F0C
:102F400073746D3332663178785F68616C5F726379
:102F5000632E63000020024000100240EEA0000833
:102F6000900600208806002070B50D46040004D1AC
:102F700040F2215111A003F0B5FA25B940F22251D7
:102F80000EA003F0AFFA0F2020601A48416801F04C
:102F900003016160416801F0F001A160416801F442
:102FA000E061E16040684FF4E06101EAD000206137
:102FB0001148006800F00700286070BD2E2E2F44D5
:102FC0007269766572732F53544D33324631787877
:102FD0005F48414C5F4472697665722F5372632F6C
:102FE00073746D3332663178785F68616C5F7263D9
:102FF000632E63000010024000200240044805498F
:1030000000684968044AC1F30221515CC840704716
:103010009006002000100240FEA000080448054968
:1030200000684968044AC1F3C221515CC840704736
:103030009006002000100240FEA000080E4A5168D1
:103040000E4801F00C03042B11D0082B0FD10C48B3
:10305000C1F38343C903C05C0AD55168084AC1F370
:103060004041921E515C054A5043B0FBF1F070475D
:1030700004494843704700000010024000127A00E3
:10308000CCA0000800093D002DE9F84F04007DD0D8
:10309000FA4EFB4D20684FF0010A4FF000084FF444
:1030A000803960B1C1070DD1810762D401076ED4A8
:1030B00040076DD440F26511F2A003F013FA2078B6
:1030C000C00753D060684FF4A02740B1484506D0F0
:1030D000B84204D040F26B11EAA003F003FA68682A
:1030E000C0F38100012807D06868C0F3810002287E
:1030F00009D16868C00306D52868800336D56068A2
:103100000028C4D032E06068484503D1286840F404
:10311000803009E008B1B8420DD0286820F4803032
:103120002860286820F480202860606888B1FFF754
:10313000B3F9074609E0286840F480202860E5E7F5
:10314000FFF7AAF9C01B642877D828688003F7D551
:103150000CE0FFF7A1F9074605E000BFFFF79CF977
:10316000C01B6428F0D828688003F7D42078800733
:103170004ED5206930B1012804D040F29F11C1A082
:1031800003F0B0F960691F2808D902E096E042E038
:103190007BE04FF4D071BBA003F0A4F9686810F095
:1031A0000C0F07D06868C0F38100022809D1686855
:1031B000C00306D42868800714D5206901287DD172
:1031C00010E02069B0B1C6F800A0FFF765F9074626
:1031D00005E000BFFFF760F9C01B0228B4D82868DB
:1031E0008007F7D52868616920F0F80040EAC1003F
:1031F00028600DE0C6F80080FFF74EF9074604E0AE
:10320000FFF74AF9C01B02289ED828688007F7D428
:103210002078000736D5A94FA06920B3012806D031
:103220004FF4F07197A003F05DF9A069D8B1C7F829
:1032300000A0FFF731F9074605E054E1FFF72CF94C
:10324000C01B02288ED8686A8007F7D59C484FF4C7
:10325000FA510068B0FBF1F0009000BF0098411EE9
:103260000091FAD20EE0C7F80080FFF715F9074683
:1032700005E000BFFFF710F9C01B0228AED8686A4E
:103280008007F7D4207840076ED5E068002740B16A
:10329000012806D0052804D040F20F2179A003F0C0
:1032A00021F9E869C00008D4E86940F08050E8617D
:1032B000E869012700F08050009000E027E1814894
:1032C0000168C90512D4016841F480710160FFF7FB
:1032D000E3F8834606E000BFFFF7DEF8A0EB0B0043
:1032E000642891D877480068C005F5D5E0680128C2
:1032F0000AD008B1052811D0286A20F00100286200
:10330000286A20F0040002E0286A40F001002862E8
:10331000E068A8B1FFF7C0F883460DE0286A40F0E6
:1033200004002862F0E700BFFFF7B6F8A0EB0B013E
:1033300041F28830814285D8286A8007F4D50EE0B2
:10334000FFF7AAF8834607E0FFF7A6F8A0EB0B010A
:1033500041F28830814291D8286A8007F4D41FB1A5
:10336000E86920F08050E861E06900287ED00128FB
:1033700009D0022807D040F2AD2142A003F0B2F8F4
:10338000E069002872D06868C0F381000228E06913
:103390006DD0022805D0C6F86080FFF77DF804469E
:1033A000A4E0206A30B1484504D040F2B62135A0EF
:1033B00003F098F8606A70B3B0F5802F2BD0B0F5A9
:1033C000002F28D0B0F5402F25D0B0F5801F22D097
:1033D000B0F5A01F1FD0B0F5C01F1CD0B0F5E01F86
:1033E00019D0B0F5001F16D0B0F5101F13D0B0F5EE
:1033F000201F10D0B0F5301F0DD0B0F5401F0AD0FF
:10340000B0F5501F07D0B0F5601F04D040F2B721CF
:103410001CA003F067F8C6F86080FFF73DF8074688
:1034200005E000BFFFF738F8C01B02285BD828680A
:103430008001F7D4206A48450FD1A06838B1B0F5B3
:10344000003F04D040F2CD210EA003F04BF8686895
:10345000A16820F4003008436860D4E908010843FB
:10346000696821F474110843686001E051E041E0AB
:10347000C6F860A0FFF710F804462AE000004242B8
:10348000001002402E2E2F447269766572732F53FE
:10349000544D3332463178785F48414C5F4472690D
:1034A0007665722F5372632F73746D333266317881
:1034B000785F68616C5F7263632E630080044242D0
:1034C0009006002000700040FEF7E6FF001B022877
:1034D00009D828688001F7D51BE000BFFEF7DCFFA4
:1034E000001B022802D90320BDE8F88F286880015C
:1034F000F4D40EE00128F7D06868226A00F4803125
:10350000914204D1616A00F47010884201D0012018
:10351000EAE70020E8E7000010B5040020D01149D8
:10352000206888420AD01049884207D00F49884253
:1035300004D04FF4EB710EA002F0D4FF022084F807
:1035400051002068016821F040010160204600F030
:1035500049F90020606584F8510084F8500010BDDE
:10356000012010BD0030014000380040003C004008
:103570002E2E2F447269766572732F53544D333259
:10358000463178785F48414C5F4472697665722FA6
:103590005372632F73746D3332663178785F68616C
:1035A0006C5F7370692E630070B504007ED07C4937
:1035B000206888420AD07B49884207D07A498842ED
:1035C00004D04FF4AB7179A002F08CFF60684FF427
:1035D000827630B1B04204D040F2571173A002F0AD
:1035E00081FFA06850B1B0F5806F07D0B0F5004FF3
:1035F00004D04FF4AC716DA002F074FFE068B0F538
:10360000006F05D020B140F2591168A002F06AFFA6
:10361000A069B0F5007F08D038B1B0F5802F04D094
:103620004FF4AD7161A002F05DFFE06990B1082830
:1036300010D010280ED018280CD020280AD0282806
:1036400008D0302806D0382804D040F25B1157A0AB
:1036500002F048FF206A30B1802804D04FF4AE71E8
:1036600052A002F03FFF606A002538B340F25F11BC
:103670004EA002F037FF606A00B3E06990B10828FD
:1036800010D010280ED018280CD020280AD02828B6
:1036900008D0302806D0382804D040F2711143A059
:1036A00002F020FF25616561A56200E004E094F866
:1036B0005100002830D034E0012070BD206930B1C5
:1036C000022804D04FF4B17138A002F00BFF6069FA
:1036D00030B1012804D040F2631134A002F002FF9F
:1036E0006068B04216D1E0690028DDD00828DBD040
:1036F0001028D9D01828D7D02028D5D02828D3D022
:103700003028D1D03828CFD040F2671127A002F05E
:10371000E9FEC9E7E561C7E784F85050204600F0AC
:103720008FF8022084F851002068016821F04001E0
:103730000160A088218900F4827001F404410843EB
:10374000A18901F400610843217C01F002010843D2
:10375000217D01F001010843218B01F40071084330
:10376000217F01F03801084394F8201001F0800116
:103770000843218D01F40051084321680860A069C5
:10378000042101EA1040216848602068C16921F4E1
:103790000061C1616565012084F85100002070BDA1
:1037A0000030014000380040003C00402E2E2F44E5
:1037B0007269766572732F53544D3332463178787F
:1037C0005F48414C5F4472697665722F5372632F74
:1037D00073746D3332663178785F68616C5F7370D3
:1037E000692E6300026810481049824206D1886938
:1037F00020F480508861E0210D4811E00D4B0E4807
:103800009A4205D1CA6922F48042CA61990007E050
:103810000A4B9A4206D1CA6922F40042CA61382191
:10382000FEF7FABA70470000003001400010024075
:103830000008014000380040000C0140003C0040FE
:1038400070B586B000240094019402940394334D23
:103850000368334902200322AB421AD18B6943F437
:1038600080538B618B6903F4805304938B6943F01D
:1038700004038B6189692B4D01F004010491A0219F
:10388000CDE90010039269462846FEF729FC402046
:103890001DE0254E254DB34222D1CB6943F4804330
:1038A000CB61CB6903F4804304938B6943F0080335
:1038B0008B618969039201F0080104914FF4204162
:1038C000CDE9001069462846FEF70AFC3014CDE920
:1038D0000004694628460294FEF702FC06B070BD5B
:1038E000134EB342FAD1CB6943F40043CB61CB69A9
:1038F00003F4004304938B6943F008038B618969E7
:10390000039201F0080104912821CDE900106946D5
:103910002846FEF7E5FB1020D9E700000030014003
:10392000001002400008014000380040000C014037
:10393000003C00402DE9FF4F81B004460E9F806897
:103940001D4693464FF00109002620B140F2AE41DA
:1039500077A002F0C7FD94F8500001280FD04FF077
:10396000010A84F850A0FEF797FD804694F85100B4
:10397000616801280DD0B1F5827F08D103E00220F3
:1039800005B0BDE8F08FA16809B9042801D002266E
:10399000C9E0029800286ED0BBF1000FFBD0002DCB
:1039A000F9D094F85100042802D0052084F8510081
:1039B00000206065C4F838B0E587A58702992163C7
:1039C000E586A5862064606420680168490603D402
:1039D000016841F040010160E068B0F5006F606887
:1039E00003D0E8B3012D47D081E008B1012D3BD1D0
:1039F000206B21680088C860206B801C2063E08EEB
:103A0000401EE08630E02068816889070FD5E18E8E
:103A100069B1B9F1010F0AD1216B0988C160206B2E
:103A2000801C2063E08E401EE0864FF00009206875
:103A30008168C9070CD0E18F51B1C068A16B0880C3
:103A4000A06B801CA063E08F401EE0874FF001094F
:103A5000FEF722FDA0EB0800B84205D3781C00E079
:103A60000AE001D003265CE0E08E0028CBD1E08F95
:103A70000028C8D141E052E0206B2168007808732B
:103A8000206B401C2063E08E401EE0862FE0206803
:103A9000816889070FD5E18E69B1B9F1010F0AD1AB
:103AA000216B09780173206B401C2063E08E401E5F
:103AB000E0864FF0000920688168C9070CD0E18FCB
:103AC00051B1C068A16B0870A06B401CA063E08F6F
:103AD000401EE0874FF00109FEF7DEFCA0EB080076
:103AE000B84202D3781C02D0BCE7002FBAD0E08ED7
:103AF0000028CCD1E08F0028C9D142463946204663
:103B000001F00BFD18B10126202060650BE0A068D4
:103B100018B92068C16880680090606D08B10126FE
:103B200001E084F851A0002084F85000304627E7D7
:103B30002E2E2F447269766572732F53544D333293
:103B4000463178785F48414C5F4472697665722FE0
:103B50005372632F73746D3332663178785F6861A6
:103B60006C5F7370692E63007047704710B5040076
:103B700063D04549206888422BD04449884228D0E8
:103B8000B0F1804F25D04249884222D04149884235
:103B90001FD0414988421CD04049884219D0404931
:103BA000884216D03F49884213D03F49884210D0FE
:103BB0003E4988420DD03E4988420AD03D4988425C
:103BC00007D03D49884204D040F213113BA002F0D7
:103BD00089FCA06860B110280AD0202808D04028AD
:103BE00006D0602804D04FF48A7134A002F07AFC29
:103BF000206950B1B0F5807F07D0B0F5007F04D0C8
:103C000040F215112DA002F06DFCE0684FF6FE7138
:103C1000401E884204D94FF48B7128A002F062FC48
:103C2000A06930B1802804D040F2171123A002F01F
:103C300059FC94F83D0010B107E0012010BD0020B0
:103C400084F83C00204600F055F8022084F83D003E
:103C5000211D206801F096FD012084F8460084F8BB
:103C60003E0084F83F0084F8400084F8410084F866
:103C7000420084F8430084F8440084F8450084F846
:103C80003D00002010BD0000002C01400034014028
:103C90000004004000080040000C004000100040FC
:103CA00000140040004C014000500140005401400D
:103CB00000180040001C0040002000402E2E2F4421
:103CC0007269766572732F53544D3332463178786A
:103CD0005F48414C5F4472697665722F5372632F5F
:103CE00073746D3332663178785F68616C5F7469C4
:103CF0006D2E6300704700002DE9F05F04460068F8
:103D00002C4D2D4E2D4FDFF8B880DFF8B890DFF83E
:103D1000B8A0DFF8B8B0A84225D0B04223D0B0F1A7
:103D2000804F20D0B8421ED040451CD048451AD004
:103D30002749884217D02749884214D0504512D0CD
:103D4000254988420FD0254988420CD058450AD0D1
:103D50002349884207D02349884204D040F2951174
:103D600021A002F0BFFB94F83D00012802D0012001
:103D7000BDE8F09F022084F83D002068A8420ED0E4
:103D8000B0420CD0B0F1804F09D0B84207D04045C6
:103D900005D0484503D0504501D0584504D181682D
:103DA00001F00701062903D0016841F0010101601B
:103DB0000020DDE7002C01400034014000040040F9
:103DC00000080040000C0040004C0140001800407A
:103DD0000010004000140040005001400054014019
:103DE000001C0040002000402E2E2F447269766592
:103DF00072732F53544D3332463178785F48414CBB
:103E00005F4472697665722F5372632F73746D33DA
:103E100032663178785F68616C5F74696D2E63001B
:103E20002DE9F05F044600682F4D304E304FDFF82B
:103E3000C480DFF8C490DFF8C4A0DFF8C4B0A842A3
:103E400025D0B04223D0B0F1804F20D0B8421ED050
:103E500040451CD048451AD02A49884217D02A49E3
:103E6000884214D0504512D0284988420FD02849A2
:103E700088420CD058450AD02649884207D02649A6
:103E8000884204D04FF4E87124A002F02BFB94F890
:103E90003D00012802D00120BDE8F09F022084F8F7
:103EA0003D002068C16841F00101C1602068A8425E
:103EB0000ED0B0420CD0B0F1804F09D0B84207D03C
:103EC000404505D0484503D0504501D0584504D160
:103ED000816801F00701062903D0016841F0010162
:103EE00001600020D8E70000002C014000340140B0
:103EF0000004004000080040000C0040004C01405D
:103F00000018004000100040001400400050014024
:103F100000540140001C0040002000402E2E2F4481
:103F20007269766572732F53544D33324631787807
:103F30005F48414C5F4472697665722F5372632FFC
:103F400073746D3332663178785F68616C5F746961
:103F50006D2E6300704770B50446006801694FF02C
:103F60000005C943890715D4C168C943890711D41D
:103F7000E91E0161012020772068806980072046C2
:103F800002D0FFF7E7FF04E000F098F8204600F0C9
:103F900096F8257720680169C943490717D4C16895
:103FA000C943490713D46FF004010161022020774F
:103FB0002068806910F4407F204602D0FFF7CAFFD6
:103FC00004E000F07BF8204600F079F825772068BF
:103FD0000169C943090716D4C168C943090712D446
:103FE0006FF008010161042020772068C069800714
:103FF000204602D0FFF7AEFF04E000F05FF8204655
:1040000000F05DF8257720680169C943C90617D417
:10401000C168C943C90613D46FF0100101610820BB
:1040200020772068C06910F4407F204602D0FFF757
:1040300091FF04E000F042F8204600F040F82577B8
:1040400020680169C943C90708D1C168C943C907C4
:1040500004D1891E0161204600F032F82068016910
:10406000C943090609D4C168C943090605D46FF0DC
:10407000800101612046FFF777FD20680169C9438F
:10408000490609D4C168C943490605D46FF0400107
:104090000161204600F01EF820680169C9438906C5
:1040A0000BD4C168C943890607D46FF020010161B0
:1040B0002046BDE87040FFF758BD70BD704770479F
:1040C00000680349884201D1FEF764BB70470000D5
:1040D000002C01407047704770470000F8B5016838
:1040E00004460868CA684B6910F00F0F4FF00005CE
:1040F00059D003F0010602F49077374365D0C10729
:1041000005D0D10503D5616C41F00101616441071F
:1041100005D5D90703D0616C41F0020161648107C4
:1041200005D5D90703D0616C41F004016164010732
:1041300007D502F02001314303D0616C41F0080142
:104140006164616C00293AD0800604D5900602D5DE
:10415000204601F0AAFB20684069616CC0F3801022
:10416000090700D460B3204601F078FB206840695D
:10417000400621D52068143050E8001F21F040018E
:1041800040E80012002AF5D1E06BA8B16D49416307
:10419000E06BFDF747FB002811D0E06B416B01B0ED
:1041A000BDE8F040084783060FD593060DD520469D
:1041B000BDE8F84001F079BB2046FFF78DFFF8BD60
:1041C0002046FFF789FF6564F8BD266B2023012E8A
:1041D0007CD1C6067AD5D60678D50868486800909E
:1041E00048694FF00206400640D5E16B0868406818
:1041F0000004000CE8D0A28D8242E5D9E0858869F0
:1042000020282DD020680C3050E8001F21F4807148
:1042100040E80012002AF5D12068143050E8001F51
:1042200021F0010140E80012002AF5D12068143085
:1042300050E8001F21F0400140E80012002AF5D1AB
:1042400084F84230256320680C3050E8001F21F0CC
:10425000100140E80012002AF5D1E06BFDF7BEFA2C
:104260006663A08DE18D401A81B22AE0A08DE18DB8
:10427000401A81B2E08D0028A6D00029A4D022687F
:104280000C3252E8000F20F4907042E80007002F33
:10429000F5D12068143050E8002F22F0010240E8E8
:1042A0000027002FF5D184F84230256320680C30B8
:1042B00050E8002F22F0100240E80023002BF5D137
:1042C00066632046FFF707FFF8BDFFE705062BD51D
:1042D000150629D594F841002128F5D1A068B0F53C
:1042E000805F01D12069B0B1206A411C2162216840
:1042F00000784860E08C401E0004000CE084E3D1AC
:104300002068C16821F08001C1602068C16841F067
:104310004001C160D8E7206A0088C0F30800486007
:10432000206A801C2062E5E74006CDD55006CBD53B
:10433000CA68204622F04002CA6084F8413000F08A
:1043400088F9C1E74D58000870B5040020D0A06975
:1043500034490028344A354B20681BD088420AD0A3
:10436000904208D0984206D04FF4B77130A002F0C6
:10437000B9F8A069F8B1A069B0F5807F1BD0B0F59D
:10438000007F18D0B0F5407F15D040F26F110FE0DC
:10439000012070BD88420ED090420CD098420AD0C5
:1043A0003249884207D03249884204D040F2731122
:1043B0001FA002F097F8A06838B1B0F5805F04D074
:1043C00040F275111AA002F08DF894F84100002512
:1043D00020B984F84050204600F04CF8242084F89E
:1043E00041002068C16821F40051C160204601F0FD
:1043F000BDFA2068016921F490410161206841699A
:1044000021F02A0141612068C16841F40051C16076
:104410006564202084F8410084F842006563002030
:1044200070BD0000003801400044004000480040DA
:104430002E2E2F447269766572732F53544D33328A
:10444000463178785F48414C5F4472697665722FD7
:104450005372632F73746D3332663178785F68619D
:104460006C5F756172742E6300000000004C0040A8
:104470000050004070B586B000240094019402946E
:1044800003942E4E03682E49022003222D4DB34281
:1044900026D18B6943F480438B618B6903F480439D
:1044A00004938B6943F004038B618969039201F0E3
:1044B000040104910102CDE9001069462846FDF788
:1044C0000FFE2815CDE90004694628460294FDF741
:1044D00007FE002205212520FEF748FA252028E0C6
:1044E000194EB34227D1CB6943F40033CB61CB697A
:1044F00003F4003304938B6943F004038B618969EF
:10450000039201F0040104910421CDE900106946F1
:104510002846FDF7E5FD0820CDE900046946284658
:104520000294FDF7DDFD002205212620FEF71EFA8C
:104530002620FEF7E9F906B070BD00000038014002
:1045400000100240000801400044004090F8423052
:10455000202B01D00220704721B11AB10023036340
:1045600001F0AABA012070470F4B01680F48104AAA
:10457000994209D1418803785354491C418001462E
:104580000B48012220300CE00A4B99420BD14188A4
:1045900043785354491C4180044905480122491C71
:1045A0006830FFF7D3BF704700380140200000207B
:1045B00020110020004400402DE9F843044690F803
:1045C00041001F4616460D46202802D00220BDE8B5
:1045D000F8837DB176B100206064212084F8410029
:1045E000FDF75AFFA6848046E684A068B0F5805F98
:1045F00002D003E00120EAE7206910B12E46002531
:104600000EE000260CE08021204601F070FAA0B9EF
:10461000AEB116F8010B21684860E08C401EE084C2
:10462000E08C43464FF0000200970028EBD14FF09A
:104630004001204601F05BFA30B10320C7E735F8AE
:10464000020BC0F30800E6E7202084F841000020B8
:10465000BDE7704701BEFDE73EB50021114800915E
:1046600001910F4A02910260012481600473017577
:104670004FF460220461C2614160FCF79DFE08B105
:10468000FCF7E1FC07200094CDE9014069460548AC
:10469000FCF77AFD002801D0FCF7D5FC3EBD0000F8
:1046A00000240140500F0020094808B5416941F03D
:1046B000010141614069002200F0010000900521E4
:1046C0000B20FEF753F9BDE808400B20FEF71CB99C
:1046D0000010024070B5324C00204FF4806520601D
:1046E0006060A060E060E08120822846658204F07E
:1046F000EBFA6060E8B32946FBF7ADFD284604F00D
:10470000E3FAA06000283ED02E462946FBF7A3FD21
:104710006D10A583304604F0D7FAA061002837D089
:104720002946FBF798FD1F4803F080FD1D4A2060D5
:10473000103A0021012003F0B9FD1B4C194A212138
:104740002061283A284603F0F7FC164AE060103250
:104750000021164803F03AFE124A6061343200210B
:10476000134803F033FE0F4AA0615832002111486C
:1047700000E003E003F02AFEE06170BD09499A22DF
:104780007C310DA008E00749A2227C311AA003E089
:104790000449AB227C3128A0BDE8704001F014BA76
:1047A000300F002008A0000800000020CD0A0008FB
:1047B000810A0008190C000825732C206174204C14
:1047C000696E653A25642C204D616C6C6F63206DB9
:1047D000656D20666F7220726563764379634275FA
:1047E00066206461746120706F6F6C206661696C13
:1047F00065642E0A0000000025732C206174204C93
:10480000696E653A25642C204D616C6C6F63206D78
:10481000656D20666F7220726563764379634275B9
:1048200066207054656D7020706F6F6C20666169D2
:104830006C65642E0A00000025732C206174204CE6
:10484000696E653A25642C204D616C6C6F63206D38
:10485000656D20666F72207061727365446174616A
:104860002062756620706F6F6C206661696C65648C
:104870002E0A00002DE9F04385B000253948009547
:10488000019502950395816941F02001816181695B
:1048900001F020010491816941F004018161816985
:1048A00001F004010491816941F00801816180698E
:1048B0002D4F00F0080048F2100404900122214618
:1048C0003846FDF7B3FDDFF8A490002240F2034123
:1048D0004846FDF7ABFD012211034846FDF7A6FD52
:1048E000DFF88C80002204214046FDF79FFD0094F4
:1048F00001240326CDE90246694638460194FDF7B6
:10490000EFFB41F20340CDE90004CDE902466946E0
:104910004846FDF7E5FB4FF40860CDE90005694620
:1049200002944846FDF7DCFB0420CDE90004029424
:10493000694640460394FDF7D3FB402000900D48A4
:10494000CDE9010469464846FDF7CAFB002205216E
:104950001720FEF70BF81720FDF7D6FF05B0BDE8CE
:10496000F08300000010024000080140000C0140EC
:1049700000140140000021100D4810B50B490160E2
:104980000C49416000214FF480428160C0E903126C
:1049900041618161C1610162FDF784FD002803D09E
:1049A000BDE81040FCF74FBB10BD000000540040B4
:1049B000C40F0020A086010010B5114C0F484FF421
:1049C000007120604FF4827060600020A060E060A1
:1049D0002061C4E905011021C4E907106062A062EA
:1049E0000A20E0622046FEF7DFFD08B1FCF72BFB52
:1049F0002068016841F04001016010BD00300140B5
:104A00001810002010B5114C0F484FF400712060B1
:104A10004FF4827060600020A060E0602061C4E913
:104A200005010821C4E907106062A0620A20E06263
:104A30002046FEF7B9FD08B1FCF705FB20680168C8
:104A400041F04001016010BD0038004070100020AE
:104A500010B5114C0F484FF4007120604FF4827074
:104A600060600020A060E0602061C4E905010821C9
:104A7000C4E907106062A0620A20E0622046FEF7E7
:104A800093FD08B1FCF7DFFA2068016841F04001AE
:104A9000016010BD003C0040C810002010B5104C53
:104AA0000E480C2120604FF4612060600020A0605F
:104AB000E060C4E90401A061E0612046FFF744FC26
:104AC00008B1FCF7C0FA012206490548FFF73EFD90
:104AD0002068C16841F01001C16010BD003801407C
:104AE000401100202100002010B5104C0E480C2170
:104AF00020604FF4612060600020A060E060C4E9A5
:104B00000401A061E0612046FFF71EFC08B1FCF73C
:104B10009AFA012206490548FFF718FD2068C16886
:104B200041F01001C16010BD004400408811002018
:104B300021000020FEE7FEE770B500F0700400F0F1
:104B40007BF80B4D0646002210212846FDF76EFC2F
:104B5000272002F0D3F944EA060002F0CFF901223F
:104B600010212846FDF762FCBDE8704000F064B8F3
:104B70000008014010B5084C002210212046FDF726
:104B800055FCE22002F0BAF920460122BDE81040AF
:104B90001021FDF74BBC00000008014010B5084C87
:104BA000002210212046FDF741FCE12002F0A6F989
:104BB00020460122BDE810401021FDF737BC00005F
:104BC000000801402DE9F0410E4F15460E460446FF
:104BD000002210213846FDF729FC204602F08EF90C
:104BE000002405E0FF2002F089F93055641CE4B28E
:104BF000AC42F7D33846BDE8F04101221021FDF761
:104C000015BC00000008014070B50A4D04460022A2
:104C100010212846FDF70AFC204602F06FF9FF201C
:104C200002F06CF90446012210212846FDF7FEFB34
:104C3000204670BD0008014070B5084D00221021CB
:104C40002846FDF7F3FB072002F058F9044601223D
:104C500010212846FDF7EAFB204670BD0008014000
:104C600070B50F4D0446002280212846FDF7DEFB7B
:104C70000020FFF7C9FF014614B1012C03D004E066
:104C800020F0010101E040F00101002000F066F891
:104C90002846BDE8704001228021FDF7C7BB000017
:104CA000000C0140052A00D90522052800D905205D
:104CB0000A30C0B200F030B8052900D905210A46F3
:104CC0000146102000F028B870B5114E0C4605467C
:104CD000002210213046FDF7A9FBE12002F00EF979
:104CE000012210213046FDF7A1FB0A4E002280214F
:104CF0003046FDF79BFB22462946A02000F00CF829
:104D0000012280213046FDF791FBFF2070BD00009D
:104D100000080140000C01402DE9F0410E4F1546FE
:104D20000E460446002210213846FDF77FFB44F072
:104D3000200002F0E3F8002404E0305D02F0DEF829
:104D4000641CE4B2AC42F8D33846BDE8F04101221D
:104D50001021FDF76BBB00000008014070B50B4D42
:104D60000E460446002210212846FDF75FFB44F062
:104D7000200002F0C3F8304602F0C0F82846BDE833
:104D8000704001221021FDF751BB000000080140D6
:104D90007FB512A16D46D1E90001CDE900010020E7
:104DA000029002AC0390052269461020FFF7B4FF81
:104DB000052202A91020FFF705FF0020295C225CD4
:104DC000914203D1401CC0B20528F7D3052803D077
:104DD000042002F026F8E6E77FBD0000A5A5A5A502
:104DE000A5000000044B08B1002200E001220421CC
:104DF0001846FDF71BBB0000001401401CB521A1A3
:104E0000D1E90001CDE90001FFF7C2FF01228021B5
:104E10001E48FDF70BFB7020FFF78EFE01211C20C2
:104E2000FFF79CFF07211D20FFF798FF1C20FFF7CD
:104E3000EBFE1D20FFF7E8FE0A210020FFF78EFFA2
:104E400001210846FFF78AFF01210220FFF786FFB4
:104E500003210846FFF782FFFF210420FFF77EFFB2
:104E60003C210520FFF77AFF2F210620FFF776FF70
:104E700005216846FFF720FF052269460020FFF75D
:104E800011FF1CBD3443101001000000000C014054
:104E900010B50122D1030448FDF7C8FABDE810405F
:104EA000FF2000F0A7BB00000008014010B502F091
:104EB00045F8002010BD000030B501469BB000252C
:104EC00017221848FBF7AEF917A00090154B1BA24C
:104ED0001BA101A800F088FE1BA00090114B17A297
:104EE00017A10EA800F080FE0B220EA91B4802F0AD
:104EF000EFFA0B2201A91A4802F0EAFA04000CD0DA
:104F0000164802F01BF8164802F018F8214615A0C2
:104F100000F05AFE1BB0284630BD0146012518A0FE
:104F2000F6E70000AC1800205F73747261696E537D
:104F300061766546696C652E74787400303A0000BD
:104F400025732573257300005F6164786C53617667
:104F50006546696C652E7478740000005C1400204E
:104F6000841600206F70656E206F72206372656119
:104F70007465206572726F202564200D0A000000A0
:104F8000206246696C654372656174652C206F70A0
:104F9000656E206F7220637265617465206973208D
:104FA0006F6B202564200D0A0000000010B500245E
:104FB000002001F0B0FE0128FAD0012213A114480C
:104FC00002F060FA01460D2806D000291BD011A07E
:104FD00000F0FAFD002417E0002211460BA001F0BA
:104FE000BBFF010001D012A0F2E718A000F0ECFD19
:104FF000012206A1002002F045FA012203A1044883
:1050000002F040FA00E00124204610BD303A0000D2
:105010002C120020736463617264206D6F756E746E
:10502000206973206572726F282564290D0A0000BB
:1050300073646361726420666F726D61742065725F
:10504000726F203A25640D0A0000000073646361EA
:10505000726420697320666F726D61740D0A0000BE
:1050600010B504460B2202F033FA10B1204601F0CD
:1050700065FF002010BD00001FB51C460199012AE4
:1050800002D0022A0AD014E00A46014601AB0A48BF
:1050900002F023FB68B964B1074808E00A460146FC
:1050A00001AB064802F019FB18B914B1034802F02D
:1050B000C8FA04B0002010BD5C1400208416002043
:1050C00070B5054601220021092000F09FF9040077
:1050D00004D11021284600F035F90446FFF7D8FE28
:1050E0000CB1012070BD002070BD70B505464FF6B3
:1050F000FF7401E0641EA4B2FF2000F045F9A8424D
:1051000002D0002CF6D102E00CB1002070BDFF20CF
:1051100070BD1FB56846FFF7D3FF10B1002004B083
:1051200010BD9DF800100120B0EB911F09D19DF832
:1051300008209DF8091000EB0220084400048009B3
:10514000EDE79DF805009DF80A1000F00F0000EB58
:10515000D1109DF809109DF8072001F0030100EB24
:1051600041019DF80800800900EB82009DF80620AF
:1051700002F0030200EB8220401CC91F8840CEE7EA
:105180002DE9F84300F0F8F8382000F053FA002435
:10519000FF2000F02FFA641CA4B20A2CF8D31424C8
:1051A00000219522084600F031F90546012802D079
:1051B000641EA4B2F4D2474E0027012D37707AD175
:1051C00087224FF4D571082000F020F94FF6FE78C1
:1051D00001281ED001220021372000F017F90122FA
:1051E0000021292000F012F901284FD80220307048
:1051F000444601220021372000F008F90122002155
:10520000292000F003F905004DD0641EA4B2F0D2AD
:1052100049E000246F46FF2000F0B6F83855641CC2
:10522000A4B2042CF7D39DF80200012843D19DF8C5
:105230000300AA283FD144464FF0804801220021B4
:10524000372000F0E3F801224146292000F0DEF883
:10525000050002D0641EA4B2F0D2B4B10122002134
:105260003A2000F0D3F880B90024FF2000F08CF839
:105270003855641CA4B2042CF7D39DF800004006F6
:1052800001D5062000E00420307014E001203070C9
:10529000444601220021104600F0B8F8050002D073
:1052A000641EA4B2F5D22CB101225102102000F0EC
:1052B000ADF800B13770FFF7EBFD002000F0BAF950
:1052C000307810B10020BDE8F8830DB12846FAE728
:1052D000AA20F8E72C0000202DE9F04106461848E6
:1052E00015460078062800D049024FF40077012DBA
:1052F0004FF0010219D0122000F088F839463046EC
:1053000000F020F86D1E044606F5007615F0FF0546
:1053100001D0002CF2D0012200210C2000F076F800
:10532000FFF7B6FD2046BDE8F081112000F06EF8D1
:105330000400F5D13946304600F004F80446EFE7A2
:105340002C00002070B504460D46FE20FFF7CDFE70
:1053500030B1012070BD00BF00F04CF904F8010B22
:105360006D1EADB24FF0FF00F6D200F043F9FF2002
:1053700000F040F9002070BD0122D1030148FDF783
:1053800055B800000008014000F034B9002000F0DA
:1053900051B9382000F04EB910B500224FF4004149
:1053A0000548FDF743F800F060F8002802D0FFF749
:1053B0006FFD012010BD00000008014070B50C46D3
:1053C000054600F052F808B1012070BD204600F0FB
:1053D00011F9FD2C18D000244FF40076285D00F060
:1053E00009F9641CA4B2B442F8D3FF2000F002F91A
:1053F000FF2000F0FFF8FF20FFF7C6FF00F01F00BE
:10540000052801D0022070BD002070BD70B5154682
:105410000C460646FFF73CFDFFF7BEFF08B1FF2034
:1054200070BD46F0400000F0E5F8200E00F0E2F814
:10543000C4F3074000F0DEF8C4F3072000F0DAF808
:10544000E0B200F0D7F8284600F0D4F80C2E02D1D4
:10545000FF2000F0CFF81F24FF20FFF795FF010683
:10546000DED5641EE4B2F7D270BD70B500246FF0D3
:105470007F45FF20FFF788FFFF2804D0641CAC4263
:10548000F7D3012070BD002070BD000070B5064646
:105490001D4815460C460078062800D04C02012D08
:1054A00013D0012809D0012200213720FFF7AEFFD9
:1054B000012229461720FFF7A9FF012221461920C2
:1054C000FFF7A4FF04000AD01AE0012221461820A9
:1054D000FFF79CFF040013D1FE2130460DE0FC21B4
:1054E0003046FFF76BFF6D1E06F5007615F0FF05E1
:1054F00001D00028F3D0FD210020FFF75FFF044614
:10550000FFF7C6FC204670BD2C000020002110B122
:10551000006800B101210846704738B50B4600927B
:1055200004460022802100F009F8002804D0606DB4
:1055300040F020006065032038BD00002DE9F843ED
:105540001E46914688460446089DFCF7A5FF401B71
:10555000351AFCF7A1FF074625480068C0F3CB3099
:10556000684338E0701C37D0FCF796FFC01BA84298
:1055700003D215B1009860B32CE02068416821F097
:10558000E00141606068B0F5827F0BD1A068B0F5A2
:10559000004F02D0B0F5806F04D12068016821F07F
:1055A00040010160A06AB0F5005F09D12068016880
:1055B00021F4005101602068016841F4005101604C
:1055C000012084F85100002084F850000320BDE839
:1055D000F8830025401E00902068816838EA0100A9
:1055E00004D000214945BDD10020F0E70121F9E7B1
:1055F0009006002001B582B00D4900208DF804000E
:105600004FF6FF72096803E0401C80B2904203D05D
:105610008B68DB439B07F7D464200090012301AA29
:1056200002A90348FEF786F99DF804000EBD0000AC
:10563000C810002070B505461148FDF76DFF104CED
:105640001048002120604FF48270C4E90101E1603C
:105650004FF400702161C4E90510C4E907510A2024
:105660006162C4E90A102046FDF79EFF08B1FBF70E
:10567000EAFC2068016841F04001016070BD000053
:10568000C8100020003C004010B5502080F3118865
:10569000BFF34F8FBFF36F8F04F0FCFA18B10449CA
:1056A0004FF080500860002080F3118810BD00008A
:1056B00004ED00E030B595B028216846FAF7CBFD3F
:1056C00014210AA8FAF7C7FD18210FA8FAF7C3FD9D
:1056D00001210804CDE9001000250295022404915F
:1056E000CDE907404FF4E01009906846FDF7CCFC87
:1056F00008B172B6FEE70AA90F2081E831004FF425
:105700008060CDE90D0502210AA8FDF717FB08B15D
:1057100072B6FEE74FF4004011900F940FA8FDF70A
:105720003FFA002801D072B6FEE715B030BD000088
:105730000D48016841F00101016041680B4A1140C8
:10574000416001680A4A11400160016821F480212A
:105750000160416821F4FE0141604FF41F01816046
:105760000449C00308607047001002400000FFF8C1
:10577000FFFFF6FE08ED00E00148FEF7ECBB00007D
:10578000D0110020F0B50268254C264D264E274F3B
:10579000274B4FF0804CA04209D0984207D060457B
:1057A00005D0A84203D0B04201D0B84204D122F0C3
:1057B000700E4A6842EA0E02A0421BD0984219D0ED
:1057C000604517D0A84215D0B04213D0B84211D0CE
:1057D000184DA8420ED0184DA8420BD0174DA84224
:1057E00008D0174DA84205D0164DA84202D0164D3C
:1057F000A84203D122F44075CA682A434D6922F0B9
:1058000080022A4302608A68C2620A688262A042F9
:1058100001D0984201D10969016301214161F0BDC4
:10582000002C01400004004000080040000C004033
:1058300000340140004C0140005001400054014040
:1058400000180040001C00400020004010B5406AD5
:105850000021C185C184FEF73FFC10BD01680C31F9
:1058600051E8002F22F4907241E80023002BF5D17B
:105870000168143151E8002F22F0010241E80023B1
:10588000002BF5D1016B012909D101680C3151E8D8
:10589000002F22F0100241E80023002BF5D1202137
:1058A00080F8421000210163704708B590F842105B
:1058B000222901D0022008BD82684FF480539A4209
:1058C00001D1016921B1816A9A421BD04AB10AE033
:1058D0000268816A5268C2F308020A80816A891CE0
:1058E00008E0026972B10268526802F07F020A7031
:1058F000816A491C8162C18D491E0904090CC18558
:1059000003D01BE002685268F1E70168CA6822F020
:105910002002CA600168CA6822F48072CA60016805
:105920004A6922F001024A61202180F842100021D8
:105930004163026B012A03D0FEF716FE002008BD6A
:10594000016301680C3151E8002F22F0100241E898
:105950000023002BF5D101680A68D20602D50A6837
:1059600049680091818DFEF7B6FBE7E770B5044604
:1059700040684049884204D940F666613EA000F084
:10598000B1FDE06838B1B0F5005F04D040F6676162
:1059900039A000F0A7FD206950B1B0F5806F07D0A5
:1059A000B0F5C06F04D040F6686133A000F09AFDF6
:1059B00060694FF6F371084200D120B940F6696181
:1059C0002DA000F08FFD20680169E26821F44051AC
:1059D000114301612169A068084361690843216896
:1059E000CA6841F20C639A430243CA602068416965
:1059F000A26921F44071114341612E492068884217
:105A000002D1FDF70BFB01E0FDF7F8FA00EBC00156
:105A100001EB0012606864218000B2FBF0F3B3FB7D
:105A2000F1F36FF018067343B2FBF0F5B2FBF0F63A
:105A300005EB8305322303EB0515B5FBF1F5B6FB4A
:105A4000F1F605F0F00505EB0615B2FBF0F6B2FB3A
:105A5000F0F0B0FBF1F06FF01802504306EB80005D
:105A600003EB0010B0FBF1F0216800F00F002844B8
:105A7000886070BD20AA44002E2E2F44726976657E
:105A800072732F53544D3332463178785F48414C0E
:105A90005F4472697665722F5372632F73746D332E
:105AA00032663178785F68616C5F756172742E63FD
:105AB000000000000038014081628285C28500211B
:105AC0004164222180F84210016921B10168CA684D
:105AD00042F48072CA6001684A6942F001024A6178
