:020000040800F2
:1000000080070120E10100087D5B0008F55500082C
:10001000795B0008E11100081B6F00080000000078
:10002000000000000000000000000000490100087E
:1000300021120008000000008D010008156800086A
:10004000FB010008FB010008FB010008FB010008A0
:10005000FB010008FB010008FB010008FB01000890
:10006000FB010008FB010008FB010008E511000886
:10007000FB010008FB010008FB010008FB01000870
:10008000FB010008FB010008FB010008FB01000860
:10009000FB010008FB010008FB0100082312000817
:1000A000FB01000825690008FB010008FB010008AE
:1000B000FB010008FB010008FB010008FB01000830
:1000C000FB010008FB010008FB010008FB01000820
:1000D000FB010008856E0008C56E0008FB010008E2
:1000E000FB010008FB010008FB010008FB01000800
:1000F000FB010008FB010008FB010008FB010008F0
:10010000FB010008FB010008FB010008FB010008DF
:10011000FB010008FB010008FB010008FB010008CF
:10012000FB010008FB010008FB010008FB010008BF
:10013000DFF810D000F0A2FB00480047FD96000851
:10014000AFF3008080070120224B19680868B0E8EF
:10015000F00F80F30988BFF36F8F4FF0000080F33A
:1001600011884EF00D0E7047000000000648006830
:10017000006880F3088862B661B6BFF34F8FBFF3A3
:100180006F8F00DF00BF00BF08ED00E0EFF30980D4
:10019000BFF36F8F0F4B1A6820E9F00F106008B59E
:1001A0004FF0500080F31188BFF34F8FBFF36F8F74
:1001B0000BF0C2F84FF0000080F31188BDE8084052
:1001C00019680868B0E8F00F80F30988BFF36F8FF3
:1001D000704700BF7C190020EFF3058070470000D6
:1001E0000648804706480047FEE7FEE7FEE7FEE7D1
:1001F000FEE7FEE7FEE7FEE7FEE7FEE7CD68000864
:1002000031010008202A04DB203A21FA02F0002103
:10021000704721FA02F3D040C2F120029140084316
:100220001946704740EA01039B0703D009E008C95B
:10023000121F08C0042AFAD203E011F8013B00F8AB
:10024000013B521EF9D27047D2B201E000F8012BF7
:10025000491EFBD270470022F6E710B513460A4646
:1002600004461946FFF7F0FF204610BD421C10F867
:10027000011B0029FBD1801A70472DE9FE4F8046F3
:1002800081EA0300C00F0C46009021F0004123F0EA
:100290000045B8EB0200A94105D2404621469046F0
:1002A0001C460B46024623F00040104347D0270D62
:1002B000C7F30A00C3F30A510290401A0190402884
:1002C0006BDAC3F3130040F4801B0098924620B110
:1002D0000023D2EB030A63EB0B0B01985946C0F1E4
:1002E0004002504600F0FDF906460D46504659467C
:1002F000019A00F005FA10EB08006141002487EA3A
:10030000115284EAE7731A4340D0009A62B3019A0B
:10031000012A4FEA075215DC001B61EB02014FF086
:10032000004202EA0752CDE90042001C41F580116B
:1003300032462B4600F03CFA03B0BDE8F08F404651
:100340002146F9E7001B61EB0201001C41F5801317
:1003500000185B412018A2F5001747EB030140EAA3
:10036000D570B6196D4111E06D084FEA360645EAC1
:10037000C0754FEA0752001B61EB0201001C41F5FA
:10038000801149084FEA30000019514132462B468E
:1003900003B0BDE8F04F00F0FCB900980122400026
:1003A0000023D0EB020263EBE073009821464FEA92
:1003B000E074B8EB000061EB0401E9E783F000436F
:1003C0005BE781F0004158E72DE9FE4F81EA030425
:1003D00004F0004421F0004100944FF0000B23F0A2
:1003E000004350EA01045ED052EA03045BD0C3F339
:1003F0000A54C1F30A552C44A4F2F3340194A0FB2F
:100400000254C1F3130141F48011C3F3130343F405
:10041000801301FB024400FB034E840A970A44EA5E
:10042000815447EA8357A4FB076802958D0A05FBB0
:1004300007854FEA932C04FB0C542705029D4FEAD5
:10044000065847EA1637B5EB08056EEB070C870E22
:10045000920E47EA811742EA8312A7FB0201B6EB2C
:100460000B0164EB00042B0D43EA0C335E1844EBE4
:100470001C50DA465146E7FB0201C5F313044FEA6C
:100480000B3343EA14534FEA0432019C43EA060358
:10049000A4F10C040294009CCDE900B400F088F9AA
:1004A00003B0BDE8F08F00200146F9E72DE9F04DDB
:1004B00081EA030404F0004B21F0004514464FF09C
:1004C000000A23F0004150EA050220D054EA01025C
:1004D0001DD0C5F30A570246C5F31303C1F3130039
:1004E000C1F30A5640F4801543F48013A7EB0608C5
:1004F000101BD64608F2FD3873EB050002D308F155
:10050000010801E092185B41B8F1000F03DA002006
:100510000146BDE8F08D00204FF480110646844668
:100520000EE0171B73EB050705D3121B63EB0503E6
:1005300006434CEA010C49084FEA300092185B412F
:1005400050EA0107EDD152EA030012D082EA04001A
:1005500083EA0501084305D0101BAB4106D20122F6
:10056000002306E000224FF0004302E06FF001029A
:1005700053101AEB06004CEB085110EB0A0041EB4C
:100580000B01BDE8F04D00F004B90EB5C10F80EAD3
:10059000E0700844CA07002140F233438DE80E00A2
:1005A0000A460B4600F004F903B000BD0EB540F258
:1005B000334102910021CDE900110A460B4600F0BB
:1005C000F7F803B000BD00F0004230F000400AD060
:1005D000C10D01F56071C0F3160042EA0151C20875
:1005E00040071143704700200146704730B5041E94
:1005F00071F1000404DB4FF00044404264EB010160
:10060000141E73F1000405DB1C464FF000435242F8
:1006100063EB0403994208BF904230BD01F00043F0
:1006200030B421F0004150EA010206D00A0DA2F5D3
:100630006072C1F31301002A02DC30BC0020704755
:10064000440F44EAC104C100E01830BC00EBC250C2
:1006500000F068B830B50B46014600202022012486
:1006600009E021FA02F59D4205D303FA02F5491B80
:1006700004FA02F52844151EA2F10102F1DC30BD96
:100680002DE9F05F0546002092469B4688460646C7
:10069000814640241BE02846414647462246FFF754
:1006A000B1FD53465A46C01A914110D3114618461F
:1006B000224600F016F82D1A67EB01084F46224635
:1006C0000120002100F00DF817EB00094E41201E1B
:1006D000A4F10104DFDC484631462A464346BDE822
:1006E000F09F202A04DB203A00FA02F10020704734
:1006F0009140C2F1200320FA03F319439040704760
:10070000202A06DBCB17203A41FA02F043EAE073D5
:1007100006E041FA02F3D040C2F1200291400843C2
:10072000194670470029A8BF7047401C490008BF00
:1007300020F00100704710B4B0FA80FC00FA0CF011
:1007400050EA010404BF10BC704749B1CCF1200449
:1007500021FA04F411FA0CF118BF012121430843D6
:10076000A3EB0C01CB1D4FEA00614FEA102042BF02
:10077000002010BC704700EBC35010440029A4BFF8
:1007800010BC7047401C490008BF20F0010010BC9D
:10079000704710B5141E73F1000408DA401C41F1D3
:1007A000000192185B411A4301D120F0010010BDF5
:1007B0002DE9F04D92469B4611B1B1FA81F202E06B
:1007C000B0FA80F220329046FFF78BFF04460F46C6
:1007D00040EA0A0041EA0B0153465A46084313D047
:1007E000114653EA010019D0C8F140025046FFF704
:1007F00009FD05460E46504659464246FFF771FF31
:10080000084305D0012004E020463946BDE8F08DBC
:100810000020054346EAE0762C4337430A986305F7
:10082000E40AA0EB08000022FD0A44EA47540A301B
:1008300002D500200146E9E7010510196941DDE90B
:10084000084500196941BDE8F04DA2E7C1F30A521D
:10085000C1F3130140F2FF3341F480119A4202DAEE
:1008600000200146704740F233439A42A2F23342DD
:1008700002DC5242FFF7C6BCFFF733BF064C074D00
:1008800006E0E06840F0010394E807009847103460
:10089000AC42F6D3FFF750FC5073030870730308A3
:1008A00070B58D1810F8014B14F0030201D110F847
:1008B000012B231106D110F8013B03E010F8016B66
:1008C00001F8016B521EF9D1ABB110F8012B04F005
:1008D0000C048A1A0C2C03D0A2EB84129B1C08E097
:1008E00010F8014BA2EB0422F8E712F8014B01F8D3
:1008F000014B5B1EF9D5A942D4D3002070BD000086
:1009000010B5074800F096FC08B100F08FFC0A22F1
:100910000449034801F07CF808B100F087FC10BDE1
:1009200090280020582B002002460021002300BF01
:1009300007E0074800EB410030F812000344481C70
:10094000C1B20A29F5DB0A20B3FBF0F080B2704790
:10095000582B002070B5044600252068806800F000
:10096000010018B32068806820F0010021688860C9
:1009700002F078F9054613E002F074F9401B0228F2
:100980000ED92068806800F0010048B1A06A40F0EC
:100990001000A062E06A40F00100E062012070BD3A
:1009A0002068806800F001000028E5D10020F6E70B
:1009B00070B505466C6AA06A00F05000E0B9A06A04
:1009C00040F40070A0622068806800F46020B0F5F8
:1009D000602F0DD1207B58B9A06A20F48070A062EE
:1009E000A06A00F4805018B9A06A40F00100A0622B
:1009F000204600F051FE03E0206A016B284688473C
:100A000070BD70B505466C6AA06A40F04000A062F7
:100A1000E06A40F00400E062204600F03FFE70BD56
:100A200070B50446656A284600F037FE70BD0000C8
:100A300038B504460025002000902068806800F04A
:100A4000010078BB2068806840F001002168886060
:100A5000194800681949B0FBF1F0009002E00098D5
:100A6000401E009000980028F9D102F0FBF80546DE
:100A700019E002F0F7F8401B022814D920688068BA
:100A800000F0010078B9A06A40F01000A062E06AAE
:100A900040F00100E06200BF002084F8240000BFA5
:100AA000012038BD05E02068806800F001000028C2
:100AB000DFD00020F5E700007819002040420F0049
:100AC00008B54FF0000A00BF0020009000BF0020D2
:100AD000FFF72AFF8346FFF769FD80460022114B8E
:100AE000FFF7E4FC06464FF066320F4BFFF76CFC55
:100AF0000446FFF793FD82465046FFF764FD044627
:100B000000220A4BFFF772FD03D2012005F09EF987
:100B100002E0002005F09AF94FF47A7008F044FFE3
:100B2000D5E700000000B04066660A4000000840BB
:100B300088B000BF00BF4F480078002878D04E48EA
:100B40000078FF281AD14C484078FB28FAD14A484F
:100B50004078012813D1FF208DF80000FB208DF88C
:100B60000100FF208DF80E00FE208DF80F000120FF
:100B70008DF802001021684605F0D8F868E03E487C
:100B8000807802282ED1FF208DF80000FB208DF800
:100B90000100FF208DF80E00FE208DF80F000220CE
:100BA0008DF80200354805F05BFD18B1344805F0BA
:100BB00057FD18B93048C01C05F0CCF9172002F0D9
:100BC000F5FA1021684605F0B1F84FF4FA7008F014
:100BD000EBFE012005F062F804F0F0FF29A006F01A
:100BE0009FF935E02448807803282AD1FF208DF82A
:100BF0000000FB208DF80100FF208DF80E00FE2084
:100C00008DF80F0003208DF80200172002F088FAFB
:100C10001A4805F097F91A4805F094F94FF4FA705C
:100C200008F0C2FE002005F039F804F0D9FF00E01A
:100C30001BE01CA006F074F92248006809F006F9D0
:100C400006E00D488078042802D1002005F026F83F
:100C50000020084908701C4908800748FFF706FB78
:100C6000044621460448FFF7F6FA642008F09CFE8B
:100C700061E70000C60C0020602A00209C2D0020A7
:100C8000C42F002052582073797374656D207365EA
:100C90006E6420737461727420746F2054582064E1
:100CA00065760A0052582073797374656D207472EA
:100CB000616E736D6974206461746120746F20507B
:100CC000430A000058060020C80C0020EEB00024A3
:100CD000A24600BF00BFA34600BF00BF00BF00BFC9
:100CE00000BF00206C906B9000256A9069900026F0
:100CF00068906790669000BF6590649063908146AD
:100D00006290619060905F905E905D905C9000BF9B
:100D1000642131A8FFF79FFA00BF24210CA8FFF738
:100D20009AFA4FF0FF3300220CA9EF48006808F050
:100D300099FE002876D10CA86B909DF850006C901D
:100D4000EA4885696598F8B96B9840886990BDF85C
:100D5000A4010006000CBDF8A41140EA112069901E
:100D6000BDF8A461BDF8A401202807DD2022284693
:100D70006B99FFF757FA01206590CEE728466C9AE9
:100D80006B99FFF74FFA05E005F120006C9A6B991B
:100D9000FFF748FA659808B1002065900022311DE0
:100DA000284606F021FE6790301D28440088689090
:100DB000BDF8A0010006000CBDF8A01140EA11200A
:100DC0006890BDF8A0116798814214D0BDF8A03199
:100DD0003146C7A0679A06F0A3F8002404E0295D15
:100DE000D0A006F09DF8641C301D8442F7DBCFA034
:100DF00006F096F891E7B01D82B22946CC4806F07D
:100E000081F8CC480068401CCA490860642131A8B8
:100E1000FFF721FAA879022875D105F10F006A9031
:100E200000248FE05EE16A9800EB84000068669021
:100E3000DDF8989109F4000038B16FEA0909C9F3A7
:100E4000160909F10109C9F100094846FFF79DFBA0
:100E50000022B94BCDE90A01FFF7B6FA07468846EA
:100E600050AA02EBCB02C2E900780BF101001FFA95
:100E700080FBBBF1060F64D14FF0000A5EE05B9986
:100E80005A98CDE90A0159995898CDE9080157991E
:100E90005698CDE9060155995498CDE90401539926
:100EA0005298CDE9020151995098CDE90001A3A1D2
:100EB00031A8609A06F044F84FF4FA716098B0FBDC
:100EC000F1F201FB120008B9012064905C98B0F1C6
:100ED000C87F19DBA44805F035F86298401C629081
:100EE000A2A1A4A26298A94BCDE900200291A8A2D8
:100EF000A8A124A806F024F824A99B4805F00EF91F
:100F000000205C9012E027E031A8FFF7AFF90B90CA
:100F10000222014631A8649B05F010F931A8FFF7C1
:100F2000A5F95E905E995C9808445C906098401CBE
:100F300060900020649083460AF1010ABAF1010F23
:100F40009DDB641CA6F10B00C11700EB9171B4EBA3
:100F5000A10FFFF668AFC5E0A8790128FBD105F124
:100F60000F006A900024B5E004EB44016A9800EB9E
:100F70004100016815918088ADF85800BDF9541002
:100F8000B1F5006F05DBBDF85410A1F5805109B231
:100F900001E0BDF954100846FFF7F7FA4B914A906B
:100FA0004B994A987E4A7F4BCDE90A01FFF77EFABA
:100FB0004B914A90BDF95610B1F5006F05DBBDF8B5
:100FC0005610A1F5805109B201E0BDF9561008464E
:100FD000FFF7DBFA4D914C904D994C98704A714B4C
:100FE000CDE90A01FFF762FA4D914C90BDF9581016
:100FF000B1F5006F05DBBDF85810A1F5805109B2BD
:1010000001E0BDF958100846FFF7BFFA4F914E9026
:101010004F994E98624A634BCDE90A01FFF746FAB1
:101020004F914E904FF0000A50E04F994E98CDE905
:1010300004014D994C98CDE902014B994A98CDE9AC
:10104000000159A131A85F9A05F07AFF4FF47A7137
:101050005F98B0FBF1F201FB120008B90120639028
:101060005D98B0F1487F18DB574804F06BFF61983A
:10107000401C61903DA155A26198444BCDE90020F0
:10108000029143A243A117A805F05AFF17A94E48A1
:1010900005F044F800205D9011E031A8FFF7E6F874
:1010A0000B900122014631A8639B05F047F831A857
:1010B000FFF7DCF85E905E995D9808445D905F985C
:1010C000401C5F90002063900AF1010ABAF1010F01
:1010D000ABDB641CA6F10B00062190FBF1F0A042F3
:1010E0003FF742AF19E600005406002070280020A8
:1010F0007061636B4C656E3A25642C20435243202B
:1011000063616C2076616C75653A253034782C20EB
:101110006372632076616C7565203A253034780AF5
:101120000000000025303258200000000A000000B6
:10113000C82A00207C060020D012E33F737472613D
:10114000696E2025642C20252E336620252E3366DB
:1011500020252E336620252E336620252E3366204B
:10116000252E33660A000000C42F00202E747874E8
:10117000000000005F73747261696E5361766546AA
:10118000696C655F706172745F000000EC31002073
:10119000303A0000257325732573256425730000FC
:1011A0009D11A5BDC1972340766962726174696F14
:1011B0006E2025642C20252E336620252E336620B4
:1011C000252E33660A0000009C2D00205F616478A4
:1011D0006C5361766546696C655F706172745F001F
:1011E00000BFFEE710B5024800F0FEFD10BD000094
:1011F000C028002030B590F840500124AC40C56BA9
:101200006C60046863604468102C04D10468A260B8
:101210000468E16003E00468A1600468E26030BD36
:10122000704710B5402001F08DFA10BD72B600BFB6
:10123000FEE70000F8B504460026002000904B4968
:101240002068884207D04A492068884203D049492B
:101250002068884200D103E07E2147A006F002FB0F
:1012600000BF94F82400012801D10220F8BD01201C
:1012700084F8240000BF2046FFF76CFB064620469A
:10128000FFF7D6FB0646002E69D1A06A20F48850ED
:1012900040F00200A062022002F06CF845490968A3
:1012A000B1FBF0F04000009002E00098401E00907A
:1012B00000980028F9D12068806840F00800216873
:1012C000886001F0CFFC054616E001F0CBFC401B26
:1012D0000A2811D92068806800F0080060B1A06A6F
:1012E00020F0020040F01000A06200BF002084F84F
:1012F000240000BF0120B9E72068806800F00800E2
:101300000028E2D12068806840F0040021688860ED
:1013100001F0A8FC054616E001F0A4FC401B0A28D9
:1013200011D92068806800F0040060B1A06A20F044
:10133000020040F01000A06200BF002084F82400EA
:1013400000BF012092E72068806800F004000028B8
:10135000E2D1A06A20F0020040F00100A06200BFCC
:10136000002084F8240000BF30467FE700240140BD
:1013700000280140003C01402E2E2F447269766502
:1013800072732F53544D3332463178785F48414C55
:101390005F4472697665722F5372632F73746D3375
:1013A00032663178785F68616C5F6164635F65782D
:1013B0002E63000078190020F8B505460C4600267B
:1013C00000200090A1492868884207D0A0492868D9
:1013D000884203D09F492868884200D104E040F247
:1013E000D6719DA006F03EFA206890B320680128CF
:1013F0002FD0206802282CD02068032829D020680C
:10140000042826D02068052823D02068062820D06C
:10141000206807281DD0206808281AD020680928CD
:1014200017D020680A2814D020680B2811D0206813
:101430000C280ED020680D280BD020680E2808D06C
:1014400020680F2805D02068102802D020681128B5
:1014500000D104E040F2D7717FA006F003FA606883
:1014600001282CD06068022829D06068032826D083
:101470006068042823D06068052820D060680628AA
:101480001DD0606807281AD06068082817D06068E7
:10149000092814D060680A2811D060680B280ED083
:1014A00060680C280BD060680D2808D060680E2892
:1014B00005D060680F2802D06068102800D104E0D1
:1014C0004FF4FB6164A006F0CDF9A068A0B1A0685C
:1014D000012811D0A06802280ED0A06803280BD0E4
:1014E000A068042808D0A068052805D0A0680628B0
:1014F00002D0A068072800D104E040F2D97156A0BC
:1015000006F0B0F900BF95F82400012801D10220AF
:10151000F8BD012085F8240000BF6068072812D2BA
:101520002868406B2179491E01EB81021F219140FF
:1015300088432279521E02EB8202216891400843BF
:101540002968486327E060680D2812D22868006B7C
:101550002179C91F01EB81021F2191408843227923
:10156000D21F02EB82022168914008432968086378
:1015700011E02868C06A21790D3901EB81021F2131
:101580009140884322790D3A02EB82022168914012
:1015900008432968C86220680A2812D32868C068EE
:1015A00021780A3901EB41020721914088432278D2
:1015B0000A3A02EB4202A168914008432968C860D8
:1015C0000FE028680069217801EB41020721914072
:1015D0008843227802EB4202A168914008432968BF
:1015E00008612068102802D02068112827D11749E7
:1015F000286888421ED12868806800F40000F0B98D
:101600002868806840F400002968886020681028F5
:1016100015D11F4800681F49B0FBF1F000EB8000B6
:101620004000009002E00098401E009000980028C2
:10163000F9D104E0A86A40F02000A862012600BFAA
:10164000002085F8240000BF304661E700240140F7
:1016500000280140003C01402E2E2F44726976651F
:1016600072732F53544D3332463178785F48414C72
:101670005F4472697665722F5372632F73746D3392
:1016800032663178785F68616C5F6164632E6300F5
:101690007819002040420F007047704770470000E3
:1016A0002DE9F0410446002700250026A84614B97C
:1016B0000120BDE8F08197492068884207D096490B
:1016C0002068884203D095492068884200D104E010
:1016D00040F2A91192A006F0C5F8606818B16068E0
:1016E000B0F5006F00D104E04FF4D5718CA006F086
:1016F000B9F8A06818B1A068B0F5807F00D104E007
:1017000040F2AB1186A006F0ADF8207B10B1207B33
:10171000012800D104E04FF4D67181A006F0A2F8B0
:10172000E06988B3E069B0F5003F2DD0E069B0F51D
:10173000C02F29D0E069B0F5002F25D0E069B0F5C1
:10174000202F21D0E069B0F5402F1DD0E069D8B13D
:10175000E069B0F5003F17D0E069B0F5C02F13D0B5
:10176000E069B0F5202F0FD0E069B0F5402F0BD025
:10177000E069B0F5802F07D0E069B0F5402F03D0C5
:10178000E069B0F5602F00D104E040F2AD1164A033
:1017900006F068F8A068002822D0206918B12069F6
:1017A000102800D804E040F2B1115DA006F05AF80C
:1017B000207D10B1207D012800D104E04FF4D971C3
:1017C00057A006F04FF8207D50B1A06918B1A0696C
:1017D000082800D804E040F2B51151A006F042F804
:1017E000A06A30B90020E06284F82400204600F0AE
:1017F000B7F82046FFF7AEF80746A06A00F01000E1
:10180000002873D1002F7ED1A06A20F4885040F0C8
:101810000200A062414AD4E90001904208D1E06987
:10182000B0F5402F02D14FF4002002E0E06900E063
:10183000E0690143207B41EA40000643A068B0F51F
:10184000807F02D0A068012802D14FF4807000E0B0
:1018500000200543207D012811D1207B38B9A069E3
:10186000401E4FF4006141EA4030054307E0A06AA2
:1018700040F02000A062E06A40F00100E0622068D1
:10188000406820F4694028432168486020688068E7
:1018900031490840304321688860A068B0F5807FF6
:1018A00002D0A068012802D14FF4807000E000202F
:1018B000B0F5807F03D1208A401E4FEA005820688F
:1018C000C06A20F4700040EA08002168C8622068FD
:1018D000806822490840B04209D10020E062A06A35
:1018E00020F0020040F00100A06211E00BE0A06ACD
:1018F00020F0020040F01000A062E06A40F0010019
:10190000E062012704E0A06A40F01000A062012715
:101910003846CEE60024014000280140003C01404A
:101920002E2E2F447269766572732F53544D3332C5
:10193000463178785F48414C5F4472697665722F12
:101940005372632F73746D3332663178785F6861D8
:101950006C5F6164632E6300FDF7E1FFFE0E1FFF05
:1019600010B586B0044600200290039004900590C4
:101970002249206888423ED100BF2148806940F456
:1019800000701F4988610846806900F4007001906A
:1019900000BF00BF00BF0846806940F004008861B6
:1019A0000846806900F00400019000BF00BF0220DB
:1019B00002900320039002A9124800F0D1FE1248C1
:1019C0001249086000204860002110488160802191
:1019D000C160490001618900416120218161C90123
:1019E000C16100F0CDFB08B1FFF720FC00BF074844
:1019F0002062446200BF06B010BD00000024014018
:101A0000001002400008014008000240C0280020E9
:101A10002DE9F04104460D46164600275E49206830
:101A2000884203D05D492068884200D104E040F23A
:101A300016615BA005F016FF57492068884203D065
:101A400065492068884205D15348001D006800F4AC
:101A5000702000E0002000287ED100BF94F8240010
:101A6000012802D10220BDE8F081012084F8240081
:101A700000BF2046FEF7DCFF0746002F6DD1A06AAD
:101A800040F60161884340F48070A06252492068AA
:101A9000884209D14048001D006800F4702008B950
:101AA000012002E0002000E0012078B1A06A20F4CB
:101AB0008010A0622068406800F4806000B3A06AD3
:101AC00020F4005040F48050A06219E0A06A40F475
:101AD0008010A06230492068884203D03E492068C7
:101AE000884205D12C48001D006800F4806000E0A9
:101AF000002028B1A06A20F4005040F48050A06279
:101B0000A06A00F4805020B1E06A20F00600E06294
:101B100001E00020E06200BF002084F8240000BF44
:101B20002E48216A88622E48216AC8622D48216A9F
:101B300008636FF00200216808602068806840F444
:101B4000807021688860226802F14C0133462A4681
:101B5000206A00F015FC01E01AE014E020688068BB
:101B600000F46020B0F5602F06D12068806840F452
:101B7000A000216888600CE02068806840F4801034
:101B80002168886005E000BF002084F8240000E0A0
:101B90000127384667E7000000240140003C01406F
:101BA0002E2E2F447269766572732F53544D333243
:101BB000463178785F48414C5F4472697665722F90
:101BC0005372632F73746D3332663178785F686156
:101BD0006C5F6164632E630000280140B109000856
:101BE000210A0008030A00080146002291F821009A
:101BF000022808D00420886300BF002081F820005C
:101C000000BF012070470868006820F00E000B68D4
:101C100018600868006820F001000B68186091F8EF
:101C2000403001209840CB6B5860012081F82100A2
:101C300000BF002081F8200000BF1046E2E700004E
:101C400070B50446002594F82100022803D0042032
:101C5000A0630125C1E02068006820F00E00216823
:101C600008602068006820F00100216808605C4975
:101C70002068884252D95A4978392068884201D16F
:101C8000012047E0564964392068884201D110207C
:101C900040E0534950392068884201D1801539E02D
:101CA0004F493C392068884201D1801432E04C49C8
:101CB00028392068884202D14FF480302AE0484910
:101CC00014392068884202D14FF4801022E0444940
:101CD0002068884201D140041CE0424920688842C3
:101CE00001D1012016E03F4914312068884201D11A
:101CF00010200FE03B4928312068884201D180152F
:101D000008E038493C312068884201D1801401E064
:101D10004FF480303349091F086051E03049783969
:101D20002068884201D1012047E02D4964392068AC
:101D3000884201D1102040E029495039206888426A
:101D400001D1801539E026493C392068884201D10B
:101D5000801432E0224928392068884202D14FF4A9
:101D600080302AE01E4914392068884202D14FF49D
:101D7000801022E01A492068884201D140041CE00A
:101D800018492068884201D1012016E01549143114
:101D90002068884201D110200FE0124928312068C4
:101DA000884201D1801508E00E493C312068884204
:101DB00001D1801401E04FF4803009498039486036
:101DC000012084F8210000BF002084F8200000BF1B
:101DD000606B10B12046616B8847284670BD0000DB
:101DE000800002400804024070B50446E06B0568BC
:101DF0002068066894F84010042088402840002895
:101E000075D006F004000028FAD02068006800F0C1
:101E1000200028B92068006820F0040021680860CC
:101E2000D5492068884254D9D349783920688842F6
:101E300001D1042049E0D04964392068884201D1A9
:101E4000402042E0CC4950392068884201D1001539
:101E50003BE0C9493C392068884202D14FF48040B8
:101E600033E0C54928392068884202D14FF48020E8
:101E70002BE0C14914392068884202D14FF4800018
:101E800023E0BD492068884201D1C0041DE0BB4960
:101E90002068884201D1042017E0B8491431206835
:101EA000884201D1402010E0B4492831206888429E
:101EB00001D1001509E0B1493C312068884202D1C6
:101EC0004FF4804001E04FF48020AC49091F0860C6
:101ED00054E0A94978392068884201D104204AE0B9
:101EE000A54964392068884202D1402043E04CE093
:101EF000A14950392068884201D100153BE09E4934
:101F00003C392068884202D14FF4804033E09A493E
:101F100028392068884202D14FF480202BE096496E
:101F200014392068884202D14FF4800023E092499E
:101F30002068884201D1C0041DE090492068884291
:101F400001D1042017E08D4914312068884201D165
:101F5000402010E0894928312068884201D10015CD
:101F600009E086493C312068884202D14FF4804024
:101F700001E04FF48020804980394860E06A002801
:101F800002D02046E16A8847F4E094F8401002202D
:101F900088402840002871D006F002000028FAD0BE
:101FA0002068006800F0200040B92068006820F038
:101FB0000A0021680860012084F821006E49206829
:101FC000884254D96C4978392068884201D102206E
:101FD00049E0694964392068884201D1202042E003
:101FE000654950392068884201D140153BE062497B
:101FF0003C392068884202D14FF4005033E05E49FA
:1020000028392068884202D14FF400302BE05A4929
:1020100014392068884202D14FF4001023E0564959
:102020002068884201D180041DE05449206888421C
:1020300001D1022017E0514914312068884201D1B2
:10204000202010E04D4928312068884201D14015F8
:1020500009E04A493C312068884202D14FF40050DF
:1020600001E04FF400304549091F086054E042493F
:1020700078392068884202D102204AE057E03E4980
:1020800064392068884201D1202042E03A49503921
:102090002068884201D140153BE037493C3920682F
:1020A000884202D14FF4005033E033492839206888
:1020B000884202D14FF400302BE02F4914392068B8
:1020C000884202D14FF4001023E02B492068884257
:1020D00001D180041DE029492068884201D10220F5
:1020E00017E0264914312068884201D1202010E0F1
:1020F000224928312068884201D1401509E01F4952
:102100003C312068884202D14FF4005001E04FF486
:10211000003019498039486000BF002084F8200051
:1021200000BFA06A30B32046A16A884722E094F835
:102130004010082088402840E0B106F00800C8B1EF
:102140002068006820F00E002168086094F84010B4
:1021500001208840E16B48600120A06384F82100E1
:1021600000BF002084F8200000BF206B10B1204683
:10217000216B884770BD00008000024008040240C7
:1021800070B5044600250CB9012070BD6C4920686B
:10219000884235D06A4914312068884230D0684975
:1021A0002831206888422BD065493C31206888421C
:1021B00026D0634950312068884221D0604964317B
:1021C000206888421CD05E4978312068884217D048
:1021D0005C492068884213D05A49143120688842EB
:1021E0000ED0584928312068884209D055493C31E1
:1021F0002068884204D0534950312068884200D179
:1022000003E0992150A005F02DFB606830B16068B3
:10221000102803D06068B0F5804F00D103E09A2108
:1022200049A005F01FFBA068402801D0A06800B9B4
:1022300003E09B2144A005F015FBE068802801D055
:10224000E06800B903E09C213FA005F00BFB20698A
:1022500038B12069B0F5807F03D02069B0F5007FE8
:1022600000D103E09D2138A005F0FCFA606938B187
:102270006069B0F5806F03D06069B0F5006F00D180
:1022800003E09E2130A005F0EDFAA06910B1A0692D
:10229000202800D103E09F212BA005F0E3FAE0699C
:1022A00058B1E069B0F5805F07D0E069B0F5005F34
:1022B00003D0E069B0F5405F00D103E0A02122A087
:1022C00005F0D0FA1F49206888420BD21C492068CB
:1022D000401A1421B0FBF1F080002064184808383F
:1022E000E0630AE017492068401A1421B0FBF1F0BE
:1022F0008000206413480838E063022084F821003D
:102300002068056843F6F0708543D4E9010108436D
:10231000E16808432169084361690843A1690843EA
:10232000E16908430543206805600020A06301209F
:1023300084F82100002084F8200000BF25E7000079
:1023400008000240080402402E2E2F447269766570
:1023500072732F53544D3332463178785F48414C75
:102360005F4472697665722F5372632F73746D3395
:1023700032663178785F68616C5F646D612E6300EE
:102380002DE9F04104460E4617461D464FF0000861
:102390001DB1B5F5803F00D204E04FF4B77124A021
:1023A00005F060FA00BF94F82000012802D1022055
:1023B000BDE8F081012084F8200000BF94F82100DE
:1023C00001282CD1022084F821000020A06320687D
:1023D000006820F00100216808602B463A4631462B
:1023E0002046FEF707FFE06A30B12068006840F041
:1023F0000E00216808600BE02068006820F00400EF
:10240000216808602068006840F00A0021680860C0
:102410002068006840F001002168086006E000BF05
:10242000002084F8200000BF4FF002084046BFE7BC
:102430002E2E2F447269766572732F53544D3332AA
:10244000463178785F48414C5F4472697665722FF7
:102450005372632F73746D3332663178785F6861BD
:102460006C5F646D612E63002DE9F04704460F46F2
:1024700000255248844211D0514884420ED0514820
:1024800084420BD05048844208D05048844205D042
:102490004F48844202D04F48844200D104E04FF4B8
:1024A000B4714DA005F0DEF9B8B218B1380C0004D3
:1024B00000B904E040F2691147A005F0D3F976E0D5
:1024C0000120A84000EA0706002E6FD05148A90855
:1024D00050F82180A807010F0F20884000EA080863
:1024E0003648844201D1002019E03548844201D1A8
:1024F000012014E03348844201D102200FE0324829
:10250000844201D103200AE03048844201D10420F2
:1025100005E02F48844201D1052000E00620A907EC
:10252000090F8840404524D13B480068B0433A49F0
:102530000860081D0068B043091D086036480C306B
:102540000068B04334490C310860081F0068B0438C
:10255000091F0860A807010F0F2000FA01F82D4895
:10256000A90850F8210020EA08002A49AA0841F8E1
:102570002200FF2E01D8204600E0201D8146FF2EBC
:1025800001D8A80002E0A5F1080080008246D9F831
:1025900000000F2101FA0AF18843042101FA0AF12F
:1025A0000843C9F80000E068B043E0606D1C27FAFA
:1025B00005F0002884D1BDE8F08700000008014044
:1025C000000C0140001001400014014000180140BF
:1025D000001C0140002001402E2E2F4472697665B8
:1025E00072732F53544D3332463178785F48414CE3
:1025F0005F4472697665722F5372632F73746D3303
:1026000032663178785F68616C5F6770696F2E63DE
:10261000000000000800014000040140F0B589B04E
:102620000646002424216846FDF715FE402E63D19E
:102630005CE0072003F006FB044604F0400000289D
:1026400034D0602003F0FEFA8DF820009DF82020A1
:102650006946612003F0D6FA2146072003F0B0FB5B
:1026600003F0ACFA00231A4669462448006807F0D4
:10267000C1FA0546E81C002838D121480068962890
:102680000ED11E48006807F039FA07463B4640F273
:1026900011321C491CA004F043FC002018490860BA
:1026A00017480068401C164908601FE004F010003D
:1026B00058B12146072003F083FB03F091FA012073
:1026C00003F0ECFA03F07AFA10E004F0200048B1CD
:1026D0002146072003F074FB03F082FA012003F087
:1026E000DDFA03E02146072003F06AFB402114488D
:1026F00000F048FA00289CD009B0F0BD5406002034
:10270000D00C002027C5000825732C206174204CB4
:10271000696E653A25642C20785175657565536539
:102720006E64206973206572722C20717565756501
:10273000206E756D2069733A2564200A0000000040
:10274000000C014010B5044604480068204020B148
:10275000024804602046FFF761FF10BD14040140E9
:102760002DE9FC5F05460C46002700200190E64855
:10277000854211D0E54885420ED0E54885420BD010
:10278000E448854208D0E448854205D0E3488542C4
:1027900002D0E348854200D103E0BD21E1A005F06D
:1027A00061F8208880B220B120686FF30F0000B973
:1027B00003E0BE21DBA005F055F8606830B3606827
:1027C000012823D06068112820D0606802281DD01D
:1027D000606812281AD0E2496068884216D0E14940
:1027E0006068884212D0E049606888420ED0DF49B4
:1027F000606888420AD0DE496068884206D0DD49B8
:102800006068884202D06068032800D103E0BF21DD
:10281000C4A005F027F86FE1012000FA07F820684E
:1028200000EA0806464575D1B748854211D0B74839
:1028300085420ED0B64885420BD0B648854208D0B6
:10284000B548854205D0B548854202D0B448854296
:1028500000D103E0CD21B3A005F004F8C04A6068C0
:10286000811A90426AD00EDC032875D006DC00285D
:1028700063D0012819D002286FD139E0112825D062
:102880001228F9D147E0B1F5881F5BD006DCB1F51D
:10289000803F56D0B1F5801F79D150E0B1F5001FCF
:1028A0004ED0B1F5041F72D14DE0E068022805D08A
:1028B000E068012802D0E068032800D103E0D521B8
:1028C00098A004F0CFFFE068019061E0E068022882
:1028D00005D0E068012802D0E068032800D103E0B9
:1028E000DC2190A004F0BEFFE068001D01904FE0E5
:1028F000E068022805D0E068012802D0E0680328DB
:1029000000D103E0E32187A004F0ACFFE0680830C9
:1029100001903DE0D2E0E068022805D0E06801289F
:1029200002D0E068032800D103E0EA217DA004F092
:1029300099FFE0680C3001902AE000BF00BF00BFA3
:1029400000BF00BF00BFA06828B1A068012802D066
:10295000A068022802D105E016E018E0F72171A076
:1029600004F080FFA06810B9042001900BE0A0687B
:10297000012804D108200190C5F8108003E0082048
:102980000190C5F8148003E00020019000E000BF32
:1029900000BFFF2E01D8284600E0281D8246FF2EEA
:1029A00001D8B80002E0A7F1080080008346DAF8F9
:1029B00000000F2101FA0BF18843019901FA0BF194
:1029C0000843CAF80000606800F08050B0F1805FF2
:1029D00074D100BF6848806940F001006649886191
:1029E0000846806900F00100009000BF00BF4FEA78
:1029F000B130B90850F82190B807010F0F20884076
:102A000029EA00094048854201D1002019E03F48E9
:102A1000854201D1012014E03D48854201D10220C8
:102A20000FE03C48854201D103200AE03A48854244
:102A300001D1042005E03948854201D1052000E09C
:102A40000620B907090F884040EA09094B48B90830
:102A500040F82190606800F48010B0F5801F05D127
:102A60004748006830434649086004E0444800682D
:102A7000B04343490860606800F40010B0F5001FDF
:102A800007D13F48001D006830433D49091D0860DB
:102A900006E03B48001D0068B0433949091D086045
:102AA000606800F40030B0F5003F08D13448001FE2
:102AB000006830433249091F086007E01BE03048D6
:102AC000001F0068B0432E49091F0860606800F4C9
:102AD0008030B0F5803F07D129480838006830437E
:102AE00027490839086006E0254808380068B043DF
:102AF0002349083908607F1C2068F84000287FF4CB
:102B00008BAEBDE8FC9F000000080140000C0140B6
:102B1000001001400014014000180140001C014059
:102B2000002001402E2E2F447269766572732F5358
:102B3000544D3332463178785F48414C5F44726976
:102B40007665722F5372632F73746D3332663178EA
:102B5000785F68616C5F6770696F2E6300000000CA
:102B600000001110000021100000311000001210B0
:102B70000000221000003210001002400800014046
:102B80000804014070B506460C46A0B218B1200CEE
:102B9000000400B904E04FF4DA7105A004F062FE0D
:102BA000B068204008B1012500E00025284670BD2E
:102BB0002E2E2F447269766572732F53544D333223
:102BC000463178785F48414C5F4472697665722F70
:102BD0005372632F73746D3332663178785F686136
:102BE0006C5F6770696F2E630000000070B5064669
:102BF0000C461546A0B218B1200C000400B904E040
:102C00004FF4EA7108A004F02DFE0DB1012D00D1A2
:102C100004E040F2D51104A004F024FE0DB13461AB
:102C200001E02004306170BD2E2E2F44726976655C
:102C300072732F53544D3332463178785F48414C8C
:102C40005F4472697665722F5372632F73746D33AC
:102C500032663178785F68616C5F6770696F2E6388
:102C60000000000001480068704700006C19002057
:102C700070B504460CB9012070BDA1492068884296
:102C800003D0A0492068884200D104E040F2DB1163
:102C90009DA004F0E7FD606820B1A9496068884202
:102CA00000D804E04FF4EE7197A004F0DBFDA068BB
:102CB00018B1A068B0F5804F00D104E040F2DD11FA
:102CC00091A004F0CFFDE0686FF3090000B904E0C3
:102CD0004FF4EF718CA004F0C5FD2069B0F5804F72
:102CE00003D02069B0F5404F00D104E040F2DF117D
:102CF00085A004F0B7FD606910B16069012800D1BA
:102D000004E04FF4F07180A004F0ACFDA06920F065
:102D1000FE0000B904E040F2E1117BA004F0A2FD46
:102D2000E06910B1E069402800D104E04FF4F1718E
:102D300075A004F097FD206A10B1206A802800D1A8
:102D400004E040F2E31170A004F08CFD94F83D0023
:102D500028B9002084F83C00204600F0FBF824202D
:102D600084F83D002068006820F0010021680860B8
:102D70002068006840F4004021680860206800680E
:102D800020F400402168086000F076FE05466D4999
:102D90006068884206D86C48854201D2012007E06D
:102DA000002005E06948854201D2012000E00020B2
:102DB000012800D160E76648B5FBF0F6206840685E
:102DC00020F03F003043216848605E4960688842D7
:102DD00001D8701C07E04FF4967070434FF47A717D
:102DE000B0FBF1F0401C2168096A21F03F01084363
:102DF0002168086253496068884214D8681E616877
:102E00004900B0FBF1F0401CC0F30B00042801D2D4
:102E100004203DE0681E61684900B0FBF1F0401CF1
:102E2000C0F30B0034E0A06838B9681E616801EB9C
:102E30004101B0FBF1F0401C0AE0681E616801EB43
:102E4000C10202EB0111B0FBF1F0401C40F48040E4
:102E5000C0F30B0008B901201AE0A06848B9681E49
:102E6000616801EB4101B0FBF1F0401CC0F30B00C5
:102E70000CE0681E616801EBC10202EB0111B0FBBE
:102E8000F1F0401CC0F30B0040F4804040F40040DF
:102E90002168C9694CF6FF72914308432168C861F3
:102EA000D4E9070108432168096821F0C0010843FB
:102EB00021680860D4E9031008432168896848F252
:102EC000FF329143084321688860D4E90501084333
:102ED0002168C96821F0FF0108432168C8602068A3
:102EE000006840F001002168086000202064202074
:102EF00084F83D000020206384F83E0000BFBBE65C
:102F000000540040005800402E2E2F447269766510
:102F100072732F53544D3332463178785F48414CA9
:102F20005F4472697665722F5372632F73746D33C9
:102F300032663178785F68616C5F6932632E630056
:102F4000801A0600A086010080841E0000093D0052
:102F500040420F0010B586B0044600200290039056
:102F6000049005901A49206888422FD100BF194863
:102F7000806940F00800174988610846806900F0C0
:102F80000800019000BF00BF4FF440700290122073
:102F900003900320059002A90F48FFF7E1FB00BF53
:102FA0000E49486840F0E06040F00200486000BF11
:102FB00000BF0848C06940F400100649C8610846CF
:102FC000C06900F40010019000BF00BF06B010BD42
:102FD0000054004000100240000C0140000001407D
:102FE00003480068034909780844014908607047AC
:102FF0006C1900207419002010B50848006840F0D2
:10300000100006490860032000F070F90F2000F05E
:1030100007F800F055F8002010BD00000020024025
:10302000F0B587B0044600260027002500BF1F48E2
:10303000806940F400601D4988610846806900F499
:103040000060009000BF00BF01A902A800F0C0FC12
:1030500000F022FD06461648B6FBF0F0471E154864
:103060001549086040F2E7311348C160476000210C
:1030700001618160816101F037FC054695B90E4818
:1030800001F0CAFD05466DB9192000F08FF8102C2B
:1030900007D200222146192000F0BEF8074804603C
:1030A00000E00125284607B0F0BD000000100240F6
:1030B00040420F00002C0140102B0020701900200E
:1030C00008B500BF1448806940F0010012498861CA
:1030D0000846806900F00100009000BF00BF00BFFB
:1030E0000846C06940F08050C8610846C06900F0D9
:1030F0008050009000BF00BF00220F21901E00F002
:103100008BF800BF0549486820F0E06040F000708F
:10311000486000BF08BD00000010024000000140F0
:1031200010B50446002C00DB03E0CD210FA004F015
:1031300099FB2046002817DB00F01F020121914077
:10314000194A430942F8231000BF00BF00BFBFF374
:103150004F8F00BF00BF00BF00BF00BF00BFBFF365
:103160006F8F00BF00BF00BF00BF10BD2E2E2F44C9
:103170007269766572732F53544D333246317878C5
:103180005F48414C5F4472697665722F5372632FBA
:1031900073746D3332663178785F68616C5F636F2A
:1031A000727465782E63000080E100E010B504467B
:1031B000002C00DB03E0BD2108A004F053FB2046F7
:1031C000002809DB00F01F02012191404209920012
:1031D00002F1E022C2F8001100BF10BD2E2E2F44D4
:1031E0007269766572732F53544D33324631787855
:1031F0005F48414C5F4472697665722F5372632F4A
:1032000073746D3332663178785F68616C5F636FB9
:10321000727465782E6300002DE9F05F80460C46DD
:1032200015460027102D00D203E0A92120A004F0AC
:1032300019FB102C00D203E0AA211DA004F012FB00
:1032400003F092FE0746394622462B4601F007005E
:10325000C0F1070ABAF1040F02D94FF0040A01E0E5
:10326000C0F1070AD14600F1040ABAF1070F02D2F1
:103270004FF0000A01E0A0F1030AD4464FF0010A22
:103280000AFA09FAAAF1010A0AEA020A0AFA0CFA87
:103290004FF0010B0BFA0CFBABF1010B0BEA030B2C
:1032A0004AEA0B063146404603F066FEBDE8F09F51
:1032B0002E2E2F447269766572732F53544D33321C
:1032C000463178785F48414C5F4472697665722F69
:1032D0005372632F73746D3332663178785F68612F
:1032E0006C5F636F727465782E63000010B50446DE
:1032F000072C07D0062C05D0052C03D0042C01D0B8
:10330000032C00D103E0912109A004F0ABFA00BF27
:1033100004F00701154A10684FF6FF021040144AE6
:10332000024342EA0120114A106000BF10BD0000B4
:103330002E2E2F447269766572732F53544D33329B
:10334000463178785F48414C5F4472697665722FE8
:103350005372632F73746D3332663178785F6861AE
:103360006C5F636F727465782E6300000CED00E093
:103370000000FA052DE9F04704464FF0000800264A
:1033800000270025A94604F0010078B904F00200E6
:1033900002280BD004F00400042807D004F0080031
:1033A000082803D004F01000102800D104E04FF4E6
:1033B000CA713EA004F056FA042C37D004DC012C6C
:1033C0003CD0022C6CD160E0082C33D0102C67D19B
:1033D00045484568006800F0807008B34348C5F36D
:1033E0008341475C05F4803078B13F484068C0F3C2
:1033F00040403F4911F8008005F4803040B13D481D
:10340000B0FBF8F000FB07F602E03B4807FB00F6D4
:103410003548406800F48000B0F5800F01D1B14616
:1034200003E070000321B0FBF1F93AE000F044FB47
:10343000814636E000F040FB814632E02A48056ACA
:1034400005F44070B0F5807F05D105F0020010B1A1
:103450004FF4004918E005F44070B0F5007F07D143
:103460002148406A00F0020010B149F640490BE0E3
:1034700005F44070B0F5407F06D11B48006800F4A9
:10348000003008B14FF224490BE000F005FB16496B
:103490004968C1F38131491C4900B0FBF1F900E0F2
:1034A00000BF00BF4846BDE8F08700002E2E2F4425
:1034B0007269766572732F53544D33324631787882
:1034C0005F48414C5F4472697665722F5372632F77
:1034D00073746D3332663178785F68616C5F7263E4
:1034E000635F65782E6300000010024050C500083D
:1034F00060C5000800127A0000093D00F8B50446D6
:1035000000260025207800F0010098B9207800F00E
:10351000020002280ED0207800F00400042809D010
:10352000207800F00800082804D0207800F010006F
:10353000102800D103E06A2161A004F093F92078FB
:1035400000F0010000287DD00027606858B1606855
:10355000B0F5807F07D06068B0F5007F03D0606869
:10356000B0F5407F00D103E0722155A004F07AF954
:103570006248C06900F0805070B900BF5F48C06900
:1035800040F080505D49C8610846C06900F0805035
:10359000009000BF00BF01275948006800F4807008
:1035A000B0B95748006840F4807055490860FFF78B
:1035B00059FB064606E0FFF755FB801B642801D93E
:1035C0000320F8BD4E48006800F480700028F2D057
:1035D0004A48006A00F440752DB3A08800F440709A
:1035E000A84220D04548006A20F440750120454992
:1035F0000860002008604148056205F0010090B1B4
:10360000FFF730FB064608E0FFF72CFB801B41F27A
:103610008831884201D90320D3E73848006A00F096
:1036200002000028F0D03548006A20F4407061683C
:10363000084332490862012F06D10846C06920F0CC
:10364000805000E001E0C86100BF207800F0020077
:1036500002281AD1A06858B1A068B0F5804F07D0F1
:10366000A068B0F5004F03D0A068B0F5404F00D17E
:1036700003E0B72112A004F0F5F82048406820F4D8
:103680004040A16808431D494860207800F01000C0
:10369000102813D16069B0F5800F01D0606900B9BE
:1036A00004E040F2131106A004F0DCF8134840686F
:1036B00020F480006169084310494860002080E7D9
:1036C0002E2E2F447269766572732F53544D333208
:1036D000463178785F48414C5F4472697665722F55
:1036E0005372632F73746D3332663178785F68611B
:1036F0006C5F7263635F65782E63000000100240A8
:10370000007000404004424270B504460D460CB9BA
:10371000012070BD207800F0010070B9207800F021
:103720000200022809D0207800F00400042804D008
:10373000207800F00800082800D104E040F236317B
:1037400090A004F08FF81DB1012D01D0022D00D101
:1037500004E040F237318BA004F084F89748006809
:1037600000F00700A8420ED29448006820F007003D
:103770002843924908600846006800F00700A84204
:1037800001D00120C5E7207800F0020002283DD1D9
:10379000207800F00400042805D18948406840F4EE
:1037A000E06087494860207800F00800082805D1CB
:1037B0008348406840F4605081494860A068B8B1CF
:1037C000A068802814D0A068902811D0A068A028F4
:1037D0000ED0A068B0280BD0A068C02808D0A06880
:1037E000D02805D0A068E02802D0A068F02800D139
:1037F00004E040F25D3163A004F034F870484068A2
:1038000020F0F000A16808436D494860207800F07E
:103810000100002845D0606828B16068012802D006
:103820006068022800D104E04FF4597155A004F0FB
:1038300019F86068012806D16148006800F400307A
:1038400090B9012065E76068022806D15C480068ED
:1038500000F0007040B901205BE75948006800F0B3
:10386000020008B9012054E75548406820F00300E1
:103870006168084352494860FFF7F4F9064608E0DA
:10388000FFF7F0F9801B41F28831884201D903200B
:103890003FE74B48406800F00C006168B0EB810FD7
:1038A000EED14648006800F00700A8420ED9434810
:1038B000006820F007002843404908600846006877
:1038C00000F00700A84201D0012022E7207800F094
:1038D000040004281FD1E06878B1E068B0F5806F7B
:1038E0000BD0E068B0F5A06F07D0E068B0F5C06F0E
:1038F00003D0E068B0F5E06F00D104E040F2A231FF
:1039000020A003F0AFFF2E48406820F4E060E1689B
:1039100008432B494860207800F00800082820D18F
:10392000206978B12069B0F5806F0BD02069B0F5BF
:10393000A06F07D02069B0F5C06F03D02069B0F543
:10394000E06F00D104E040F2A9310EA003F08AFF3D
:103950001B48406820F46050216940EAC1001849C2
:10396000486000F0A9F816494968C1F30311154AE7
:10397000515CC8401449086014480068FFF750FBC8
:103980000020C6E62E2E2F447269766572732F537F
:10399000544D3332463178785F48414C5F44726908
:1039A0007665722F5372632F73746D33326631787C
:1039B000785F68616C5F7263632E63000020024071
:1039C0000010024062C5000878190020701900201C
:1039D00070B504460D4604B104E040F2215113A035
:1039E00003F040FF05B104E040F222510FA003F0C4
:1039F00039FF0F2020601B48406800F00300606022
:103A00001848406800F0F000A0601648406800F4D4
:103A1000E060E0601348406800F46050C008206136
:103A20001148006800F00700286070BD2E2E2F445A
:103A30007269766572732F53544D333246317878FC
:103A40005F48414C5F4472697665722F5372632FF1
:103A500073746D3332663178785F68616C5F72635E
:103A6000632E6300001002400020024001480068FD
:103A7000704700007819002000B5FFF7F7FF0449F0
:103A80004968C1F30221034A515CC84000BD0000EF
:103A90000010024072C5000800B5FFF7E7FF0449B7
:103AA0004968C1F3C221034A515CC84000BD00000F
:103AB0000010024072C5000870B5002100220024E9
:103AC00000230020134D696801F00C05F5B1042DA9
:103AD00002D0082D19D101E00F4819E00F4DC1F3B4
:103AE0008346AB5D01F4803555B10A4D6D68C5F371
:103AF00040450B4E725D084D5D43B5FBF2F402E0AC
:103B0000084D03FB05F4204602E000BF024800BF59
:103B100000BF70BD0010024000127A003EC50008D0
:103B20004EC5000800093D00F8B504460CB9012057
:103B3000F8BD206890B1207800F0010070B92078BD
:103B400000F00200022809D0207800F008000828C0
:103B500004D0207800F00400042800D104E040F2F2
:103B60006511FAA003F07EFE207800F00100002825
:103B700070D0606838B16068B0F5803F03D060688D
:103B8000B0F5A02F00D104E040F26B11EFA003F0DC
:103B900069FEFC48406800F00C0004280CD0F9488D
:103BA000406800F00C00082811D1F648406800F485
:103BB0008030B0F5803F0AD1F248006800F4003050
:103BC000002860D0606800285DD10120B0E700BF08
:103BD0006068B0F5803F06D1EA48006840F4803064
:103BE000E849086028E0606858B9E648006820F4B1
:103BF0008030E44908600846006820F480200860AE
:103C00001AE06068B0F5A02F0BD1DE48006840F4E0
:103C10008020DC4908600846006840F48030086075
:103C20000AE0D848006820F48030D6490860084689
:103C3000006820F48020086000BF606890B1FFF742
:103C400011F8054607E0FFF70DF8401B642802D97C
:103C500003206DE717E0CB48006800F4003000282F
:103C6000F1D010E0FEF7FEFF054606E0FEF7FAFF92
:103C7000401B642801D903205AE7C248006800F4B9
:103C800000300028F2D1207800F0020002286BD129
:103C9000206910B12069012800D104E040F29F1191
:103CA000AAA003F0DFFD60691F2800D804E04FF4EC
:103CB000D071A6A003F0D6FDB248406800F00C0019
:103CC00050B1B048406800F00C00082818D1AD4849
:103CD000406800F4803098B9AA48006800F00200FB
:103CE00020B12069012801D0012021E7A548006802
:103CF00020F0F800616940EAC100A249086033E0A1
:103D00002069E8B10120A0490860FEF7ABFF054635
:103D100006E0FEF7A7FF401B022801D9032007E7B2
:103D20009848006800F002000028F2D0954800682A
:103D300020F0F800616940EAC1009249086013E090
:103D4000002091490860FEF78DFF054606E0FEF76A
:103D500089FF401B022801D90320E9E68948006851
:103D600000F002000028F2D1207800F008000828B6
:103D700038D1A06910B1A069012800D104E04FF446
:103D8000F07172A003F06EFDA069B8B101207F4907
:103D90000860FEF767FF054606E0FEF763FF401B7D
:103DA000022801D90320C3E67648406A00F00200E9
:103DB0000028F2D0012002F05BF813E000207349E4
:103DC0000860FEF74FFF054606E0FEF74BFF401B7D
:103DD000022801D90320ABE66A48406A00F00200DD
:103DE0000028F2D1207800F00400042878D10027C0
:103DF000E06828B1E068012802D0E068052800D119
:103E000004E040F20F2151A003F02CFD5D48C06991
:103E100000F0805070B900BF5A48C06940F080502F
:103E20005849C8610846C06900F08050009000BF42
:103E300000BF01275648006800F48070B0B95448AC
:103E4000006840F4807052490860FEF70BFF054699
:103E500006E0FEF707FF401B642801D9032067E650
:103E60004B48006800F480700028F2D000BFE06882
:103E7000012806D14348006A40F001004149086228
:103E800027E0E06858B93F48006A20F001003D494A
:103E900008620846006A20F00400086219E0E06841
:103EA00005280BD13748006A40F004003549086204
:103EB0000846006A40F0010008620AE03148006AE2
:103EC00020F001002F4908620846006A20F0040033
:103ED000086200BFE068A0B1FEF7C4FE054609E035
:103EE0002BE0FEF7BFFE401B41F28831884201D92A
:103EF00003201DE62348006A00F002000028F0D0ED
:103F000012E0FEF7AFFE054608E0FEF7ABFE401BF1
:103F100041F28831884201D9032009E61948006A34
:103F200000F002000028F0D1012F05D11548C0692A
:103F300020F080501349C86100BFE06928B1E069F2
:103F4000012802D0E069022824D129E02E2E2F4436
:103F50007269766572732F53544D333246317878D7
:103F60005F48414C5F4472697665722F5372632FCC
:103F700073746D3332663178785F68616C5F726339
:103F8000632E63000010024000004242800442425F
:103F90000070004040F2AD21AFF2500003F062FC2F
:103FA000E069002875D06748406800F00C000828D8
:103FB00070D0E06902286ED1206A18B1206AB0F58D
:103FC000803F00D105E040F2B621AFF2800003F05F
:103FD00049FC606AB8B3606AB0F5802F33D0606A7C
:103FE000B0F5002F2FD0606AB0F5402F2BD0606A5B
:103FF000B0F5801F27D0606AB0F5A01F23D0606A9B
:10400000B0F5C01F1FD0606AB0F5E01F1BD0606A1A
:10401000B0F5001F17D0606AB0F5101F13D0606AAA
:10402000B0F5201F0FD0606AB0F5301F0BD0606A6A
:10403000B0F5401F07D0606AB0F5501F03D0606A2A
:10404000B0F5601F00D105E040F2B721AFF20410D7
:1040500003F008FC00203C490866FEF703FE054615
:1040600006E0FEF7FFFD401B022801D903205FE5B3
:104070003448006800F000700028F2D1206AB0F5E2
:10408000803F17D1A06818B1A068B0F5003F03D1F8
:1040900008E055E042E02CE040F2CD21AFF25410B0
:1040A00003F0E0FB2748406820F40030A168084393
:1040B00024494860D4E9080108432249496821F4A9
:1040C000741108431F49486001201F490866FEF724
:1040D000C9FD054606E0FEF7C5FD401B022801D9D3
:1040E000032025E51748006800F000700028F2D092
:1040F00026E0002014490866FEF7B4FD054606E0F8
:10410000FEF7B0FD401B022801D9032010E50D4841
:10411000006800F000700028F2D111E0E069012889
:1041200000D105E50748466806F48031206A8142DF
:1041300004D106F47011606A814201D00120F7E4D5
:104140000020F5E4001002400000424210B5044691
:104150000CB9012010BD14492068884207D01349CA
:104160002068884203D012492068884200D104E0C8
:104170004FF4EB710FA003F075FB022084F851009F
:104180002068006820F0400021680860204600F0A8
:1041900079F90020606584F8510000BF84F8500070
:1041A00000BF00BFD6E700000030014000380040EB
:1041B000003C00402E2E2F447269766572732F5397
:1041C000544D3332463178785F48414C5F447269D0
:1041D0007665722F5372632F73746D333266317844
:1041E000785F68616C5F7370692E630010B5044678
:1041F0000CB9012010BD92492068884207D091492E
:104200002068884203D090492068884200D104E0A9
:104210004FF4AB718DA003F025FB606818B16068A6
:10422000B0F5827F00D104E040F2571187A003F07F
:1042300019FBA06838B1A068B0F5806F03D0A06802
:10424000B0F5004F00D104E04FF4AC717FA003F053
:1042500009FBE068B0F5006F01D0E06800B904E048
:1042600040F2591179A003F0FDFAA069B0F5007F82
:1042700005D0A06918B1A069B0F5802F00D104E085
:104280004FF4AD7171A003F0EDFAE069A0B1E069FF
:10429000082811D0E06910280ED0E06918280BD04A
:1042A000E069202808D0E069282805D0E069302896
:1042B00002D0E069382800D104E040F25B1163A02D
:1042C00003F0D0FA206A10B1206A802800D104E0FF
:1042D0004FF4AE715DA003F0C5FA606A00B904E066
:1042E00040F25F1159A003F0BDFA606A00283AD18C
:1042F000206910B12069022800D104E04FF4B171A7
:1043000052A003F0AFFA606910B16069012800D1D2
:1043100004E040F263114DA003F0A4FA6068B0F528
:10432000827F1DD1E069A0B1E069082811D0E06961
:1043300010280ED0E06918280BD0E069202808D09A
:10434000E069282805D0E069302802D0E0693828E3
:1043500000D128E040F267113CA003F083FA22E08C
:104360000021E1611FE0E069A0B1E069082811D0F7
:10437000E06910280ED0E06918280BD0E0692028E9
:1043800008D0E069282805D0E069302802D0E0692B
:10439000382800D104E040F271112CA003F062FA39
:1043A0000021216161610021A16294F8510028B9C6
:1043B000002084F85000204600F0A0F8022084F885
:1043C00051002068006820F0400021680860A08843
:1043D00000F48270218901F404410843A18901F4A9
:1043E00000610843217C01F002010843217D01F0B6
:1043F00001010843218B01F400710843217F01F082
:10440000380108432021095D01F080010843218D16
:1044100001F400510843216808600421A06901EA01
:104420001040216848602068C06920F4006021685D
:10443000C86100206065012084F851000020D9E6A1
:104440000030014000380040003C00402E2E2F4438
:104450007269766572732F53544D333246317878D2
:104460005F48414C5F4472697665722F5372632FC7
:1044700073746D3332663178785F68616C5F737026
:10448000692E630010B504461649206888420AD197
:104490001548806920F4805013498861E021134851
:1044A000FDF7E2FF1DE01249206888420BD10E485B
:1044B000C06920F480400C49C8614FF460410D4848
:1044C000FDF7D2FF0DE00C492068884209D106486B
:1044D000C06920F400400449C86138210548FDF74F
:1044E000C3FF10BD00300140001002400008014031
:1044F00000380040000C0140003C004010B586B080
:104500000446002002900390049005904D492068D5
:1045100088422ED100BF4C48806940F480504A49FF
:1045200088610846806900F48050019000BF00BF98
:1045300000BF0846806940F0040088610846806931
:1045400000F00400019000BF00BFA02002900220F4
:1045500003900320059002A93C48FEF701F9402092
:10456000029000200390049002A93848FEF7F8F862
:1045700066E037492068884230D100BF3248C069C0
:1045800040F480403049C8610846C06900F480406A
:10459000019000BF00BF00BF0846806940F00800DE
:1045A00088610846806900F00800019000BF00BFE4
:1045B0004FF420400290022003900320059002A9AE
:1045C0002448FEF7CDF84FF480400290002003907D
:1045D000049002A91F48FEF7C3F831E01E49206885
:1045E00088422DD100BF1848C06940F400401649E8
:1045F000C8610846C06900F40040019000BF00BFD8
:1046000000BF0846806940F008008861084680695C
:1046100000F00800019000BF00BF28200290022097
:1046200003900320059002A90A48FEF799F810208C
:10463000029000200390049002A90648FEF790F82B
:1046400006B010BD003001400010024000080140DB
:1046500000380040000C0140003C00402DE9FF5FA5
:104660000446884691461D460E9E01200290002079
:104670000190A06800B904E040F2AE418BA003F0C5
:10468000F1F800BF94F85000012803D1022004B0D3
:10469000BDE8F09F012084F8500000BFFEF7E2FA69
:1046A000074694F851B060680390AA46BBF1010F29
:1046B0000BD00398B0F5827F04D1A06810B9BBF18C
:1046C000040F02D002200190E9E0B8F1000F03D0FE
:1046D000B9F1000F00D015B901200190DFE094F886
:1046E0005100042802D0052084F8510000206065A4
:1046F000C4F83890E587A587C4F83080E586A5869C
:10470000206460642068006800F04000402805D004
:104710002068006840F0400021680860E068B0F55B
:10472000006F4DD1606810B1BAF1010F09D1206B53
:1047300000882168C860206B801C2063E08E401ECA
:10474000E08636E02068806800F00200022810D180
:10475000E08E70B1029801280BD1206B008821688F
:10476000C860206B801C2063E08E401EE086002025
:1047700002902068806800F0010068B1E08F58B1B5
:104780002068C068A16B0880A06B801CA063E08FCC
:10479000401EE08701200290FEF764FAC01BB04281
:1047A00007D3701C28B103200190012084F8510028
:1047B00075E0E08E0028C5D1E08F0028C2D14DE021
:1047C000606810B1BAF1010F09D1206B007821683F
:1047D0000873206B401C2063E08E401EE08637E0AB
:1047E0002068806800F00200022810D1E08E70B1CD
:1047F000029801280BD1206B007821680873206B88
:10480000401C2063E08E401EE0860020029020685D
:10481000806800F0010068B1E08F58B12068C0687E
:10482000A16B0870A06B401CA063E08F401EE08766
:1048300001200290FEF716FAC01BB04201D3701C93
:1048400000B92EB903200190012084F8510026E020
:10485000E08E0028C4D1E08F0028C1D13A4631460D
:10486000204601F005FF20B1012001902020606565
:1048700015E0A06850B900BF002000902068C06813
:10488000009020688068009000BF00BF606D10B18C
:104890000120019002E0012084F8510000BF00BF18
:1048A000002084F8500000BF0198F0E62E2E2F441F
:1048B0007269766572732F53544D3332463178786E
:1048C0005F48414C5F4472697665722F5372632F63
:1048D00073746D3332663178785F68616C5F7370C2
:1048E000692E63007047704710B504460CB901206B
:1048F00010BD53492068884233D05249206888420D
:104900002FD02068B0F1804F2BD04F4920688842CB
:1049100027D04E492068884223D04D4920688842DC
:104920001FD04C49206888421BD04B4920688842E0
:1049300017D04A492068884213D0494920688842E4
:104940000FD04849206888420BD0474920688842E8
:1049500007D046492068884203D0454920688842EC
:1049600000D104E040F2131142A002F07BFFA068E6
:1049700058B1A068102808D0A068202805D0A068E9
:10498000402802D0A068602800D104E04FF48A716A
:1049900038A002F067FF206938B12069B0F5807F48
:1049A00003D02069B0F5007F00D104E040F215117A
:1049B00030A002F057FFE06820B1E068B0F5803F1A
:1049C00000D204E04FF48B712AA002F04BFFA069E3
:1049D00010B1A069802800D104E040F2171125A091
:1049E00002F040FF94F83D0028B9002084F83C0014
:1049F000204600F05BF8022084F83D00211D20686D
:104A000001F098FF012084F8460000BF84F83E00C2
:104A100001213F200155402001554120015500BF93
:104A200000BF012084F84200432001554420015575
:104A30004520015500BF012084F83D00002057E7C4
:104A4000002C0140003401400004004000080040F8
:104A5000000C00400010004000140040004C0140D9
:104A6000005001400054014000180040001C00406C
:104A7000002000402E2E2F447269766572732F53EA
:104A8000544D3332463178785F48414C5F44726907
:104A90007665722F5372632F73746D33326631787B
:104AA000785F68616C5F74696D2E63007047000009
:104AB00070B504463D492068884233D03C4920689F
:104AC00088422FD02068B0F1804F2BD03949206820
:104AD000884227D038492068884223D03749206847
:104AE00088421FD03649206888421BD0354920684B
:104AF000884217D034492068884213D0334920684F
:104B000088420FD03249206888420BD03149206852
:104B1000884207D030492068884203D02F49206856
:104B2000884200D104E040F295112DA002F09AFED7
:104B300094F83D00012801D0012070BD022084F8C6
:104B40003D001A49206888421BD0194920688842D4
:104B500017D02068B0F1804F13D0164920688842E2
:104B60000FD01549206888420BD01449206888422C
:104B700007D015492068884203D01649206888422A
:104B80000CD12068806800F00705062D0CD0206845
:104B9000006840F001002168086005E020680068B6
:104BA00040F00100216808600020C6E7002C0140A9
:104BB000003401400004004000080040000C0040A8
:104BC0000010004000140040004C01400050014023
:104BD0000054014000180040001C0040002000402C
:104BE0002E2E2F447269766572732F53544D3332D3
:104BF000463178785F48414C5F4472697665722F20
:104C00005372632F73746D3332663178785F6861E5
:104C10006C5F74696D2E630070B50446404920686E
:104C2000884233D03F49206888422FD02068B0F1B5
:104C3000804F2BD03C492068884227D03B492068D0
:104C4000884223D03A49206888421FD039492068D9
:104C500088421BD038492068884217D037492068DD
:104C6000884213D03649206888420FD035492068E1
:104C700088420BD034492068884207D033492068E5
:104C8000884203D032492068884200D104E04FF4C2
:104C9000E87130A002F0E6FD94F83D00012801D053
:104CA000012070BD022084F83D002068C06840F0FB
:104CB00001002168C8601A49206888421BD0194940
:104CC0002068884217D02068B0F1804F13D0164971
:104CD000206888420FD01549206888420BD01449BB
:104CE0002068884207D015492068884203D01649B9
:104CF000206888420CD12068806800F00705062DE6
:104D00000CD02068006840F001002168086005E0D0
:104D10002068006840F00100216808600020C0E7BA
:104D2000002C014000340140000400400008004015
:104D3000000C00400010004000140040004C0140F6
:104D4000005001400054014000180040001C004089
:104D5000002000402E2E2F447269766572732F5307
:104D6000544D3332463178785F48414C5F44726924
:104D70007665722F5372632F73746D333266317898
:104D8000785F68616C5F74696D2E6300704710B561
:104D9000044620680069C0F34000D8B12068C068AC
:104DA000C0F34000B0B16FF002002168086101203B
:104DB00020772068806900F0030018B12046FFF7D3
:104DC000E5FF05E0204600F0ADF8204600F0ABF826
:104DD0000020207720680069C0F38000D8B12068E7
:104DE000C068C0F38000B0B16FF0040021680861B2
:104DF000022020772068806900F4407018B12046B6
:104E0000FFF7C4FF05E0204600F08CF8204600F0D4
:104E10008AF80020207720680069C0F3C000D8B16C
:104E20002068C068C0F3C000B0B16FF0080021680E
:104E30000861042020772068C06900F0030018B1E1
:104E40002046FFF7A3FF05E0204600F06BF8204660
:104E500000F069F80020207720680069C0F3001096
:104E6000D8B12068C068C0F30010B0B16FF0100076
:104E700021680861082020772068C06900F440702C
:104E800018B12046FFF782FF05E0204600F04AF8FF
:104E9000204600F048F8002020772068006900F0E4
:104EA000010058B12068C06800F0010030B16FF017
:104EB000010021680861204600F036F8206800698A
:104EC000C0F3C01058B12068C068C0F3C01030B142
:104ED0006FF08000216808612046FFF703FD20681D
:104EE0000069C0F3801058B12068C068C0F380101A
:104EF00030B16FF0400021680861204600F022F8D0
:104F000020680069C0F3401058B12068C068C0F341
:104F1000401030B16FF02000216808612046FFF793
:104F2000E2FC10BD7047704770B50446002500BF15
:104F300003492068884201D1FEF752F870BD000095
:104F4000002C014070477047704700002DE9F84F72
:104F50000446206805682068C668206847694FF0E5
:104F60000009CA4605F00F09B9F1000F0AD105F092
:104F7000200038B106F0200020B1204601F096FD57
:104F8000BDE8F88FB9F1000F7BD007F0010018B928
:104F900006F49070002874D005F0010030B106F4DA
:104FA000807018B1606C40F00100606405F004008E
:104FB00030B107F0010018B1606C40F0020060648D
:104FC00005F0020030B107F0010018B1606C40F04C
:104FD0000400606405F0080048B106F0200010B934
:104FE00007F0010018B1606C40F008006064606C6C
:104FF000002845D005F0200028B106F0200010B1AF
:10500000204601F053FD20684069C0F3801A606CAF
:1050100000F0080010B9BAF1000F2CD0204601F0C2
:10502000FFFC2068406900F0400000B300BF00BFF3
:105030002168143151E8001F21F04000216814312B
:1050400041E80002002AF3D100BFE06B50B177487D
:10505000E16B4863E06BFCF7F3FD88B1E06B416BFB
:1050600088470DE02046FFF76FFF09E009E0204682
:10507000FFF76AFF04E02046FFF766FF0020606448
:105080007EE7206B012877D105F01000002873D04F
:1050900006F010000028FAD000BF00200090206821
:1050A0000068009020684068009000BF00BF206842
:1050B000406900F0400000285FD0E06B0068406865
:1050C0001FFA80F8B8F1000F55D0A08D404552DD91
:1050D000A4F82E80E06B8069202843D000BF00BF79
:1050E00021680C3151E8001F21F4807021680C31D7
:1050F00041E80002002AF3D100BF00BF00BF2168D1
:10510000143151E8001F21F001002168143141E8F9
:105110000002002AF3D100BF00BF00BF2168143194
:1051200051E8001F21F040002168143141E80002DD
:10513000002AF3D100BF202084F842000020206321
:1051400000BF00BF21680C3151E8001F21F01000A2
:1051500021680C3141E80002002AF3D100BFE06B66
:10516000FCF742FD02206063A08DE28D801A81B2BF
:105170002046FFF7E8FE03E742E0A08DE18D401AEC
:105180001FFA80F8E08DD0B3B8F1000F37D000BF20
:1051900000BF21680C3151E8001F21F49070216894
:1051A0000C3141E80002002AF3D100BF00BF00BF6C
:1051B0002168143151E8001F21F0010021681431E9
:1051C00041E80002002AF3D100BF202084F8420009
:1051D0000020206300BF00BF21680C3151E8001F90
:1051E00021F0100021680C3141E80002002AF3D1BF
:1051F00000BF0220606341462046FFF7A4FEBFE6E1
:1052000005F0800030B106F0800018B1204601F0B2
:10521000BFFDB5E605F0400030B106F0400018B122
:10522000204601F033FCABE600BFA9E60D6A00089A
:1052300010B504460CB9012010BDA069002826D085
:105240003F492068884207D03E492068884203D001
:105250003D492068884200D104E04FF4B7713BA07B
:1052600002F000FBA06958B1A069B0F5807F07D0BB
:10527000A069B0F5007F03D0A069B0F5407F00D1F0
:105280001FE040F26F1131A002F0ECFA19E02C4956
:10529000206888420FD02B49206888420BD02A49C9
:1052A0002068884207D038492068884203D03749AF
:1052B0002068884200D104E040F2731123A002F07C
:1052C000D1FAA06818B1A068B0F5805F00D104E001
:1052D00040F275111DA002F0C5FA94F8410028B9FA
:1052E000002084F84000204600F052F8242084F882
:1052F00041002068C06820F400502168C860204642
:1053000001F052FC2068006920F490402168086197
:105310002068406920F02A00216848612068C06840
:1053200040F400502168C86000206064202084F8A8
:10533000410084F842000020606300BF7CE7000069
:105340000038014000440040004800402E2E2F4409
:105350007269766572732F53544D333246317878C3
:105360005F48414C5F4472697665722F5372632FB8
:1053700073746D3332663178785F68616C5F756124
:1053800072742E6300000000004C0040005000408A
:1053900010B586B00446002002900390049005905A
:1053A0003B492068884237D100BF3A48806940F4C1
:1053B0008040384988610846806900F48040019047
:1053C00000BF00BF00BF0846806940F0040088614C
:1053D0000846806900F00400019000BF00BF481536
:1053E0000290022003900320059002A92A48FDF7AD
:1053F000B7F94FF48060029000200390049002A956
:105400002548FDF7ADF9002205212520FDF704FF11
:105410002520FDF7CBFE39E020492068884235D1B0
:1054200000BF1C48C06940F400301A49C8610846F2
:10543000C06900F40030019000BF00BF00BF084603
:10544000806940F0040088610846806900F004002B
:10545000019000BF00BF04200290022003900320AF
:10546000059002A90C48FDF77BF908200290002066
:105470000390049002A90848FDF772F90022052163
:105480002620FDF7C9FE2620FDF790FE06B010BDD0
:105490000038014000100240000801400044004074
:1054A00070B504460D46164694F8420020280BD1EC
:1054B00005B10EB9012070BD002020633246294697
:1054C000204601F045FCF6E70220F4E710B504465B
:1054D0001349206888420FD1124801781248028887
:1054E0000088401C104B18801048815401220D493F
:1054F0000F48FFF7D5FF12E00E49206888420ED111
:105500000D480278084801880088401C064B188026
:1055100006484254012208490848FFF7C1FF10BD60
:1055200000380140C40C0020C80C0020602A002074
:10553000802A002000440040C50C0020C82A00201A
:105540002DE9F84F04460E46174699464FF0000ADB
:1055500094F8410020284AD106B117B90120BDE8CE
:10556000F88F00206064212084F84100FDF77AFB69
:105570008246A784E784A068B0F5805F04D12069E3
:1055800010B90025B04602E035464FF000081BE098
:105590005346002280212046CDF8009001F028FCDF
:1055A00008B10320DBE745B9B8F80000C0F30800F4
:1055B0002168486008F1020803E028782168486003
:1055C0006D1CE08C401EE084E08C0028E0D1534646
:1055D000002240212046CDF8009001F009FC08B1DE
:1055E0000320BCE7202084F841000020B7E7022018
:1055F000B5E7704700E001BEFDE700000EB50020F2
:105600000090019002901248124908600021114850
:10561000816001210173002101754FF46021C16196
:1056200000200C49486001210A480161FCF738F864
:1056300008B1FBF7FBFD01200090019007200290CC
:1056400069460448FBF7B8FE08B1FBF7EFFD0EBD55
:10565000002401409028002008B500BF0A48406996
:1056600040F00100084948610846406900F0010027
:10567000009000BF00BF002205210B20FDF7CCFDEC
:105680000B20FDF793FD08BD0010024010B53B480C
:105690000021016041608160C160C18101824FF4DD
:1056A00080614182084605F009FA3449486008469D
:1056B000406828B99A22324932A001F031FC10BD6D
:1056C0002E4948684FF48061FAF7C5FD4FF48060B9
:1056D00005F0F4F9294988600846806828B9A222B3
:1056E000274938A001F01CFCE9E7244988684FF4F9
:1056F0008061FAF7B0FD4FF40071204881834800C3
:1057000005F0DCF91D4988610846806928B9AB229B
:105710001B493CA001F004FCD1E7184988694FF40B
:105720000071FAF798FD464804F0B2FA1349086090
:10573000444A0021012004F013FB43490860434A16
:1057400021214FF4007004F0F9F941490860414A01
:105750000021414804F0B4FB40490860404A002160
:10576000404804F0ADFB40490860404A00214048F1
:1057700004F0A6FB3F49086000BFA0E770280020A6
:10578000F8C4000825732C206174204C696E653ABA
:1057900025642C204D616C6C6F63206D656D2066F7
:1057A0006F72207265637643796342756620646127
:1057B000746120706F6F6C206661696C65642E0A7D
:1057C0000000000025732C206174204C696E653A3E
:1057D00025642C204D616C6C6F63206D656D2066B7
:1057E0006F722072656376437963427566207054E8
:1057F000656D7020706F6F6C206661696C65642EDA
:105800000A00000025732C206174204C696E653AF3
:1058100025642C204D616C6C6F63206D656D206676
:105820006F72207061727365446174612062756685
:1058300020706F6F6C206661696C65642E0A0000D1
:1058400010C4000800C4000858060020E8C300087F
:105850005406002020C40008310B00086006002018
:1058600044C40008C10A0008640600208CC4000873
:10587000CD0C00086C06002000B585B0002001901A
:1058800002900390049000BF3E48806940F02000E1
:105890003C4988610846806900F02000009000BF04
:1058A00000BF00BF0846806940F0040088610846D8
:1058B000806900F00400009000BF00BF00BF0846F0
:1058C000806940F0080088610846806900F008009F
:1058D000009000BF00BF012248F210012A48FDF7E6
:1058E00085F9002240F203412848FDF77FF90122A3
:1058F00011032648FDF77AF9002204212448FDF718
:1059000075F948F2100001900120029003900320E5
:10591000049001A91C48FCF723FF41F203400190C9
:105920000120029003900320049001A91748FCF77E
:1059300017FF4FF4086001900020029001200390AF
:1059400001A91248FCF70CFF0420019001200290ED
:105950000390049001A90E48FCF702FF402001903B
:105960000C4802900120039001A90848FCF7F8FEBA
:10597000002205211720FDF74FFC1720FDF716FC2C
:1059800005B000BD0010024000080140000C0140BD
:10599000001401400000211010B50B480B490860AD
:1059A0000B484860002109488160C1604FF4804184
:1059B0000161002141618161C1610162FDF758F916
:1059C00008B1FBF733FC10BD00540040042900204F
:1059D000A086010010B51248124908604FF4827089
:1059E000486000210F488160C160016141614FF44E
:1059F000007181611021C1610021016241628162F7
:105A00000A21C162FEF7F2FB08B1FBF70FFC054863
:105A10000068006840F0400002490968086010BD55
:105A2000003001405829002010B512481249086082
:105A30004FF48270486000210F488160C1600161AD
:105A400041614FF4007181610821C161002101624F
:105A5000416281620A21C162FEF7C8FB08B1FBF70F
:105A6000E5FB05480068006840F04000024909680D
:105A7000086010BD00380040B029002010B5124861
:105A8000124908604FF48270486000210F4881601D
:105A9000C160016141614FF4007181610821C16100
:105AA00000210162416281620A21C162FEF79EFB10
:105AB00008B1FBF7BBFB05480068006840F04000F8
:105AC00002490968086010BD003C0040082A002017
:105AD00010B51148114908604FF461204860002159
