:020000040800F2
:10000000006B0020E1010008331600082B160008E1
:100010002F16000831120008C52600080000000055
:10002000000000000000000000000000490100087E
:1000300035140008000000008D0100088524000828
:10004000FB010008FB010008FB010008FB010008A0
:10005000FB010008FB010008FB010008FB01000890
:10006000FB010008FB010008FB010008FB01000880
:10007000FB010008FB010008FB010008FB01000870
:10008000FB010008FB010008A1080008FB010008B3
:10009000FB010008FB010008FB010008FB01000850
:1000A000FB010008FB010008FB010008FB01000840
:1000B000FB010008FB010008FB010008FB01000830
:1000C000FB010008FB010008FB010008FB01000820
:1000D000FB010008FB010008FB010008FB01000810
:1000E000FB010008FB010008FB010008FB01000800
:1000F000FB010008FB010008FB010008FB010008F0
:10010000FB010008FB010008FB010008FB010008DF
:10011000FB010008FB010008FB010008FB010008CF
:10012000FB010008FB010008FB010008FB010008BF
:10013000DFF810D000F090FB00480047E54D0008C4
:10014000AFF30080006B0020224B19680868B0E80C
:10015000F00F80F30988BFF36F8F4FF0000080F33A
:1001600011884EF00D0E7047000000000648006830
:10017000006880F3088862B661B6BFF34F8FBFF3A3
:100180006F8F00DF00BF00BF08ED00E0EFF30980D4
:10019000BFF36F8F0F4B1A6820E9F00F106008B59E
:1001A0004FF0BF0080F31188BFF34F8FBFF36F8F05
:1001B00005F040FE4FF0000080F31188BDE80840D4
:1001C00019680868B0E8F00F80F30988BFF36F8FF3
:1001D000704700BF44000020EFF305807047000027
:1001E0000648804706480047FEE7FEE7FEE7FEE7D1
:1001F000FEE7FEE7FEE7FEE7FEE7FEE78D240008E8
:10020000310100082DE9F05F0546002092469B462B
:1002100088460646814640241BE02846414647461C
:10022000224600F02FF953465A46C01A914110D386
:1002300011461846224600F016F92D1A67EB010800
:100240004F4622460120002100F00DF917EB00096E
:100250004E41201EA4F10104DFDC484631462A4607
:100260004346BDE8F09F40EA01039B0703D009E045
:1002700008C9121F08C0042AFAD203E011F8013B92
:1002800000F8013B521EF9D27047D2B201E000F8EB
:10029000012B491EFBD270470022F6E710B513462A
:1002A0000A4604461946FFF7F0FF204610BD421CDF
:1002B00010F8011B0029FBD1801A70472DE9FE4F71
:1002C00081EA030404F0004421F0004100944FF05F
:1002D000000B23F0004350EA01045ED052EA03040D
:1002E0005BD0C3F30A54C1F30A552C44A4F2F3348F
:1002F0000194A0FB0254C1F3130141F48011C3F334
:10030000130343F4801301FB024400FB034E840AF1
:10031000970A44EA815447EA8357A4FB0768029589
:100320008D0A05FB07854FEA932C04FB0C54270527
:10033000029D4FEA065847EA1637B5EB08056EEB03
:10034000070C870E920E47EA811742EA8312A7FB39
:100350000201B6EB0B0164EB00042B0D43EA0C33F6
:100360005E1844EB1C50DA465146E7FB0201C5F328
:1003700013044FEA0B3343EA14534FEA0432019C4F
:1003800043EA0603A4F10C040294009CCDE900B4F6
:1003900000F0CEF803B0BDE8F08F00200146F9E789
:1003A0000EB5C10F80EAE0700844CA07002140F290
:1003B00033438DE80E000A460B4600F0B9F803B04F
:1003C00000BD0EB540F2334102910021CDE900118C
:1003D0000A460B4600F0ACF803B000BD00F0004246
:1003E00030F000400AD0C10D01F56071C0F3160075
:1003F00042EA0151C20840071143704700200146FC
:10040000704701F0004330B421F0004150EA01028E
:1004100006D00A0DA2F56072C1F31301002A02DCB6
:1004200030BC00207047440F44EAC104C100E0180A
:1004300030BC00EBC25000F035B830B50B46014679
:1004400000202022012409E021FA02F59D4205D373
:1004500003FA02F5491B04FA02F52844151EA2F11D
:100460000102F1DC30BD202A04DB203A00FA02F15F
:10047000002070479140C2F1200320FA03F3194392
:1004800090407047202A04DB203A21FA02F0002134
:10049000704721FA02F3D040C2F120029140084394
:1004A000194670470029A8BF7047401C490008BF83
:1004B00020F00100704710B4B0FA80FC00FA0CF094
:1004C00050EA010404BF10BC704749B1CCF12004CC
:1004D00021FA04F411FA0CF118BF01212143084359
:1004E000A3EB0C01CB1D4FEA00614FEA102042BF85
:1004F000002010BC704700EBC35010440029A4BF7B
:1005000010BC7047401C490008BF20F0010010BC1F
:10051000704710B5141E73F1000408DA401C41F155
:10052000000192185B411A4301D120F0010010BD77
:100530002DE9F04D92469B4611B1B1FA81F202E0ED
:10054000B0FA80F220329046FFF78DFF04460F4646
:1005500040EA0A0041EA0B0153465A46084313D0C9
:10056000114653EA010019D0C8F140025046FFF786
:1005700089FF05460E46504659464246FFF773FF2F
:10058000084305D0012004E020463946BDE8F08D3F
:100590000020054346EAE0762C4337430A9863057A
:1005A000E40AA0EB08000022FD0A44EA47540A309E
:1005B00002D500200146E9E7010510196941DDE98E
:1005C000084500196941BDE8F04DA2E72DE9FE4F4D
:1005D000804681EA0300C00F0C46009021F00041E4
:1005E00023F00045B8EB0200A94105D24046214660
:1005F00090461C460B46024623F00040104347D06D
:10060000270DC7F30A00C3F30A510290401A019064
:1006100040286BDAC3F3130040F4801B0098924625
:1006200020B10023D2EB030A63EB0B0B0198594670
:10063000C0F140025046FFF716FF06460D465046F1
:100640005946019A00F01AF910EB080061410024A4
:1006500087EA115284EAE7731A4340D0009A62B3E2
:10066000019A012A4FEA075215DC001B61EB0201D7
:100670004FF0004202EA0752CDE90042001C41F56A
:10068000801132462B46FFF753FF03B0BDE8F08FD1
:1006900040462146F9E7001B61EB0201001C41F5D1
:1006A000801300185B412018A2F5001747EB0301E7
:1006B00040EAD570B6196D4111E06D084FEA360673
:1006C00045EAC0754FEA0752001B61EB0201001CAE
:1006D00041F5801149084FEA300000195141324676
:1006E0002B4603B0BDE8F04FFFF713BF009801227F
:1006F00040000023D0EB020263EBE0730098214638
:100700004FEAE074B8EB000061EB0401E9E783F025
:1007100000435BE781F0004158E72DE9F04D81EAA5
:10072000030404F0004B21F0004514464FF0000A8A
:1007300023F0004150EA050220D054EA01021DD006
:10074000C5F30A570246C5F31303C1F31300C1F3FF
:100750000A5640F4801543F48013A7EB0608101BDB
:10076000D64608F2FD3873EB050002D308F1010804
:1007700001E092185B41B8F1000F03DA0020014656
:10078000BDE8F08D00204FF48011064684460EE04F
:10079000171B73EB050705D3121B63EB0503064319
:1007A0004CEA010C49084FEA300092185B4150EACC
:1007B0000107EDD152EA030012D082EA040083EA75
:1007C0000501084305D0101BAB4106D201220023CE
:1007D00006E000224FF0004302E06FF001025310E8
:1007E0001AEB06004CEB085110EB0A0041EB0B0131
:1007F000BDE8F04DFFF78DBEC1F30A52C1F31301FE
:1008000040F2FF3341F480119A4202DA002001469F
:10081000704740F233439A42A2F2334202DC524222
:10082000FFF730BEFFF71FBE30B5041E71F10004A4
:1008300004DB4FF00044404264EB0101141E73F1ED
:10084000000405DB1C464FF00043524263EB0403F7
:10085000994208BF904230BD064C074D06E0E06863
:1008600040F0010394E8070098471034AC42F6D3F7
:10087000FFF762FCBC180308DC180308202A06DB1B
:10088000CB17203A41FA02F043EAE07306E041FA5E
:1008900002F3D040C2F1200291400843194670474C
:1008A00010B5034800F056F80249088010BD00005A
:1008B000002801400E00002021B1826842F00102B0
:1008C000826003E0826822F001028260704721B1F9
:1008D000826842F48072826003E0826822F480724F
:1008E0008260704710B504461248844208D1012145
:1008F000401500F05FFF0021601500F05BFF17E07E
:100900000D48844208D10121001500F053FF002159
:10091000201500F04FFF0BE00848844208D1012168
:10092000C80300F047FF00214FF4004000F042FFF1
:1009300010BD00000024014000280140003C01409F
:10094000014600208A6802F004020AB1012000E09A
:10095000002070470146C86C80B2704701460020F5
:100960008A6802F008020AB1012000E00020704706
:1009700030B502460020002350680F4C20400D790E
:100980000C6844EA05242043506090680B4C2040DA
:10099000D1E902542C434D7944EA45042043906048
:1009A000D06A20F470000C7C641EE4B2234340EA59
:1009B0000350D06230BD0000FFFEF0FFFDF7F1FFF5
:1009C00000B587B001214FF4037000F0E3FE4FF44F
:1009D000004000F0B3FEFF20ADF8040000208DF8C9
:1009E000070001A93D4800F03FFD2020ADF80400BC
:1009F00000208DF8070001A9394800F035FD00F00E
:100A000025FC3848FFF76EFF0020029001208DF88A
:100A10000C008DF80D004FF460200490002005902C
:100A200009208DF8180002A92E48FFF7A1FF07231F
:100A3000012200212B4800F057F807230222012150
:100A4000284800F051F8072303220221254800F02E
:100A50004BF8072304220321224800F045F807231E
:100A6000052204211F4800F03FF807230622052134
:100A70001C4800F039F807231A460621194800F0EF
:100A800033F8072308221946164800F02DF80723EB
:100A90000D220E21134800F027F801211148FFF71D
:100AA00016FF01210F48FFF707FF0E4800F078F806
:100AB00000BF0C48FFF752FF0028FAD1094800F0A8
:100AC0007FF800BF0748FFF73BFF0028FAD101215C
:100AD000044800F06AF807B000BD000000080140BB
:100AE0000010014000240140F0B504460D460020EE
:100AF0000021092D11DDE068A5F10A0606EB460785
:100B0000072606FA07F18843A5F10A0606EB460612
:100B100003FA06F10843E0600CE0206905EB4507A5
:100B2000072606FA07F1884305EB450603FA06F1A6
:100B300008432061072A0FDA606B561E06EB860712
:100B40001F2606FA07F18843561E06EB860605FAAD
:100B500006F10843606322E00D2A0FDA206BD61FEE
:100B600006EB86071F2606FA07F18843D61F06EB19
:100B7000860605FA06F10843206310E0E06AA2F158
:100B80000D0606EB86071F2606FA07F18843A2F139
:100B90000D0606EB860605FA06F10843E062F0BD95
:100BA000816841F008018160704721B1826842F498
:100BB000A002826003E0826822F4A0028260704793
:100BC000816841F0040181607047000070B5002524
:100BD000002400264FF48051144800F022FD00BF8D
:100BE0004FF48061114800F013FD0028F8D1FC207B
:100BF00001F0B6FB002001F0B3FB012001F0B0FBD7
:100C0000FF2001F0ADFB44EA0044FF2001F0A8FB07
:100C100044EA0024FF2001F0A3FB04434FF4805179
:100C2000024800F000FD204670BD0000000C0140AD
:100C300070B504460D464FF480510E4800F0F1FCAB
:100C400000BF4FF480610B4800F0E2FC0028F8D1AF
:100C500004F00F0141F0500001F082FB002001F090
:100C60007FFB284601F07CFB4FF48051014800F0E7
:100C7000DAFC70BD000C014010B504210020FFF724
:100C8000D7FF00210220FFF7D3FFA1210320FFF7A8
:100C9000CFFF00210420FFF7CBFF10BD08B50121D5
:100CA000082000F077FD4FF40060ADF80000102040
:100CB0008DF8030003208DF8020069460C4800F00F
:100CC000D3FB4FF400610A4800F0ABFC4FF48060A6
:100CD000ADF8000048208DF8030003208DF80200D5
:100CE0006946034800F0C0FB01F0AEFA08BD000001
:100CF000000C014010B5FFF7D1FF4FF4006103482D
:100D000000F091FCFFF7B8FF10BD0000000C01409F
:100D100010B5044621460120FFF78AFFFFF756FF72
:100D200010BD000092B014210DA8FFF7B5FA2021E4
:100D30006846FFF7B1FA142108A8FFF7ADFA36E0CC
:100D4000002000F0B1FDADF82000012000F0ACFD66
:100D5000ADF82200022000F0A7FDADF8240003202A
:100D600000F0A2FDADF82600042000F09DFDADF8D6
:100D70002800052000F098FDADF82A00062000F0BC
:100D800093FDADF82C00072000F08EFDADF82E008D
:100D9000082000F089FDADF8300000230A2208A9E0
:100DA0000348006805F03AF90A2004F0C9FFC7E7D4
:100DB0000000002098B038210AA8FFF76DFA164904
:100DC00003C9CDE908010024002520216846FFF76A
:100DD00063FA20E0002412E004F0070018B104F0E8
:100DE0000700401E00E00720C5B2082141EA0411B7
:100DF000C8B2FFF78DFF4DF82500601CC4B2082C67
:100E0000EADB00230A2269460448006805F006F977
:100E10000A2004F095FFDDE70067000804000020C9
:100E2000012500BF002002F05AFD0546012DF9D032
:100E300001221CA11C4803F057F904460D2C15D1C2
:100E40000022114617A002F00DFE044654B90122FB
:100E500014A1002003F048F9012212A1124803F066
:100E600043F919E000201149087015E01CB1002079
:100E70000E49087010E00A220DA1134803F062F930
:100E800004461CB901200949087005E00020074903
:100E900008700D4802F0D5FD03E04FF47A7004F0BD
:100EA0004FFFFAE7303A0000A80000200D000020B4
:100EB000303A73656E736F725361766546696C651F
:100EC0002E74787400000000D81000200DE001207E
:100ED00000F022FC40F6B83004F032FF002000F0B1
:100EE0001BFC40F6B83004F02BFFF0E703E04FF4B2
:100EF0007A7004F025FFFAE7ADF5367D0025002075
:100F0000A790814600BF24215EA8FFF7C5F93821CC
:100F100050A8FFF7C1F9B84903C94F914E9000207E
:100F20004D90142148A8FFF7B7F9202140A8FFF7FA
:100F3000B3F93C2131A8FFF7AFF95BE1AF48006896
:100F400004F077FE20B1AE48006804F072FE18B9D4
:100F5000012004F0F5FE4DE14FF0FF3248A9A7480B
:100F6000006805F0E7F84FF0FF3240A9A448006898
:100F700005F0E0F8A348007800287DD0002518E0AF
:100F800040A850F8254004F4000020B1E443C4F325
:100F90001604641C64422046FFF702FA074600224A
:100FA000994BFFF78BF94EAA02EBC50203C2681CEE
:100FB000C5B2082DE4DBBDF82001FFF702FA824636
:100FC0000022924BFFF77AF90746FFF71AFA5E9074
:100FD000BDF82201FFF7F5F9824600228B4BFFF79F
:100FE0006DF90746FFF70DFA5F90BDF82401FFF792
:100FF000E8F982460022854BFFF760F90746FFF7C4
:1010000000FA6090BDF82601FFF7DBF98246002266
:101010007E4BFFF753F90746FFF7F3F96190BDF8F0
:101020002801FFF7CEF907460022784BFFF746F973
:101030008246FFF7E6F96290BDF82A01FFF7C1F991
:1010400082460022714BFFF739F90746FFF7D9F9BD
:101050006390BDF82C01FFF7B4F9074600226B4BF3
:10106000FFF72CF98246FFF7CCF96490BDF82E010A
:10107000FFF7A7F9074600E097E00022634BFFF770
:101080001DF98246FFF7BDF96590BDF83001FFF705
:1010900098F9074600225D4BFFF710F98246FFF7EB
:1010A000B0F966906698FFF799F907468846659803
:1010B000FFF794F982468B466498FFF78FF9CDE9E4
:1010C0002E016398FFF78AF9CDE92C016298FFF7AA
:1010D00085F9CDE92A016198FFF780F9CDE928016A
:1010E0006098FFF77BF9CDE926015F98FFF776F965
:1010F000CDE924015E98FFF771F9CDE91EABCDE98A
:101100002078CDE92201DDE92E01CDE91C01DDE9E0
:101110002C01CDE91A01DDE92A01CDE91801DDE94B
:101120002801CDE91601DDE92601CDE91401DDE94B
:101130002401CDE91201DDE92201CDE910015D991B
:101140005C98CDE90E015B995A98CDE90C0159994B
:101150005898CDE90A0157995698CDE90801559953
:101160005498CDE9060153995298CDE9040151995B
:101170005098CDE902014F994E984A46CDE90001B9
:10118000234967A801F0B0FA67A8FFF790F8A79085
:10119000A7AB67A91F48A79A03F0EBF8064616B954
:1011A0001C4803F08EF809F10109FF208DF8A00218
:1011B000AA208DF8A10232204D90BDF83401ADF87F
:1011C000A202122248A9A9A8FFF74DF8202240A99F
:1011D0000DF2B620FFF747F8AA208DF8D602EE20D0
:1011E0008DF8D7023821A8A801F054FA012004F0A4
:1011F000A7FD00BFA2E6000008670008000000206D
:10120000040000200D000020D012E33F0000F03F5A
:101210000C180308D810002010B500F00DF900F0EC
:1012200009FAFFF767FDFFF7CBFB01F05FF910BD8F
:1012300000BFFEE721B1026842F00102026004E053
:1012400002684FF6FE731A400260704710B5012124
:10125000084600F07FFA114800F028F810481149BC
:10126000086011484860002088605A20C86000204B
:10127000086180204861400088618000C8612020AA
:1012800008620002486200208862044800F0B4F856
:1012900001210248FFF7CEFF10BD00000800024008
:1012A0004C240140B0210020FC20002001684FF6B2
:1012B000FE72114001600021016041608160C160E7
:1012C0004B49884208D14A490839496841F00F0121
:1012D000474A083A51608AE045491431884208D1AA
:1012E00043490839496841F0F001414A083A5160E0
:1012F0007DE03F492831884208D13D490839496895
:1013000041F470613A4A083A516070E038493C3122
:10131000884208D136490839496841F47041344A55
:10132000083A516063E032495031884208D130496F
:101330000839496841F470212D4A083A516056E055
:101340002B496431884208D129490839496841F458
:101350007001274A083A516049E0254978318842AE
:1013600008D123490839496841F07061204A083A98
:1013700051603CE01F49884206D1011F096841F0D5
:101380000F01021F116032E01A491431884208D15E
:101390001849091F096841F0F001164A121F11602F
:1013A00025E014492831884208D11249091F0968EB
:1013B00041F470610F4A121F116018E00D493C3171
:1013C000884208D10B49091F096841F47041094A54
:1013D000121F11600BE007495031884207D10549BF
:1013E000091F096841F47021024A121F11607047F9
:1013F000080002400804024010B50022026847F6C7
:10140000F0739A430C6A8B6823430C6923434C693D
:1014100023438C692343CC6923434C6A23438C6A5E
:1014200023431A430260CB6843600B6883604B68B8
:10143000C36010BD7047000010B50121082000F006
:10144000A9F94020064908801020C8700320887040
:10145000044800F009F8002000F05EF910BD00001B
:1014600014000020000C01402DE9F0410246002547
:101470000026002000230024002791F803C00CF070
:101480000F0591F803C00CF0100CBCF1000F03D055
:1014900091F802C04CEA050591F800C0BCF1000FBC
:1014A00031D0146800202BE04FF0010C0CFA00F34F
:1014B000B1F800C00CEA03069E4220D183004FF031
:1014C0000F0C0CFA03F7BC4305FA03FC4CEA0404C6
:1014D00091F803C0BCF1280F06D14FF0010C0CFAB3
:1014E00000FCC2F814C00AE091F803C0BCF1480F38
:1014F00005D14FF0010C0CFA00FCC2F810C0401CE2
:101500000828D1D31460B1F800C0BCF1FF0F34DD5E
:10151000546800202EE000F1080C4FF0010808FA92
:101520000CF3B1F800C00CEA03069E4221D18300FF
:101530004FF00F0C0CFA03F7BC4305FA03FC4CEA1E
:10154000040491F803C0BCF1280F05D100F1080C88
:1015500008FA0CF8C2F8148091F803C0BCF1480FE7
:1015600007D100F1080C4FF0010808FA0CF8C2F896
:101570001080401C0828CED35460BDE8F0810000E4
:10158000F0B50A46002300240021002500F00046A3
:10159000B6F1004F02D11D4EF16901E01B4E71689A
:1015A000C0F3034583B200F44016B6F5401F08D1DE
:1015B00021F07061154E766826F07066134F7E60DC
:1015C00012E000F48016B6F5801F06D1032606FA55
:1015D00005F4A14341F0706106E0460D360103FABF
:1015E00006F6B14341F0706122B1460D360103FAAF
:1015F00006F6314300F00046B6F1004F02D1034E2B
:10160000F16101E0014E7160F0BD00000000014099
:101610000246002093680B400BB1012000E000203F
:101620007047416170470161704700BFFEE700BF2E
:10163000FEE7704710B500214FF0006000F062F83F
:101640004FF4A06000F054F826200C4908700120E7
:101650004870002088700120C870084600F010F81B
:101660001720064908700220487000208870012069
:10167000C870084600F004F810BD000010000020FB
:1016800070B5002100230F22C47804B3154C2468E0
:1016900004F4E064C4F5E064210AC1F10403CA4023
:1016A000447804FA03F184781440214309010E4C74
:1016B0000678A155047804F01F050124AC40057894
:1016C0006D11AD0005F1E025C5F8004109E0047891
:1016D00004F01F050124AC40044D0678761145F84E
:1016E000264070BD0CED00E000E400E080E100E089
:1016F00002490143024A1160704700000000FA05E8
:101700000CED00E0024A0A400243024B1A607047A7
:1017100080FFFF1F08ED00E010B504462CB14FF428
:1017200000410548FFF77FFF04E04FF40041024805
:10173000FFF777FF10BD0000000C014001460020BC
:10174000034A506820F4404008435060704700004E
:101750000010024029B1064A52690243044B5A6103
:1017600004E0034A52698243014B5A61704700000A
:101770000010024029B1064AD2690243044BDA61E3
:1017800004E0034AD2698243014BDA6170470000EA
:101790000010024029B1064A92690243044B9A6143
:1017A00004E0034A92698243014B9A61704700004A
:1017B0000010024029B1064AD2680243044BDA60A5
:1017C00004E0034AD2688243014BDA6070470000AC
:1017D0000010024030B500210022002400232D4DCE
:1017E0006D6805F00C0121B1042905D0082923D129
:1017F00005E0294D056022E0274D05601FE0254DDD
:101800006D6805F47012234D6D6805F4803402256F
:1018100005EB92421CB9214D554305600BE01D4D6F
:101820006D6805F400351DB11C4D5543056002E09F
:10183000194D5543056002E0174D056000BF00BF1C
:10184000144D6D6805F0F0010909154D6B5C0568D4
:10185000DD4045600F4D6D6805F4E061090A104DEB
:101860006B5C4568DD4085600A4D6D6805F460512C
:10187000C90A0B4D6B5C4568DD40C560054D6D6860
:1018800005F44041890B074D6B5CC568B5FBF3F56A
:10189000056130BD0010024000127A0000093D00D1
:1018A0002E0000203E00002010B50246002300213B
:1018B00009E001EBC100074C04EB400030F81200D6
:1018C0000344481CC1B20A29F3DB0A20B3FBF0F041
:1018D00080B210BDFC20002000B587B001214C2053
:1018E000FFF758FF01212948FFF74AFE012141F285
:1018F0000100FFF74FFF01210846FFF741FE3820A6
:10190000ADF8180018208DF81B0003208DF81A0080
:1019100006A91F48FFF7A8FD4FF40040ADF81800D6
:1019200010208DF81B0003208DF81A0006A9194815
:10193000FFF79AFD4FF400411648FFF774FE0020B0
:10194000ADF804004FF48270ADF806000020ADF849
:1019500008000220ADF80A000120ADF80C0040029A
:10196000ADF80E001020ADF810000020ADF8120008
:101970000720ADF8140001A9074800F0D3FC0121AD
:10198000054800F0B5FC07B000BD000000023000C3
:10199000000C014000080140003001407FB50446C2
:1019A0000025FF264FF400413E48FFF73AFEFF2294
:1019B00000210A2000F0A8FB002000F0D1FA98B91D
:1019C000FE2000F0CDFA40B900BF04E000F026FB95
:1019D0000DF805006D1C102DF8D3FF2000F0B8FBAA
:1019E000FF2000F0B5FB00264FF400412D48FFF723
:1019F0001AFEFF2000F0ACFB9DF8000020709DF85F
:101A000001000002608060889DF802100843608039
:101A10009DF803000006606060689DF8041040EACD
:101A20000140606060689DF8051040EA0120606038
:101A300060689DF80610084360609DF807002072FA
:101A40009DF8080060729DF809000006E060E068FB
:101A50009DF80A1040EA0140E060E0689DF80B1034
:101A600040EA0120E060E0689DF80C100843E06067
:101A7000207C9DF80D1040EA111020749DF80D0097
:101A80000007000D6082608A9DF80E100843608296
:101A90009DF80F004008207501206075304604B0A5
:101AA00070BD0000000801407FB504460025FF26F8
:101AB0004FF400418848FFF7B4FDFF2200210920C0
:101AC00000F022FB002000F04BFA98B9FE2000F055
:101AD00047FA40B900BF04E000F0A0FA0DF8050095
:101AE0006D1C102DF8D3FF2000F032FBFF2000F01A
:101AF0002FFB00264FF400417748FFF794FDFF20AD
:101B000000F026FB9DF80000800920709DF8000081
:101B1000C0F3830060709DF8000000F00300A07027
:101B20009DF80100E0709DF8020020719DF803000F
:101B300060719DF804000001E080E0889DF80510C8
:101B400040EA1110E0809DF8050000F00F002072BF
:101B50009DF80600C00960729DF80600C0F3801071
:101B6000A0729DF80600C0F34010E0729DF80600D8
:101B7000C0F300102073002060739DF806008007FA
:101B8000000D206155480078012803D053480078A3
:101B900002282AD120699DF8071040EA81002061BF
:101BA00020699DF8081040EA911020619DF8080016
:101BB000C0F3C20020759DF8080000F007006075B2
:101BC0009DF809004009A0759DF80900C0F3820046
:101BD000E0759DF809008007400F2076207E9DF873
:101BE0000A1040EAD110207613E03C48007804281F
:101BF0000FD19DF807008006800A206120699DF8BA
:101C0000081040EA0120206120699DF8091008436E
:101C100020619DF80A00C0F3801004F8190F9DF8A8
:101C20000A008006400E607060789DF80B1040EA54
:101C3000D11060709DF80B0000F07F00A0709DF83F
:101C40000C00C009E0709DF80C00C0F34110207139
:101C50009DF80C00C0F3820060719DF80C008007B5
:101C6000000FA071A0799DF80D1040EA9110A071AD
:101C70009DF80D00C0F34010E071002020729DF827
:101C80000D0000F0010060729DF80E00C009A07206
:101C90009DF80E00C0F38010E0729DF80E00C0F3B6
:101CA000401020739DF80E00C0F3001060739DF883
:101CB0000E00C0F38100A0739DF80E0000F0030039
:101CC000E0739DF80F004008207401206074193CF7
:101CD000304604B070BD0000000801402000002024
:101CE0002DE9F0410446FF252046FFF7DDFE0546BD
:101CF00004F12C00FFF752FE054624480078012825
:101D000003D022480078022825D12069401C0021F8
:101D1000C4E91201207ED4E91231801C012202FAAA
:101D200000F0C617A3FB002701FB007003FB0600B1
:101D3000C4E91220217A0120884020650021D4E9DD
:101D40001223206DA2FB006703FB007002FB010061
:101D5000C4E9126016E00D480078042812D1206909
:101D6000401C4FF40071A0FB01014FF4806300267A
:101D7000A0FB032701FB037100FB0610C4E912203E
:101D8000581020652846BDE8F081000020000020A2
:101D9000F8B5002440F6FF754FF400415B48FFF7AB
:101DA00042FCFF2000F0D4F94FF400415748FFF700
:101DB00038FC87224FF4D571082000F0A5F900E027
:101DC0006D1E00F02BF90646FF2801D1002DF7D13A
:101DD0000DB9FF20F8BD052E1BD100BF4FF4004107
:101DE0004A48FFF720FCFF2000F0B2F94FF4004111
:101DF0004648FFF716FCFF220021012000F084F97D
:101E0000002000F0ADF80028E8D10120404908701A
:101E100072E0012E70D1002404E000F0FFF80DF80C
:101E20000400641C042CF8D34FF400413748FFF73A
:101E3000FAFBFF2000F08CF94FF400413348FFF724
:101E4000F0FB9DF80200012856D19DF80300AA2856
:101E500052D1C82500BFFF220021372000F054F9DD
:101E6000002000F07DF808B9FF20B3E7FF224FF013
:101E70008041292000F048F9281EA5F1010501D173
:101E8000FF20A7E7002000F06BF80028E3D1C82569
:101E900000BF4FF400411D48FFF7C5FBFF2000F0D5
:101EA00057F94FF400411948FFF7BBFBFF2200210F
:101EB0003A2000F029F9002000F052F80028E8D17B
:101EC000281EA5F10105E4D00DB9FF2082E700240A
:101ED00004E000F0A3F80DF80400641C042CF8D30F
:101EE0009DF8000000F0400018B104200849087077
:101EF00002E00220064908704FF400410348FFF752
:101F000092FBFF2000F024F9002063E70008014065
:101F10002000002070B5002518E000F07FF804468E
:101F200004F01F04052C04D00B2C04D00D2C06D17A
:101F300003E0052605E00B2070BD0D20FCE7FF2621
:101F400000BF00BF052E00D102E06D1C402DE4D97A
:101F500000BF00BF00F062F80028FBD02046EBE78E
:101F600070B5054640F6FF7400E0641E00F056F8B8
:101F7000A84201D0002CF8D10CB9FF2070BD002080
:101F8000FCE7000010B54FF400410C48FFF749FB97
:101F900095220021084600F0B7F80120FFF7E0FF86
:101FA00008B1FF2010BD4FF400410448FFF73BFB90
:101FB000FF2000F0CDF80020F4E700000008014009
:101FC00010B50024FFF788FC4FF400411048FFF7DC
:101FD0002AFB00BF03E0FF2000F0BAF8641C092CC4
:101FE000F9D9002400BFFFF7CDFFFFF7D1FE094864
:101FF000007818B92046641C0A28F4D805480078EF
:1020000008B9FF2010BD0448FFF76AFEFAE7000098
:102010000008014020000020E021002010B500242D
:1020200000BF02210A4800F06FF90028F9D0FF2113
:10203000074800F075F900BF0121054800F064F978
:102040000028F9D0024800F068F9C4B2204610BD5B
:10205000003001402DE9F05F074615461E46DDE9D8
:102060000A8A4FF0000900244FF0FF0B2448007843
:10207000042809D14FF40078C201002328463146D4
:10208000FEF7C0F805460E464FF400411D48FFF725
:10209000C8FA26E029194FF0FF024FF0110000F0B6
:1020A00033F80020FFF75CFF10B1FF20BDE8F09F80
:1020B000FE20FFF755FF90B94FF0000905E0FFF74C
:1020C000ADFF38707F1C09F10109C145F7D34444C5
:1020D000FFF7A4FFFFF7A2FF4FF0000B01E04FF066
:1020E000FF0BBAF10000AAF1010AD3D14FF400416D
:1020F0000448FFF798FAFF2000F02AF85846D5E781
:1021000020000020000801402DE9FC4106460C4655
:102110001746002546F040008DF80000200E8DF88F
:102120000100200C8DF80200200A8DF80300E0B2B7
:102130008DF804008DF8057000BF04E01DF805005F
:1021400000F006F86D1C062DF8D3BDE8FC810000F8
:1021500010B5044600BF02210A4800F0D5F8002857
:10216000F9D02146074800F0DBF800BF01210548FF
:1021700000F0CAF80028F9D0024800F0CEF8C0B24A
:1021800010BD0000003001402DE9F05F0746154604
:102190001E46DDE90A8A4FF0000900244FF0FF0BCC
:1021A00027480078042809D14FF40078C2010023A1
:1021B00028463146FEF726F805460E464FF4004104
:1021C0002048FFF72EFA2CE029194FF0FF024FF0BC
:1021D0001800FFF799FF0020FFF7C2FE10B1FF20A3
:1021E000BDE8F09FFF20FFF7B3FFFE20FFF7B0FF31
:1021F0004FF0000905E03878FFF7AAFF7F1C09F1CE
:102200000109C145F7D34444FFF708FFFFF706FF74
:10221000FFF780FE052802D14FF0000B01E04FF0E0
:10222000FF0BBAF10000AAF1010ACDD14FF4004131
:102230000448FFF7F8F9FF20FFF78AFF5846CFE779
:10224000200000200008014000B587B001210820CF
:10225000FFF7A0FA01218803FFF78CFA4FF46040E2
:10226000ADF8040003208DF8060018208DF8070053
:1022700001A91D48FFF7F8F84FF48050ADF80400AD
:1022800003208DF8060010208DF8070001A91648DC
:10229000FFF7EAF84FF480511348FFF7C4F9002024
:1022A000ADF808004FF48270ADF80A000020ADF8D8
:1022B0000C00ADF80E000120ADF810004002ADF8A2
:1022C00012003820ADF814000020ADF816000720E9
:1022D000ADF8180002A9054800F024F801210348D0
:1022E00000F006F807B000BD000C014000380040C7
:1022F00021B1028842F04002028004E002884FF6D9
:10230000BF731A40028070470246002013890B40B9
:102310000BB1012000E0002070470146888970471A
:102320008181704710B50022028802F441520B8867
:102330004C8823438C882343CC8823430C89234334
:102340004C8923438C892343CC8923431A4302803D
:10235000838B4FF2FF74234083830B8A038210BD6B
:1023600070B50446002500BF02210B48FFF7CCFFE3
:102370000028F9D021460848FFF7D2FF00BF01210D
:102380000548FFF7C1FF0028F9D00348FFF7C5FF54
:10239000C5B2284670BD00000038004010B500F0FE
:1023A00001F810BD0CB50020019000903348006882
:1023B00040F480303149086000BF3048006800F4C4
:1023C000003000900198401C0190009818B90198C5
:1023D000B0F5A06FF1D12948006800F4003010B1C9
:1023E0000120009001E0002000900098012843D1D6
:1023F0002348006840F01000214908600846006842
:1024000020F0070008600846006840F002000860FD
:102410001A484068194948600846406848600846BC
:10242000406840F4806048600846406820F47C10B2
:1024300048600846406840F4E81048600846006874
:1024400040F08070086000BF0C48006800F0007029
:102450000028F9D00948406820F003000749486087
:102460000846406840F00200486000BF03484068EA
:1024700000F00C000828F9D10CBD0000001002404B
:102480000020024010B503F039FD10BD10B513480F
:10249000006840F001001149086008464068104992
:1024A00008400E494860084600680E4908400B493C
:1024B00008600846006820F48020086008464068EC
:1024C00020F4FE0048604FF41F008860FFF766FFAD
:1024D0004FF000600449086010BD00000010024089
:1024E0000000FFF8FFFFF6FE08ED00E010B500F079
:1024F000C3F800F02BF800F00DF810BD21B182896F
:1025000042F40052828104E082894DF6FF731A4042
:10251000828170471FB54FF4E13000900020ADF884
:102520000400ADF80600ADF80800ADF80C000C2072
:10253000ADF80A006946044800F032F8012102486B
:10254000FFF7DCFF1FBD00000038014008B5182070
:102550008DF803004FF40070ADF8000003208DF8F3
:10256000020069460648FEF77FFF04208DF803004D
:102570000002ADF8000069460148FEF775FF08BD8E
:102580000008014002460020B1F5007F00D100BFE5
:1025900013880B400BB1012000E0002070470000C1
:1025A0002DE9F04786B005460E460024A24600BF3E
:1025B000A1460027B08900B100BF2F462C8A4CF6F7
:1025C000FF700440F08804432C82AC894EF6F3106F
:1025D0000440B08831890843718908430443AC81C1
:1025E000AC8A4FF6FF400440B0890443AC8201A896
:1025F000FFF7F0F81F48874202D1DDF810A001E094
:10260000DDF80CA0A88900F4004040B10AEBCA0034
:1026100000EB0A1031684900B0FBF1F807E00AEB63
:10262000CA0000EB0A1031688900B0FBF1F86420A1
:10263000B8FBF0F004012009642101FB1089A8898E
:1026400000F4004040B1322000EBC900B0FBF1F0D3
:1026500000F00700044308E0322000EB0910642179
:10266000B0FBF1F000F00F0004432C8106B0BDE890
:10267000F08700000038014010B501210520FFF768
:1026800089F801218803FFF785F810BDC1F308021E
:102690008280704770B505460E46002400BF0BE0EF
:1026A000295D0748FFF7F2FF00BF80210448FFF7CC
:1026B00069FF0028F9D0641CB442F1DB70BD000052
:1026C0000038014000BFFEE70FB4054B10B503A969
:1026D000044A029800F0EEF810BC5DF814FB00000C
:1026E000414B0008A40000200FB4084B10B504A90A
:1026F00002AA039800F0DEF8044602A9002000F0C8
:102700005CFC204610BC5DF814FB0000BB2F0008E9
:1027100002E008C8121F08C1002AFAD170477047AA
:10272000002001E001C1121F002AFBD17047000008
:102730002DE9FF5F82B00021DDE90430020DDDF8F4
:1027400040B0034318D044F61050A2F2FF32424387
:102750001514119801281FD0A5EB0B00401C5FEA4F
:10276000000A4FF000064E4FDFF83891B046504651
:1027700015D5CAF1000413E0119801244AA30128D9
:1027800001D16FEA0B010298119AC0E90031C0E94A
:10279000024206B0BDE8F09FCBF10000DFE704463F
:1027A0000021404A491842EB0450CDE9001012E0E4
:1027B000E00707D032463B4640464946FDF77EFDDE
:1027C0008046894632463B4610461946FDF776FD5F
:1027D00006460F466410002CEAD1DDE90401DDE96C
:1027E0000023BAF1000F06DAFDF768FD42464B46BA
:1027F000FDF764FD05E0FDF790FF42464B46FDF70F
:102800008CFF04460E460022284BFEF70DF803D835
:102810004FF0FF30014607E00022254B20463146AD
:10282000FDF7D4FEFDF7E8FF102409E0002C0ADBD9
:102830000A220023FDF7E6FC039B30321A55641E82
:1028400050EA0102F2D1641C039AC4F1110314444A
:10285000119A012A03D0012208430DD10AE008434E
:1028600004D000204FF0110B119072E7A3EB0B0581
:102870006D1E0DE05B4504DD4FF0000205F1010522
:1028800004E003DA4FF00002A5F10105002AECD0C4
:1028900002981199C0E90231C0E9004579E70000CA
:1028A000000014400000F03F300000000000F04342
:1028B0000000E03F2DE9FF4F95B09A468846064656
:1028C0000025EEE1252877D100242746F94A012189
:1028D000039400E0044316F8013F203B01FA03F0A3
:1028E0001042F7D130782A2811D06FF02F033078BA
:1028F000A0F13002092A16D8039A44F0020402EB30
:10290000820203EB42021044761C0390EFE758F872
:10291000042B0392002A03DA504244F4005403903B
:1029200044F00204761C30782E2816D116F8010FD8
:1029300044F004042A280DD06FF02F023078A0F163
:102940003003092B09D807EB870302EB4303C718B1
:10295000761CF3E758F8047B761C30786C280FD08F
:1029600006DC4C2817D068280DD06A2814D104E062
:10297000742810D07A280FD10DE044F400140AE036
:1029800044F4801401E044F440147278824202D18D
:1029900004F58014761C761C307866280BD013DC86
:1029A000582877D009DC002875D04528F6D046286D
:1029B000F4D047281AD193E118E0632835D0642871
:1029C00079D0652812D18BE1702873D008DC672894
:1029D000F1D069286FD06E280DD06F2806D1ACE0F9
:1029E00073282CD0752874D0782853D05246179964
:1029F00090476D1C54E1C4F30250022809D003280B
:102A00000DD0D8F8001004280DD00D6008F104088E
:102A100046E1D8F80010EA17C1E90052F6E7D8F805
:102A200000100D80F2E70D70F0E718F8041B8DF828
:102A3000001000208DF80100EB46012003E058F85B
:102A400004BB4FF0FF3061074FF0000102D40DE0EE
:102A500009F101018946B9420FDA8145F8DB1BF81B
:102A600009100029F4D108E009F1010189468142E9
:102A7000FADB1BF809100029F6D103985346A0EBA6
:102A8000090721463846179A00F080FA284400EBDF
:102A9000090507E044E008E10DE01BF8010B524690
:102AA00017999047B9F10109F7D2534621463846A4
:102AB000179AF2E039E00A21C4F302524FF0000BFA
:102AC0000091022A06D058F8040BC117032A09D036
:102AD0000AE023E008F1070020F00702F2E8020113
:102AE000904605E000B2C117042A01D140B2C117D7
:102AF000002906DA0A460021404261EB02012D223C
:102B000002E0220504D52B228DF80420012203E0E7
:102B1000E20701D02022F7E7914657E00A2100E0C2
:102B200010214FF0000B00910BE010214FF0000B33
:102B300044F004040827009103E008204FF0000B44
:102B40000090C4F30252022A05D058F8040B002169
:102B5000032A08D008E008F1070020F00702F2E895
:102B60000201904603E080B2042A00D1C0B24FF0C7
:102B7000000922072AD53278702A07D0DDF800C074
:102B80008CF0100C5CEA0B0C05D00EE040228DF8A6
:102B90000420012208E050EA010306D030238DF81A
:102BA00004308DF8052002229146009B83F0080333
:102BB00053EA0B030AD150EA010201D1620705D59D
:102BC00030228DF804204FF001097F1E3278582AF8
:102BD00004D039A20C920CAA02920BE03BA2F9E7B6
:102BE0005B46009AFDF70EFB0C9B9B5C029A521E03
:102BF0000292137050EA0102F2D1029804A9081A55
:102C000000F1200B600702D524F4803400E0012796
:102C10005F4502DDA7EB0B0000E0002000EB0B019D
:102C2000009003984944401A0390E00306D45346A9
:102C30002146179A039800F0A9F90544002706E0F9
:102C400001A85246C05D179990476D1C7F1C4F45E7
:102C5000F6DBE0030CD553462146179A039800F0A3
:102C600095F9054404E030205246179990476D1CB1
:102C70000099481E00900029F5DC08E002980299AE
:102C800052460078491C0291179990476D1CBBF180
:102C90000001ABF1010BF1DC5BE100F065F90544EB
:102CA000761C307800287FF40DAE19B02846BDE8B8
:102CB000F08F0000092801003031323334353637C7
:102CC0003839616263646566000000003031323378
:102CD0003435363738394142434445460000000018
:102CE000600700D4062708F1070020F00700F0E88D
:102CF0000223804603F0004C5FEA0C0001D097A04D
:102D000009E0200501D596A005E0E00701D095A0D7
:102D100001E0AFF24C001390307823F000436528B7
:102D20000CD006DC452809D046281DD047287FD185
:102D30003BE0662818D067287AD136E00021112FB1
:102D400001DB112000E0781CCDE9000104A90CA8EA
:102D5000FFF7EEFCDDE90D010C9A4FF0000B07F1D7
:102D60000109109200914EE04FF000400097CDE92C
:102D7000011004A90CA8FFF7DBFCDDE90D020C9B98
:102D80000F994FF0000B91461093009211B9791CE6
:102D900000EB0109B7EB090003D4C0F1FF3B07F1D9
:102DA0000109A9EB0700019042E0012F00DA012799
:102DB0000021112F01DD112000E03846CDE900018E
:102DC00004A90CA8FFF7B4FCDDE90D010C9A0091F1
:102DD0004FF0000BB946109221070FD4009A4A45D4
:102DE00003DA914601E0A9F10109B9F1010F05DD0E
:102DF000109AA9F10101515C3029F4D0B84202DAED
:102E000010F1040F03DA0121CDE9011010E00028D0
:102E100003DC8344A9EB000102E0411C494500DDCD
:102E20008946A0EB0B00401C01904FF0004002903F
:102E3000200705D40198484502DB4FF0FF30019090
:102E400000208DF84B0002980DF14B07B0F1004FB8
:102E500025D002200C902B200D90029800280CDA2F
:102E6000404202902D200D9007E00A210298FDF7C4
:102E7000E4FA3031029007F8011D0C99481E0C90BD
:102E80000029F2DC02980028EFD1791E0D98087015
:102E9000307800F0200040F0450007F8020D11A83E
:102EA000C01BC01D02901398007800B1012000EBF8
:102EB0000901019801EBE071029801440398401A5E
:102EC000401E0390E00306D453462146179A039808
:102ED00000F05CF805441398007818B15246179931
:102EE00090476D1CE00323D553462146179A03985B
:102EF00000F04CF805441BE0BBF1000F07DB009825
:102F0000584504DD1098179910F80B0001E0179947
:102F100030205246904701980BF1010B401E05F1FD
:102F20000105019004D12E205246179990476D1C3F
:102F3000B9F10001A9F10109DEDC05E017F8010B88
:102F40005246179990476D1C0299481E029000291D
:102F5000F4DC53462146179A03989EE62D000000A4
:102F60002B000000200000002DE9F0410446002560
:102F70001E461746880404D405E039462020B04791
:102F80006D1C641EF9D52846BDE8F0812DE9F0419D
:102F9000044600251E469046C80301D5302700E0B0
:102FA0002027880404D505E041463846B0476D1C0B
:102FB000641EF9D52846BDE8F0810A68531C0B60F1
:102FC0001070704770B504460D4600202071401EF9
:102FD000E0622946204602F00FF908B1032070BDD7
:102FE00094F82E1294F82F0241EA00204AF6552157
:102FF000884201D00220F2E794F86900010694F8B3
:10300000680041EA004194F8670041EA002094F822
:103010006610084320F07F400D49884201D100200E
:10302000DDE794F88500010694F8840041EA004148
:1030300094F8830041EA002094F88210084320F0BD
:103040007F400349884201D10020C8E70120C6E73C
:1030500046415400024600E0521C107810B110782E
:103060008842F9D1107870470246891E5069801E47
:10307000884201D8002070479378906A01FB0300D2
:10308000F9E700002DE9F04780460C46A17EE07E7E
:1030900041EA002010B10020BDE8F087207800F060
:1030A0003F00401E00EB800101EBC0064FF001091C
:1030B000002524E01A48405D205C1949495D2144FF
:1030C000497840EA0127B9F1000F11D0FF2E0BD249
:1030D000384601F093FA82463146761C38F81100E2
:1030E00001F08CFA824501D00020D5E7B94605E011
:1030F0004FF6FF70874201D00020CDE76D1C0D2DEB
:10310000D8D3207800F0400038B1B9F1000F04D0D6
:1031100038F8160008B10020BEE70120BCE7000027
:10312000106700082DE9F04704468946B9F1000F01
:1031300006D1E76817B16069B84215D8012713E0D6
:103140004946204601F074FD0646022E02D20120B7
:10315000BDE8F087701C08B93046F9E76069B042F5
:1031600001D93046F4E74F463D4600BF6D1C60690B
:10317000A84204D80225BD4201D90020E8E729462B
:10318000204601F055FD064606B909E0701C08B15D
:10319000012E01D13046DBE7BD42E7D10020D7E761
:1031A00000BF6FF070422946204602F00BFB8046BC
:1031B000B8F1000F08D1B9F1000F05D02A464946F1
:1031C000204602F0FFFA8046B8F1000F0BD1E5600F
:1031D0002069401C78B12069401E2061607940F070
:1031E0000100607107E0B8F1010F02D14FF0FF302C
:1031F00000E0012005462846AAE700002DE9F34F2C
:1032000083B0814604980068019002E00198401C58
:103210000190019800782F28F8D0019800785C2858
:10322000F4D0D9F81CA000252F4600BF38467F1CDB
:1032300001990C5C202C03DB2F2C01D05C2C00D1DD
:1032400032E0FF2D03D3062005B0BDE8F08FE4B2D5
:10325000812C13DBE0B2FE2810DC38467F1C01997C
:103260000E5C06EB042084B2402E01DB7E2E05DDD1
:10327000802E01DBFE2E01DD0620E5E70121204640
:1032800001F07EF904460CB90620DDE7802C06DA51
:10329000214671A0FFF7DEFE08B10620D4E72846DC
:1032A0006D1C2AF81040C1E700BF0198C1190498AD
:1032B0000160202C01DA042000E00020804608E0B4
:1032C000681E3AF81040202C02D02E2C00D002E0CC
:1032D0006D1E002DF4D100BF0DB90620B4E700200B
:1032E0002AF815000B222021D9F8180001F07AFFE6
:1032F000002700E07F1C3AF817002028FAD03AF89F
:1033000017002E28F6D00FB148F0030800E06D1E1C
:1033100025B1681E3AF810002E28F8D10020064684
:1033200002904FF0080B00BF38467F1C3AF810405F
:1033300004B963E0202C03D02E2C04D1AF4202D07C
:1033400048F00308F0E70298584501D2AF4214D183
:10335000BBF10B0F02D148F003084FE0AF4201D0A0
:1033600048F00308AF4200D948E02F4608200290F9
:103370004FF00B0BB006060ED6E7802C09DB20467B
:1033800001F03CF90021009001F0FAF8044648F001
:103390000208FF2C11DDABF101000299884204D82C
:1033A00048F00308CDF808B0BEE72212D9F818306B
:1033B0000298411C02911A5419E024B1214629A017
:1033C000FFF748FE18B15F2448F003080FE0412CD6
:1033D00004DB5A2C02DC46F0020608E0612C06DB16
:1033E0007A2C04DC46F00106A4F1200084B2D9F85E
:1033F00018300298411C02911C5495E700BFD9F87F
:1034000018000078E52803D10520D9F818100870B5
:10341000BBF1080F01D1B006060E06F00C000C2817
:1034200003D006F00300032801D148F0020808F099
:10343000020058B906F00300012801D148F0100835
:1034400006F00C00042801D148F00808D9F818004B
:1034500080F80B800020F7E6222A3A3C3E3F7C7F32
:10346000000000002B2C3B3D5B5D00002DE9F0418E
:1034700004460E460021204600F0CDF90546EDB980
:10348000002700BF2169206801F0B6FE054605B19E
:1034900013E060690078E52802D06069007820B9FF
:1034A000781C0746B04201D107E0002701212046E1
:1034B00000F07FF80546002DE4D000BF042D00D1B8
:1034C00007252846BDE8F0812DE9F0470446002194
:1034D000204600F0A0F9074617B13846BDE8F0874E
:1034E0004FF0FF09CA464FF6FF70208400BF2169E4
:1034F000206801F081FE074607B157E065692E7824
:103500000EB9042752E0E87A00F03F08E52E05D016
:1035100008F0080040B1B8F10F0F05D04FF0FF09D7
:103520004FF6FF7020843AE0B8F10F0F1CD1E0692C
:1035300078B306F0400030B195F80DA026F04006B3
:10354000B146E08820844E450AD1687B504507D1BA
:103550002946E069FFF796FD10B1A9F1010000E0EE
:10356000FF2000F0FF091AE0B9F1000F05D128464D
:1035700002F0AEFA504500D118E0A069C07A00F020
:10358000010038B90B222846A16901F00BFE08B9E9
:103590000CE004E04FF0FF094FF6FF70208400219B
:1035A000204600F006F80746002FA0D000BF38469E
:1035B00094E72DE9F04104468846E088461CB0B205
:1035C00008B1206910B90420BDE8F081216848895C
:1035D000C11700EBD1614911B6FBF1F201FB126199
:1035E000002971D12069401C2061E06828B9206859
:1035F0000089B04268D80420E6E721684889C117ED
:1036000000EBD1614911B6FBF1F122689278521EAC
:103610001140002958D1E168206801F009FB0546F6
:10362000012D01D80220CFE7681C08B90120CBE7A3
:1036300020684069A84241D8B8F1000F01D10420A8
:10364000C2E7E1682068FFF76DFD05460DB9072068
:10365000BAE7012D01D10220B6E7681C08B90120A4
:10366000B2E7206802F0A8FA08B10120ACE72168AF
:103670004A8901F13000002101F0B4FD294620689B
:10368000FFF7F2FC2168C86200270EE001202168E4
:103690000871206802F090FA08B1012094E72068D0
:1036A000C06A401C2168C8627F1C20688078B842CC
:1036B000ECD82068C06AC01B2168C862E560294652
:1036C0002068FFF7D1FC2061E68021684889C11796
:1036D00000EBD1614911B6FBF1F201FB12612268E6
:1036E000303202EB4111616100206DE72DE9FE4FA0
:1036F0000446D4F81880D4F81C900C224146684641
:1037000001F063FD00BF9DF80B0000F0010020B345
:10371000002088F80B00E06101260CE033464A46A1
:103720006946404601F01EFA2046FFF7CDFE0546E9
:1037300005B102E0761C642EF0D300BF642E02D1E6
:103740000720BDE8FE8F042D01D02846F9E79DF83B
:103750000B0088F80B00C4F81C909DF80B0000F0DB
:10376000020060B1002600E0761C39F8160000283F
:10377000FAD106F119000D21B0FBF1F700E00127A5
:1037800039462046FFF772FE054645BB781E071EE8
:1037900025D0E088C11B204600F03DF80546F5B96C
:1037A000A06902F095F9824600BF2169206801F006
:1037B00023FD054605B111E0FAB253466169E0699F
:1037C00001F036F901202168087100212046FFF739
:1037D000F0FE054615B9781E071EE6D100BFC5B933
:1037E0002169206801F008FD054695B920220021D5
:1037F000606901F0F7FC0B22D4E9050101F0E5FC5A
:10380000A069C07A00F0180061690873012021687E
:103810000871284695E72DE9F04104460E46E680FA
:10382000A568012D03D020684069A84202D8022073
:10383000BDE8F0812DB920680078032801D1206807
:10384000456A45B920680089B04201D80220EFE7F7
:103850002068476A24E021684889C11700EBD161DC
:1038600049112268927801FB02F812E0294620688B
:1038700001F0DEF90546681C08B90120D8E7022DE1
:1038800003D320684069A84201D80220D0E7A6EB04
:1038900008064645EAD229462068FFF7E5FB0746B9
:1038A000E5600FB90220C3E721684889C11700EB22
:1038B000D1614911B6FBF1F1394421612168488990
:1038C000C11700EBD1614911B6FBF1F201FB1261A6
:1038D0002268303202EB411161610020A8E770B527
:1038E0000446012514B1012C09D107E0FEF768FB5D
:1038F00010B925F0010500E0012502E001E00125F5
:1039000000BF00BF284670BD2DE9F04705460E46B2
:1039100014464FF0040915B1012D21D11FE0CEB19D
:10392000012E0BD0022E02D0032E14D103E04FF44F
:10393000007020800FE0012020600CE00C48D0F8DF
:1039400050C062460023D0E912713846FCF75AFC99
:10395000206000E000BF00BF4FF0000903E002E07C
:103960004FF0040900BF00BF4846BDE8F0870000E3
:10397000E02100202DE9FC5F04460D4616469946DD
:103980004FF0040A4FF0000B14B1012C16D114E0D3
:103990004FF40070CDE90009A6FB00703A460346DB
:1039A0002846FEF757FB8346BBF1000F02D04FF0CD
:1039B000040A01E04FF0000A03E002E04FF0040ABD
:1039C00000BF00BF5046BDE8FC9F0146012011B179
:1039D000012904D102E020F0010002E001E0012011
:1039E00000BF00BF70472DE9FC5F05460E469146BB
:1039F0001C464FF0040A4FF0000B14B90420BDE838
:103A0000FC9F15B1012D16D114E04FF40070CDE9E3
:103A10000004A9FB00703A4603463046FEF7B4FBAB
:103A20008346BBF1000F02D04FF0040A01E04FF0D3
:103A3000000A03E002E04FF0040A00BF00BF504656
:103A4000DDE770B50546284600F03BFC044634B976
:103A5000284602F01FFA04460CB9002028602046D0
:103A600070BD00002DE9F74F90B0914611980128E4
:103A700003DD132013B0BDE8F08F10A801F07CF92E
:103A80000F900F98002801DA0B20F3E7FA490F98FE
:103A900051F820500DB90C20ECE7002028700F9849
:103AA000C0B20C9000200B900C98FFF718FF01900B
:103AB000019800F0010008B10320DBE7019800F055
:103AC000040008B10A20D5E705F10A0202210C988A
:103AD000FFF71AFF38B96889B0F5805F03DC6889A1
:103AE000B0F5007F01DA0120C4E700BF04AA01217C
:103AF0000C98FFF709FF10B90498802801D2012023
:103B0000B8E7119808B1002000E03F2082460498F1
:103B1000A0EB0A000490A9F1010000EA090008B135
:103B20004FF00009B9F1000F1AD16889C11700EBF5
:103B3000D15149124FF4FA6292FBF1F1049AB2FBAF
:103B4000F1F10A914FF0000B01E00BF1010BCB48B2
:103B500030F81B100A988142F7D8C94830F81B90FA
:103B6000B9F5007F02D36889B9FBF0F9B9F1000F0C
:103B700001D14FF00109B9F1800F01D94FF080094F
:103B80000498B0FBF9F8012640F6F670804500D3A2
:103B900002264FF6F670804500D30326032E0CD183
:103BA000082000EB880069890844401EB0FBF1F74B
:103BB000202003900020029019E0012E05D108EB8F
:103BC0004800401C4008C01C02E04FEA4800001DAD
:103BD000074668893844401E6989B0FBF1F7012027
:103BE000039068894FF48041B1FBF0F00290039894
:103BF0005044079007983844069002990698084464
:103C0000059005984844A0EB0A000499884201D920
:103C10000E202FE709AA03210C98FFF775FE28B99B
:103C2000099818B10998B0F5004F01D90120099001
:103C3000099905980844401E491E8843099009992E
:103C40000598081A0990032E08D109990398084489
:103C50000390099907980844079001E009980744E0
:103C6000DDE90301081AC11B0298081AB0FBF9F834
:103C7000022E03D140F6F670804505D3032E05D100
:103C80004FF6F670804501D20E20F3E6032E02D1E6
:103C90000C200D9010E0012E06D10498B0F5803F65
:103CA00002D201200D9007E00498B0F5803F01D2C8
:103CB000042000E006200D9000BF119810B1F02004
:103CC0000E9043E06A89002105F1300001F08AFA84
:103CD00005F5F77401206070A0700020E0700D9869
:103CE0002071FE206071049850443F21B0FBF1F038
:103CF000FF21B0FBF1F009903F21099841EA9000C3
:103D0000A0710998E0713F20207200216172A172B8
:103D1000E172049820730498010A61730498010CFD
:103D2000A1730498010EE173552185F82E12AA2182
:103D300085F82F120123002205F130010C98FFF7BE
:103D400052FE08B1012095E6F8200E9005F13004EE
:103D50006A890021204601F045FA0B2249A120463C
:103D600001F033FAB5F80AB084F80BB04FEA1B2122
:103D7000217384F80D900398A0730398010AE173EE
:103D800001202074032E01D1002001E04FF40070C7
:103D9000834684F811B04FEA1B21A1740498B0F552
:103DA000803F05D20498E0740498010A217510E060
:103DB000049884F820000498C0F3072121200155BD
:103DC0000498C0F30741222001550498010E2320D6
:103DD00001550E9860753F20207600216176FF2006
:103DE000A076E17684F81CA04FEA1A2161774FEAA9
:103DF0001A41A1774FEA1A61E17700F0B9FF099003
:103E0000032E4BD1099884F843000998C0F3072189
:103E1000442001550998C0F30741452001550998F0
:103E2000010E4620015584F82470C7F30721252090
:103E30000155C7F3074126200155390E27200155AA
:103E4000022084F82C0000212D2001552E20015540
:103E50002F200155012084F8300031200155062023
:103E600084F8320033200155802084F84000292056
:103E700084F8420013220BE0240000201E67000893
:103E800034670008EBFE904D53444F53352E3000FD
:103E90008AA104F1470001F098F91FE0099884F81D
:103EA00027000998C0F30721282001550998C0F37D
:103EB0000741292001550998010E2A200155A775AF
:103EC000390AE175802084F82400292084F826002E
:103ED00013227FA104F12B0001F077F9552084F81B
:103EE000FE01AA2140F2FF1001550123524621464E
:103EF0000C98FFF778FD08B10120BBE5032E06D131
:103F000001230AF1060221460C98FFF76CFD079881
:103F100008904FF0000B5FE06A890021204601F015
:103F200061F90E980990032E14D0012E01D16D482D
:103F300001E06FF0FF00099908430990099820708B
:103F40000998000A60700998000CA0700998000E8A
:103F5000E07019E0099860F0FF000990099820705E
:103F60000998000A60700998000CA0700998000E6A
:103F7000E070FF202071FF216171A171E171207259
:103F80006172A1720F21E1720898411C024601235F
:103F9000089121460C98FFF726FD08B1012069E53C
:103FA0006A890021204601F01DF9012009900EE0E8
:103FB0000898411C02460123089121460C98FFF7FE
:103FC00012FD08B1012055E50998401C0990099897
:103FD000B842EDD30BF1010BBBF1000F9CD0032EC7
:103FE00001D1484600E00298834600BF0898411C72
:103FF00002460123089121460C98FFF7F4FC08B112
:10400000012037E5ABF10100B0F1000BEED1032E3A
:1040100049D15220207060706120A0704120E07072
:10402000722084F8E401722140F2E510015541212B
:10403000401C01556121401C0155A8F1010084F884
:10404000E801C0F3072140F2E9100155A8F1010091
:10405000C0F307414FF4F5700155A8F10100010EBE
:1040600040F2EB100155022084F8EC01002140F2EF
:10407000ED100155401C0155401C0155552084F898
:10408000FE01AA2140F2FF10015501230AF10102AD
:1040900021460C98FFF7A7FC01230AF107022146ED
:1040A0000C98FFF7A0FC002211460C98FFF72CFC9F
:1040B00008B10120DEE40020DCE400004E4F204E79
:1040C000414D4520202020464154333220202000FD
:1040D0004E4F204E414D4520202020464154202067
:1040E0002020200000FFFF00F7B582B0164603989D
:1040F000019001A800F040FE0546002D02DA0B20D9
:1041000005B0F0BD0E4850F825400CB100202070DD
:10411000029810B10020029908700949029841F8EC
:104120002500029808B1012E01D00020E8E7002206
:1041300003A902A800F090FA07463846E0E700001D
:10414000240000202DE9F743ADF50C7D0546164609
:1041500025B909200DF50F7DBDE8F083002028600A
:1041600006F01F0626F001028DA983A800F074FA5C
:104170000746002F74D180A88990CDF828D283A853
:104180008D9900F095FC0746889C0FB904B9062765
:1041900006F01C0000285CD04FB1042F03D183A887
:1041A000FFF7A4FA074646F00806889C09E0E07A83
:1041B00000F0110008B1072703E006F0040000B189
:1041C0000827002F55D106F00800002851D000F034
:1041D000CFFD804684F80E804FEA1821E1734FEA44
:1041E000184121744FEA1861617484F816804FEA0F
:1041F0001821E1754FEA184121764FEA186161767E
:104200000020E072207700216177A177E1772146D5
:10421000839800F0D6FD81460021204601F050FC35
:10422000012083990871B9F1000F22D08398D0F84A
:104230002C804946839801F00DFC0746CFB9A9F1BF
:1042400001008399C8604146839800F0D5FF074676
:104250000FE077B9E07A00F0100010B1042708E011
:104260002DE006F0020020B1E07A00F0010000B17C
:10427000072747B906F0080008B146F020068398E2
:10428000C06AE8612C62D7B9AE710020E87121469E
:10429000839800F096FD2861E07F0106A07F41EA47
:1042A0000041607F41EA0020217F0843E860002050
:1042B000A860A861839828602868C088A8803846CC
:1042C00048E72DE9F0410446204601F0E3FD0746AA
:1042D000002F4CD1A07900F02000002847D0A07911
:1042E00000F0400078B121684878012304F12401EE
:1042F000A269FFF778FB10B10120BDE8F081A07939
:1043000020F04000A071E169206800F075FF0746C9
:10431000002F2CD1256AE87A40F02000E872207B3B
:104320002877A089010A6977E068010CA977E0681D
:10433000010EE9772846216901F0C2FB00F018FD63
:104340000646AE75310AE975310C2976310E69766B
:104350000020A8740021E974A07920F02000A07149
:10436000012021680871206801F0C2FB0746384629
:10437000C3E72DE9FF4F83B0044615469B460498DA
:1043800001900020CBF80000204601F083FD029050
:10439000029818B1029807B0BDE8F08FE07908B133
:1043A000E079F8E7A07900F0020008B90720F2E709
:1043B000A0682844A168884200D20025CFE0216887
:1043C0004989A068B0FBF1F201FB120000287ED100
:1043D00021684989A068B0FBF1F021688978491EFD
:1043E000084000F0FF0ABAF1000F1ED1A06838B9EA
:1043F000276957B900212068FEF794FE074604E0BC
:1044000061692068FEF78EFE074607B9AAE0012F12
:1044100002D10220E071BEE7781C10B90120E071E2
:10442000B9E76761206900B92761A07900F0400011
:1044300078B121684878012304F12401A269FFF7CB
:10444000D2FA10B10120E071A5E7A07920F0400078
:10445000A07161692068FEF707FE064616B90220C2
:10446000E07198E7564420684089B5FBF0F9B9F14E
:10447000000F31D00AEB090021688978884203D9FE
:1044800020688078A0EB0A09216848784B463246BC
:104490000199FFF7A8FA10B10120E0717BE7A0694C
:1044A000801B484511D2A069831B2068B0F80AC060
:1044B000019803FB0C012068428904F1240000F0FC
:1044C00084FEA07920F04000A071206800E017E091
:1044D000408900FB09F835E0A069B0420FD0D4E96B
:1044E000020188420BD2216848780123324604F148
:1044F0002401FFF73FFA10B10120E0714BE7A661FC
:1045000021684989A068B0FBF1F201FB1200216823
:104510004989A1EB0008A84500D9A8462168498926
:10452000A068B0FBF1F201FB120104F12400084481
:1045300042460090019900F048FEA07940F040000A
:10454000A07100BF019840440190A0684044A06061
:10455000DBF800004044CBF80000A5EB0805002D77
:104560007FF42DAF00BFD4E90201884201D9A068D1
:10457000E060A07940F02000A07100200BE700006F
:104580002DE9F04102460F46802A01DA10462FE05D
:104590001FB1184B45F2205602E0174B45F220564A
:1045A0000025102416E0A6EB050C0CEBDC7805EBDF
:1045B00068014FEA410C33F81CC0944500D10BE070
:1045C0004FEA410C33F81CC0944501DA0D4600E077
:1045D0000E46641E002CE6D100BF34B14FF0010C32
:1045E0000CEB410C33F81CC001E04FF0000C6046AE
:1045F000BDE8F081CEBB01084A67000830B58028CD
:1046000007DA612823DB7A2821DCA0F12005A8B293
:104610001DE00C2200234FF4F77400BFE51A03EBF2
:1046200055010B4D35F81150854200D10AE0084D77
:1046300035F81150854201DA0B4600E00C46551E54
:104640002A1EEBD100BF12B1024D35F8110030BD6A
:10465000521003082E1403082DE9F74F8AB00021E9
:104660000A9801600B9800F087FB099009980028D0
:1046700003DA0B200DB0BDE8F08FE949099851F835
:1046800020400CB90C20F5E70A980460207878B136
:104690006078FFF79AF9814609F0010040B90C985B
:1046A00020B109F0040008B10A20E3E70020E1E7A7
:1046B00000202070099860706078FFF710F981463B
:1046C00009F0010008B10320D4E70C9820B109F0EB
:1046D000040008B10A20CDE7607804F10A02022143
:1046E000FFF712F938B96089B0F5007F03DB608904
:1046F000B0F5805F01DD0120BCE700273946204688
:10470000FEF760FC0546012D01D09DBB32E000267E
:104710001AE004F5F77000EB061898F8040070B181
:1047200098F80B00010698F80A0041EA004198F851
:10473000090041EA002098F80810084300E0002032
:1047400002A941F82600761C042EE2D3002606B109
:10475000761E00BF02A850F8267027B139462046C1
:10476000FEF730FC00E0022005461DB1701C064635
:104770000428EFD3032D01D101207BE70DB10D20DB
:1047800078E73B20015D94F83C0041EA0020618914
:10479000884201D00D206DE74620015D94F8470066
:1047A00041EA002ABAF1000F0ED194F85700010631
:1047B00094F8560041EA004194F8550041EA00207F
:1047C00094F8541040EA010AC4F818A04020005D93
:1047D000E070E078012804D0E078022801D00D20B4
:1047E00048E7E0780AFB00FA3D20005DA070A07861
:1047F00018B1A078411E084008B10D203AE74120C9
:10480000015D94F8420041EA002020816089C117CF
:1048100000EBD1614911228992FBF1F301FB1321D5
:1048200009B10D2026E74320015D94F8440041EAD8
:1048300000200890089870B994F85300010694F885
:10484000520041EA004194F8510041EA002094F8F6
:104850005010084308903E20015D94F83F0041EA63
:1048600000200190019808B90D2003E76089C11765
:1048700000EBD1614911228992FBF1F20199514477
:1048800011440791DDE90710884201D20D20F1E6BD
:10489000DDE90710401AA178B0FBF1FBBBF1000F76
:1048A00001D10D20E6E6012540F6F670834500D3E0
:1048B00002254FF6F670834500D303250BF1020065
:1048C0006061E76101983844206207983844A0622B
:1048D000032D16D1208908B10D20CBE694F85F0096
:1048E000010694F85E0041EA004194F85D0041EA57
:1048F000002094F85C1008436062606980000690B4
:1049000014E0208908B90D20B4E6206A50446062A2
:10491000022D02D16069400007E0207D00F0010017
:10492000616901EB410100EB510006906089401E76
:10493000069908446189B0FBF1F0A169884201D968
:104940000D2097E64FF0FF302061E060802060711D
:10495000032D5AD194F8601094F8610041EA0020C8
:10496000012852D1791C204600F046FCE8BB00200B
:10497000607194F82E1294F82F0241EA00204AF652
:104980005521884241D13320005D01063220005D6F
:1049900041EA00413120005D41EA002094F83010E6
:1049A00008432049884230D194F81702010694F850
:1049B000160241EA004194F8150241EA002094F8F9
:1049C00014120843184988421FD194F81B020106AB
:1049D00094F81A0241EA004194F8190241EA0020D1
:1049E00094F818120843206100E00EE094F81F02CA
:1049F000010694F81E0241EA004194F81D0241EAC2
:104A0000002094F81C120843E060257007480088D5
:104A1000401C80B205490880E08000202AE60000A2
:104A20002400002052526141727241612C0000202A
:104A3000F0B504461D464D730F27CF7200270F7344
:104A40008F76BC4681F81BC0571E07EB870C0CEB1A
:104A5000C706002738463B4600BF4FF6FF77B842EF
:104A600003D03746761C34F81700DFF840C01CF836
:104A700003C001F80C000712DFF830C01CF803C0B7
:104A80008C448CF8017008B94FF6FF705F1C3B46F0
:104A90000D2FE2D34FF6FF77B84202D034F81670EC
:104AA0000FB942F040020A70F0BD00001067000824
:104AB0002DE9F3410446019800782F2803D001988E
:104AC00000785C2802D10198401C01900020A06071
:104AD00001980078202807D200212046FEF79BFE8F
:104AE00005460020606128E000BF01A92046FEF7CE
:104AF00085FB054605B11FE02046FEF7E5FC0546AF
:104B0000A069C67A3DB1042D04D100BF06F00400AF
:104B100000B9052510E006F0040000B10CE067695B
:104B2000F87A00F0100008B9052505E0394620683C
:104B300000F047F9A060D8E700BF2846BDE8FC8137
:104B400070B504460D46E1B20548FDF79FFD00BF74
:104B500040210348FDF716FD0028F9D0204670BD1E
:104B6000003801402DE9FF4F83B0074691461E46AD
:104B70000B223846049900F028FB052E19D9B046BF
:104B800012E039F802BB00250CE0584668F35F00DC
:104B900080464FEA6B0B08F4803010B1234888EA56
:104BA00000086D1C102DF0D3B9F800000028E8D1E2
:104BB0004646072500BF06F00F0000F1300ABAF1A3
:104BC000390F03DD0AF1070000F0FF0A28466D1EC9
:104BD00001A901F800A03609002EECD17E2048552D
:104BE00000240BE0385D812807DB385DFE2804DCFB
:104BF000681EA04200D106E0641C641CAC4202D2D4
:104C0000385D2028EED100BF00BF082D04D2284611
:104C10006D1C01A9095C00E020212046641C395468
:104C2000082CF2D307B0BDE8F08F0000211001007E
:104C30002DE9F05F04460D46022D02D36069A842BB
:104C400002D84FF001098FE04FF0FF39207801289A
:104C500004D002283CD003287ED157E02F4607EB32
:104C600057076089B7FBF0F0216A00EB010A514653
:104C7000204600F0C1FA00B175E038467F1C61891A
:104C8000B0FBF1F201FB120104F1300010F80180D9
:104C90006089B7FBF0F0216A00EB010A514620461B
:104CA00000F0AAFA00B15EE06089B7FBF0F100FB0A
:104CB000117104F13000405C48EA002805F0010061
:104CC00010B14FEA181001E0C8F30B0081464AE02A
:104CD000B4F80AA00AEBDA704010B5FBF0F0216AD4
:104CE00000EB010B5946204600F086FA00B13AE08D
:104CF00068006189B0FBF1F201FB120104F13000A0
:104D00000E183078717840EA01292CE0B4F80AA036
:104D10004FEAEA700AEB90708010B5FBF0F0216A60
:104D200000EB010B5946204600F066FA00B11AE08C
:104D3000A8006189B0FBF1F201FB120104F130001F
:104D40000E18F0780006B17840EA0140717840EA28
:104D500001203178084300E002E020F0704902E0D1
:104D60004FF0010900BF00BF4846BDE8F09F0000BA
:104D7000004870470000214670B502464FF0FF30F2
:104D80001568E5B1116800E0491C0D78202D02D3AB
:104D90000D783A2DF8D10D783A2D0FD1146814F80A
:104DA000015BA5F130030A2B07D28C4205D1022BFF
:104DB00003D218464D1C2946156070BD002000BF67
:104DC000FBE710B502468C7ECB7E44EA03201378C5
:104DD000032B05D10C7D4B7D44EA032340EA0340BD
:104DE00010BD00001CB5FCF717FA00200321034694
:104DF000B222CDE900105AA1604801F04DFA012815
:104E000006D0DB225E495FA0FDF75EFC00201CBDE2
:104E100000221221402001F08BF86A49086030B965
:104E2000E122574968A0FDF74FFC0020EFE7002280
:104E30002021402001F07CF87049086030B9E6225A
:104E40004F4961A0FDF740FC0020E0E700223C2133
:104E5000402001F06DF86A49086030B9EB224849FA
:104E600059A0FDF731FC0020D1E7002004210346C2
:104E7000B222CDE9001063A16B4801F00DFA0128C0
:104E800006D0F1223E496948FDF71EFC0020BEE72E
:104E9000002003210346B222CDE9001064A16A4834
:104EA00001F0FAF9012806D0F622354967A0FDF78E
:104EB0000BFC0020ABE70020032103464FF40072F7
:104EC000CDE900106FA1774801F0E6F9012806D07E
:104ED000FC222B492BA0FDF7F7FB002097E70020D1
:104EE00003210346B222CDE900101DA1234801F0A1
:104EF000D3F9012807D04FF4817221496AA0FDF748
:104F0000E3FB002083E70020032103464FF40072F7
:104F1000CDE9001073A17B4801F0BEF9012807D04C
:104F200040F20712164978A0FDF7CEFB00206EE78D
:104F3000002003210346B222CDE9001082A1894856
:104F400001F0AAF9012807D04FF486720C4986A017
:104F5000FDF7BAFB00205AE700F02EFF002056E7CD
:104F60004170705461736B506F7765724D6F6475EB
:104F70006C6554726967676572000000CD0E0008A9
:104F8000F866000825732C206174204C696E653A20
:104F900025642C20785461736B43726561746520BD
:104FA0004170705461736B53656E736F72446174BA
:104FB0006155706C6F6164536572766572206572BD
:104FC000726F0A000000002025732C206174204CB1
:104FD000696E653A25642C20785175657565437254
:104FE0006561746520626C65537461747573517585
:104FF000657565206973206572720A0004000020DF
:10500000080000204170705461736B414453313289
:1050100035364D756C746950726573734368616E93
:105020004361707475726500B50D00087818030847
:105030004170705461736B41444368616E436170A9
:105040007475726500000000250D000825732C2082
:105050006174204C696E653A25642C207854617324
:105060006B437265617465204170705461736B416C
:10507000444368616E436170747572652065727235
:105080006F0A00004170705461736B53656E736FEB
:10509000724461746155706C6F61645365727665BA
:1050A00072000000F90E000825732C206174204C5A
:1050B000696E653A25642C20785461736B43726580
:1050C000617465204170705461736B506F776572C5
:1050D0004D6F64756C65547269676765722065729F
:1050E000726F0A004170705461736B4144534461A4
:1050F0007461536176654C6F63616C53746F726554
:1051000000000000210E000825732C206174204C43
:10511000696E653A25642C20785461736B4372651F
:10512000617465204170705461736B4144534461F4
:105130007461536176654C6F63616C53746F726513
:10514000206572726F0A00004170705461736B5376
:10515000656E736F72446174615061636B61676502
:1051600000000000ED0E000825732C206174204C17
:10517000696E653A25642C20785461736B437265BF
:10518000617465204170705461736B53656E736F09
:1051900072446174615061636B616765206572720E
:1051A0006F0A0000F0B503461C460D46002000BF04
:1051B000161EA2F1010207D014F8017B15F801CBED
:1051C000A7EB0C06301EF3D0F0BD70B503460C46BD
:1051D00003E014F8015B03F8015B151EA2F1010264
:1051E000F7D170BD30B5034601E003F8011B141E72
:1051F000A2F10102F9D130BD70B504460D4600267A
:10520000E06AA84210D0204600F0D6FC06465EB9FF
:10521000607801232A4604F13001FEF7ABFB10B1A0
:105220004FF0FF350126E562304670BD2DE9F041B3
:1052300005460E462648076826480068001D00F00F
:10524000E4FC50B92348006890F82C1001208840F5
:1052500021490968814320480160681CD8B9D6B14A
:105260001E4948681B49096888601A4982680968AC
:10527000CA6018490968091D8268516015490968A2
:10528000091D8160154A134909684A611146096878
:10529000491C11601AE07C190E4800684460BC4249
:1052A00007D20C480168091D0D48006800F0DAFCBF
:1052B0000CE008480168091D0A48006800F0D2FCAB
:1052C00009480068844201D207480460BDE8F081C3
:1052D00058000020440000205C000020EC22002048
:1052E0004C000020480000207400002010B5044647
:1052F00000F0D2FC2F480068401C2E4908602E4860
:10530000006840B92C4804600846006801280DD1A7
:1053100000F072F90AE02948006838B926480068A8
:10532000C06AE16A884201D82348046024480068C2
:10533000401C2349086094F82C1001208840214922
:10534000096808431F490860E16A01EB81011E4AB0
:1053500002EB81014868A0608268E260211D8268DA
:1053600051608160E16A01EB8101174A02EB810221
:105370006261E16A01EB8101134A52F82110491C74
:10538000E26A02EB8202104B43F8221000F096FC16
:105390000A48006868B108480068C06AE16A884243
:1053A00007D24FF0805009490860BFF34F8FBFF319
:1053B0006F8F10BD540000204400002060000020CA
:1053C000700000205C0000203822002004ED00E086
:1053D00010B516E000F060FC0C48C068C468201DE1
:1053E00000F013FC0A480068401E0949086009489B
:1053F0000068401E0749086000F060FC204600F08D
:1054000055F8044800680028E4D110BDD8220020D7
:10541000540000205000002070B504460D46206C5A
:1054200070B1216CE0680144E160D4E90210884267
:1054300001D32168E1602846226CE168FAF713FF86
:1054400070BD2DE9F04104460F4615464FF00008A7
:10545000A66B206C28B37DB93946226C6068FAF7D8
:1054600002FF216C606808446060D4E90101884251
:1054700017D32068606014E03946226CE068FAF7C0
:10548000F2FE216CE068411AE1602168E068884220
:1054900003D2216CA068411AE160022D01D106B14E
:1054A000761E701CA0634046BDE8F08110B504462E
:1054B000206B00F013FC204600F010FC10BD000033
:1054C00030B54FF48843154800F007042CB1C01DD7
:1054D00020F00700114C041B1B1B0246104C2260DD
:1054E00000240F4D6C60D018083820F007000D4CD8
:1054F000206000240B4D2D686C600A4D2D682C60D7
:105500001146441A4C60074C24680C60064D4C68E8
:105510002C60064D4C682C6030BD0000002300203C
:1055200088000020900000209800002094000020B7
:1055300000BFFFF74DFF064800680128F9D94FF07A
:10554000805004490860BFF34F8FBFF36F8FF0E7BF
:105550003822002004ED00E02DE9F04106460D461A
:1055600017469846069C0DB9246000E02760E66364
:1055700025640121204600F001FDBDE8F0812DE900
:10558000FF5F80460E469146DDE90E7A109CA9F138
:105590000100216B01EB800B2BF0070B7EB1002586
:1055A00007E0715D04F134004155705D00B902E01F
:1055B0006D1C102DF5D300BF002143200155052F90
:1055C00000D30427E762201D00F049FB04F1180016
:1055D00000F045FB2461C7F10500A061646241460B
:1055E0005846039A00F024FA2060BAF1000F01D067
:1055F000CAF80040BDE8FF9F10B5002407E004EBA7
:1056000084010F4A02EB810000F01CFB641C052C96
:10561000F5D30C4800F016FB0B4800F013FB0B48C9
:1056200000F010FB0A4800F00DFB0A4800F00AFBEE
:1056300004480949086004480849086010BD000092
:10564000382200209C220020B0220020C42200200A
:10565000D8220020EC220020480000204C0000202E
:1056600010B50146164800E0006803688B42FBD382
:105670000246436813448B4204D143684C68234478
:10568000436001460A464B6813440468A34211D1A3
:105690000C4C03682468A34208D04B680468646813
:1056A00023444B6003681B680B6005E0054B1B68D7
:1056B0000B6001E003680B60884200D0016010BD00
:1056C000880000209000002070B5054600F0E4FA44
:1056D000A86B08B9012400E0002400F0EFFA20468E
:1056E00070BD70B5054600F0D7FAA86BE96B88422B
:1056F00001D1012400E0002400F0E0FA204670BD52
:1057000009480068006808B9012000E0002020B1C5
:105710004FF0FF300549086005E003480068C068A5
:1057200000680249086070474800002074000020AB
:1057300000BFBF2080F31188BFF34F8FBFF36F8F7F
:1057400000BF00BFFEE770B5044600F0A5FA94F96B
:10575000455010E0606A08B9012000E0002038B927
:1057600004F1240000F094FE18B100F00FFB00E0FB
:1057700003E0681E45B2002DECDC00BFFF2084F87A
:10578000450000F09BFA00F087FA94F9445010E0CD
:10579000206908B9012000E0002048B904F1100098
:1057A00000F076FE08B100F0F1FA681E45B200E0A4
:1057B00001E0002DECDC00BFFF2084F8440000F085
:1057C0007DFA70BD2DE9F05F04460E461746022EA5
:1057D00002D36069B04202D84FF00208B3E02078EB
:1057E000012804D0022852D0032872D172E0B146B9
:1057F00009EB59096089B9FBF0F0216A00EB010A55
:1058000051462046FFF7F8FC8046B8F1000F00D063
:1058100098E0484609F101096189B0FBF1F201FB0A
:10582000120104F130000D1806F0010020B1F9B2A8
:10583000287861F31F1000E038462870012020719D
:105840006089B9FBF0F0216A00EB010A514620465D
:10585000FFF7D2FC8046B8F1000F00D072E06089FB
:10586000B9FBF0F100FB119104F130000D1806F0C6
:10587000010010B1C7F3071005E0287800F0F00030
:10588000C7F3032108432870012020715AE0B4F8BF
:105890000AA00AEBDA704010B6FBF0F0216A00EBC8
:1058A000010B59462046FFF7A7FC8046B8F1000FD0
:1058B00000D047E070006189B0FBF1F201FB1201FA
:1058C00004F130000D182F70380A68700120207123
:1058D00038E034E0B4F80AA04FEAEA700AEB9070BE
:1058E0008010B6FBF0F0216A00EB010B5946204610
:1058F000FFF782FC8046B8F1000F00D022E0B00034
:105900006189B0FBF1F201FB120104F130000D18C6
:10591000E8780006A97840EA0140697840EA012069
:105920002978084300F0704007432F70380A6870E8
:10593000380CA870380EE8700120207102E04FF09A
:10594000020800BF00BF4046BDE8F09F2DE9F047C8
:1059500005464FF0000900F065FA3048006808B9C4
:10596000FFF7AEFD75B105F00700C0F11008C8F1F2
:10597000FF30A84201D2012000E0002008B94544D0
:1059800000E00025012000EBE570002841D0002D4B
:105990003FD02348006885423BD8224E30460468F9
:1059A00001E0264624686068A84202D220680028E8
:1059B000F7D11A48006884422BD0306800F10809FA
:1059C000206830606068401B102807D9671960683C
:1059D000401B786065603846FFF742FE10496068FA
:1059E0000968081A0E490860084600680E490968E7
:1059F000884203D20A4800680B490860606840F09A
:105A0000004060600020206008480068401C074992
:105A1000086000F0C1FD4846BDE8F0879000002016
:105A20009400002088000020980000209C000020A6
:105A3000001F4FF080730360001F21F0010303601B
:105A4000001F034B036014380260203870470000C9
:105A5000315700082DE9F04104460E46022E02D3CC
:105A60006069B04201D8022727E0002721E03146D3
:105A70002046FFF7DDF8054605B91DE0012D01D1EF
:105A8000022719E0681C08B9012715E000223146F9
:105A90002046FFF797FE074607B10DE02069401C3E
:105AA00030B12069401C2061607940F001006071D4
:105AB0002E466069B042DAD800BF3846BDE8F081B2
:105AC00081760B0AC3760A0C02750B0E437570477C
:105AD00030B5014600200B2200BF431003EBC01479
