:020000040800F2
:10000000605A0120E10100086D1A0008431A000837
:10001000691A00083D140008512B00080000000078
:10002000000000000000000000000000490100087E
:1000300041160008000000008D010008B5240008EA
:10004000FB010008FB010008FB010008FB010008A0
:10005000FB010008FB010008FB010008FB01000890
:10006000FB010008FB010008FB010008FB01000880
:10007000FB010008FB010008FB010008FB01000870
:10008000FB010008FB01000899070008FB010008BC
:10009000FB010008FB010008FB01000885160008B1
:1000A000FB010008FB010008FB010008FB01000840
:1000B000A925000871260008FB010008FB010008C3
:1000C000FB010008FB010008FB010008FB01000820
:1000D000FB010008FB010008FB010008FB01000810
:1000E00045160008FB010008FB010008FB010008A1
:1000F000FB010008FB010008FB010008FB010008F0
:10010000FB010008FB010008FB010008FB010008DF
:10011000FB010008FB010008FB010008FB010008CF
:10012000FB010008FB010008FB010008FB010008BF
:10013000DFF810D000F0EEFA00480047C93100089F
:10014000AFF30080605A0120224B19680868B0E8BC
:10015000F00F80F30988BFF36F8F4FF0000080F33A
:1001600011884EF00D0E7047000000000648006830
:10017000006880F3088862B661B6BFF34F8FBFF3A3
:100180006F8F00DF00BF00BF08ED00E0EFF30980D4
:10019000BFF36F8F0F4B1A6820E9F00F106008B59E
:1001A0004FF0BF0080F31188BFF34F8FBFF36F8F05
:1001B00004F08CFB4FF0000080F31188BDE808408C
:1001C00019680868B0E8F00F80F30988BFF36F8FF3
:1001D000704700BFA01F0020EFF3058070470000AC
:1001E0000648804706480047FEE7FEE7FEE7FEE7D1
:1001F000FEE7FEE7FEE7FEE7FEE7FEE7BD240008B8
:10020000310100082DE9F05F0546002092469B462B
:1002100088460646814640241BE02846414647461C
:10022000224600F0C1F953465A46C01A914110D3F4
:1002300011461846224600F0A8F92D1A67EB01086E
:100240004F4622460120002100F09FF917EB0009DC
:100250004E41201EA4F10104DFDC484631462A4607
:100260004346BDE8F09F40EA01039B0703D009E045
:1002700008C9121F08C0042AFAD203E011F8013B92
:1002800000F8013B521EF9D27047D2B201E000F8EB
:10029000012B491EFBD270470022F6E710B513462A
:1002A0000A4604461946FFF7F0FF204610BD2DE927
:1002B000FE4F804681EA0300C00F0C46009021F0FB
:1002C000004123F00045B8EB0200A94105D24046A9
:1002D000214690461C460B46024623F00040104340
:1002E00047D0270DC7F30A00C3F30A510290401A02
:1002F000019040286BDAC3F3130040F4801B009890
:10030000924620B10023D2EB030A63EB0B0B01985A
:100310005946C0F14002504600F037F906460D46F6
:1003200050465946019A00F04FF910EB0800614120
:10033000002487EA115284EAE7731A4340D0009AF6
:1003400062B3019A012A4FEA075215DC001B61EBE8
:1003500002014FF0004202EA0752CDE90042001CC0
:1003600041F5801132462B4600F086F903B0BDE816
:10037000F08F40462146F9E7001B61EB0201001CAB
:1003800041F5801300185B412018A2F5001747EBD8
:10039000030140EAD570B6196D4111E06D084FEACE
:1003A000360645EAC0754FEA0752001B61EB0201B1
:1003B000001C41F5801149084FEA300000195141F5
:1003C00032462B4603B0BDE8F04F00F046B9009826
:1003D000012240000023D0EB020263EBE07300989F
:1003E00021464FEAE074B8EB000061EB0401E9E755
:1003F00083F000435BE781F0004158E72DE9FE4FB1
:1004000081EA030404F0004421F0004100944FF01D
:10041000000B23F0004350EA01045ED052EA0304CB
:100420005BD0C3F30A54C1F30A552C44A4F2F3344D
:100430000194A0FB0254C1F3130141F48011C3F3F2
:10044000130343F4801301FB024400FB034E840AB0
:10045000970A44EA815447EA8357A4FB0768029548
:100460008D0A05FB07854FEA932C04FB0C542705E6
:10047000029D4FEA065847EA1637B5EB08056EEBC2
:10048000070C870E920E47EA811742EA8312A7FBF8
:100490000201B6EB0B0164EB00042B0D43EA0C33B5
:1004A0005E1844EB1C50DA465146E7FB0201C5F3E7
:1004B00013044FEA0B3343EA14534FEA0432019C0E
:1004C00043EA0603A4F10C040294009CCDE900B4B5
:1004D00000F0D2F803B0BDE8F08F00200146F9E744
:1004E0000EB540F2334102910021CDE900110A46D8
:1004F0000B4600F0C1F803B000BDC1F30A5210B5BD
:10050000C1F3130140F2FF3341F480119A4201DA42
:10051000002010BD40F233439A42A2F2334203DC82
:10052000524200F041F810BD904010BD00F0004272
:1005300030F000400AD0C10D01F56071C0F3160023
:1005400042EA0151C20840071143704700200146AA
:10055000704701F0004330B421F0004150EA01023D
:1005600006D00A0DA2F56072C1F31301002A02DC65
:1005700030BC00207047440F44EAC104C100E018B9
:1005800030BC00EBC25000F031B8202A04DB203A26
:1005900000FA02F1002070479140C2F1200320FAD6
:1005A00003F3194390407047202A04DB203A21FAD4
:1005B00002F00021704721FA02F3D040C2F120027C
:1005C0009140084319467047202A06DBCB17203A92
:1005D00041FA02F043EAE07306E041FA02F3D04048
:1005E000C2F1200291400843194670470029A8BF74
:1005F0007047401C490008BF20F00100704710B44C
:10060000B0FA80FC00FA0CF050EA010404BF10BC00
:10061000704749B1CCF1200421FA04F411FA0CF12D
:1006200018BF012121430843A3EB0C01CB1D4FEA66
:1006300000614FEA102042BF002010BC704700EB61
:10064000C35010440029A4BF10BC7047401C49008F
:1006500008BF20F0010010BC704710B5141E73F1E4
:10066000000408DA401C41F1000192185B411A4372
:1006700001D120F0010010BD2DE9F04D92469B46BE
:1006800011B1B1FA81F202E0B0FA80F22032904664
:10069000FFF77BFF04460F4640EA0A0041EA0B01E0
:1006A00053465A46084313D0114653EA010019D065
:1006B000C8F140025046FFF777FF05460E46504608
:1006C00059464246FFF761FF084305D0012004E088
:1006D00020463946BDE8F08D0020054346EAE07625
:1006E0002C4337430A986305E40AA0EB0800002274
:1006F000FD0A44EA47540A3002D500200146E9E7E2
:10070000010510196941DDE9084500196941BDE895
:10071000F04DA2E7064C074D06E0E06840F001030B
:1007200094E8070098471034AC42F6D3FFF704FD75
:10073000E45600080457000870B58D1810F8014BF6
:1007400014F0030201D110F8012B231106D110F887
:10075000013B03E010F8016B01F8016B521EF9D167
:10076000ABB110F8012B04F00C048A1A0C2C03D046
:10077000A2EB84129B1C08E010F8014BA2EB0422B0
:10078000F8E712F8014B01F8014B5B1EF9D5A942BD
:10079000D4D3002070BD000010B5034800F056F817
:1007A0000249088010BD0000002801404C060020CE
:1007B00021B1826842F00102826003E0826822F087
:1007C00001028260704721B1826842F480728260C7
:1007D00003E0826822F480728260704710B504469C
:1007E0001248844208D10121401501F0E5FB0021A7
:1007F000601501F0E1FB17E00D48844208D10121AA
:10080000001501F0D9FB0021201501F0D5FB0BE00C
:100810000848844208D10121C80301F0CDFB002122
:100820004FF4004001F0C8FB10BD0000002401405F
:1008300000280140003C0140014600208A6802F087
:1008400004020AB1012000E0002070470146C86C94
:1008500080B27047014600208A6802F008020AB19F
:10086000012000E00020704730B502460020002340
:1008700050680F4C20400D790C6844EA0524204351
:10088000506090680B4C2040D1E902542C434D79C4
:1008900044EA450420439060D06A20F470000C7C48
:1008A000641EE4B2234340EA0350D06230BD00002E
:1008B000FFFEF0FFFDF7F1FF00B587B001214FF417
:1008C000017001F069FB4FF4004001F029FB0220A8
:1008D000ADF8040000208DF8070001A9204800F0C1
:1008E000C7FF00F0B9FD1F48FFF778FF0020029016
:1008F00001208DF80C008DF80D004FF4602004905D
:100900000020059001208DF8180002A91548FFF776
:10091000ABFF072301221146124800F025F8012100
:100920001048FFF750FF01210E48FFF741FF0D4827
:1009300000F076F800BF0B48FFF78CFF0028FAD1D3
:10094000084800F07DF800BF0648FFF775FF002853
:10095000FAD10121034800F068F807B000BD00009B
:100960000008014000240140F0B504460D46002077
:100970000021092D11DDE068A5F10A0606EB460706
:10098000072606FA07F18843A5F10A0606EB460694
:1009900003FA06F10843E0600CE0206905EB450727
:1009A000072606FA07F1884305EB450603FA06F128
:1009B00008432061072A0FDA606B561E06EB860794
:1009C0001F2606FA07F18843561E06EB860605FA2F
:1009D00006F10843606322E00D2A0FDA206BD61F70
:1009E00006EB86071F2606FA07F18843D61F06EB9B
:1009F000860605FA06F10843206310E0E06AA2F1DA
:100A00000D0606EB86071F2606FA07F18843A2F1BA
:100A10000D0606EB860605FA06F10843E062F0BD16
:100A2000816841F008018160704721B1826842F419
:100A3000A002826003E0826822F4A0028260704714
:100A4000816841F0040181607047000010B5002406
:100A50004FF48051164800F0E8FF00BF4FF480616A
:100A6000134800F0D9FF0028F8D1FC2001F090FCD9
:100A7000002001F08DFC012001F08AFC40F2DC50E6
:100A800003F0EEFBFF2001F083FC44EA0044FF206A
:100A900001F07EFC44EA0024FF2001F079FC0443CD
:100AA0004FF48051024800F0C2FF204610BD000004
:100AB000000C014070B504460D464FF480510E48BD
:100AC00000F0B3FF00BF4FF480610B4800F0A4FFBB
:100AD0000028F8D104F00F0141F0500001F058FC5B
:100AE000002001F055FC284601F052FC4FF48051E3
:100AF000014800F09CFF70BD000C014010B50421BE
:100B00000020FFF7D7FF00210220FFF7D3FFA1212C
:100B10000320FFF7CFFF00210420FFF7CBFF4FF4A6
:100B200080510A4800F081FF00BF4FF48061074800
:100B300000F072FF0028F8D1F02001F029FC4FF4FA
:100B40008051024800F073FF10BD0000000C01400E
:100B500008B50121082001F01FFA4FF40060ADF83C
:100B6000000010208DF8030003208DF80200694674
:100B70000C4800F07DFE4FF400610A4800F055FF7C
:100B80004FF48060ADF8000048208DF8030003208A
:100B90008DF802006946034800F06AFE01F018FB78
:100BA00008BD0000000C014010B5FFF7D1FF4FF465
:100BB0000061034800F03BFFFFF7A0FF10BD0000FD
:100BC000000C014070B50546002400BF0CE0022C6B
:100BD00008DB082141EA0411C8B200F008F8A11EA0
:100BE00045F82100601CC4B2082CF0DB70BD10B5C4
:100BF000044621460120FFF75DFFFFF727FF10BDE8
:100C000002465006020E42EA01000246704700000A
:100C100010B51021014800F00AFF10BD0008014086
:100C200010B51021014800F000FF10BD0008014080
:100C30002DE9F0410024002600270025072000F0C0
:100C400067F8044603263440062000F061F80746A2
:100C500025464FF6FF7000EA052545EA07000546E0
:100C6000BDE8F081024600201378180100F47F608F
:100C70000B781B110B700B78184300F4006323B141
:100C8000C043C0F30B00401C4042704710B5002029
:100C900000F03EF810BD10B5022000F039F810BD8C
:100CA00070B500240025002600BF14E0FFF7F3FF15
:100CB0000646FFF7EBFF0546AD2D01D1FA2E06D013
:100CC00033462A46214606A001F044FF02E000F028
:100CD00074F902E0641C032CE8DB00BF70BD000067
:100CE0006164786C20696E6974206572726F72201D
:100CF000693A25642C2064657669636549643A2500
:100D0000782C207061727449643A25780A000000DA
:100D100070B504460025FFF783FF01212046FFF749
:100D20006FFF064601F018FBAA2001F015FB0546EF
:100D3000FFF76EFF284670BD70B586B004460D46BD
:100D400000200590049003900290019000902DB334
:100D5000012D65D1FFF764FF01210820FFF750FF47
:100D6000064601F0F9FAAA2001F0F6FA0590AA2049
:100D700001F0F2FA0490AA2001F0EEFA0390AA2002
:100D800001F0EAFA0290AA2001F0E6FA0190AA2006
:100D900001F0E2FA0090FFF73BFF41E0FFF748FF68
:100DA000032839DDFFF73CFF01214220FFF728FF30
:100DB000064601F0D1FAAA2001F0CEFA0390AA204B
:100DC00001F0CAFA0290FFF723FFFFF729FF012184
:100DD0004220FFF715FF064601F0BEFAAA2001F0F7
:100DE000BBFA0190AA2001F0B7FA0090FFF710FFBC
:100DF000FFF716FF01214220FFF702FF064601F030
:100E0000ABFAAA2001F0A8FA0590AA2001F0A4FAF2
:100E10000490FFF7FDFE02E0002006B070BD00BFA9
:100E200000BF04A905A8FFF71DFF208002A903A8A1
:100E3000FFF718FF6080694601A8FFF713FF034919
:100E40000988084400B2A0800120E6E75806002087
:100E500010B50E21202000F0C4F80021212000F060
:100E6000C0F80721222000F0BCF810BD70B506467E
:100E70000D460024287804436006040E6878044375
:100E80006006040EA87804436006040EE878044364
:100E90006006040E287904436006040E6879044352
:100EA0006006040EA87904436006040EE879044342
:100EB0006006040E2146304600F093F870BD1CB564
:100EC00000208DF800008DF801008DF802008DF8EB
:100ED00003008DF804008DF8050001208DF8060050
:100EE0008DF8070069463A20FFF7C0FF1CBD10B51A
:100EF0000121392000F075F810BD1CB500208DF8D7
:100F000000008DF801008DF802008DF803008DF8C7
:100F100004008DF805008DF806008DF8070069467D
:100F20003820FFF7A3FF1CBD1CB500208DF8000082
:100F30008DF801008DF802008DF803008DF8040093
:100F400001208DF8050000208DF806008DF80700BF
:100F500069463E20FFF78AFF1CBD1CB500208DF8B6
:100F600000008DF801008DF8020001208DF80300CB
:100F70008DF804008DF805008DF806008DF8070047
:100F800069463F20FFF772FF1CBD1CB501208DF89C
:100F9000000000208DF801008DF802008DF803009C
:100FA0008DF804008DF805008DF806008DF8070017
:100FB00069463D20FFF75AFF1CBD10B5FFF7B4FF8F
:100FC000FFF7E3FFFFF77BFFFFF791FFFFF795FFC9
:100FD000FFF73EFFFFF7C1FF1F213F2000F001F8A0
:100FE00010BD70B505460C46FFF71AFE00212846D5
:100FF000FFF706FE064601F0AFF9204601F0ACF916
:10100000FFF706FE70BD000000B587B0012108465D
:1010100000F0C2FF0121080300F0BEFF01210420FF
:1010200000F0BAFF01A800F004FDE020ADF80400D4
:1010300018208DF8070003208DF8060001A91E482E
:1010400000F016FC1020ADF804008DF80700032016
:101050008DF8060001A9184800F00AFC1021164876
:1010600000F0E5FC1021144800F0DFFC02A801F0BC
:1010700067F94FF48270ADF80A000020ADF80C005B
:101080004FF40070ADF812000020ADF80E00ADF87E
:1010900010001820ADF814000020ADF8160007204D
:1010A000ADF8180002A9054801F02CF90121034808
:1010B00001F0E2F807B000BD000801400030014037
:1010C00088B00020079006904EE0002001F06AF8FA
:1010D0008046FFF705FA06464FF06632234BFFF7CE
:1010E0008DF90446FFF735FA07900798FFF71EFAC7
:1010F00004464FF066321E4BFFF780F9CDE902013E
:101100000798FFF713FA04460D460798FFF70EFA03
:101110008046184A184BFFF771F9064622462B46BF
:10112000FFF76CF9CDE90001DDE90223FFF7BFF815
:1011300082464FF03332114BFFF7B9F8CDE9040185
:10114000FFF7DBF980B20690BDF8180010F1280F08
:1011500003DA012000F078FC02E0002000F074FCCB
:101160004FF47A7003F0A2FAAFE7000066664A3FD8
:1011700066464E40C3F5285C8F82414033B332400F
:1011800092B000BF00200E900F9010901190294B4C
:10119000D3E90012D3E90203CDE90C03CDE90A1229
:1011A00047E0242101A8FFF777F84FF0FF3201A9AB
:1011B0002148006803F04EFD012837D19DF8040056
:1011C000FF2833D19DF80500FB282FD19DF8120090
:1011D000FF282BD19DF81300FE2827D19DF806008B
:1011E000012804D101F0D3F901F034FA1EE09DF892
:1011F000060002281AD1002000F032FD00F058FC51
:101200000EA001F0A7FC0A2003F050FA01F0B0F99B
:1012100001F00EFA03F0ACFE04460020034622461D
:10122000012100900B48006804F0AAF9012003F0A6
:101230003DFAB6E7F455000854060020726563765F
:1012400020727820737461727420747820636D64E6
:101250000A000000480600208CB000249DE02821F0
:1012600002A8FFF719F84FF0FF3202A94B480068B7
:1012700003F0F0FC012859D19DF80800012804D1A1
:1012800047488089B0F5007F07D09DF80800022804
:1012900012D144488089C8280ED1424880894049EB
:1012A0008989CDE900109DF808304FF4E3723E497A
:1012B0003E4801F04FFC70E09DF80800012836D14F
:1012C000374ADDE904015268354B5B8902EB431272
:1012D00003C200240CE006A830F81410304840681F
:1012E0002F4A528900EB4210083020F81410641C79
:1012F000032CF0DB2A494989481CC11700EBD15166
:101300004912A0EB4121264A5181114608684FF04D
:10131000FF3103F021FD22488089401C204988814B
:1013200000231A460868194603F0BCFB34E01D4A46
:10133000DDE9041052681B4B5B8902EB4312C2E9E2
:10134000001000240CE006A850F82410154840684E
:10135000144A528900EB4210083040F82410641CF3
:10136000062CF0DB0F484089401CC82190FBF1F2AD
:1013700001FB12000B49488108684FF0FF3103F070
:10138000EBFC08488089401C0649888100231A46E6
:101390000868194603F086FB00BF60E79C0C00203C
:1013A0006C4000207C400020045600087456000861
:1013B00010B500F025FA00F04DFDFFF7F5FBFFF743
:1013C0007BFA01F0F1FAFFF71FFEFFF769FC01F06D
:1013D00091FD01F031FE00F093FB00F00DFD00F0F7
:1013E00065FE02F08DFE472142F20F7001F096F883
:1013F000472144F61F6001F0F1F86522024903A07D
:1014000001F0A8FB10BD00001B56000825732C201E
:101410006174204C696E653A25642C205478205301
:10142000797374656D2042535020496E697420733E
:10143000756363657373210A0000000000BFFEE757
:1014400021B1026842F00102026004E002684FF636
:10145000FE731A400260704710B50121084600F083
:101460006BFD114800F028F8104811490860114838
:101470004860002088600A20C86000200861802041
:101480004861400088618000C86120200862000235
:10149000486200208862044800F0B4F80121024844
:1014A000FFF7CEFF10BD0000080002404C240140B1
:1014B000C84000208C40002001684FF6FE721140A9
:1014C00001600021016041608160C1604B49884238
:1014D00008D14A490839496841F00F01474A083A9A
:1014E00051608AE045491431884208D1434908399E
:1014F000496841F0F001414A083A51607DE03F49B6
:101500002831884208D13D490839496841F4706161
:101510003A4A083A516070E038493C31884208D173
:1015200036490839496841F47041344A083A5160F3
:1015300063E032495031884208D13049083949685E
:1015400041F470212D4A083A516056E02B4964312C
:10155000884208D129490839496841F47001274A6D
:10156000083A516049E025497831884208D1234939
:101570000839496841F07061204A083A51603CE0FE
:101580001F49884206D1011F096841F00F01021F5F
:10159000116032E01A491431884208D11849091FF4
:1015A000096841F0F001164A121F116025E0144944
:1015B0002831884208D11249091F096841F4706135
:1015C0000F4A121F116018E00D493C31884208D1C2
:1015D0000B49091F096841F47041094A121F116043
:1015E0000BE007495031884207D10549091F0968B6
:1015F00041F47021024A121F116070470800024036
:101600000804024010B50022026847F6F0739A43BE
:101610000C6A8B6823430C6923434C6923438C6910
:101620002343CC6923434C6A23438C6A23431A43E4
:101630000260CB6843600B6883604B68C36010BD79
:101640007047000010B54FF4006000F07BF840B127
:101650004FF4006000F070F84FF40061084800F0AB
:10166000DBF94FF4806000F06DF840B14FF480601A
:1016700000F062F84FF48061014800F0CDF910BD30
:10168000000C014010B58AB00024402000F05AF848
:10169000002835D0072000F0B3FA044604F04000DB
:1016A00000B32146072000F08DFB602000F0A8FA6F
:1016B0008DF824009DF8242001A9612000F07EFA15
:1016C00000F0F6F900231A4601A90E48006803F05D
:1016D00075FA012811D040F201320B490BA001F03C
:1016E00039FA0AE004F0100030B12146072000F07A
:1016F00069FB00F0F1F900E000BF402000F01CF8A9
:101700000AB010BD540600203156000825732C2065
:101710006174204C696E653A25642C2020785175DF
:1017200065756553656E6446726F6D4953522069E5
:1017300073206572720A000001490860704700005A
:1017400014040140014600200022074B1B6803EAF5
:101750000102054B14331B680B4013B10AB1012081
:1017600000E00020704700000004014000212349F0
:101770008279002A3AD00A46126803689A430B46D7
:101780001A600A1D126803689A430B1D1A600279D9
:1017900011440A6803681A430A60184A083212683A
:1017A00003689A43154B08331A601A1D12680368C0
:1017B0009A43124B0C331A604279102A0ED11A1F29
:1017C000126803681A430D4B08331A601A1D126819
:1017D00003681A43094B0C331A600DE0074942793C
:1017E00011440A6803681A430A6005E0027911444B
:1017F0000A6803689A430A607047000000040140C9
:1018000010B50121202000F0C7FB04200649088004
:101810001020C87003208870044800F029F80020C8
:1018200000F012F910BD0000E41200200014014085
:1018300030B500228B071C0F0F2303FA04F20B4B69
:101840008C1053F824309343084C8D1044F8253005
:1018500023468C1053F824308C07240F00FA04F42C
:101860002343024C8D1044F8253030BD0800014060
:101870002DE9F04102460025002600200023002427
:10188000002791F803C00CF00F0591F803C00CF08D
:10189000100CBCF1000F03D091F802C04CEA050512
:1018A00091F800C0BCF1000F31D0146800202BE08B
:1018B0004FF0010C0CFA00F3B1F800C00CEA03067B
:1018C0009E4220D183004FF00F0C0CFA03F7BC436B
:1018D00005FA03FC4CEA040491F803C0BCF1280F9C
:1018E00006D14FF0010C0CFA00FCC2F814C00AE05B
:1018F00091F803C0BCF1480F05D14FF0010C0CFA70
:1019000000FCC2F810C0401C0828D1D31460B1F804
:1019100000C0BCF1FF0F34DD546800202EE000F160
:10192000080C4FF0010808FA0CF3B1F800C00CEAFB
:1019300003069E4221D183004FF00F0C0CFA03F7EF
:10194000BC4305FA03FC4CEA040491F803C0BCF163
:10195000280F05D100F1080C08FA0CF8C2F8148021
:1019600091F803C0BCF1480F07D100F1080C4FF00B
:10197000010808FA0CF8C2F81080401C0828CED3E1
:101980005460BDE8F0810000F0B50A460023002451
:101990000021002500F00046B6F1004F02D11D4E97
:1019A000F16901E01B4E7168C0F3034583B200F496
:1019B0004016B6F5401F08D121F07061154E7668CB
:1019C00026F07066134F7E6012E000F48016B6F5C4
:1019D000801F06D1032606FA05F4A14341F0706189
:1019E00006E0460D360103FA06F6B14341F0706198
:1019F00022B1460D360103FA06F6314300F00046E7
:101A0000B6F1004F02D1034EF16101E0014E716069
:101A1000F0BD0000000001400246002093680B402A
:101A20000BB1012000E00020704741617047016167
:101A300070474FF6FF710180022181700421C1704F
:101A4000704700BFFEE7000010B5044624B1042132
:101A50000448FFF7ECFF03E004210248FFF7E5FF2D
:101A600010BD00000014014000BFFEE770470000F9
:101A700070B50446002504F0700400F0DBF805465C
:101A80000A48006820F4004008490860272001F057
:101A900043FB44EA050001F03FFB0448006840F4C2
:101AA00000400249086000F0C5F870BD0C08014014
:101AB00010B50848006820F4004006490860E2209C
:101AC00001F02AFB0348006840F400400149086027
:101AD00010BD00000C08014010B50848006820F453
:101AE000004006490860E12001F016FB0348006849
:101AF00040F400400149086010BD00000C0801409E
:101B00001FB50121082000F047FA10208DF80F00C2
:101B100001208DF80E008020ADF80C0003A92548A7
:101B2000FFF7A6FE80212348FFF781FF48208DF8AC
:101B30000F0001208DF80E004020ADF80C0003A925
:101B40001C48FFF795FE40211A48FFF770FF19481F
:101B50000C30006820F0800016490C3108601648EF
:101B6000006840F400401449086017208DF8000018
:101B700001208DF8010000208DF8020001208DF871
:101B80000300684600F080F906210120FFF750FEAF
:101B90004020019000208DF808000C208DF80900ED
:101BA00001208DF80A0001A8FFF7E0FD4020FFF7B3
:101BB000C3FD1FBD000C01400C0801402DE9F041A0
:101BC00004460E4617460D48006820F400400B49B5
:101BD0000860204601F0A0FA002505E0FF2001F092
:101BE0009BFA7055681CC5B2BD42F7DB034800681C
:101BF00040F4004001490860BDE8F0810C08014054
:101C000070B504460A48006820F40040084908609E
:101C1000204601F081FAFF2001F07EFA05460448D3
:101C2000006840F4004002490860284670BD00008A
:101C30000C08014010B50948006820F4004007492D
:101C40000860072001F068FA04460448006840F480
:101C5000004002490860204610BD00000C08014009
:101C600070B5044600250E48006820F080000C493D
:101C700008600020FFF7C4FF054614B925F00105F0
:101C800003E0012C01D145F001052946002000F0B8
:101C900099F80348006840F080000149086070BD71
:101CA0000C0C014070B504460E461546052D01DDAD
:101CB000052000E028460546052C01DD052000E052
:101CC0002046044604F10A01C8B22A46314600F013
:101CD00057F870BD70B505460C46052C01DD052092
:101CE00000E02046044622462946102000F048F82D
:101CF00070BD00002DE9F04105460E460024002786
:101D0000FFF7EAFE1D48006820F080001B490860CC
:101D100032462946A02000F033F81848006840F009
:101D20008000164908600720FFF76AFF04460DE0AF
:101D30000720FFF765FF0446042001F053F93846F9
:101D4000791C8FB2B0F5FA7F00D103E004F02000D7
:101D50000028EDD000BF2146072000F033F804F042
:101D6000100020B1FFF7B8FE1020BDE8F08104F0AC
:101D7000200008B12020F8E7FF20F6E70C0C014016
:101D80002DE9F04105460E4617460D48006820F43F
:101D900000400B49086045F0200001F0BDF9002427
:101DA00004E0305D01F0B8F9601CC4B2BC42F8DB5D
:101DB0000348006840F4004001490860BDE8F08134
:101DC0000C08014070B504460D460A48006820F42E
:101DD00000400849086044F0200001F09DF92846C1
:101DE00001F09AF90348006840F400400149086096
:101DF00070BD00000C0801401FB514A103C9CDE956
:101E000002010020009001901DE0052202A910208F
:101E1000FFF7B6FF052269461020FFF7CFFE00242A
:101E200008E002A8005D1DF80410884200D003E01D
:101E3000601CC4B2052CF4DB00BF052C00D103E00C
:101E4000042001F02FF8E0E700BF1FBDA5A5A5A560
:101E5000A500000008B500214FF0006000F056F822
:101E60004FF4806000F048F826208DF80000012033
:101E70008DF8010000208DF8020001208DF803008C
:101E8000684600F001F808BD70B5002100230F225C
:101E9000C47804B3154C246804F4E064C4F5E06429
:101EA000210AC1F10403CA40447804FA03F184789A
:101EB0001440214309010E4C0678A155047804F022
:101EC0001F050124AC4005786D11AD0005F1E0253A
:101ED000C5F8004109E0047804F01F050124AC4076
:101EE000044D0678761145F8264070BD0CED00E0F3
:101EF00000E400E080E100E002490143024A116091
:101F0000704700000000FA050CED00E0024A0A40AC
:101F10000243024B1A60704780FFFF1F08ED00E08C
:101F200001460020034A506820F4404008435060B6
:101F3000704700000010024029B1064A526902436E
:101F4000044B5A6104E0034A52698243014B5A61CF
:101F5000704700000010024029B1064AD2690243CE
:101F6000044BDA6104E0034AD2698243014BDA612F
:101F7000704700000010024029B1064A126902436E
:101F8000044B1A6104E0034A12698243014B1A614F
:101F9000704700000010024029B1064A92690243CE
:101FA000044B9A6104E0034A92698243014B9A61AF
:101FB000704700000010024029B1064AD26802436F
:101FC000044BDA6004E0034AD2688243014BDA60D2
:101FD000704700000010024030B5002100220024AC
:101FE00000232D4D6D6805F00C0121B1042905D0A9
:101FF000082923D105E0294D056022E0274D056021
:102000001FE0254D6D6805F47012234D6D6805F4D1
:102010008034022505EB92421CB9214D55430560E1
:102020000BE01D4D6D6805F400351DB11C4D554389
:10203000056002E0194D5543056002E0174D05604B
:1020400000BF00BF144D6D6805F0F0010909154D82
:102050006B5C0568DD4045600F4D6D6805F4E0611F
:10206000090A104D6B5C4568DD4085600A4D6D685E
:1020700005F46051C90A0B4D6B5C4568DD40C560D5
:10208000054D6D6805F44041890B074D6B5CC568D3
:10209000B5FBF3F5056130BD0010024000127A0077
:1020A00000093D00781F0020881F00201CB52AA1D0
:1020B00003C9CDE900012A48006840F080002849A2
:1020C00008607020FFF7D4FC01211C20FFF77AFE86
:1020D00007211D20FFF776FE1C20FFF791FD1D2034
:1020E000FFF78EFD2A210020FFF76CFE0121084634
:1020F000FFF768FE01210220FFF764FE0321084676
:10210000FFF760FEFF210420FFF75CFE3C21052065
:10211000FFF758FE2F210620FFF754FE05216846E1
:10212000FFF7D8FD052269460020FFF7BBFD01201F
:10213000FFF796FDFFF7BCFC00222121042002F0EE
:102140003AFC0849086028B940F2EB22064907A08A
:1021500000F000FD1CBD0000344310100100000021
:102160000C0C0140540600202456000825732C2036
:102170006174204C696E653A25642C207851756530
:102180007565437265617465206E7266526563762B
:10219000446174615175657565206973206572725B
:1021A0000A00000002460023002107E0074800EB78
:1021B000410030F812000344481CC1B20A29F5DB83
:1021C0000A20B3FBF0F080B2704700008C40002082
:1021D00000B587B001210820FFF7DEFE012188034A
:1021E000FFF7BAFE4FF46040ADF8040003208DF80D
:1021F000060018208DF8070001A91D48FFF738FBDD
:102200004FF48050ADF8040003208DF80600102034
:102210008DF8070001A91648FFF72AFB4FF48051FB
:102220001348FFF704FC0020ADF808004FF482705B
:10223000ADF80A000020ADF80C00ADF80E0001204A
:10224000ADF810004002ADF812003820ADF81400CF
:102250000020ADF816000720ADF8180002A90548C7
:1022600000F050F80121034800F006F807B000BD67
:10227000000C01400038004021B1028842F04002C9
:10228000028004E002884FF6BF731A400280704754
:1022900010B504461148844208D101218014FFF78B
:1022A0008BFE0021A014FFF787FE16E00C48844245
:1022B00008D101210014FFF75FFE00212014FFF771
:1022C0005BFE0AE00748844207D10121C013FFF7F3
:1022D00053FE0021E013FFF74FFE10BD0030014018
:1022E00000380040003C00400246002013890B40AB
:1022F0000BB1012000E0002070470146888970473B
:102300008181704710B50022028802F441520B8887
:102310004C8823438C882343CC8823430C89234354
:102320004C8923438C892343CC8923431A4302805D
:10233000838B4FF2FF74234083830B8A038210BD8B
:102340000021018041808180C180018141818181A2
:10235000C18107210182704710B5044600BF0221E8
:102360000A48FFF7C1FF0028F9D021460748FFF7C8
:10237000C7FF00BF01210548FFF7B6FF0028F9D0CD
:102380000248FFF7BAFFC0B210BD000000300140A4
:1023900070B50446002500BF02210B48FFF7A4FFDB
:1023A0000028F9D021460848FFF7AAFF00BF012105
:1023B0000548FFF799FF0028F9D00348FFF79DFF74
:1023C000C5B2284670BD00000038004010B500F0CE
:1023D00001F810BD0CB50020019000903348006852
:1023E00040F480303149086000BF3048006800F494
:1023F000003000900198401C0190009818B9019895
:10240000B0F5A06FF1D12948006800F4003010B198
:102410000120009001E0002000900098012843D1A5
:102420002348006840F01000214908600846006811
:1024300020F0070008600846006840F002000860CD
:102440001A4840681949486008464068486008468C
:10245000406840F4806048600846406820F47C1082
:1024600048600846406840F4E81048600846006844
:1024700040F08070086000BF0C48006800F00070F9
:102480000028F9D00948406820F003000749486057
:102490000846406840F00200486000BF03484068BA
:1024A00000F00C000828F9D10CBD0000001002401B
:1024B0000020024010B502F053FA10BD10B51348C9
:1024C000006840F001001149086008464068104962
:1024D00008400E494860084600680E4908400B490C
:1024E00008600846006820F48020086008464068BC
:1024F00020F4FE0048604FF41F008860FFF766FF7D
:102500004FF000600449086010BD00000010024058
:102510000000FFF8FFFFF6FE08ED00E07FB505467E
:102520000C4601210846FFF717FD0020ADF8060014
:10253000ADF80200ADF80450ADF800408DF8080089
:102540004FF0804000F0C4F869464FF0804000F042
:10255000D9F91C208DF80C0000208DF80D00012009
:102560008DF80E008DF80F0003A8FFF78DFC7FBDDE
:1025700010B50121880700F099F801221146900753
:1025800000F0B4F90121880700F096F810BD10B5ED
:1025900000220121880700F0A9F900214FF08040B6
:1025A00000F08AF810BD000070B5002501218807F1
:1025B00000F08BF970B101210748FEF7BDFB012443
:1025C000062522462946044801F094FC012188078B
:1025D00000F06FF870BD0000301900207FB505468F
:1025E0000C4601210220FFF7B7FCADF80450ADF80E
:1025F00000400020ADF80600ADF802000B4800F0E6
:1026000067F86946094800F07DF91D208DF80C0037
:1026100000208DF80D0002208DF80E0001208DF8AD
:102620000F0003A8FFF730FC7FBD0000000400404E
:1026300010B50121064800F039F80122114604487E
:1026400000F054F90121024800F036F810BD0000F6
:102650000004004010B500220121044800F046F9B2
:102660000021024800F028F810BD000000040040DE
:1026700070B5002501210B4800F027F988B1182119
:102680000948FDF709FE0848FEF79CFA02241825C0
:1026900022462946044801F02DFC0121014800F0A2
:1026A00008F870BD00040040F4400020CA430282D4
:1026B0007047CA430282704721B1028842F001028A
:1026C000028004E002884FF6FE731A4002807047D1
:1026D00010B504466848844208D10121C014FFF7B0
:1026E0006BFC0021E014FFF767FCC4E0B4F1804FFD
:1026F00008D101210846FFF73FFC00210120FFF728
:102700003BFCB8E05D48844208D101210220FFF77C
:1027100033FC00210220FFF72FFCACE05848844234
:1027200008D101210420FFF727FC00210420FFF736
:1027300023FCA0E05348844208D101210820FFF780
:102740001BFC00210820FFF717FC94E04E48844250
:1027500008D101211020FFF70FFC00211020FFF706
:102760000BFC88E04948844208D101212020FFF772
:1027700003FC00212020FFF7FFFB7CE0444884425B
:1027800008D101214014FFF717FC00216014FFF766
:1027900013FC70E03F48844209D10121C804FFF7CF
:1027A0000BFC00214FF40020FFF706FC63E03A48E1
:1027B000844209D101210805FFF7FEFB00214FF4F7
:1027C0008010FFF7F9FB56E03448844209D101211B
:1027D0004805FFF7F1FB00214FF40010FFF7ECFB79
:1027E00049E02F48844208D101214020FFF7C4FB73
:1027F00000214020FFF7C0FB3DE02A48844208D179
:1028000001218020FFF7B8FB00218020FFF7B4FBF7
:1028100031E02548844208D101218015FFF7ACFB47
:102820000021A015FFF7A8FB25E02048844209D12C
:1028300001210804FFF7C0FB00214FF48030FFF7AF
:10284000BBFB18E01A48844209D101214804FFF774
:10285000B3FB00214FF40030FFF7AEFB0BE015484F
:10286000844208D101218804FFF7A6FB00214FF420
:102870008020FFF7A1FB10BD002C014000040040A8
:1028800000080040000C0040001000400014004010
:1028900000340140004C0140005001400054014010
:1028A00000180040001C0040002000400040014093
:1028B000004401400048014002460020138A0B40BA
:1028C0000BB1012000E00020704730B50246002027
:1028D00000230024158A05EA0103958905EA01040D
:1028E00013B10CB1012000E0002030BD1AB1838982
:1028F0000B43838102E083898B438381704781840A
:1029000070470000002202881D4B98420ED01D4BDC
:1029100098420BD0B0F1804F08D01B4B984205D0A5
:102920001A4B984202D01A4B984204D14FF68F733B
:102930001A404B881A43174B984207D0164B9842BF
:1029400004D04FF6FF431A40CB881A4302808B888D
:1029500083850B8803850A4B98420BD0094B98421C
:1029600008D00E4B984205D00D4B984202D00D4B2B
:10297000984201D10B7A03860123838270470000BD
:10298000002C0140003401400004004000080040D9
:10299000000C0040001000400014004000400140C6
:1029A000004401400048014010B500F0C3F800F0B9
:1029B0002BF800F00DF810BD21B1828942F40052CD
:1029C000828104E082894DF6FF731A40828170474C
:1029D0001FB54FF4E13000900020ADF80400ADF8D1
:1029E0000600ADF80800ADF80C000C20ADF80A00A8
:1029F0006946044800F032F801210248FFF7DCFF85
:102A00001FBD00000038014008B518208DF80300F4
:102A10004FF40070ADF8000003208DF80200694605
:102A20000648FEF725FF04208DF803000002ADF8EC
:102A3000000069460148FEF71BFF08BD0008014081
:102A400002460020B1F5007F00D100BF13880B4083
:102A50000BB1012000E00020704700002DE9F04795
:102A600086B005460E460024A24600BFA1460027B8
:102A7000B08900B100BF2F462C8A4CF6FF7004408D
:102A8000F08804432C82AC894EF6F3100440B088E1
:102A900031890843718908430443AC81AC8A4FF6FD
:102AA000FF400440B0890443AC8201A8FFF794FAC8
:102AB0001F48874202D1DDF810A001E0DDF80CA02C
:102AC000A88900F4004040B10AEBCA0000EB0A10EC
:102AD00031684900B0FBF1F807E00AEBCA0000EBEF
:102AE0000A1031688900B0FBF1F86420B8FBF0F0FF
:102AF00004012009642101FB1089A88900F4004029
:102B000040B1322000EBC900B0FBF1F000F007004B
:102B1000044308E0322000EB09106421B0FBF1F01F
:102B200000F00F0004432C8106B0BDE8F0870000E0
:102B30000038014010B501210520FFF72DFA0121D1
:102B40008803FFF729FA10BDC1F30802828070479D
:102B500000BFFEE70FB4054B10B503A9044A029865
:102B600000F018F810BC5DF814FB00007D3100087F
:102B70001420002002E008C8121F08C1002AFAD160
:102B800070477047002001E001C1121F002AFBD1ED
:102B9000704700002DE9FF4F8DB09B460F4604465D
:102BA000002606E025280BD05A460F999047641C52
:102BB000761C20780028F5D111B03046BDE8F08FA2
:102BC0000025A8460122984900E0054314F8013F7A
:102BD000203B02FA03F00842F7D120782E2817D1C3
:102BE00014F8010F45F004052A280ED06FF02F02CB
:102BF0002078A0F1300109290AD808EB880102EBFE
:102C0000410100EB0108641CF2E757F8048B641CD7
:102C100020786C280DD004DC4C2812D06A2811D101
:102C200004E074280DD07A280CD10AE045F4001590
:102C300007E0617845F48015814202D1641C05F5F6
:102C40008015641C2078692844D008DC0028B3D0A3
:102C5000582867D063280FD0642808D13AE070283C
:102C600065D0732812D075285AD078285AD05A4681
:102C70000F999047761CD5E017F8040B8DF80000EB
:102C800000208DF80100E946012003E057F8049B7D
:102C90004FF0FF3069074FF0000501D40AE06D1CCA
:102CA00045450DDA8542FADB19F805100029F6D101
:102CB00006E06D1C8542FCDB19F805100029F8D1EF
:102CC0002E4404E019F8010B5A460F9990476D1EE7
:102CD000F8D2A7E00A200021CDE90801C5F302508F
:102CE00002280CD001CFC117021E71F100020CDACC
:102CF0000023D0EB030063EB01012D2208E0FF1D50
:102D000027F00707F7E80201EEE72A0504D52B2292
:102D10008DF8282001223CE0EA073AD02022F7E78C
:102D20000A2000E010200021CDE9080107E0102072
:102D3000002145F00405CDE908014FF00808C5F36E
:102D40000250022810D001CF00214FF0000A2A07BC
:102D500020D52278702A0DD0DDE908C38CF0100C44
:102D60005CEA030C0CD015E0FF1D27F00707F7E81D
:102D70000201EAE740228DF828204FF0010A0CE01A
:102D800050EA010306D030238DF828308DF8292031
:102D9000022292462278582A04D024A20DF120095A
:102DA0000B9209E026A2F9E7DDE90823FDF72AFAEC
:102DB0000B9B9B5C09F8013D50EA0102F4D1ADEB9D
:102DC000090020300890680701D44FF001080899E5
:102DD000884503DD0898A8EB000000E0002080464D
:102DE000002506E00AA85A46405D0F9990476D1CE1
:102DF000761C5545F6DB04E030205A460F99904783
:102E0000761CB8F10001A8F10108F5DC05E019F81D
:102E1000010B5A460F999047761C0899481E089056
:102E20000029F4DC641CC4E6092801003031323387
:102E300034353637383961626364656600000000F6
:102E400030313233343536373839414243444546E0
:102E5000000000002DE9F04703460D46164600220B
:102E600000201A4682B100240CE0117880EA0107A4
:102E700007F0FF09DFF828A03AF8199089EA202026
:102E8000521C641CAC42F0D33EB14FEA102C4FEA06
:102E900000694FEA19484CEA0800BDE8F0870000D5
:102EA000781D002000B503461DE0322000F068F8D0
:102EB000322000F065F8322000F062F8322000F095
:102EC0005FF8322000F05CF8322000F059F8322030
:102ED00000F056F8322000F053F8322000F050F89D
:102EE000322000F04DF8181EA3F10101CBB2DCD165
:102EF00000BD000000B589B001A8FFF76DF8012101
:102F00000420FFF729F80020ADF81E00ADF81A00E4
:102F1000FF20ADF81C0000208DF820001649049811
:102F2000B0FBF1F0401E80B2ADF8180006A91348BE
:102F3000FFF7E8FC01211148FFF7B8FB00210F481B
:102F4000FFF7DDFC01210D48FFF7B6FB00BF0121B3
:102F50000A48FFF7B1FC0028F9D000210748FFF725
:102F6000ABFB00210548FFF7CAFC01210348FFF72E
:102F70009DFB09B000BD000040420F00000800406A
:102F800000EB4001C1EBC0114FF6FF7202EAC10134
:102F9000134A11800021124A083A118010492C3935
:102FA000098841F001010E4A2C3A118000BF0C49FA
:102FB0001C39098801F001010029F8D008491C39A1
:102FC000098821F00101064A1C3A118004492C3974
:102FD000098821F00101024A2C3A11807047000053
:102FE0002C080040134908800021124A083A118039
:102FF00010492C39098841F001010E4A2C3A118000
:1030000000BF0C491C39098801F001010029F8D0E2
:1030100008491C39098821F00101064A1C3A11802F
:1030200004492C39098821F00101024A2C3A118007
:10303000704700002C08004000B587B001210D202A
:10304000FEF7AAFF01213048FEF79EFC03208DF811
:103050001A0018208DF81B000820ADF8180006A9EA
:103060002A48FEF705FC2020ADF8180006A92748DD
:10307000FEF7FEFB1020ADF8180006A92348FEF766
:10308000F7FB10208DF81B00C002ADF818000320DC
:103090008DF81A0006A91E48FEF7EAFB4FF400411E
:1030A0001B48FEF7C4FC1B48FFF7F2F80121C803D8
:1030B000FEF752FF00211748FFF7DEF80020ADF8B9
:1030C00004004FF48270ADF806000020ADF80A004D
:1030D000ADF80C00ADF808004FF40070ADF80E002C
:1030E0000820ADF810000020ADF812000720ADF860
:1030F000140001A90748FFF705F901210548FFF76A
:10310000BBF807B000BD000000023000000C014019
:1031100000080140003C004070B504460026002530
:1031200007E0681C80B205464FF6FF71884200D167
:1031300005E002211048FFF7D7F80028F1D000BFC2
:1031400047F6FF750C480C30048007E0681C80B21D
:1031500005464FF6FF71884200D105E0012106487F
:10316000FFF7C2F80028F1D000BF03480C300088F8
:10317000C6B2304670BD0000003C004070B5044649
:103180000D46E1B20548FFF7DFFC00BF40210348D0
:10319000FFF756FC0028F9D0204670BD00380140EA
:1031A000084800884FF6FF71884202D10020054987
:1031B000088004480088401C0249088008460088AE
:1031C00070470000A00C00201CB5FEF7F1F84C4839
:1031D0000021016041608160C1604FF4804000F0D7
:1031E000F5FD474948600846406838B9D22245494C
:1031F00045A0FFF7AFFC4FF0FF301CBD40494868C9
:103200004FF48041FDF748F8012001F0C3FB3C4931
:1032100008604D480021016041608160C1604FF449
:10322000C85000F0D3FD484948600846406838B9A6
:10323000DD22344934A0FFF78DFC4FF0FF30DCE78E
:10324000414948684FF4C851FDF726F8012001F0C4
:10325000A1FB3D4908603D48002301220A2100905E
:103260003BA002F051F93C49086038B940F2031222
:1032700024493AA0FFF76EFC0020BEE70020B221EF
:1032800003464FF48072CDE900103FA1444801F09D
:103290002BFE012807D04FF485721A4941A0FFF791
:1032A00059FC0020A9E70020042103468A01CDE94A
:1032B00000104AA14F4801F017FE012807D04FF433
:1032C000887210494CA0FFF745FC002095E70020CC
:1032D00004210346B222CDE9001056A15A4801F05C
:1032E00003FE012807D040F21712064957A0FFF746
:1032F00031FC002081E701F0A5FA00207DE7000005
:103300006C400020EC55000825732C206174204C83
:10331000696E653A25642C204D616C6C6F63206D7D
:10332000656D20666F7220616363656C65726F6D99
:1033300065746572206461746120706F6F6C2066C3
:1033400061696C65642E0A007C4000208942000897
:1033500074696D65720000004806002025732C20FA
:103360006174204C696E653A25642C207854696D2F
:1033700065724372656174652074696D6572206958
:1033800073206572720A00004170705461736B4162
:10339000444368616E43617074757265000000009B
:1033A000C110000825732C206174204C696E653AA9
:1033B00025642C20785461736B43726561746520B9
:1033C0004170705461736B41444368616E43617036
:1033D00074757265206572726F0A000041707054D6
:1033E00061736B506F6F6C4461746150726F636591
:1033F000737300005912000825732C206174204C4F
:10340000696E653A25642C20785461736B4372654C
:10341000617465204170705461736B506F6F6C44C0
:1034200061746150726F63657373206572726F0AA5
:10343000000000004170705461736B436D645374FD
:1034400061747573000000008111000825732C2041
:103450006174204C696E653A25642C207854617340
:103460006B437265617465204170705461736B4386
:103470006D645374617475735465737420657272EE
:103480006F0A00002DE9F04105460E462648076800
:1034900026480068001D01F04BF850B92348006829
:1034A00090F82C1001208840214909688143204868
:1034B0000160681CD8B9D6B11E4948681B49096823
:1034C00088601A4982680968CA6018490968091D34
:1034D0008268516015490968091D8160154A1349C0
:1034E00009684A6111460968491C11601AE07C1993
:1034F0000E4800684460BC4207D20C480168091DB0
:103500000D48006801F03EF80CE008480168091D0C
:103510000A48006801F036F809480068844201D280
:1035200007480460BDE8F081B41F0020A01F002000
:10353000B81F002024420020A81F0020A41F002044
:10354000D01F002010B5044601F036F82F4800685F
:10355000401C2E4908602E48006840B92C48046081
:103560000846006801280DD100F0ECF90AE029486E
:10357000006838B926480068C06AE16A884201D804
:103580002348046024480068401C2349086094F8DC
:103590002C10012088402149096808431F49086010
:1035A000E16A01EB81011E4A02EB81014868A060DB
:1035B0008268E260211D826851608160E16A01EBEE
:1035C0008101174A02EB81026261E16A01EB81012C
:1035D000134A52F82110491CE26A02EB8202104B96
:1035E00043F8221000F0FAFF0A48006868B1084862
:1035F0000068C06AE16A884207D24FF080500949EA
:103600000860BFF34F8FBFF36F8F10BDB01F002056
:10361000A01F0020BC1F0020CC1F0020B81F0020CE
:103620000C41002004ED00E010B500F0C5FF0C488F
:10363000006890B90B4800F095FF0B4800F092FF2E
:1036400008480A49086008480949086000220C2116
:103650000A2001F0B0F90249086000F0BFFF10BD78
:10366000E81F0020384200204C420020E01F0020CC
:10367000E41F002010B516E000F09EFF0C48C06863
:10368000C468201D00F054FF0A480068401E094924
:10369000086009480068401E0749086000F09EFF66
:1036A000204600F05FF8044800680028E4D110BD0F
:1036B00010420020B01F0020AC1F002070B504464F
:1036C0000D46206C70B1216CE0680144E160D4E9E2
:1036D0000210884201D32168E1602846226CE1682B
:1036E000FCF7C1FD70BD2DE9F04104460F461546BB
:1036F0004FF00008A66B206C48B9206800282CD138
:10370000A06801F003FD80460020A06025E07DB99F
:103710003946226C6068FCF7A6FD216C606808449D
:103720006060D4E90101884217D32068606014E02A
:103730003946226CE068FCF796FD216CE068411A7E
:10374000E1602168E068884203D2216CA068411AD8
:10375000E160022D01D106B1761E701CA0634046C7
:10376000BDE8F08110B50446206B00F047FF20460D
:1037700000F044FF10BD01464A6A22B10A6B12688C
:10378000C2F10A0000E00020704700000146084A2C
:10379000126812680AB9012200E000220A600A6871
:1037A00022B9034A1268D268106800E0002070470E
:1037B000E01F002030B54FF48A33154800F00704AD
:1037C0002CB1C01D20F00700114C041B1B1B02462E
:1037D000104C226000240F4D6C60D018083820F087
:1037E00007000D4C206000240B4D2D686C600A4DC5
:1037F0002D682C601146441A4C60074C24680C60FC
:10380000064D4C682C60064D4C682C6030BD0000A5
:1038100060420020F81F0020002000200820002027
:103820000420002000BFFFF725FF0648006801289C
:10383000F9D94FF0805004490860BFF34F8FBFF3B0
:103840006F8FF0E70C41002004ED00E010B5044656
:1038500054B10020A06020600021E16000231A46DE
:103860001946204601F01EF910BD2DE9F04106462B
:103870000D4617469846069C0DB9246000E0276067
:10388000E66325640121204601F0BCF8BDE8F08123
:103890002DE9FF5F80460E469146DDE90E7A109CC9
:1038A000A9F10100216B01EB800B2BF0070B7EB11E
:1038B000002507E0715D04F134004155705D00B9E9
:1038C00002E06D1C202DF5D300BF002153200155CF
:1038D0000A2F00D30927E7626765201D00F04FFE1D
:1038E00004F1180000F04BFE2461C7F10A00A0614A
:1038F000646241465846039A00F0EAFA2060BAF141
:10390000000F01D0CAF80040BDE8FF9F2DE9F04745
:1039100005460E4617469846DDE90894FFF784FEF3
:103920002560A661C4F81C80C4F82090201D00F01A
:1039300026FE2FB194F8240040F0040084F82400FF
:10394000BDE8F08710B5002407E004EB84010F4ABE
:1039500002EB810000F006FE641C0A2CF5D30C4833
:1039600000F000FE0B4800F0FDFD0B4800F0FAFDF2
:103970000A4800F0F7FD0A4800F0F4FD0448094940
:10398000086004480849086010BD00000C41002090
:10399000D4410020E8410020FC41002010420020DA
:1039A00024420020A41F0020A81F002010B50146BB
:1039B000164800E0006803688B42FBD30246436868
:1039C00013448B4204D143684C682344436001464E
:1039D0000A464B6813440468A34211D10C4C036897
:1039E0002468A34208D04B680468646823444B6091
:1039F00003681B680B6005E0054B1B680B6001E06A
:103A000003680B60884200D0016010BDF81F0020E1
:103A1000002000202DE9F04104460D4616461F46C1
:103A20004FF0000865602461B5420CD8F01BA16915
:103A3000884202D34FF0010811E0211D09480068B7
:103A400000F0A0FD0BE0BE4204D2BD4202D34FF015
:103A5000010804E0211D0448006800F093FD404681
:103A6000BDE8F081E41F0020E01F002070B505468E
:103A700000F0A2FDA86B08B9012400E0002400F0CA
:103A8000ADFD204670BD70B5054600F095FDA86BF4
:103A9000E96B884201D1012400E0002400F09EFD82
:103AA000204670BD70B505460E460E480068C068D9
:103AB000C468201D00F03CFD94F8240000F00400D0
:103AC00028B132462946204600F0C4F805E094F8B3
:103AD000240000F0FE0084F824002046216A884774
:103AE00070BD0000E01F00207FB56EE00198002847
:103AF0006BDB039C606908B9012000E0002010B96D
:103B0000201D00F015FD684600F0D0F8054601982C
:103B10000A2858D2DFE800F05705072E3647060876
:103B20002F3700BF00BF00BF94F8240040F0010011
:103B300084F824000298A269811803462A46204688
:103B4000FFF768FFA8B194F8240000F0040038B132
:103B50000298A26981182A46204600F07BF805E009
:103B600094F8240000F0FE0084F824002046216A26
:103B7000884729E000BF94F8240000F0FE0084F894
:103B8000240021E000BF94F8240040F0010084F8F4
:103B900024000298A061A06941192B462A462046BC
:103BA000FFF738FF10E094F8240000F0020018B985
:103BB000204600F023FD05E094F8240000F0FE000C
:103BC00084F8240000E000BF00BF002201A90348E0
:103BD000006801F03FF8002888D17FBDE81F002071
:103BE000F8B505460C4600F069FE684600F05EF840
:103BF0000646009820BB44B9B54206D801F0D6FB72
:103C000031462846FFF74EFF1CE03CB10E480068E5
:103C1000006808B9012000E000200446A91B2246E4
:103C20000A48006800F01CFD01F0C0FB50B94FF0DD
:103C3000805007490860BFF34F8FBFF36F8F01E0DB
:103C400001F0B4FBF8BD0000E41F0020E81F0020D5
:103C500004ED00E070B504460D46164604E0A06988
:103C600005442046216A8847A06941192B463246FF
:103C70002046FFF7CFFE0028F1D170BD094800684B
:103C8000006808B9012000E0002020B14FF0FF30AB
:103C90000549086005E003480068C06800680249FB
:103CA00008607047A41F0020D01F002070B5044694
:103CB00001F05EF9054607480068854204D200F02D
:103CC0000BF80120206001E0002020600148056021
:103CD000284670BDF01F002070B508E00D48006850
:103CE000C06804684FF0FF312046FFF7DBFE09484B
:103CF0000068006808B9012000E000200028EDD02D
:103D000004480568044800680249086002480560E4
:103D100070BD0000E01F0020E41F002000BFBF2096
:103D200080F31188BFF34F8FBFF36F8F00BF00BFC9
:103D3000FEE708B500BF6846FFF728FD04462046A9
:103D40000099FFF74DFFFFF7CFFEF4E770B504468B
:103D500000F032FC94F9455010E0606A08B9012087
:103D600000E0002038B904F1240001F09BFA18B1FA
:103D700000F0C2FC00E003E0681E45B2002DECDC60
:103D800000BFFF2084F8450000F028FC00F014FC80
:103D900094F9445010E0206908B9012000E00020A7
:103DA00048B904F1100001F07DFA08B100F0A4FC5C
:103DB000681E45B200E001E0002DECDC00BFFF20F2
:103DC00084F8440000F00AFC70BD00002DE9F047C3
:103DD00005464FF0000900F071FD3048006808B951
:103DE000FFF7E8FC75B105F00700C0F11008C8F155
:103DF000FF30A84201D2012000E0002008B945446C
:103E000000E00025012000EBE570002841D0002DE6
:103E10003FD02348006885423BD8224E3046046894
:103E200001E0264624686068A84202D22068002883
:103E3000F7D11A48006884422BD0306800F1080995
:103E4000206830606068401B102807D967196068D7
:103E5000401B786065603846FFF7A8FD1049606830
:103E60000968081A0E490860084600680E49096882
:103E7000884203D20A4800680B490860606840F035
:103E8000004060600020206008480068401C07492E
:103E9000086001F08BFA4846BDE8F087002000205A
:103EA00004200020F81F0020082000200C20002003
:103EB0000648006830B10549096801F15800896D6C
:103EC000491C01600148006870470000A01F0020E5
:103ED000001F4FF080730360001F21F00103036097
:103EE000001F034B03601438026020387047000045
:103EF0001D3D00082DE9F84306460D4614460127EE
:103F00004FF000083748006818B1012C0DD0022C82
:103F10000BD03448009414223349036833A0FEF7D1
:103F200019FE4FF0FF30BDE8F8833EB1012C01D1FE
:103F3000062D03D1022C0BD1182D09D02B4623229C
:103F4000294937A00094FEF705FE4FF0FF30EAE75D
:103F500028214048FCF7A0F9B046022C1BD12A4684
:103F600041463C481030FCF77EF90021394A916007
:103F7000D160022011460870002301221948006810
:103F800000F090FD01282AD023462E22164932A0A7
:103F9000FEF7E0FD23E0012C1BD12A4641462D48C7
:103FA0001030FCF760F900212A4A9160D1600120AD
:103FB00011460870002301220A48006800F072FDD3
:103FC00001280CD023463722074933A0FEF7C2FD53
:103FD00005E023463B2204493EA0FEF7BBFD3846E0
:103FE000A1E700009C0C00204456000825732C20FB
:103FF0006174204C696E653A25642C2073656E737C
:104000006F725F73616D705F6D713A25702C2073F4
:10401000656E736F725F747970653A25640A00008B
:104020002025732C206174204C696E653A25642C20
:1040300020646174615F6C656E6774683A25642CF6
:104040002073656E736F725F747970653A25640AC8
:1040500000000000A04000202025732C2061742067
:104060004C696E653A25642C2073747261696E2008
:1040700073656E736F725F73616D705F6D712069D0
:10408000732066756C6C2073656E736F72547970F3
:10409000653A25640A0000002025732C20617420F5
:1040A0004C696E653A25642C206163636C207365EE
:1040B0006E736F725F73616D705F6D7120697320D5
:1040C00066756C6C2073656E736F72547970653AA7
:1040D00025640A002025732C206174204C696E65CC
:1040E0003A25642C2073656E736F725F7479706506
:1040F0003A2564206973206572726F0A000000001F
:1041000010B5002228214FF4617000F054FC0649DC
:10411000086038B98022054905A0FEF71BFD4FF065
:10412000FF3010BD0120FCE79C0C00205956000810
:1041300025732C206174204C696E653A25642C200F
:104140007851756575654372656174652073656E38
:10415000736F725F73616D705F6D7120697320653D
:1041600072720A002DE9FF4184B00646DDE90E5463
:10417000FFF716F80390B5F800020B3080B20290FA
:10418000BDF80870BDF80800801D1FFA80F80020F7
:1041900001901DB114B1D5F8000248B92346294653
:1041A00025A0D5F80022FEF7D5FC08B0BDE8F081C7
:1041B000FF202070BB206070BDF808000006000CD6
:1041C000BDF8081040EA11200290BDF80C0000066E
:1041D000000CBDF80C1040EA11200390BDF8080057
:1041E0006080BDF80C00A080A6710698C4F8070096
:1041F0000798C4F80B00294604F10F00D5F80022F7
:10420000FCF731F80022391D2046FEF723FE01900D
:10421000BDF804000006000CBDF8041040EA1120AF
:104220000190D5F800020F302044BDF80410018041
:10423000C4F8008200BFB8E7696E206275663A254F
:10424000702C20696E20646174614C656E3A25643F
:104250002C206F7574206275663A25700A00000084
:10426000074A1268074BB2FBF3F242430523B2FB45
:10427000F3F100E000BF0A1EA1F10101FAD170477D
:104280008C1F002040420F002DE9F04FADF21C4D75
:1042900000240025A1460020CDF81804CDF8140410
:1042A0000026CDF81004824600BF83464FF401710A
:1042B00083A8FBF7F1FF4FF4017102A8FBF7ECFFB5
:1042C00099488689CDF8106440689749098900EBC0
:1042D0004111D1E9007873E04FF0000B542E01DD5D
:1042E000542000E030468246002422E000251DE0F4
:1042F00004EB4401490001EB450183AA0A448A49C1
:1043000009890819C11700EBD1514912A0EB4121CD
:10431000854B5B6803EB4111083101EB45010988CE
:1043200011800BF102001FFA80FB6D1C032DDFDBF7
:10433000641C5445DADBCDF80CB402A883A93A46D4
:104340004346CDE900100120FFF70CFF829848B3E7
:104350008298C11700EBD161C1F347198298C11748
:1043600000EBD1614911A0EB4111C9B2CDF818148D
:1043700000240AE002A901EB44102021FDF7BAFC59
:104380004FF4FA70FEF72EFE641C4C45F2DB4FF43E
:10439000FA70FEF727FE02A901EB4910DDF81814A8
:1043A000FDF7A8FC6049098901EB0A00C11700EB81
:1043B000D1514912A0EB41215B4A1181A6EB0A06BB
:1043C000002E89DC584908684FF0FF3100F0C4FC2A
:1043D00055488189DDF81004081A53498881002363
:1043E0001A460868194600F05DFB4FF4017183A876
:1043F000FBF752FF4FF4017102A8FBF74DFF4B484A
:104400008689CDF8106440684849098900EB41105D
:10441000D0E900786EE04FF0000B142E01DD14207F
:1044200000E03046824600241FE000251AE03F48A5
:1044300000892044C82190FBF1F201FB12003B49A6
:10444000496801EB4010083004EB4401C90001EB5E
:10445000850183AA50F8250088500BF104001FFA4B
:1044600080FB6D1C062DE2DB641C5445DDDBCDF8C2
:104470000CB402A883A93A464346CDE900100220B5
:10448000FFF770FE829848B38298C11700EBD161A4
:10449000C1F347198298C11700EBD1614911A0EB14
:1044A0004111C9B2CDF8181400240AE002A901EBA9
:1044B00044102021FDF71EFC4FF4FA70FEF792FD28
:1044C000641C4C45F2DB4FF4FA70FEF78BFD02A939
:1044D00001EB4910DDF81814FDF70CFC13480089B6
:1044E0005044C82190FBF1F201FB12000F490881F2
:1044F000A6EB0A06002E8EDC0C4908684FF0FF314F
:1045000000F02AFC09488189DDF81004081A0749DF
:10451000888100231A460868194600F0C3FA0DF294
:104520001C4DBDE8F08F00006C4000207C40002056
:1045300001460A69D1E901309860D1E90103586068
:104540005068884201D18868506000200861106876
:10455000401E1060106870470148006870470000F6
:10456000B01F002000F1080141604FF0FF31816071
:1045700000F10801C1600161002101607047002164
:104580000161704710B502460B685C1C0CB91069DC
:1045900007E002F1080000E04068446824689C429B
:1045A000FAD944684C604C68A160886041600A6137
:1045B0001468641C146010BD00BFBF2080F3118814
:1045C000BFF34F8FBFF36F8F00BF03480068401CDD
:1045D0000149086070470000F41F00200648006889
:1045E000401E054908600846006820B9002080F395
:1045F000118800BF00BF7047F41F002070B5064649
:104600003546E6B1083D2C466068C00FB8B1206859
:10461000A8B9606820F00040606000F04FF90849D8
:10462000606809680844064908602046FFF7BEF93B
:1046300004480068401C0349086000F0B7FE70BDE4
:10464000042000201020002000204FF0E02108610D
:104650008861024848610720086170473F190100DE
:104660002DE9F04105460E4617462C46FFF7A4FFFC
:1046700094F94400401C10B9002084F8440094F9D7
:104680004500401C10B9002084F84500FFF7A6FF44
:10469000A06B28B93A46314604F1240000F042F8F4
:1046A0002046FFF753FBBDE8F081000070B50446DB
:1046B000002544B100F002F900212046FEF7E2FE99
:1046C00000F074FE05463DB94FF080500349086084
:1046D000BFF34F8FBFF36F8F70BD000004ED00E09C
:1046E0000349096801600349096841607047000097
:1046F000C81F0020B41F0020012001490860704736
:10470000C41F002070B505460C46054801681831E5
:104710002846FFF737FF01212046FEF7B3FE70BDA4
:10472000A01F002070B504460E46154660680F496C
:104730000968C8610D49826809680A620B490968FD
:104740001831826851600949096818318160074948
:1047500009688C622168491C21600DB14FF0FF3659
:1047600029463046FEF78EFE70BD0000A01F0020D7
:104770002DE9F04706460F4634464FF00109002E5A
:104780005AD0606DB84201D23D4600E0656DE06AE6
:10479000A84251D0A06D01284ED1D4F82C80E562FA
:1047A000A06900F0004010B9C5F10A00A06108EB53
:1047B0008801224A02EB81016069884201D101200F
:1047C00000E00020C0B3201DFFF7B2FE40B994F80E
:1047D0002C10012088401A4909688143184801605B
:1047E00094F82C10012088401549096808431449A1
:1047F0000860E16A01EB8101104A02EB810148681F
:10480000A0608268E260211D826851608160E16A77
:1048100001EB8101094A02EB81026261E16A01EB6D
:104820008101064A52F82110491CE26A02EB820219
:10483000024B43F8221000BFBDE8F0870C41002076
:10484000B81F00201CB5154800210B468022CDE979
:10485000001013A1144800F047FB0446012C02D1BC
:1048600000F06EFE0446012C14D100BFBF2080F37F
:104870001188BFF34F8FBFF36F8F00BF4FF0FF3032
:104880000A49086001200A490860002009490860B7
:1048900000F04CF8084800681CBD0000D41F002040
:1048A00049444C450000000025380008D01F002076
:1048B000BC1F0020B41F0020D81F00200248006841
:1048C000401C014908607047DC1F00201248006846
:1048D00018B10120114908601DE000200F4908604F
:1048E0000F480068B0FA80F0C0F11F0101EB8102AF
:1048F0000C4B03EB820042685268426000F10802F0
:104900004368934202D14268526842604268D2686A
:10491000054B1A6000BF7047DC1F0020C41F002039
:10492000B81F00200C410020A01F002010B50A482D
:10493000006840F47F00084908600846006840F0BD
:104940007F400860FFF780FE002004490860FBF705
:104950000DFC002010BD000020ED00E0F41F002041
:1049600010B500BFBF2080F31188BFF34F8FBFF396
:104970006F8F00BF00F002FB18B14FF08050044968
:10498000086000BF002080F3118800BF10BD000048
:1049900004ED00E02DE9F0410446012600272246FF
:1049A0000021012000F007F805462846FEF74EFFDB
:1049B0002846BDE8F0812DE9F84304460E46174627
:1049C0000025DCB1681EB0FBF4F0B04216D304FB46
:1049D00006F010F1490F11D804FB06F909F148005F
:1049E000FFF7F4F905464DB1A84608F148083B46E3
:1049F0004246314620460095FEF737FF2846BDE87F
:104A0000F88300002DE9F04105460E4601272C46AB
:104A1000002C41D0E06B00283ED0B91EE06BB1FB0A
:104A2000F0F0216C884237D3FFF7C6FDD4E90F12AE
:104A3000206801FB0200A0600020A0632068606085
:104A4000E06B401E226C216800FB0211E160FF2038
:104A500084F8440084F845009EB9206908B9012013
:104A600000E00020A8B904F1100000F01BFC80B1A8
:104A70004FF080500A490860BFF34F8FBFF36F8F2C
:104A800007E004F11000FFF76DFD04F12400FFF7CB
:104A900069FDFFF7A3FD00E000273846BDE8F0817F
:104AA00004ED00E02DE9FF4383B0074688461D462C
:104AB0004FF000093C4600BFFFF77EFDA06BE16BA5
:104AC000884201D3022D28D12A4641462046FEF7CE
:104AD0000AFE0646606A08B9012000E0002068B9B5
:104AE00004F1240000F0DEFB88B14FF08050324921
:104AF0000860BFF34F8FBFF36F8F08E03EB14FF0F8
:104B000080502D490860BFF34F8FBFF36F8FFFF7C1
:104B100065FD012007B0BDE8F083059818B9FFF7DF
:104B20005DFD0020F6E7B9F1000F04D101A8FFF701
:104B3000D7FD4FF00109FFF751FDFFF7BFFEFFF76B
:104B40003BFD94F94400401C10B9002084F8440057
:104B500094F94500401C10B9002084F84500FFF787
:104B60003DFD05A901A800F08FF9F0B92046FEF738
:104B70008AFFA0B104F110000599FFF7C3FD20469C
:104B8000FFF7E4F800F012FC002895D14FF08050B8
:104B900009490860BFF34F8FBFF36F8F8CE7204642
:104BA000FFF7D4F800F002FC86E72046FFF7CEF8C6
:104BB00000F0FCFB0020ADE704ED00E02DE9FF4F25
:104BC00081B0054616461F462C4600BFBF21EFF3B5
:104BD000118081F31188BFF34F8FBFF36F8F00BF38
:104BE0008146A06BE16B884201D3022F28D194F952
:104BF00045A0A06B00903A4620460299FEF773FD4F
:104C00000AF1010070B9606A08B9012000E00020D3
:104C100038B904F1240000F045FB10B10EB10120B9
:104C200030600AE0FFF798FC8346DA4504D20AF1C7
:104C3000010040B284F8450000BF4FF0010801E0D8
:104C40004FF0000800BF89F3118800BF404605B04F
:104C5000BDE8F08F2DE9F74183B005460F464FF0D0
:104C600000082C4600BFFFF7A7FCA66BF6B139463B
:104C70002046FEF723FD701EA063206908B90120BD
:104C800000E0002060B904F1100000F00BFB38B127
:104C90004FF080502F490860BFF34F8FBFF36F8FE5
:104CA000FFF79CFC012006B0BDE8F081059818B91B
:104CB000FFF794FC0020F6E7B8F1000F04D101A83B
:104CC000FFF70EFD4FF00108FFF788FCFFF7F6FD38
:104CD000FFF772FC94F94400401C10B9002084F8DE
:104CE000440094F94500401C10B9002084F84500A8
:104CF000FFF774FC05A901A800F0C6F8F0B920463A
:104D0000FEF7B4FEA0B104F124000599FFF7FAFC08
:104D10002046FFF71BF800F049FB0028A3D14FF015
:104D200080500C490860BFF34F8FBFF36F8F9AE735
:104D30002046FFF70BF800F039FB94E72046FFF719
:104D400005F800F033FB2046FEF790FE00288AD0DD
:104D50000020A8E704ED00E02DE9F34182B005460C
:104D600000272C46B84600BFFFF726FCA66BFEB115
:104D7000701EA063206810B9FFF79AF8A060206940
:104D800008B9012000E0002060B904F1100000F033
:104D900089FA38B14FF080503A490860BFF34F8F1D
:104DA000BFF36F8FFFF71AFC012004B0BDE8F0815C
:104DB000039818B9FFF712FC0020F6E71FB9684600
:104DC000FFF78EFC0127FFF709FCFFF777FDFFF7E0
:104DD000F3FB94F94400401C10B9002084F844000F
:104DE00094F94500401C10B9002084F84500FFF7F5
:104DF000F5FB03A9684600F047F840BB2046FEF7E4
:104E000035FEF0B1206838B9FFF7D6FBA06800F096
:104E1000D3F98046FFF7E2FB04F124000399FFF782
:104E200071FC2046FEF792FF00F0C0FA00289BD1EB
:104E30004FF0805013490860BFF34F8FBFF36F8F5F
:104E400092E72046FEF782FF00F0B0FA8CE720469A
:104E5000FEF77CFF00F0AAFA2046FEF707FE0028C6
:104E600082D0B8F1000F0BD0FFF7A6FB2046FEF76B
:104E700082FC06463146A068FFF77AFCFFF7AEFBDE
:104E8000002092E704ED00E070B506460C46FFF7FF
:104E900093FB134802687068131A2068401C08B915
:104EA000002519E00F4930680968884206D070680B
:104EB000904203D80125002020600DE02068984230
:104EC00007D92068C01A20603046FFF709FC00258A
:104ED00002E0002020600125FFF780FB284670BD1E
:104EE000B41F0020C81F00202DE9FF4F85B0804669
:104EF00089461746DDE912ABB800FEF767FF0646A4
:104F000076B16420FEF762FF04462CB1642120468E
:104F1000FBF7C2F9266304E03046FFF76FFB00E0C1
:104F200000247CB10020CDE900ABCDE902403A4637
:104F300049464046089BFEF7ABFC2046FEF702FBC5
:104F4000012501E04FF0FF35284609B0BDE8F08F9C
:104F50000549096809B9012005E00449096809B94A
:104F6000022000E000207047BC1F0020DC1F002052
:104F70000149086870470000B41F00202DE9F04186
:104F800000275748006800287ED156480068451C15
:104F9000544805608DB95448D0F8008053480068E3
:104FA000514908605148C0F8008051480068401CD1
:104FB0004F490860FEF762FE00BF4E480068854218
:104FC00076D300BF48480068006808B9012000E0B7
:104FD000002020B14FF0FF304649086067E04248AA
:104FE0000068C068C4686668B54202D2414806607D
:104FF0005DE06069D4E902128A60D4E902214A6066
:10500000211D42688A4201D1E1684160002262614B
:105010000168491E0160A06A98B1A06AD4E907122C
:105020008A60D4E907214A6004F1180142688A4283
:1050300001D1216A41600022A2620168491E01601B
:1050400000BF94F82C10012088402B4909680843C0
:1050500029490860E16A01EB8101284A02EB8101DC
:105060004868A0608268E260211D826851608160AA
:10507000E16A01EB8101214A02EB81026261E16A8E
:1050800001EB81011D4A00E022E052F82110491C89
:10509000E26A02EB8202194B43F822101849E06AD7
:1050A0000968C96A88428DD901278BE700E000BFF3
:1050B00013480068C06A00EB8000104951F82000D6
:1050C000012800D901270F48006800B1012704E03A
:1050D0000D480068401C0C4908603846BDE8F08166
:1050E000DC1F0020B41F0020A41F0020A81F0020E8
:1050F000C81F0020D01F0020B81F00200C41002036
:10510000A01F0020C41F0020C01F002070B505464E
:105110002C460026002D48D0A06D401EA065616D74
:10512000E06A884241D0A06D00283ED1201DFFF7E3
:10513000FFF940B994F82C10012088401C490968F7
:1051400081431B480160606DE062E06AC0F10A00C3
:10515000A06194F82C100120884015490968084383
:1051600013490860E16A01EB8101124A02EB8101F7
:105170004868A0608268E260211D82685160816099
:10518000E16A01EB81010B4A02EB81026261E16A93
:1051900001EB8101074A52F82110491CE26A02EB37
:1051A0008202044B43F822100126304670BD0000F5
:1051B000B81F00200C41002070B505462C46002683
:1051C000002D67D03449E06A0968C96A88425AD21A
:1051D000A06900F0004028B92F480068C06AC0F1FB
:1051E0000A00A061E16A01EB81012C4A02EB810116
:1051F0006069884201D1012000E00020E0B3201D59
:10520000FFF796F940B994F82C1001208840244902
:1052100009688143224801601F480068C06AE06253
:1052200094F82C10012088401D49096808431C4946
:105230000860E16A01EB8101184A02EB81014868CC
:10524000A0608268E260211D826851608160E16A2D
:1052500001EB8101114A02EB81026261E16A01EB1B
:1052600081010E4A52F82110491CE26A02EB8202C7
:105270000A4B43F8221004E0FFE707480068C06AC1
:10528000E062012606E00449606D0968C96A884247
:1052900000D20126304670BDA01F00200C41002026
:1052A000B81F002070B50346D868C168886AD1E984
:1052B0000745A560D1E90754656001F11804456808
:1052C000A54201D10C6A446000258D620468641E09
:1052D00004603048006800283DD14869D1E90245A2
:1052E000A560D1E9025465600C1D4568A54201D155
:1052F000CC68446000254D610468641E046091F828
:105300002C400120A040244C24682043224C2060E3
:10531000CC6A04EB8404214D05EB8404606888604A
:105320008568CD600C1D85686C608460CC6A04EB78
:1053300084041A4D05EB84054D61CC6A04EB8404AA
:10534000164D55F82440641CCD6A05EB8505134EB7
:1053500046F8254010E0124C6068C86185680D620F
:1053600001F1180485686C6084600D4D8D622C46D7
:105370002468641C2C6000BF0A4CC86A2468E46A74
:10538000A04204D901220120074C206000E0002245
:10539000104670BDDC1F0020B81F00200C4100200B
:1053A000FC410020A01F0020C41F002070B5002475
:1053B0000026FFF701F94B480068401E4949086084
:1053C0000846006800287DD147480068002879D049
:1053D0005BE04648C068C468A06AD4E907128A60E6
:1053E000D4E907214A6004F1180142688A4201D1D8
:1053F000216A41600022A2620168491E0160606961
:10540000D4E902128A60D4E902214A60211D42686F
:105410008A4201D1E1684160002262610168491E4F
:10542000016094F82C100120884031490968084334
:105430002F490860E16A01EB81012E4A02EB8101EC
:105440004868A0608268E260211D826851608160C6
:10545000E16A01EB8101274A02EB81026261E16AA4
:1054600001EB8101234A52F82110491CE26A02EB48
:105470008202204B43F822101F49E06A0968C96A7A
:10548000884202D301201D4908601848006808B905
:10549000012000E0002000289BD00CB1FEF7EEFBBD
:1054A0001748056865B100BFFFF768FD10B101201E
:1054B000124908606D1E002DF6D1002010490860C9
:1054C0000E4800E009E0006838B1012630070D49B8
:1054D0000860BFF34F8FBFF36F8FFFF77FF8304641
:1054E00070BD0000DC1F0020B01F0020FC41002028
:1054F000B81F00200C410020A01F0020C41F002066
:10550000C01F002004ED00E02DE9FC4705460E46D3
:1055100017469846DDF828902820FEF757FC0446E9
:1055200054B1002084F8240043463A4631462846C8
:10553000CDE90094FEF7EAF92046BDE8FC870000BB
:105540001CB50024FEF770F80848006858B10848F8
:10555000052100234FF49662CDE9001005A107480C
:10556000FFF7C2FC044620461CBD0000E81F0020D7
:10557000EC1F0020546D722053766300333D000809
:105580002DE9FE4305460C4616461F46DDF82880E9
:105590004FF000091448006810B30094019602957A
:1055A000062C15DAFFF7D4FC022808D10023424666
:1055B00069460D480068FFF775FA814610E0002340
:1055C0001A46694608480068FFF76CFA814607E00A
:1055D00000233A46694604480068FFF7EFFA81461F
:1055E0004846BDE8FE830000E81F00206D61696E3B
:1055F00000000000FFBB01020304010203040102DA
:105600000505FFEE4170705461736B506F6F6C4411
:1056100061746150726F63657373004253505F49E8
:105620006E697400524632344C30315F496E697491
:105630000045585449395F355F49525148616E649D
:105640006C65720073656E736F725F646174615F25
:10565000706B675F66696C6C0073656E736F725F09
:10566000646174615F70726F636573735F696E69A3
:105670007400000025732C206174204C696E653A1B
:1056800025642C2073656E736F7220747970653A8F
:1056900025642C20675F61636C44617461506F6F97
:1056A0006C20636F756E743A25642C20675F737489
:1056B0007261696E44617461506F6F6C20636F75C5
:1056C0006E743A25640A0000524632344C30312060
:1056D0006973206E6F742066696E6420212E2E2EF1
:1056E00000000000045700080000002018200000FF
:1056F00038070008345D000818200020483A0100EF
:10570000842B000812000100FF002110000042203D
:1057100000006330000084400000A5500000C66017
:105720000000E770000008810000299100004AA1F4
:1057300000006BB100008CC10000ADD10000CEE1D3
:105740000000EFF10000311200001002000073327F
:10575000000052220000B552000094420000F7728F
:105760000000D662000039930000188300007BB36C
:1057700000005AA30000BDD300009CC30000FFF34B
:105780000000DEE300006224000043340000200437
:10579000000001140000E6640000C7740000A44487
:1057A0000000855400006AA500004BB50000288564
:1057B000000009950000EEE50000CFF50000ACC543
:1057C00000008DD50000533600007226000011162F
:1057D000000030060000D7760000F66600009556FF
:1057E0000000B44600005BB700007AA700001997DC
:1057F000000038870000DFF70000FEE700009DD7BB
:105800000000BCC70000C44800FF000000E55800CD
:105810000086680000A778000040080000611800BA
:10582000000228000023380000CCC90000EDD90098
:10583000008EE90000AFF900004889000069990076
:10584000000AA900002BB90000F55A0000D44A0054
:1058500000B77A0000966A0000711A0000500A0032
:1058600000333A0000122A0000FDDB0000DCCB0010
:1058700000BFFB00009EEB0000799B0000588B00EE
:10588000003BBB00001AAB0000A66C0000877C0048
:1058900000E44C0000C55C0000222C0000033C002A
:1058A00000600C0000411C0000AEED00008FFD0008
:1058B00000ECCD0000CDDD00002AAD00000BBD00E6
:1058C00000688D0000499D0000977E0000B66E00C4
:1058D00000D55E0000F44E0000133E0000322E00A2
:1058E00000511E0000700E00009FFF0000BEEF0080
:1058F00000DDDF0000FCCF00001BBF00003AAF005E
:1059000000599F0000788F00001688DC16A9E41665
:10591000CADC16EBE4160CDC162DE4164EDC166F12
:10592000E41A801C11171B00C21C1AE3241A041C61
:105930001A25241A461C1A672416B9DC1698E41690
:10594000FBDC16DAE4163DDC161CE4167FDC165E82
:10595000E41AB11C1A90241AF31C1AD2241A351C0A
:105960001A14241A771C1A562416EADC16CBE416ED
:10597000A8DC1689E4166EDC164FE4162CDC160D36
:10598000E41AE21C1AC3241AA01C1A81241A661CE9
:105990001A47241A241C1A052416DBDC16FAE4160E
:1059A00099DC16B8E4165FDC167EE4161DDC163CA6
:1059B000E41AD31C1AF2241A911C1AB0241A571C88
:1059C0001A76241A151C1A3424164CDC166DE416AB
:1059D0000EDC162FE416C8DC16E9E4168ADC16ABDA
:1059E000E41A441C1A65241A061C1A27241AC01C1F
:1059F0001AE1241A821C1AA324167DDC165CE41614
:105A00003FDC161EE416F9DC16D8E416BBDC169A49
:105A1000E41A751C1A54241A371C1A16241AF11C7D
:105A20001AD0241AB31C1A9224162EDC160FE41670
:105A30006CDC164DE416AADC168BE416E8DC16C9FD
:105A4000E41A261C1A07241A641C1A45241AA21CDC
:105A50001A83241AE01C1AC124161FDC163EE41611
:105A60005DDC167CE4169BDC16BAE416D9DC16F86D
:105A7000E41A171C1A36241A551C1A74241A931C7B
:105A80001AB2241AD11C1AF0240D3E000415B600D7
:105A9000FF001112239B322446AD573665BF744870
:105AA0008CC19D5AAFD3BE6CCAE5DB7EE9F7F881A5
:105AB00010080193331A22A5562C47B7753E64C9C6
:105AC0009C408DDBBF52AEEDDA64CBFFF976E80285
:105AD000218B30100299132667AF763444BD554AA6
