:020000040800F2
:10000000584A0020E10100088D1900085319000822
:10001000891900081D160008AD2000080000000026
:10002000000000000000000000000000490100087E
:1000300021180008000000008D0100086D1E000856
:10004000FB010008FB010008FB010008FB010008A0
:10005000FB010008FB010008FB010008FB01000890
:10006000FB010008FB010008FB010008FB01000880
:10007000FB010008FB010008FB010008FB01000870
:10008000FB010008FB010008A9080008FB010008AB
:10009000FB010008FB010008FB010008FB01000850
:1000A000FB010008FB010008FB010008FB01000840
:1000B000FB010008FB010008FB010008FB01000830
:1000C000FB010008FB010008FB010008FB01000820
:1000D000FB010008FB010008FB010008FB01000810
:1000E000FB010008FB010008FB010008FB01000800
:1000F000FB010008FB010008FB010008FB010008F0
:10010000FB010008FB010008FB010008FB010008DF
:10011000FB010008FB010008FB010008FB010008CF
:10012000FB010008FB010008FB010008FB010008BF
:10013000DFF810D000F0A6FB00480047A129000816
:10014000AFF30080584A0020224B19680868B0E8D5
:10015000F00F80F30988BFF36F8F4FF0000080F33A
:1001600011884EF00D0E7047000000000648006830
:10017000006880F3088862B661B6BFF34F8FBFF3A3
:100180006F8F00DF00BF00BF08ED00E0EFF30980D4
:10019000BFF36F8F0F4B1A6820E9F00F106008B59E
:1001A0004FF0BF0080F31188BFF34F8FBFF36F8F05
:1001B00003F076F94FF0000080F31188BDE80840A5
:1001C00019680868B0E8F00F80F30988BFF36F8FF3
:1001D000704700BF34000020EFF305807047000037
:1001E0000648804706480047FEE7FEE7FEE7FEE7D1
:1001F000FEE7FEE7FEE7FEE7FEE7FEE7751E000806
:10020000310100082DE9F05F0546002092469B462B
:1002100088460646814640241BE02846414647461C
:10022000224600F0DAF953465A46C01A914110D3DB
:1002300011461846224600F0C1F92D1A67EB010855
:100240004F4622460120002100F0B8F917EB0009C3
:100250004E41201EA4F10104DFDC484631462A4607
:100260004346BDE8F09F40EA01039B0703D009E045
:1002700008C9121F08C0042AFAD203E011F8013B92
:1002800000F8013B521EF9D27047D2B201E000F8EB
:10029000012B491EFBD270470022F6E710B513462A
:1002A0000A4604461946FFF7F0FF204610BD2DE927
:1002B000FE4F804681EA0300C00F0C46009021F0FB
:1002C000004123F00045B8EB0200A94105D24046A9
:1002D000214690461C460B46024623F00040104340
:1002E00047D0270DC7F30A00C3F30A510290401A02
:1002F000019040286BDAC3F3130040F4801B009890
:10030000924620B10023D2EB030A63EB0B0B01985A
:100310005946C0F14002504600F050F906460D46DD
:1003200050465946019A00F068F910EB0800614107
:10033000002487EA115284EAE7731A4340D0009AF6
:1003400062B3019A012A4FEA075215DC001B61EBE8
:1003500002014FF0004202EA0752CDE90042001CC0
:1003600041F5801132462B4600F09FF903B0BDE8FD
:10037000F08F40462146F9E7001B61EB0201001CAB
:1003800041F5801300185B412018A2F5001747EBD8
:10039000030140EAD570B6196D4111E06D084FEACE
:1003A000360645EAC0754FEA0752001B61EB0201B1
:1003B000001C41F5801149084FEA300000195141F5
:1003C00032462B4603B0BDE8F04F00F05FB900980D
:1003D000012240000023D0EB020263EBE07300989F
:1003E00021464FEAE074B8EB000061EB0401E9E755
:1003F00083F000435BE781F0004158E72DE9FE4FB1
:1004000081EA030404F0004421F0004100944FF01D
:10041000000B23F0004350EA01045ED052EA0304CB
:100420005BD0C3F30A54C1F30A552C44A4F2F3344D
:100430000194A0FB0254C1F3130141F48011C3F3F2
:10044000130343F4801301FB024400FB034E840AB0
:10045000970A44EA815447EA8357A4FB0768029548
:100460008D0A05FB07854FEA932C04FB0C542705E6
:10047000029D4FEA065847EA1637B5EB08056EEBC2
:10048000070C870E920E47EA811742EA8312A7FBF8
:100490000201B6EB0B0164EB00042B0D43EA0C33B5
:1004A0005E1844EB1C50DA465146E7FB0201C5F3E7
:1004B00013044FEA0B3343EA14534FEA0432019C0E
:1004C00043EA0603A4F10C040294009CCDE900B4B5
:1004D00000F0EBF803B0BDE8F08F00200146F9E72B
:1004E0000EB5C10F80EAE0700844CA07002140F24F
:1004F00033438DE80E000A460B4600F0D6F803B0F1
:1005000000BD0EB540F2334102910021CDE900114A
:100510000A460B4600F0C9F803B000BD00F00042E7
:1005200030F000400AD0C10D01F56071C0F3160033
:1005300042EA0151C20840071143704700200146BA
:10054000704701F0004330B421F0004150EA01024D
:1005500006D00A0DA2F56072C1F31301002A02DC75
:1005600030BC00207047440F44EAC104C100E018C9
:1005700030BC00EBC25000F052B80000002801DB94
:10058000C0F10040002901DBC1F100418842704701
:1005900030B50B46014600202022012409E021FA53
:1005A00002F59D4205D303FA02F5491B04FA02F550
:1005B0002844151EA2F10102F1DC30BD202A04DB23
:1005C000203A00FA02F1002070479140C2F1200366
:1005D00020FA03F3194390407047202A04DB203AA5
:1005E00021FA02F00021704721FA02F3D040C2F153
:1005F00020029140084319467047202A06DBCB179A
:10060000203A41FA02F043EAE07306E041FA02F3CD
:10061000D040C2F12002914008431946704700299A
:10062000A8BF7047401C490008BF20F00100704778
:1006300010B4B0FA80FC00FA0CF050EA010404BFD8
:1006400010BC704749B1CCF1200421FA04F411FA2E
:100650000CF118BF012121430843A3EB0C01CB1D72
:100660004FEA00614FEA102042BF002010BC7047E3
:1006700000EBC35010440029A4BF10BC7047401CBD
:10068000490008BF20F0010010BC704710B5141ECF
:1006900073F1000408DA401C41F1000192185B413B
:1006A0001A4301D120F0010010BD2DE9F04D924612
:1006B0009B4611B1B1FA81F202E0B0FA80F2203229
:1006C0009046FFF77BFF04460F4640EA0A0041EAE6
:1006D0000B0153465A46084313D0114653EA010012
:1006E00019D0C8F140025046FFF777FF05460E4685
:1006F000504659464246FFF761FF084305D00120A6
:1007000004E020463946BDE8F08D0020054346EA66
:10071000E0762C4337430A986305E40AA0EB08000F
:100720000022FD0A44EA47540A3002D5002001465F
:10073000E9E7010510196941DDE90845001969413A
:10074000BDE8F04DA2E72DE9F04D81EA030404F085
:10075000004B21F0004514464FF0000A23F0004101
:1007600050EA050220D054EA01021DD0C5F30A5711
:100770000246C5F31303C1F31300C1F30A5640F454
:10078000801543F48013A7EB0608101BD64608F229
:10079000FD3873EB050002D308F1010801E092185F
:1007A0005B41B8F1000F03DA00200146BDE8F08D8F
:1007B00000204FF48011064684460EE0171B73EBB1
:1007C000050705D3121B63EB050306434CEA010C36
:1007D00049084FEA300092185B4150EA0107EDD119
:1007E00052EA030012D082EA040083EA05010843BA
:1007F00005D0101BAB4106D20122002306E00022E7
:100800004FF0004302E06FF0010253101AEB0600B4
:100810004CEB085110EB0A0041EB0B01BDE8F04D29
:10082000FFF734BFC1F30A52C1F3130140F2FF33A3
:1008300041F480119A4202DA00200146704740F2EA
:1008400033439A42A2F2334202DC5242FFF7C5BE62
:10085000FFF7B4BE30B5041E71F1000404DB4FF0A5
:100860000044404264EB0101141E73F1000405DBF7
:100870001C464FF00043524263EB0403994208BF09
:10088000904230BD064C074D06E0E06840F00103A1
:1008900094E8070098471034AC42F6D3FFF74CFCBD
:1008A000BC3C0008DC3C000810B5034800F056F8DA
:1008B0000249088010BD0000002801400E00002001
:1008C00021B1826842F00102826003E0826822F076
:1008D00001028260704721B1826842F480728260B6
:1008E00003E0826822F480728260704710B504468B
:1008F0001248844208D10121401501F007F9002176
:10090000601501F003F917E00D48844208D1012178
:10091000001501F0FBF80021201501F0F7F80BE0BD
:100920000848844208D10121C80301F0EFF80021F2
:100930004FF4004001F0EAF810BD0000002401402F
:1009400000280140003C0140014600208A6802F076
:1009500004020AB1012000E0002070470146C86C83
:1009600080B27047014600208A6802F008020AB18E
:10097000012000E00020704730B50246002000232F
:1009800050680F4C20400D790C6844EA0524204340
:10099000506090680B4C2040D1E902542C434D79B3
:1009A00044EA450420439060D06A20F470000C7C37
:1009B000641EE4B2234340EA0350D06230BD00001D
:1009C000FFFEF0FFFDF7F1FF00B587B001214FF406
:1009D000077001F08BF84FF4004001F05BF8FF2046
:1009E000ADF8040000208DF8070001A9404800F090
:1009F00018FF2220ADF8040000208DF8070001A99F
:100A00003C4800F00EFF00F017FE3B48FFF76EFF7A
:100A10000020029001208DF80C008DF80D004FF49D
:100A200060200490002005900A208DF8180002A98B
:100A30003148FFF7A1FF0723012200212E4800F0D3
:100A40005DF80723022201212B4800F057F8072305
:100A500003220221284800F051F807230422032131
:100A6000254800F04BF8072305220421224800F016
:100A700045F80723062205211F4800F03FF8072309
:100A80001A4606211C4800F039F8072308221946A7
:100A9000194800F033F8072309220821164800F00E
:100AA0002DF807230A220921134800F027F8012115
:100AB0001148FFF710FF01210F48FFF701FF0E4813
:100AC00000F078F800BF0C48FFF74CFF0028FAD17F
:100AD000094800F07FF800BF0748FFF735FF0028FE
:100AE000FAD10121044800F06AF807B000BD000007
:100AF000000801400010014000240140F0B5044608
:100B00000D4600200021092D11DDE068A5F10A063F
:100B100006EB4607072606FA07F18843A5F10A0601
:100B200006EB460603FA06F10843E0600CE0206994
:100B300005EB4507072606FA07F1884305EB45064E
:100B400003FA06F108432061072A0FDA606B561E8C
:100B500006EB86071F2606FA07F18843561E06EBAA
:100B6000860605FA06F10843606322E00D2A0FDAD3
:100B7000206BD61F06EB86071F2606FA07F188436F
:100B8000D61F06EB860605FA06F10843206310E03F
:100B9000E06AA2F10D0606EB86071F2606FA07F1AA
:100BA0008843A2F10D0606EB860605FA06F1084316
:100BB000E062F0BD816841F008018160704721B1B9
:100BC000826842F4A002826003E0826822F4A002FC
:100BD00082607047816841F00401816070470000C5
:100BE00070B50025002400264FF48051144800F011
:100BF000ACFE00BF4FF48061114800F09DFE00285C
:100C0000F8D1FC2001F0A0F8002001F09DF80120AF
:100C100001F09AF8FF2001F097F844EA0044FF2021
:100C200001F092F844EA0024FF2001F08DF804431B
:100C30004FF48051024800F08AFE204670BD00004B
:100C4000000C014070B504460D464FF480510E482B
:100C500000F07BFE00BF4FF480610B4800F06CFE9B
:100C60000028F8D104F00F0141F0500001F06CF8B9
:100C7000002001F069F8284601F066F84FF4805131
:100C8000014800F064FE70BD000C014010B5042165
:100C90000020FFF7D7FF00210220FFF7D3FFA1219B
:100CA0000320FFF7CFFF00210420FFF7CBFF10BD8B
:100CB00008B50121082000F019FF4FF40060ADF8DD
:100CC000000010208DF8030003208DF80200694613
:100CD0000C4800F0A6FD4FF400610A4800F035FE14
:100CE0004FF48060ADF8000048208DF80300032029
:100CF0008DF802006946034800F093FD00F098FF6C
:100D000008BD0000000C014010B5FFF7D1FF4FF403
:100D10000061034800F01BFEFFF7B8FF10BD0000A4
:100D2000000C014010B5044621460120FFF78AFF60
:100D3000FFF756FF10BD0000B6B00020349033908E
:100D400000BF202122A8FFF7A7FA24212AA8FFF735
:100D5000A3FA58E3002000F053FF1D90FFF7D1FBEA
:100D60004FF06632FE4BCDE91E01FFF747FBCDE9A0
:100D70002001FFF7E6FB33903398FFF7CFFB4FF0EE
:100D80006632F84BCDE91801FFF738FBCDE91C01BD
:100D90003398FFF7C3FBCDE918013398FFF7BEFB8B
:100DA000F14AF24BCDE91401FFF728FBCDE916011A
:100DB000DDE91823FFF722FBCDE91A01DDE91C2349
:100DC000FFF775FA4FF03332E94BCDE91E01FFF71B
:100DD0006EFACDE92001FFF7B4FB2A90012000F064
:100DE0000FFF1D90FFF78DFB4FF06632DC4BCDE916
:100DF0001E01FFF703FBCDE92001FFF7A2FB3390B3
:100E00003398FFF78BFB4FF03332DA4BCDE9180103
:100E1000FFF7F4FACDE91C013398FFF77FFBCDE92A
:100E200018013398FFF77AFBD34AD44BCDE914016C
:100E3000FFF7E4FACDE91601DDE91823FFF7DEFA42
:100E4000CDE91A01DDE91C23FFF731FA0022CC4B72
:100E5000CDE91E01FFF7CCFACDE92001FFF771FBC8
:100E60002B90022000F0CCFE1D90FFF74AFB4FF0C4
:100E70006632BB4BCDE91E01FFF7C0FACDE9200178
:100E8000FFF75FFB33903398FFF748FBBD4ABE4B3B
:100E9000CDE91801FFF7B2FACDE91C013398FFF74D
:100EA0003DFBCDE918013398FFF738FBB24AB74B49
:100EB000CDE91401FFF7A2FACDE91601DDE9182307
:100EC000FFF79CFACDE91A01DDE91C23FFF7EFF9E2
:100ED000AF4AB04BCDE91E01FFF78AFACDE92001F8
:100EE000FFF72FFB2C90032000F08AFE1D90FFF7E8
:100EF00008FB4FF066329A4BCDE91E01FFF77EFAF0
:100F0000CDE92001FFF71DFB33903398FFF706FB77
:100F10009C4A9D4BCDE91801FFF770FACDE91C0101
:100F20003398FFF7FBFACDE918013398FFF7F6FA8B
:100F30004FF06632984BCDE91401FFF75FFACDE927
:100F40001601DDE91823FFF759FACDE91A01DDE9A9
:100F50001C23FFF7ACF98E4A8E4BCDE91E01FFF73B
:100F600047FACDE92001FFF7ECFA2D90042000F0BC
:100F700047FE1D90FFF7C5FA4FF06632784BCDE97A
:100F80001E01FFF73BFACDE92001FFF7DAFA3390B3
:100F90003398FFF7C3FA814A814BCDE91801FFF777
:100FA0002DFACDE91C013398FFF7B8FACDE9180105
:100FB0003398FFF7B3FA7B4A7B4BCDE91401FFF777
:100FC0001DFACDE91601DDE91823FFF717FACDE97F
:100FD0001A01DDE91C23FFF76AF9744A744BCDE965
:100FE0001E01FFF705FACDE92001FFF7AAFA2E90BE
:100FF000052000F005FE1D90FFF783FA4FF06632E2
:10100000574BCDE91E01FFF7F9F9CDE92001FFF7B4
:1010100098FA33903398FFF781FA664A664BCDE928
:101020001801FFF7EBF9CDE91C013398FFF776FAC9
:10103000CDE918013398FFF771FA604A604BCDE9AA
:101040001401FFF7DBF9CDE91601DDE91823FFF7FD
:10105000D5F9CDE91A01DDE91C23FFF728F94F4A3C
:10106000584BCDE91E01FFF7C3F9CDE92001FFF789
:1010700068FA2F90062000F0C3FD1D90FFF741FA9B
:101080004FF06632364BCDE91E01FFF7B7F9CDE9D7
:101090002001FFF756FA33903398FFF73FFA364AAC
:1010A000494BCDE91801FFF7A9F9CDE91C013398A7
:1010B000FFF734FACDE918013398FFF72FFA434AC6
:1010C000434BCDE91401FFF799F9CDE91601DDE9AC
:1010D0001823FFF793F9CDE91A01DDE91C23FFF787
:1010E000E6F8214A52423B4BCDE91E01FFF780F959
:1010F000CDE92001FFF725FA3090072000F080FDB0
:101100001D90FFF7FEF94FF06632154BCDE91E0139
:10111000FFF774F9CDE92001FFF713FA3390339804
:10112000FFF7FCF9144A284BCDE91801FFF766F9DF
:10113000CDE91C013398FFF7F1F9CDE91801339897
:10114000FFF7ECF9214A224BCDE91401FFF756F9DC
:10115000CDE91601DDE91823FFF750F93CE0000066
:1011600066664A3F66464E40C3F5285C8F82414022
:1011700033B3324033335740713D0AD7A3B03A40BE
:10118000000024407B14AE47E17A5440A3F03D4078
:10119000B1506B9A779CDA3F66E63D40E17A14AE37
:1011A00047915440F6285C8FC2353F4091ED7C3F1B
:1011B000355E1140CDCCCCCCCCAC554014AE47E123
:1011C0007AD43D4047E12540A3C057409A99999968
:1011D00099D93A40707D3240CDE91A01DDE91C23EE
:1011E000FFF765F8884A894BCDE91E01FFF700F942
:1011F000CDE92001FFF7A5F93190082000F000FDAE
:101200001D90FFF77EF94FF06632814BCDE91E014C
:10121000FFF7F4F8CDE92001FFF793F93390339805
:10122000FFF77CF97B4A7C4BCDE91801FFF7E6F824
:10123000CDE91C013398FFF771F9CDE91801339816
:10124000FFF76CF9754A764BCDE91401FFF7D6F834
:10125000CDE91601DDE91823FFF7D0F8CDE91A0131
:10126000DDE91C23FFF723F8674A684BCDE91E012F
:10127000FFF7BEF8CDE92001FFF763F932902A9815
:1012800068492190FFF77AF902D83498401C3490CD
:101290002B9864492190FFF771F902D83498401CCB
:1012A00034902C985F492190FFF768F902D8349860
:1012B000401C34902D985B492190FFF75FF902D8CC
:1012C0003498401C34902E9856492190FFF756F9D7
:1012D00002D83498401C34902F9852492190FFF73F
:1012E0004DF902D83498401C349030984D492190E3
:1012F000FFF744F902D83498401C3490319849499A
:101300002190FFF73BF902D83498401C3490329872
:1013100044492190FFF732F902D83498401C3490A8
:101320003498012807DB012000F0A4FB3EA034998B
:1013300000F0BEFE06E0002000F09CFB46A03499C1
:1013400000F0B6FE0020349032980F90FFF7E6F8D8
:10135000CDE9200131980F90FFF7E0F8CDE91E01AB
:1013600030980F90FFF7DAF8CDE91C012F980F9015
:10137000FFF7D4F8CDE91A012E980F90FFF7CEF8B9
:10138000CDE918012D980F90FFF7C8F8CDE91601A7
:101390002C980F90FFF7C2F8CDE914012B980F900D
:1013A000FFF7BCF8CDE912012A980F90FFF7B6F8C5
:1013B000CDE91001DDE92001CDE90E01DDE91E01D5
:1013C000CDE90C01DDE91C01CDE90A01DDE91A01D5
:1013D000CDE90801DDE91801CDE90601DDE91601D5
:1013E000CDE90401DDE91401CDE90201DDE91201D5
:1013F000CDE900012448DDE9102300F059FE4FF447
:10140000FA7001F0D3FFA5E43D0AD7A3707D324006
:1014100066664A3F713D0AD7A3C057409A99999989
:1014200099D93A400000F042506F7765724D6F6471
:10143000656C655369676E616C5472696767657244
:101440002074727565212074656D704D6178436EEE
:1014500074EFBC9A25640A00506F7765724D6F6413
:10146000656C5369676E616C547269676765722059
:1014700066616C7365212074656D704D6178436E93
:10148000743A25640A0000001C3C00088AB04FF042
:101490000009CA46202102A8FEF7FEFE4AE04FF0EE
:1014A000000940E009F0070018B109F00700401EEC
:1014B00000E0072000F0FF0A082141EA0911C8B244
:1014C000FFF730FC0446BAF1000F24D104F4000009
:1014D00020B1E443C4F31604641C64422046FEF7C2
:1014E000FFFF07460022144BFEF788FF05460E4615
:1014F000124A134B28463146FEF780FF0746114A31
:10150000114BFEF775FFCDE90001FFF71AF802A9AC
:1015100041F82A0003E0002002A941F82A0009F15D
:10152000010000F0FF09B9F1080FBBDB4FF4FA70BE
:1015300001F03CFFB3E70000D012E33F9E06B1D8B4
:10154000CB5B3A3FAE47E17A142E434002E00120E4
:1015500001F02CFFFBE70000B8B00020259024210B
:101560001CA8FEF799FE202114A8FEF795FE4C2139
:1015700001A8FEF791FE40E02048006801F08EFED1
:1015800020B11F48006801F089FE18B9012001F060
:101590000DFF32E04FF0FF321CA91848006802F03E
:1015A00059F84FF0FF3214A91548006802F052F8BC
:1015B000FF208DF89800AA208DF8990044202590EE
:1015C000BDF89400ADF89A0024221CA927A8FEF7C4
:1015D0004AFE202214A92FA8FEF745FEAA208DF866
:1015E000DC00EE208DF8DD00462126A800F046FD47
:1015F0004FF4C87001F0DAFE00BFBDE70000002024
:101600000400002010B500F0A7F900F0C1F9FFF7C1
:101610007BFBFFF7D9F900F05DFC10BD00BFFEE7D2
:1016200021B1026842F00102026004E002684FF654
:10163000FE731A400260704710B50121084600F0A1
:1016400035FA114800F028F810481149086011488F
:101650004860002088606420C86000200861802005
:101660004861400088618000C86120200862000253
:10167000486200208862044800F0B4F80121024862
:10168000FFF7CEFF10BD0000080002404C240140CF
:10169000600100209800002001684FF6FE721140A2
:1016A00001600021016041608160C1604B49884256
:1016B00008D14A490839496841F00F01474A083AB8
:1016C00051608AE045491431884208D143490839BC
:1016D000496841F0F001414A083A51607DE03F49D4
:1016E0002831884208D13D490839496841F4706180
:1016F0003A4A083A516070E038493C31884208D192
:1017000036490839496841F47041344A083A516011
:1017100063E032495031884208D13049083949687C
:1017200041F470212D4A083A516056E02B4964314A
:10173000884208D129490839496841F47001274A8B
:10174000083A516049E025497831884208D1234957
:101750000839496841F07061204A083A51603CE01C
:101760001F49884206D1011F096841F00F01021F7D
:10177000116032E01A491431884208D11849091F12
:10178000096841F0F001164A121F116025E0144962
:101790002831884208D11249091F096841F4706153
:1017A0000F4A121F116018E00D493C31884208D1E0
:1017B0000B49091F096841F47041094A121F116061
:1017C0000BE007495031884207D10549091F0968D4
:1017D00041F47021024A121F116070470800024054
:1017E0000804024010B50022026847F6F0739A43DD
:1017F0000C6A8B6823430C6923434C6923438C692F
:101800002343CC6923434C6A23438C6A23431A4302
:101810000260CB6843600B6883604B68C36010BD97
:1018200070472DE9F04102460025002600200023E4
:101830000024002791F803C00CF00F0591F803C0B5
:101840000CF0100CBCF1000F03D091F802C04CEA70
:10185000050591F800C0BCF1000F31D014680020DC
:101860002BE04FF0010C0CFA00F3B1F800C00CEAC9
:1018700003069E4220D183004FF00F0C0CFA03F7B1
:10188000BC4305FA03FC4CEA040491F803C0BCF124
:10189000280F06D14FF0010C0CFA00FCC2F814C05E
:1018A0000AE091F803C0BCF1480F05D14FF0010CDC
:1018B0000CFA00FCC2F810C0401C0828D1D31460F8
:1018C000B1F800C0BCF1FF0F34DD546800202EE0F9
:1018D00000F1080C4FF0010808FA0CF3B1F800C051
:1018E0000CEA03069E4221D183004FF00F0C0CFA44
:1018F00003F7BC4305FA03FC4CEA040491F803C067
:10190000BCF1280F05D100F1080C08FA0CF8C2F858
:10191000148091F803C0BCF1480F07D100F1080C06
:101920004FF0010808FA0CF8C2F81080401C082893
:10193000CED35460BDE8F0810246002093680B408E
:101940000BB1012000E00020704741617047016148
:10195000704700BFFEE7000010B50121082000F02D
:10196000C5F84020064908801020C8700320887000
:101970000448FFF756FF002000F07CF810BD00007F
:1019800014000020000C014000BFFEE7704700007B
:1019900010B500214FF0006000F062F84FF4A06035
:1019A00000F054F826200C490870012048700020EF
:1019B00088700120C870084600F010F8172006490A
:1019C000087002204870002088700120C870084606
:1019D00000F004F810BD00001000002070B50021D8
:1019E00000230F22C47804B3154C246804F4E06487
:1019F000C4F5E064210AC1F10403CA40447804FA42
:101A000003F184781440214309010E4C0678A15556
:101A1000047804F01F050124AC4005786D11AD0079
:101A200005F1E025C5F8004109E0047804F01F0540
:101A30000124AC40044D0678761145F8264070BD6F
:101A40000CED00E000E400E080E100E00249014329
:101A5000024A1160704700000000FA050CED00E03A
:101A6000024A0A400243024B1A60704780FFFF1F80
:101A700008ED00E010B5044624B140210448FFF70A
:101A800066FF03E040210248FFF75FFF10BD000042
:101A9000000C014001460020034A506820F44040F9
:101AA00008435060704700000010024029B1064A08
:101AB00052690243044B5A6104E0034A526982436B
:101AC000014B5A61704700000010024029B1064ADC
:101AD000D2690243044BDA6104E0034AD2698243CB
:101AE000014BDA61704700000010024029B1064A3C
:101AF00092690243044B9A6104E0034A926982436B
:101B0000014B9A61704700000010024029B1064A5B
:101B1000D2680243044BDA6004E0034AD26882438D
:101B2000014BDA60704700000010024030B5002120
:101B30000022002400232D4D6D6805F00C0121B119
:101B4000042905D0082923D105E0294D056022E0AC
:101B5000274D05601FE0254D6D6805F47012234D7B
:101B60006D6805F48034022505EB92421CB9214DC5
:101B7000554305600BE01D4D6D6805F400351DB142
:101B80001C4D5543056002E0194D5543056002E0C8
:101B9000174D056000BF00BF144D6D6805F0F001E2
:101BA0000909154D6B5C0568DD4045600F4D6D689A
:101BB00005F4E061090A104D6B5C4568DD40856005
:101BC0000A4D6D6805F46051C90A0B4D6B5C4568A0
:101BD000DD40C560054D6D6805F44041890B074D3A
:101BE0006B5CC568B5FBF3F5056130BD00100240C4
:101BF00000127A0000093D00200000203000002083
:101C000010B502460023002109E001EB8100074CDA
:101C100004EB800030F812000344481CC1B20A29CA
:101C2000F3DB0A20B3FBF0F080B210BD9800002077
:101C300000B587B001210820FFF758FF0121880374
:101C4000FFF744FF4FF46040ADF8040003208DF827
:101C5000060018208DF8070001A91D48FFF7E1FDD7
:101C60004FF48050ADF8040003208DF806001020DA
:101C70008DF8070001A91648FFF7D3FD4FF48051F6
:101C80001348FFF764FE0020ADF808004FF482709F
:101C9000ADF80A000020ADF80C00ADF80E000120F0
:101CA000ADF810004002ADF812003820ADF8140075
:101CB0000020ADF816000720ADF8180002A905486D
:101CC00000F024F80121034800F006F807B000BD39
:101CD000000C01400038004021B1028842F040026F
:101CE000028004E002884FF6BF731A4002807047FA
:101CF0000246002013890B400BB1012000E00020B8
:101D000070470146888970478181704710B500226D
:101D1000028802F441520B884C8823438C88234369
:101D2000CC8823430C8923434C8923438C89234348
:101D3000CC8923431A430280838B4FF2FF742340E4
:101D400083830B8A038210BD70B50446002500BF53
:101D500002210B48FFF7CCFF0028F9D021460848A4
:101D6000FFF7D2FF00BF01210548FFF7C1FF0028A0
:101D7000F9D00348FFF7C5FFC5B2284670BD000083
:101D80000038004010B500F001F810BD0CB500207F
:101D9000019000903348006840F480303149086079
:101DA00000BF3048006800F4003000900198401CEB
:101DB0000190009818B90198B0F5A06FF1D12948A9
:101DC000006800F4003010B10120009001E0002014
:101DD00000900098012843D12348006840F010008B
:101DE000214908600846006820F00700086008469E
:101DF000006840F0020008601A48406819494860CD
:101E00000846406848600846406840F48060486082
:101E10000846406820F47C1048600846406840F45A
:101E2000E81048600846006840F08070086000BF15
:101E30000C48006800F000700028F9D0094840689C
:101E400020F00300074948600846406840F002005F
:101E5000486000BF0348406800F00C000828F9D132
:101E60000CBD0000001002400020024010B501F03F
:101E700061FB10BD10B51348006840F00100114926
:101E8000086008464068104908400E494860084606
:101E900000680E4908400B4908600846006820F4B5
:101EA000802008600846406820F4FE0048604FF437
:101EB0001F008860FFF766FF4FF00060044908606C
:101EC00010BD0000001002400000FFF8FFFFF6FE0A
:101ED00008ED00E010B500F0C3F800F02BF800F0BA
:101EE0000DF810BD21B1828942F40052828104E0D4
:101EF00082894DF6FF731A40828170471FB54FF4F7
:101F0000E13000900020ADF80400ADF80600ADF817
:101F10000800ADF80C000C20ADF80A006946044832
:101F200000F032F801210248FFF7DCFF1FBD00007E
:101F30000038014008B518208DF803004FF40070F8
:101F4000ADF8000003208DF8020069460648FFF74F
:101F500068FC04208DF803000002ADF8000069461B
:101F60000148FFF75EFC08BD000801400246002062
:101F7000B1F5007F00D100BF13880B400BB10120E9
:101F800000E00020704700002DE9F04786B00546CC
:101F90000E460024A24600BFA1460027B08900B12A
:101FA00000BF2F462C8A4CF6FF700440F088044393
:101FB0002C82AC894EF6F3100440B0883189084376
:101FC000718908430443AC81AC8A4FF6FF4004405A
:101FD000B0890443AC8201A8FFF7A8FD1F488742DF
:101FE00002D1DDF810A001E0DDF80CA0A88900F412
:101FF000004040B10AEBCA0000EB0A10316849000A
:10200000B0FBF1F807E00AEBCA0000EB0A103168F8
:102010008900B0FBF1F86420B8FBF0F0040120095E
:10202000642101FB1089A88900F4004040B13220EE
:1020300000EBC900B0FBF1F000F00700044308E03A
:10204000322000EB09106421B0FBF1F000F00F002A
:1020500004432C8106B0BDE8F08700000038014041
:1020600010B501210520FFF741FD01218803FFF78D
:102070003DFD10BDC1F308028280704770B5054672
:102080000E46002400BF0BE0295D0748FFF7F2FF72
:1020900000BF80210448FFF769FF0028F9D0641CC5
:1020A000B442F1DB70BD00000038014000BFFEE724
:1020B0000FB4054B10B503A9044A029800F0DAF8F2
:1020C00010BC5DF814FB00007D290008940000207E
:1020D00002E008C8121F08C1002AFAD170477047F1
:1020E000002001E001C1121F002AFBD1704700004F
:1020F0002DE9FF5F82B00021DDE90430020DDDF83B
:1021000040B0034318D044F61050A2F2FF324243CD
:102110001514119801281FD0A5EB0B00401C5FEA95
:10212000000A4FF000064E4FDFF83891B046504697
:1021300015D5CAF1000413E0119801244AA301281F
:1021400001D16FEA0B010298119AC0E90031C0E990
:10215000024206B0BDE8F09FCBF10000DFE7044685
:102160000021404A491842EB0450CDE9001012E02A
:10217000E00707D032463B4640464946FEF73EF967
:102180008046894632463B4610461946FEF736F9E8
:1021900006460F466410002CEAD1DDE90401DDE9B2
:1021A0000023BAF1000F06DAFEF728F942464B4643
:1021B000FEF724F905E0FEF7C6FA42464B46FEF765
:1021C000C2FA04460E460022284BFEF743FB03D812
:1021D0004FF0FF30014607E00022254B20463146F4
:1021E000FEF765F8FEF71EFB102409E0002C0ADB61
:1021F0000A220023FEF706F8039B30321A55641EAC
:1022000050EA0102F2D1641C039AC4F11103144490
:10221000119A012A03D0012208430DD10AE0084394
:1022200004D000204FF0110B119072E7A3EB0B05C7
:102230006D1E0DE05B4504DD4FF0000205F1010568
:1022400004E003DA4FF00002A5F10105002AECD00A
:1022500002981199C0E90231C0E9004579E7000010
:10226000000014400000F03F300000000000F04388
:102270000000E03F2DE9FF4F95B09A46884606469C
:102280000025EEE1252877D100242746F94A0121CF
:10229000039400E0044316F8013F203B01FA03F0E9
:1022A0001042F7D130782A2811D06FF02F03307800
:1022B000A0F13002092A16D8039A44F0020402EB76
:1022C000820203EB42021044761C0390EFE758F8B9
:1022D000042B0392002A03DA504244F40054039082
:1022E00044F00204761C30782E2816D116F8010F1F
:1022F00044F004042A280DD06FF02F023078A0F1AA
:102300003003092B09D807EB870302EB4303C718F7
:10231000761CF3E758F8047B761C30786C280FD0D5
:1023200006DC4C2817D068280DD06A2814D104E0A8
:10233000742810D07A280FD10DE044F400140AE07C
:1023400044F4801401E044F440147278824202D1D3
:1023500004F58014761C761C307866280BD013DCCC
:10236000582877D009DC002875D04528F6D04628B3
:10237000F4D047281AD193E118E0632835D06428B7
:1023800079D0652812D18BE1702873D008DC6728DA
:10239000F1D069286FD06E280DD06F2806D1ACE03F
:1023A00073282CD0752874D0782853D052461799AA
:1023B00090476D1C54E1C4F30250022809D0032851
:1023C0000DD0D8F8001004280DD00D6008F10408D5
:1023D00046E1D8F80010EA17C1E90052F6E7D8F84C
:1023E00000100D80F2E70D70F0E718F8041B8DF86F
:1023F000001000208DF80100EB46012003E058F8A2
:1024000004BB4FF0FF3061074FF0000102D40DE034
:1024100009F101018946B9420FDA8145F8DB1BF861
:1024200009100029F4D108E009F10101894681422F
:10243000FADB1BF809100029F6D103985346A0EBEC
:10244000090721463846179A00F080FA284400EB25
:10245000090507E044E008E10DE01BF8010B5246D6
:1024600017999047B9F10109F7D2534621463846EA
:10247000179AF2E039E00A21C4F302524FF0000B40
:102480000091022A06D058F8040BC117032A09D07C
:102490000AE023E008F1070020F00702F2E8020159
:1024A000904605E000B2C117042A01D140B2C1171D
:1024B000002906DA0A460021404261EB02012D2282
:1024C00002E0220504D52B228DF80420012203E02E
:1024D000E20701D02022F7E7914657E00A2100E009
:1024E00010214FF0000B00910BE010214FF0000B7A
:1024F00044F004040827009103E008204FF0000B8B
:102500000090C4F30252022A05D058F8040B0021AF
:10251000032A08D008E008F1070020F00702F2E8DB
:102520000201904603E080B2042A00D1C0B24FF00D
:10253000000922072AD53278702A07D0DDF800C0BA
:102540008CF0100C5CEA0B0C05D00EE040228DF8EC
:102550000420012208E050EA010306D030238DF860
:1025600004308DF8052002229146009B83F0080379
:1025700053EA0B030AD150EA010201D1620705D5E3
:1025800030228DF804204FF001097F1E3278582A3E
:1025900004D039A20C920CAA02920BE03BA2F9E7FC
:1025A0005B46009AFDF72EFE0C9B9B5C029A521E26
:1025B0000292137050EA0102F2D1029804A9081A9B
:1025C00000F1200B600702D524F4803400E00127DD
:1025D0005F4502DDA7EB0B0000E0002000EB0B01E4
:1025E000009003984944401A0390E00306D45346F0
:1025F0002146179A039800F0A9F90544002706E040
:1026000001A85246C05D179990476D1C7F1C4F452D
:10261000F6DBE0030CD553462146179A039800F0E9
:1026200095F9054404E030205246179990476D1CF7
:102630000099481E00900029F5DC08E002980299F4
:1026400052460078491C0291179990476D1CBBF1C6
:102650000001ABF1010BF1DC5BE100F065F9054431
:10266000761C307800287FF40DAE19B02846BDE8FE
:10267000F08F00000928010030313233343536370D
:1026800038396162636465660000000030313233BE
:10269000343536373839414243444546000000005E
:1026A000600700D4062708F1070020F00700F0E8D3
:1026B0000223804603F0004C5FEA0C0001D097A093
:1026C00009E0200501D596A005E0E00701D095A01E
:1026D00001E0AFF24C001390307823F000436528FE
:1026E0000CD006DC452809D046281DD047287FD1CC
:1026F0003BE0662818D067287AD136E00021112FF8
:1027000001DB112000E0781CCDE9000104A90CA830
:10271000FFF7EEFCDDE90D010C9A4FF0000B07F11D
:102720000109109200914EE04FF000400097CDE972
:10273000011004A90CA8FFF7DBFCDDE90D020C9BDE
:102740000F994FF0000B91461093009211B9791C2C
:1027500000EB0109B7EB090003D4C0F1FF3B07F11F
:102760000109A9EB0700019042E0012F00DA0127DF
:102770000021112F01DD112000E03846CDE90001D4
:1027800004A90CA8FFF7B4FCDDE90D010C9A009137
:102790004FF0000BB946109221070FD4009A4A451A
:1027A00003DA914601E0A9F10109B9F1010F05DD54
:1027B000109AA9F10101515C3029F4D0B84202DA33
:1027C00010F1040F03DA0121CDE9011010E0002817
:1027D00003DC8344A9EB000102E0411C494500DD14
:1027E0008946A0EB0B00401C01904FF00040029086
:1027F000200705D40198484502DB4FF0FF300190D7
:1028000000208DF84B0002980DF14B07B0F1004FFE
:1028100025D002200C902B200D90029800280CDA75
:10282000404202902D200D9007E00A210298FDF70A
:10283000AFFE3031029007F8011D0C99481E0C9034
:102840000029F2DC02980028EFD1791E0D9808705B
:10285000307800F0200040F0450007F8020D11A884
:10286000C01BC01D02901398007800B1012000EB3E
:102870000901019801EBE071029801440398401AA4
:10288000401E0390E00306D453462146179A03984E
:1028900000F05CF805441398007818B15246179977
:1028A00090476D1CE00323D553462146179A0398A1
:1028B00000F04CF805441BE0BBF1000F07DB00986B
:1028C000584504DD1098179910F80B0001E017998E
:1028D00030205246904701980BF1010B401E05F144
:1028E0000105019004D12E205246179990476D1C86
:1028F000B9F10001A9F10109DEDC05E017F8010BCF
:102900005246179990476D1C0299481E0290002963
:10291000F4DC53462146179A03989EE62D000000EA
:102920002B000000200000002DE9F04104460025A6
:102930001E461746880404D405E039462020B047D7
:102940006D1C641EF9D52846BDE8F0812DE9F041E3
:10295000044600251E469046C80301D5302700E0F6
:102960002027880404D505E041463846B0476D1C51
:10297000641EF9D52846BDE8F081000070B5044614
:102980000D46E1B20548FFF775FB00BF4021034843
:10299000FFF7ECFA0028F9D0204670BD003801405E
:1029A0001CB5FEF72FFE00222421202000F0DCFDC4
:1029B0003E49086030B9C2223D493EA0FFF778FB8E
:1029C00000201CBD00222021084600F0CDFD464914
:1029D000086030B9C722364936A0FFF769FB0020EE
:1029E000EFE700224C21202000F0BEFD3F490860A7
:1029F00030B9CC222E492FA0FFF75AFB0020E0E788
:102A0000002004210346B222CDE9001038A141483C
:102A100000F0D2FE012806D0D12225493E48FFF71A
:102A200047FB0020CDE7002003210346B222CDE979
:102A300000103AA13F4800F0BFFE012806D0D7227F
:102A40001B493DA0FFF734FB0020BAE7002003211B
:102A50000346B222CDE9001045A14D4800F0ACFE7E
:102A6000012806D0DC2212494AA0FFF721FB0020F2
:102A7000A7E7002003210346B222CDE9001055A1AB
:102A80005B4800F099FE012806D0E222084959A0CF
:102A9000FFF70EFB002094E700F0C4FC40F20112A7
:102AA000034963A0FFF704FB00208AE70000002031
:102AB000143C000825732C206174204C696E653A23
:102AC00025642C2078517565756543726561746560
:102AD00020626C65537461747573517565756520FA
:102AE0006973206572720A0004000020080000204B
:102AF0004170705461736B414453313235364D75BA
:102B00006C746950726573734368616E436170746D
:102B1000757265008D140008783C0008417070548F
:102B200061736B41444368616E4361707475726593
:102B300000000000390D000825732C206174204C22
:102B4000696E653A25642C20785461736B43726515
:102B5000617465204170705461736B4144436861D6
:102B60006E43617074757265206572726F0A000041
:102B70004170705461736B53656E736F724461740E
:102B80006155706C6F616453657276657200000008
:102B90005915000825732C206174204C696E653A24
:102BA00025642C20785461736B43726561746520D1
:102BB0004170705461736B53656E736F72446174CE
:102BC0006155706C6F6164536572766572206572D1
:102BD000726F0A004170705461736B506F77657249
:102BE0004D6F64756C6554726967676572000000AB
:102BF0004D15000825732C206174204C696E653AD0
:102C000025642C20785461736B4372656174652070
:102C10004170705461736B506F7765724D6F64755E
:102C20006C6554726967676572206572726F0A001D
:102C300025732C206174204C696E653A25642C2024
:102C400053797374656D2042535020496E69742026
:102C50007375636365737321000000002DE9F04113
:102C600005460E462648076826480068001D00F005
:102C700001FB50B92348006890F82C1001208840CF
:102C800021490968814320480160681CD8B9D6B140
:102C90001E4948681B49096888601A4982680968A2
:102CA000CA6018490968091D826851601549096898
:102CB000091D8160154A134909684A61114609686E
:102CC000491C11601AE07C190E4800684460BC423F
:102CD00007D20C480168091D0D48006800F0F7FA9A
:102CE0000CE008480168091D0A48006800F0EFFA86
:102CF00009480068844201D207480460BDE8F081B9
:102D000048000020340000204C0000204002002039
:102D10003C000020380000206400002010B504466C
:102D200000F0F0FA2F480068401C2E4908602E4839
:102D3000006840B92C4804600846006801280DD19D
:102D400000F03CF90AE02948006838B926480068D4
:102D5000C06AE16A884201D82348046024480068B8
:102D6000401C2349086094F82C1001208840214918
:102D7000096808431F490860E16A01EB81011E4AA6
:102D800002EB81014868A0608268E260211D8268D0
:102D900051608160E16A01EB8101174A02EB810217
:102DA0006261E16A01EB8101134A52F82110491C6A
:102DB000E26A02EB8202104B43F8221000F0B4FAF0
:102DC0000A48006868B108480068C06AE16A884239
:102DD00007D24FF0805009490860BFF34F8FBFF30F
:102DE0006F8F10BD440000203400002050000020F0
:102DF000600000204C0000208C01002004ED00E069
:102E000010B516E000F07EFA0C48C068C468201DBA
:102E100000F030FA0A480068401E09490860094875
:102E20000068401E0749086000F07EFA204600F066
:102E300020F8044800680028E4D110BD2C020020CE
:102E4000440000204000002070B504460D46206C70
:102E500070B1216CE0680144E160D4E9021088425D
:102E600001D32168E1602846226CE168FDF7FBF997
:102E700070BD10B50446206B00F066FA204600F0E5
:102E800063FA10BD30B54FF48843154800F00704CD
:102E90002CB1C01D20F00700114C041B1B1B024667
:102EA000104C226000240F4D6C60D018083820F0C0
:102EB00007000D4C206000240B4D2D686C600A4DFE
:102EC0002D682C601146441A4C60074C24680C6035
:102ED000064D4C682C60064D4C682C6030BD0000DF
:102EE000540200207800002080000020880000208C
:102EF0008400002000BFFFF783FF06480068012818
:102F0000F9D94FF0805004490860BFF34F8FBFF3E9
:102F10006F8FF0E78C01002004ED00E02DE9F04117
:102F200006460D4617469846069C0DB9246000E0FB
:102F30002760E66325640121204600F03BFBBDE8E5
:102F4000F0812DE9FF5F80460E469146DDE90E7A5D
:102F5000109CA9F10100216B01EB800B2BF0070BFA
:102F60007EB1002507E0715D04F134004155705DCC
:102F700000B902E06D1C102DF5D300BF00214320E5
:102F80000155052F00D30427E762201D00F09CF9AE
:102F900004F1180000F098F92461C7F10500A06160
:102FA000646241465846039A00F052F92060BAF133
:102FB000000F01D0CAF80040BDE8FF9F10B5002403
:102FC00007E004EB84010F4A02EB810000F06FF987
:102FD000641C052CF5D30C4800F069F90B4800F08F
:102FE00066F90B4800F063F90A4800F060F90A48F6
:102FF00000F05DF904480949086004480849086080
:1030000010BD00008C010020F0010020040200200F
:10301000180200202C02002040020020380000206E
:103020003C00002010B50146164800E00068036827
:103030008B42FBD30246436813448B4204D143685E
:103040004C682344436001460A464B6813440468B5
:10305000A34211D10C4C03682468A34208D04B68EA
:103060000468646823444B6003681B680B6005E0D8
:10307000054B1B680B6001E003680B60884200D0C1
:10308000016010BD780000208000002070B505466A
:1030900000F038F9A86B08B9012400E0002400F022
:1030A00043F9204670BD000009480068006808B96F
:1030B000012000E0002020B14FF0FF3005490860FA
:1030C00005E003480068C06800680249086070476E
:1030D000380000206400002000BFBF2080F311886A
:1030E000BFF34F8FBFF36F8F00BF00BFFEE770B518
:1030F000044600F007F994F9455010E0606A08B9F9
:10310000012000E0002038B904F1240000F050FC58
:1031100018B100F071F900E003E0681E45B2002D1F
:10312000ECDC00BFFF2084F8450000F0FDF800F063
:10313000E9F894F9445010E0206908B9012000E052
:10314000002048B904F1100000F032FC08B100F092
:1031500053F9681E45B200E001E0002DECDC00BF31
:10316000FF2084F8440000F0DFF870BD2DE9F0473F
:1031700005464FF0000900F08BF93048006808B9A7
:10318000FFF780FE75B105F00700C0F11008C8F127
:10319000FF30A84201D2012000E0002008B94544D8
:1031A00000E00025012000EBE570002841D0002D53
:1031B0003FD02348006885423BD8224E3046046801
:1031C00001E0264624686068A84202D220680028F0
:1031D000F7D11A48006884422BD0306800F1080902
:1031E000206830606068401B102807D96719606844
:1031F000401B786065603846FFF714FF104960682F
:103200000968081A0E490860084600680E490968EE
:10321000884203D20A4800680B490860606840F0A1
:10322000004060600020206008480068401C07499A
:10323000086000F041FC4846BDE8F08780000020AF
:103240008400002078000020880000208C000020EE
:10325000001F4FF080730360001F21F00103036023
:10326000001F034B036014380260203870470000D1
:10327000D930000801460A69D1E901309860D1E9E6
:10328000010358605068884201D18868506000206E
:1032900008611068401E10601068704770B50446E1
:1032A00000F030F8A56B00F03FF8284670BD00F143
:1032B000080141604FF0FF31816000F10801C160F9
:1032C000016100210160704700210161704710B564
:1032D00002460B685C1C0CB9106907E002F108009B
:1032E00000E04068446824689C42FAD944684C6015
:1032F0004C68A160886041600A611468641C1460B5
:1033000010BD000000BFBF2080F31188BFF34F8FB6
:10331000BFF36F8F00BF03480068401C014908607D
:10332000704700007400002006480068401E0549F0
:1033300008600846006820B9002080F3118800BFAB
:1033400000BF70477400002070B506463546E6B1F0
:10335000083D2C466068C00FB8B12068A8B9606805
:1033600020F00040606000F093F808496068096848
:103370000844064908602046FFF754FE04480068E8
:10338000401C0349086000F097FB70BD84000020DA
:103390009000002000204FF0E02108618861024881
:1033A00048610720086170473F19010070B5044665
:1033B000002544B100F06CF800212046FFF74EFCD8
:1033C00000F07AFB05463DB94FF080500349086094
:1033D000BFF34F8FBFF36F8F70BD000004ED00E0AF
:1033E00003490968016003490968416070470000AA
:1033F0005C0000204800002001200149086070475F
:103400005800002070B505460C4605480168183183
:103410002846FFF75CFF01212046FFF71FFC70BD27
:10342000340000201CB5124800210B468022CDE953
:10343000001010A1114800F0BFF90446012C14D16E
:1034400000BFBF2080F31188BFF34F8FBFF36F8F92
:1034500000BF4FF0FF300A490860012009490860A9
:1034600000200949086000F04BF8084800681CBDBE
:103470006800002049444C4500000000F52E00087B
:103480006400002050000020480000206C00002054
:1034900002480068401C0149086070477000002025
:1034A0001248006818B10120114908601DE0002091
:1034B0000F4908600F480068B0FA80F0C0F11F01A2
:1034C00001EB81020C4B03EB8200426852684260C0
:1034D00000F108024368934202D142685268426098
:1034E0004268D268054B1A6000BF70477000002028
:1034F000580000204C0000208C01002034000020E7
:1035000010B50A48006840F47F0008490860084682
:10351000006840F07F400860FFF73CFF002004494E
:103520000860FCF723FE002010BD000020ED00E045
:103530007400002010B500BFBF2080F31188BFF3D6
:103540004F8FBFF36F8F00BF00F06AF918B14FF0D3
:1035500080500449086000BF002080F3118800BF3C
:1035600010BD000004ED00E02DE9F84304460E46CE
:1035700017460025DCB1681EB0FBF4F0B04216D34C
:1035800004FB06F010F1490F11D804FB06F909F10C
:103590004800FFF7EBFD05464DB1A84608F1480885
:1035A0003B464246314620460095FFF7B7FC284689
:1035B000BDE8F8832DE9F04105460E4601272C466B
:1035C000002C41D0E06B00283ED0B91EE06BB1FB6F
:1035D000F0F0216C884237D3FFF794FED4E90F1244
:1035E000206801FB0200A0600020A06320686060EA
:1035F000E06B401E226C216800FB0211E160FF209D
:1036000084F8440084F845009EB9206908B9012077
:1036100000E00020A8B904F1100000F0C9F980B161
:103620004FF080500A490860BFF34F8FBFF36F8F90
:1036300007E004F11000FFF73AFE04F12400FFF761
:1036400036FEFFF771FE00E000273846BDE8F08146
:1036500004ED00E02DE9F74183B005460F464FF039
:1036600000082C4600BFFFF74DFEA66BF6B13946A9
:103670002046FFF7E9FB701EA063206908B901200E
:1036800000E0002060B904F1100000F091F938B1B9
:103690004FF080502F490860BFF34F8FBFF36F8FFB
:1036A000FFF742FE012006B0BDE8F081059818B989
:1036B000FFF73AFE0020F6E7B8F1000F04D101A8A9
:1036C000FFF78EFE4FF00108FFF72EFEFFF7E0FE3A
:1036D000FFF718FE94F94400401C10B9002084F84C
:1036E000440094F94500401C10B9002084F84500BE
:1036F000FFF71AFE05A901A800F02EF8F0B9204640
:10370000FFF7C4FCA0B104F124000599FFF77AFE8D
:103710002046FFF7ECFC00F0CFF90028A3D14FF0D2
:1037200080500C490860BFF34F8FBFF36F8F9AE74B
:103730002046FFF7DCFC00F0BFF994E72046FFF7D6
:10374000D6FC00F0B9F92046FFF7A0FC00288AD08B
:103750000020A8E704ED00E070B506460C46FFF730
:10376000D1FD134802687068131A2068401C08B91C
:10377000002519E00F4930680968884206D0706852
:10378000904203D80125002020600DE02068984277
:1037900007D92068C01A20603046FFF721FE0025B7
:1037A00002E0002020600125FFF7BEFD284670BD25
:1037B000480000205C0000202DE9FF4F85B08046C6
:1037C00089461746DDE912ABB800FFF7CFFC064685
:1037D00076B14C20FFF7CAFC04462CB14C212046A0
:1037E000FCF75AFD266304E03046FFF7ADFD00E02C
:1037F00000247CB10020CDE900ABCDE902403A467F
:1038000049464046089BFFF79CFB2046FFF786FA97
:10381000012501E04FF0FF35284609B0BDE8F08FE3
:103820002DE9F04100275748006800287ED156480E
:103830000068451C544805608DB95448D0F8008094
:1038400053480068514908605148C0F80080514809
:103850000068401C4F490860FFF726FC00BF4E4837
:103860000068854276D300BF48480068006808B900
:10387000012000E0002020B14FF0FF3046490860F1
:1038800067E042480068C068C4686668B54202D212
:10389000414806605DE06069D4E902128A60D4E9BB
:1038A00002214A60211D42688A4201D1E1684160DB
:1038B000002262610168491E0160A06A98B1A06A95
:1038C000D4E907128A60D4E907214A6004F118019B
:1038D00042688A4201D1216A41600022A2620168E5
:1038E000491E016000BF94F82C10012088402B492C
:1038F0000968084329490860E16A01EB8101284A07
:1039000002EB81014868A0608268E260211D826844
:1039100051608160E16A01EB8101214A02EB810281
:103920006261E16A01EB81011D4A00E022E052F888
:103930002110491CE26A02EB8202194B43F8221063
:103940001849E06A0968C96A88428DD901278BE75E
:1039500000E000BF13480068C06A00EB8000104917
:1039600051F82000012800D901270F48006800B154
:10397000012704E00D480068401C0C4908603846E7
:10398000BDE8F081700000204800002038000020D1
:103990003C0000205C000020640000204C0000205F
:1039A0008C0100203400002058000020540000202A
:1039B00070B50346D868C168886AD1E90745A56033
:1039C000D1E90754656001F118044568A54201D1A9
:1039D0000C6A446000258D620468641E04603048EF
:1039E000006800283DD14869D1E90245A560D1E9C8
:1039F000025465600C1D4568A54201D1CC68446045
:103A000000254D610468641E046091F82C4001207B
:103A1000A040244C24682043224C2060CC6A04EB54
:103A20008404214D05EB8404606888608568CD605E
:103A30000C1D85686C608460CC6A04EB84041A4DAC
:103A400005EB84054D61CC6A04EB8404164D55F8F2
:103A50002440641CCD6A05EB8505134E46F82540CD
:103A600010E0124C6068C86185680D6201F11804AD
:103A700085686C6084600D4D8D622C462468641CE2
:103A80002C6000BF0A4CC86A2468E46AA04204D9CA
:103A900001220120074C206000E00022104670BD8A
:103AA000700000204C0000208C0100201802002033
:103AB000340000205800002070B500240026FFF7D5
:103AC00021FC4B480068401E4949086008460068D0
:103AD00000287DD147480068002879D05BE046483F
:103AE000C068C468A06AD4E907128A60D4E90721D3
:103AF0004A6004F1180142688A4201D1216A41609A
:103B00000022A2620168491E01606069D4E90212C4
:103B10008A60D4E902214A60211D42688A4201D1AB
:103B2000E1684160002262610168491E016094F809
:103B30002C10012088403149096808432F4908604A
:103B4000E16A01EB81012E4A02EB81014868A06025
:103B50008268E260211D826851608160E16A01EB48
:103B60008101274A02EB81026261E16A01EB810176
:103B7000234A52F82110491CE26A02EB8202204BD0
:103B800043F822101F49E06A0968C96A884202D3D3
:103B900001201D4908601848006808B9012000E0AC
:103BA000002000289BD00CB1FFF77EFA174805686B
:103BB00065B100BFFFF734FE10B101201249086063
:103BC0006D1E002DF6D10020104908600E4800E05F
:103BD00009E0006838B1012630070D490860BFF3DD
:103BE0004F8FBFF36F8FFFF79FFB304670BD000014
:103BF0007000002044000020180200204C0000202B
:103C00008C010020340000205800002054000020C7
:103C100004ED00E06D61696E000000002074656DC8
:103C200070303A25662C2074656D70313A25662C0B
:103C30002074656D70323A25662C2074656D703382
:103C40003A25662C2074656D70343A25662C2074F4
:103C5000656D70353A25662C2074656D70363A2591
:103C6000662C2074656D70373A25662C2074656D5E
:103C700070383A25660A000025732C206174204CA8
:103C8000696E653A25642C20785461736B437265C4
:103C9000617465204170705461736B4144533132DB
:103CA00035364D756C74694368616E436170747527
:103CB0007265206572726F0A00000000DC3C00082B
:103CC0000000002098000000D0200008743D00088B
:103CD00098000020C0490000E0200008000000001B
:103CE00000000000000000000000000000000000D4
:103CF00000000000000000000000000000000000C4
:103D0000010203040102030406070809020406086D
:103D100000000000000000000000000000000000A3
:103D20000000000000000000000000000000000093
:103D30000000000000000000000000000000000083
:103D4000000000000000000004000000000000006F
:103D5000AAAAAAAA000000000000000000000000BB
:103D60000000000000000000000000000000000053
:043D7000000000004F
:0400000508000131BD
:00000001FF
