:020000040800F2
:10000000C0C20020E10100083D18000835180008B2
:1000100039180008491400080D20000800000000ED
:10002000000000000000000000000000490100087E
:100030004D160008000000008D010008CD1D0008CD
:10004000FB010008FB010008FB010008FB010008A0
:10005000FB010008FB010008FB010008FB01000890
:10006000FB010008FB010008FB010008FB01000880
:10007000FB010008FB010008FB010008FB01000870
:10008000FB010008FB010008BD070008FB01000898
:10009000FB010008FB010008FB010008FB01000850
:1000A000FB010008FB010008FB010008FB01000840
:1000B000FB010008FB010008FB010008FB01000830
:1000C000FB010008FB010008FB010008FB01000820
:1000D000FB010008FB010008FB010008FB01000810
:1000E00051160008FB010008FB010008FB01000895
:1000F000FB010008FB010008FB010008FB010008F0
:10010000FB010008FB010008FB010008FB010008DF
:10011000FB010008FB010008FB010008FB010008CF
:10012000FB010008FB010008FB010008FB010008BF
:10013000DFF810D000F01EFB0048004795290008AA
:10014000AFF30080C0C20020224B19680868B0E8F5
:10015000F00F80F30988BFF36F8F4FF0000080F33A
:1001600011884EF00D0E7047000000000648006830
:10017000006880F3088862B661B6BFF34F8FBFF3A3
:100180006F8F00DF00BF00BF08ED00E0EFF30980D4
:10019000BFF36F8F0F4B1A6820E9F00F106008B59E
:1001A0004FF0BF0080F31188BFF34F8FBFF36F8F05
:1001B00003F01EFA4FF0000080F31188BDE80840FC
:1001C00019680868B0E8F00F80F30988BFF36F8FF3
:1001D000704700BF3C000020EFF30580704700002F
:1001E0000648804706480047FEE7FEE7FEE7FEE7D1
:1001F000FEE7FEE7FEE7FEE7FEE7FEE7D51D0008A7
:10020000310100082DE9F05F0546002092469B462B
:1002100088460646814640241BE02846414647461C
:10022000224600F062F953465A46C01A914110D353
:1002300011461846224600F049F92D1A67EB0108CD
:100240004F4622460120002100F040F917EB00093B
:100250004E41201EA4F10104DFDC484631462A4607
:100260004346BDE8F09F40EA01039B0703D009E045
:1002700008C9121F08C0042AFAD203E011F8013B92
:1002800000F8013B521EF9D27047D2B201E000F8EB
:10029000012B491EFBD270470022F6E710B513462A
:1002A0000A4604461946FFF7F0FF204610BD421CDF
:1002B00010F8011B0029FBD1801A70472DE9FE4F71
:1002C00081EA030404F0004421F0004100944FF05F
:1002D000000B23F0004350EA01045ED052EA03040D
:1002E0005BD0C3F30A54C1F30A552C44A4F2F3348F
:1002F0000194A0FB0254C1F3130141F48011C3F334
:10030000130343F4801301FB024400FB034E840AF1
:10031000970A44EA815447EA8357A4FB0768029589
:100320008D0A05FB07854FEA932C04FB0C54270527
:10033000029D4FEA065847EA1637B5EB08056EEB03
:10034000070C870E920E47EA811742EA8312A7FB39
:100350000201B6EB0B0164EB00042B0D43EA0C33F6
:100360005E1844EB1C50DA465146E7FB0201C5F328
:1003700013044FEA0B3343EA14534FEA0432019C4F
:1003800043EA0603A4F10C040294009CCDE900B4F6
:1003900000F0CAF803B0BDE8F08F00200146F9E78D
:1003A0002DE9F04D81EA030404F0004B21F00045F3
:1003B00014464FF0000A23F0004150EA050220D015
:1003C00054EA01021DD0C5F30A570246C5F31303D0
:1003D000C1F31300C1F30A5640F4801543F48013AF
:1003E000A7EB0608101BD64608F2FD3873EB050094
:1003F00002D308F1010801E092185B41B8F1000F47
:1004000003DA00200146BDE8F08D00204FF4801192
:10041000064684460EE0171B73EB050705D3121B37
:1004200063EB050306434CEA010C49084FEA300030
:1004300092185B4150EA0107EDD152EA030012D055
:1004400082EA040083EA0501084305D0101BAB4192
:1004500006D20122002306E000224FF0004302E012
:100460006FF0010253101AEB06004CEB085110EB31
:100470000A0041EB0B01BDE8F04D00F046B80EB5A7
:10048000C10F80EAE0700844CA07002140F23343FC
:100490008DE80E000A460B4600F046F803B000BD9A
:1004A00030B50B46014600202022012409E021FA44
:1004B00002F59D4205D303FA02F5491B04FA02F541
:1004C0002844151EA2F10102F1DC30BD202A04DB14
:1004D000203A00FA02F1002070479140C2F1200357
:1004E00020FA03F3194390407047202A04DB203A96
:1004F00021FA02F00021704721FA02F3D040C2F144
:100500002002914008431946704710B5141E73F13C
:10051000000408DA401C41F1000192185B411A43C3
:1005200001D120F0010010BD2DE9F04D92469B460F
:1005300011B1B1FA81F202E0B0FA80F220329046B5
:10054000FFF7C4FF04460F4640EA0A0041EA0B01E8
:1005500053465A46084313D0114653EA010019D0B6
:10056000C8F140025046FFF7C0FF05460E46504610
:1005700059464246FFF7AAFF084305D0012004E090
:1005800020463946BDE8F08D0020054346EAE07676
:100590002C4337430A986305E40AA0EB08000022C5
:1005A000FD0A44EA47540A3002D500200146E9E733
:1005B000010510196941DDE9084500196941BDE8E7
:1005C000F04DA2E72DE9FE4F804681EA0300C00FFF
:1005D0000C46009021F0004123F00045B8EB0200EA
:1005E000A94105D24046214690461C460B4602468C
:1005F00023F00040104347D0270DC7F30A00C3F390
:100600000A510290401A019040286BDAC3F313009C
:1006100040F4801B0098924620B10023D2EB030ADD
:1006200063EB0B0B01985946C0F140025046FFF7AF
:100630004DFF06460D4650465946019A00F0ACF86B
:1006400010EB08006141002487EA115284EAE77345
:100650001A4340D0009A62B3019A012A4FEA075226
:1006600015DC001B61EB02014FF0004202EA075269
:10067000CDE90042001C41F5801132462B46FFF7C0
:1006800053FF03B0BDE8F08F40462146F9E7001B59
:1006900061EB0201001C41F5801300185B4120183A
:1006A000A2F5001747EB030140EAD570B6196D417A
:1006B00011E06D084FEA360645EAC0754FEA075269
:1006C000001B61EB0201001C41F5801149084FEA53
:1006D00030000019514132462B4603B0BDE8F04FBF
:1006E000FFF713BF0098012240000023D0EB020265
:1006F00063EBE073009821464FEAE074B8EB00002A
:1007000061EB0401E9E783F000435BE781F000411E
:1007100058E7C1F30A52C1F3130140F2FF3341F429
:1007200080119A4202DA00200146704740F23343BA
:100730009A42A2F2334202DC5242FFF7D6BEFFF7E2
:10074000C5BE000030B5041E71F1000404DB4FF09B
:100750000044404264EB0101141E73F1000405DB08
:100760001C464FF00043524263EB0403994208BF1A
:10077000904230BD064C074D06E0E06840F00103B2
:1007800094E8070098471034AC42F6D3FFF7D4FC46
:10079000003F0008203F0008202A06DBCB17203A44
:1007A00041FA02F043EAE07306E041FA02F3D04076
:1007B000C2F12002914008431946704710B5034822
:1007C00000F056F80249088010BD000000280140E2
:1007D0001200002021B1826842F00102826003E031
:1007E000826822F001028260704721B1826842F47F
:1007F0008072826003E0826822F4807282607047B7
:1008000010B504461248844208D10121401501F078
:1008100009F90021601501F005F917E00D4884423F
:1008200008D10121001501F0FDF80021201501F08B
:10083000F9F80BE00848844208D10121C80301F00F
:10084000F1F800214FF4004001F0ECF810BD000079
:100850000024014000280140003C014001460020E6
:100860008A6802F004020AB1012000E0002070470B
:100870000146C86C80B27047014600208A6802F0C9
:1008800008020AB1012000E00020704730B502469E
:100890000020002350680F4C20400D790C6844EA7A
:1008A00005242043506090680B4C2040D1E902544D
:1008B0002C434D7944EA450420439060D06A20F4EB
:1008C00070000C7C641EE4B2234340EA0350D06203
:1008D00030BD0000FFFEF0FFFDF7F1FF00B587B06F
:1008E00001214FF4037001F08DF84FF4004001F046
:1008F0005DF8FF20ADF8040000208DF8070001A985
:10090000404800F0F7FE0320ADF8040000208DF809
:10091000070001A93C4800F0EDFE00F0A3FD3B48B4
:10092000FFF76EFF0020029001208DF80C008DF87B
:100930000D004FF460200490002005900A208DF8EF
:10094000180002A93148FFF7A1FF07230122002167
:100950002E4800F05DF80723022201212B4800F009
:1009600057F8072303220221284800F051F80723F3
:1009700004220321254800F04BF807230522042117
:10098000224800F045F80723062205211F4800F001
:100990003FF807231A4606211C4800F039F80723C0
:1009A00008221946194800F033F8072309220821C4
:1009B000164800F02DF807230A220921134800F0F9
:1009C00027F801211148FFF710FF01210F48FFF719
:1009D00001FF0E4800F078F800BF0C48FFF74CFF0D
:1009E0000028FAD1094800F07FF800BF0748FFF758
:1009F00035FF0028FAD10121044800F06AF807B059
:100A000000BD000000080140000C0140002401402E
:100A1000F0B504460D4600200021092D11DDE068E7
:100A2000A5F10A0606EB4607072606FA07F18843F2
:100A3000A5F10A0606EB460603FA06F10843E06054
:100A40000CE0206905EB4507072606FA07F1884305
:100A500005EB450603FA06F108432061072A0FDA81
:100A6000606B561E06EB86071F2606FA07F18843C1
:100A7000561E06EB860605FA06F10843606322E07F
:100A80000D2A0FDA206BD61F06EB86071F2606FA03
:100A900007F18843D61F06EB860605FA06F10843E0
:100AA000206310E0E06AA2F10D0606EB86071F2620
:100AB00006FA07F18843A2F10D0606EB860605FA51
:100AC00006F10843E062F0BD816841F008018160F1
:100AD000704721B1826842F4A002826003E082681C
:100AE00022F4A00282607047816841F004018160B5
:100AF0007047000070B50025002400264FF4805197
:100B0000144800F08BFE00BF4FF48061114800F0E4
:100B10007CFE0028F8D1FC2001F0C6F8002001F08E
:100B2000C3F8012001F0C0F8FF2001F0BDF844EA4D
:100B30000044FF2001F0B8F844EA0024FF2001F04F
:100B4000B3F804434FF48051024800F069FE204698
:100B500070BD0000000C014070B504460D464FF416
:100B600080510E4800F05AFE00BF4FF480610B48E0
:100B700000F04BFE0028F8D104F00F0141F05000C6
:100B800001F092F8002001F08FF8284601F08CF86F
:100B90004FF48051014800F043FE70BD000C01404D
:100BA00010B504210020FFF7D7FF00210220FFF736
:100BB000D3FFA1210320FFF7CFFF00210420FFF77F
:100BC000CBFF10BD08B50121082000F01BFF4FF43A
:100BD0000060ADF8000010208DF8030003208DF8B0
:100BE000020069460C4800F085FD4FF400610A4898
:100BF00000F014FE4FF48060ADF8000048208DF83E
:100C0000030003208DF802006946034800F072FDDE
:100C100000F096FF08BD0000000C014010B5FFF782
:100C2000D1FF4FF40061034800F0FAFDFFF7B8FF71
:100C300010BD0000000C014010B504462146012003
:100C4000FFF78AFFFFF756FF10BD02465006020E5F
:100C500042EA01000246704710B51021014800F039
:100C6000DFFD10BD0008014010B51021014800F063
:100C7000D5FD10BD000801402DE9F04100240026FB
:100C800000270025072000F02FF8044603263440F3
:100C9000062000F029F8074625464FF6FF7000EAC7
:100CA000052545EA07000546BDE8F081024600201B
:100CB0001378180100F47F600B781B110B700B7810
:100CC000184300F4006323B1C043C0F30B00401C81
:100CD0004042704710B5002000F006F810BD10B576
:100CE000022000F001F810BD70B504460025FFF7A2
:100CF000BBFF01212046FFF7A8FF064600F0B8FF22
:100D0000AA2000F0B5FF0546FFF7A6FF284670BDF4
:100D100070B586B004460D460020059004900390FF
:100D20000290019000902DB3012D65D1FFF79CFF3B
:100D300001210820FFF789FF064600F099FFAA204D
:100D400000F096FF0590AA2000F092FF0490AA20E0
:100D500000F08EFF0390AA2000F08AFF0290AA20E4
:100D600000F086FF0190AA2000F082FF0090FFF7BC
:100D700073FF41E0FFF780FF032839DDFFF774FFC1
:100D800001214220FFF761FF064600F071FFAA2013
:100D900000F06EFF0390AA2000F06AFF0290FFF7B8
:100DA0005BFFFFF761FF01214220FFF74EFF064680
:100DB00000F05EFFAA2000F05BFF0190AA2000F087
:100DC00057FF0090FFF748FFFFF74EFF0121422039
:100DD000FFF73BFF064600F04BFFAA2000F048FF5C
:100DE0000590AA2000F044FF0490FFF735FF02E0D1
:100DF000002006B070BD00BF00BF04A905A8FFF722
:100E000055FF208002A903A8FFF750FF60806946C4
:100E100001A8FFF74BFF03490988084400B2A080EE
:100E20000120E6E72400002010B50E21202000F06C
:100E3000C6F80021212000F0C2F80721222000F08E
:100E4000BEF810BD70B506460D4600242878044350
:100E50006006040E687804436006040EA878044314
:100E60006006040EE87804436006040E2879044303
:100E70006006040E687904436006040EA8790443F2
:100E80006006040EE87904436006040E21463046ED
:100E900000F095F870BD1CB500208DF800008DF8AD
:100EA00001008DF802008DF803008DF804008DF824
:100EB000050001208DF8060000208DF80700694626
:100EC0003A20FFF7BFFF1CBD10B5FF21392000F00D
:100ED00076F810BD1CB500208DF800008DF80100DB
:100EE0008DF802008DF803008DF804008DF80500E0
:100EF0008DF806008DF8070069463820FFF7A2FF3D
:100F00001CBD1CB500208DF800008DF801008DF887
:100F100002008DF803008DF804008DF80500012013
:100F20008DF8060000208DF8070069463E20FFF787
:100F300089FF1CBD1CB500208DF800008DF8010054
:100F40008DF8020001208DF803008DF804008DF863
:100F500005008DF806008DF8070069463F20FFF771
:100F600071FF1CBD1CB500208DF8000001208DF81C
:100F7000010000208DF802008DF803008DF80400B8
:100F80008DF805008DF806008DF8070069463D20B4
:100F9000FFF758FF1CBD10B5FFF7B3FFFFF7E2FFE7
:100FA000FFF779FFFFF790FFFFF794FFFFF73CFF94
:100FB000FFF7C0FF1F213F2000F001F810BD70B502
:100FC00005460C46FFF750FE00212846FFF73DFE80
:100FD000064600F04DFE204600F04AFEFFF73CFEBC
:100FE00070BD000000B587B00121084600F00AFD81
:100FF0000121080300F006FD0121042000F002FD9C
:1010000001A800F00FFCE020ADF8040018208DF8D6
:10101000070003208DF8060001A91E4800F06AFBB6
:101020001020ADF804008DF8070003208DF80600AD
:1010300001A9184800F05EFB1021164800F0F0FBF3
:101040001021144800F0EAFB02A800F005FE4FF45E
:101050008270ADF80A000020ADF80C004FF400706B
:10106000ADF812000020ADF80E00ADF81000182009
:10107000ADF814000020ADF816000720ADF81800F8
:1010800002A9054800F0CAFD0121034800F0ACFDAB
:1010900007B000BD000801400030014088B000BF2B
:1010A00000BF00BF00BF0024002520216846FFF7D5
:1010B000F3F829E0002413E004F0070018B104F06D
:1010C0000700401E00E00720C5B2082141EA0411D4
:1010D000C8B2FFF7B1FD4DF8250000BF601CC4B2D7
:1010E000082CE9DB00230A2269460848006802F060
:1010F00059FB012805D04FF4BF72054905A000F047
:1011000087FF022002F0FAF9D4E700000400002073
:10111000813E000825732C206174204C696E653A6D
:1011200025642C20707265737353616D706C654417
:1011300061746151756575652069732066756C6CA5
:101140000A00000086B000240025002600BF00BF72
:1011500000BF002001900290039004900590019040
:101160000290039000BF0FE0FFF7B9FD0646FFF7BE
:10117000B1FD0546AD2D01D1FA2E00D002E0FFF7FA
:101180000AFF03E0601CC4B2032CEDDB00BF15E0D6
:10119000012104A8FFF7BCFD00230A2204A9084886
:1011A000006802F0FFFA012805D04FF4EA72054901
:1011B00005A000F02DFF022002F0A0F9E8E70000F2
:1011C0000C000020A53E000825732C206174204CE3
:1011D000696E653A25642C206164786C333732443B
:1011E00061746151756575652069732066756C6CF5
:1011F0000A0000009AB000BF0020169017901890C7
:10120000199020210EA8FFF747F838216846FFF70C
:1012100043F8002000F080FC03E04FF47A7002F005
:101220006DF9FAE7E2B04FF00009CA4600BF0024AA
:1012300000BF00202A902B902C902D90202122A8D6
:10124000FFF72AF8382114A8FFF726F8002012909B
:101250001390C4E06248006802F0C8F820B1614809
:10126000006802F0C3F818B9012002F047F9B6E0AF
:101270004FF0FF3212A95A48006802F01FFB4FF0EE
:10128000FF3222A95748006802F018FB4FF000090E
:101290001AE022A850F8294004F4000020B1E443E9
:1012A000C4F31604641C64422046FFF7E8F80746BE
:1012B00000224D4BFFF702F805460E462EAA02EB20
:1012C000C90260C209F10109B9F1080FE1DBBDF9FA
:1012D0004810B1F5006F05DBBDF84810A1F580514D
:1012E00009B201E0BDF948100846FFF7C8F8CDE99A
:1012F0003E013E4A3E4BDDE93E713846FFF750F86D
:10130000CDE93E01BDF94A10B1F5006F05DBBDF82E
:101310004A10A1F5805109B201E0BDF94A10084612
:10132000FFF7ADF841914090304A314B409F38462D
:101330004199FFF735F841914090BDF94C10B1F556
:10134000006F05DBBDF84C10A1F5805109B201E03A
:10135000BDF94C100846FFF792F843914290234A9A
:10136000234B429F38464399FFF71AF84391429026
:1013700043994298CDE9100141994098CDE90E0179
:10138000DDE93E01CDE90C01DDE93C01CDE90A01D1
:10139000DDE93A01CDE90801DDE93801CDE90601D1
:1013A000DDE93601CDE90401DDE93401CDE90201D1
:1013B000DDE932015246CDE900010EA144A800F05A
:1013C00037FE0AF1010A44A8FEF771FFC7B2394699
:1013D00044A800F003FE012002F090F800BF39E7B6
:1013E0000C00002004000020D012E33F9D11A5BD99
:1013F000C1972340736E3A2025642C20252E336636
:1014000020252E336620252E336620252E33662098
:10141000252E336620252E336620252E3366202583
:101420002E336620252E33660A00000010B500F02A
:1014300049F900F039FAFFF7F1FBFFF74FFA00F036
:10144000F9FCFFF7CFFD10BD00BFFEE721B1026838
:1014500042F00102026004E002684FF6FE731A4097
:101460000260704710B50121084600F0ABFA114840
:1014700000F028F810481149086011484860002021
:1014800088606420C86000200861802048614000B6
:1014900088618000C8612020086200024862002044
:1014A0008862044800F0B4F801210248FFF7CEFF3B
:1014B00010BD0000080002404C24014068010020DB
:1014C000A000002001684FF6FE721140016000216B
:1014D000016041608160C1604B49884208D14A493E
:1014E0000839496841F00F01474A083A51608AE0DB
:1014F00045491431884208D143490839496841F0C7
:10150000F001414A083A51607DE03F492831884264
:1015100008D13D490839496841F470613A4A083AAE
:10152000516070E038493C31884208D13649083969
:10153000496841F47041344A083A516063E03249E5
:101540005031884208D130490839496841F4702146
:101550002D4A083A516056E02B496431884208D13F
:1015600029490839496841F47001274A083A51600D
:1015700049E025497831884208D12349083949682A
:1015800041F07061204A083A51603CE01F498842AE
:1015900006D1011F096841F00F01021F116032E0FE
:1015A0001A491431884208D11849091F096841F0C5
:1015B000F001164A121F116025E0144928318842B3
:1015C00008D11249091F096841F470610F4A121FBE
:1015D000116018E00D493C31884208D10B49091FC0
:1015E000096841F47041094A121F11600BE0074974
:1015F0005031884207D10549091F096841F470211B
:10160000024A121F1160704708000240080402409D
:1016100010B50022026847F6F0739A430C6A8B6893
:1016200023430C6923434C6923438C692343CC69CE
:1016300023434C6A23438C6A23431A430260CB68DA
:1016400043600B6883604B68C36010BD7047000047
:1016500010B54FF4006000F021F840B14FF4006085
:1016600000F016F84FF40061084800F0CEF84FF48F
:10167000806000F013F840B14FF4806000F008F88B
:101680004FF48061014800F0C0F810BD000C01402B
:101690000149086070470000140401400146002021
:1016A0000022074B1B6803EA0102054B14331B6839
:1016B0000B4013B10AB1012000E000207047000088
:1016C0000004014010B50121082000F09BF94020E2
:1016D000064908801020C87003208870044800F074
:1016E00009F8002000F052F910BD00001800002099
:1016F000000C01402DE9F0410246002500260020A3
:1017000000230024002791F803C00CF00F0591F886
:1017100003C00CF0100CBCF1000F03D091F802C014
:101720004CEA050591F800C0BCF1000F31D01468F7
:1017300000202BE04FF0010C0CFA00F3B1F800C0D0
:101740000CEA03069E4220D183004FF00F0C0CFAE6
:1017500003F7BC4305FA03FC4CEA040491F803C008
:10176000BCF1280F06D14FF0010C0CFA00FCC2F8B6
:1017700014C00AE091F803C0BCF1480F05D14FF046
:10178000010C0CFA00FCC2F810C0401C0828D1D390
:101790001460B1F800C0BCF1FF0F34DD54680020C4
:1017A0002EE000F1080C4FF0010808FA0CF3B1F834
:1017B00000C00CEA03069E4221D183004FF00F0CBB
:1017C0000CFA03F7BC4305FA03FC4CEA040491F855
:1017D00003C0BCF1280F05D100F1080C08FA0CF881
:1017E000C2F8148091F803C0BCF1480F07D100F192
:1017F000080C4FF0010808FA0CF8C2F81080401CE1
:101800000828CED35460BDE8F081024600209368DA
:101810000B400BB1012000E0002070474161704790
:10182000016170474FF6FF71018002218170042130
:10183000C170704700BFFEE700BFFEE770470000C1
:1018400070B504460A48006820F400400849086062
:10185000204601F05BF8FF2001F058F805460448E7
:10186000006840F4004002490860284670BD00004E
:101870000C08014070B504460D460A48006820F483
:1018800000400849086044F0200001F03FF8284675
:1018900001F03CF80348006840F40040014908604A
:1018A00070BD00000C08014010B500214FF0006031
:1018B00000F062F84FF4A06000F054F826200C49C4
:1018C000087001204870002088700120C870084608
:1018D00000F010F817200649087002204870002018
:1018E00088700120C870084600F004F810BD0000A0
:1018F0001400002070B5002100230F22C47804B327
:10190000154C246804F4E064C4F5E064210AC1F1D4
:101910000403CA40447804FA03F184781440214354
:1019200009010E4C0678A155047804F01F05012426
:10193000AC4005786D11AD0005F1E025C5F800411A
:1019400009E0047804F01F050124AC40044D06783A
:10195000761145F8264070BD0CED00E000E400E093
:1019600080E100E002490143024A11607047000033
:101970000000FA050CED00E0024A0A400243024B67
:101980001A60704780FFFF1F08ED00E010B50446A5
:1019900024B140210448FFF743FF03E040210248FF
:1019A000FFF73CFF10BD0000000C01400146002085
:1019B000034A506820F440400843506070470000DC
:1019C0000010024029B1064A52690243044B5A6191
:1019D00004E0034A52698243014B5A617047000098
:1019E0000010024029B1064AD2690243044BDA6171
:1019F00004E0034AD2698243014BDA617047000078
:101A00000010024029B1064A92690243044B9A61D0
:101A100004E0034A92698243014B9A6170470000D7
:101A20000010024029B1064AD2680243044BDA6032
:101A300004E0034AD2688243014BDA607047000039
:101A40000010024030B500210022002400232D4D5B
:101A50006D6805F00C0121B1042905D0082923D1B6
:101A600005E0294D056022E0274D05601FE0254D6A
:101A70006D6805F47012234D6D6805F480340225FD
:101A800005EB92421CB9214D554305600BE01D4DFD
:101A90006D6805F400351DB11C4D5543056002E02D
:101AA000194D5543056002E0174D056000BF00BFAA
:101AB000144D6D6805F0F0010909154D6B5C056862
:101AC000DD4045600F4D6D6805F4E061090A104D79
:101AD0006B5C4568DD4085600A4D6D6805F46051BA
:101AE000C90A0B4D6B5C4568DD40C560054D6D68EE
:101AF00005F44041890B074D6B5CC568B5FBF3F5F8
:101B0000056130BD0010024000127A0000093D005E
:101B1000260000203600002070B504460025002075
:101B2000FFF78EFE054614B925F0010503E0012CF0
:101B300001D145F0010529460020FFF79BFE70BD4D
:101B400000B587B001210820FFF75CFF0121880361
:101B5000FFF748FF4FF46040ADF8040003208DF814
:101B6000060018208DF8070001A91D48FFF7C2FDE7
:101B70004FF48050ADF8040003208DF806001020CB
:101B80008DF8070001A91648FFF7B4FD4FF4805106
:101B90001348FFF745FE0020ADF808004FF48270AF
:101BA000ADF80A000020ADF80C00ADF80E000120E1
:101BB000ADF810004002ADF812003820ADF8140066
:101BC0000020ADF816000720ADF8180002A905485E
:101BD00000F024F80121034800F006F807B000BD2A
:101BE000000C01400038004021B1028842F0400260
:101BF000028004E002884FF6BF731A4002807047EB
:101C00000246002013890B400BB1012000E00020A8
:101C100070470146888970478181704710B500225E
:101C2000028802F441520B884C8823438C8823435A
:101C3000CC8823430C8923434C8923438C89234339
:101C4000CC8923431A430280838B4FF2FF742340D5
:101C500083830B8A038210BD002101804180818033
:101C6000C180018141818181C18107210182704749
:101C700010B5044600BF02210A48FFF7C1FF002843
:101C8000F9D021460748FFF7C7FF00BF01210548EB
:101C9000FFF7B6FF0028F9D00248FFF7BAFFC0B23D
:101CA00010BD00000030014070B50446002500BFA3
:101CB00002210B48FFF7A4FF0028F9D0214608486D
:101CC000FFF7AAFF00BF01210548FFF799FF002891
:101CD000F9D00348FFF79DFFC5B2284670BD00004C
:101CE0000038004010B500F001F810BD0CB5002020
:101CF000019000903348006840F48030314908601A
:101D000000BF3048006800F4003000900198401C8B
:101D10000190009818B90198B0F5A06FF1D1294849
:101D2000006800F4003010B10120009001E00020B4
:101D300000900098012843D12348006840F010002B
:101D4000214908600846006820F00700086008463E
:101D5000006840F0020008601A484068194948606D
:101D60000846406848600846406840F48060486023
:101D70000846406820F47C1048600846406840F4FB
:101D8000E81048600846006840F08070086000BFB6
:101D90000C48006800F000700028F9D0094840683D
:101DA00020F00300074948600846406840F0020000
:101DB000486000BF0348406800F00C000828F9D1D3
:101DC0000CBD0000001002400020024010B501F0E0
:101DD00059FC10BD10B51348006840F001001149CE
:101DE000086008464068104908400E4948600846A7
:101DF00000680E4908400B4908600846006820F456
:101E0000802008600846406820F4FE0048604FF4D7
:101E10001F008860FFF766FF4FF00060044908600C
:101E200010BD0000001002400000FFF8FFFFF6FEAA
:101E300008ED00E010B500F0C3F800F02BF800F05A
:101E40000DF810BD21B1828942F40052828104E074
:101E500082894DF6FF731A40828170471FB54FF497
:101E6000E13000900020ADF80400ADF80600ADF8B8
:101E70000800ADF80C000C20ADF80A0069460448D3
:101E800000F032F801210248FFF7DCFF1FBD00001F
:101E90000038014008B518208DF803004FF4007099
:101EA000ADF8000003208DF8020069460648FFF7F0
:101EB00021FC04208DF803000002ADF80000694603
:101EC0000148FFF717FC08BD00080140024600204A
:101ED000B1F5007F00D100BF13880B400BB101208A
:101EE00000E00020704700002DE9F04786B005466D
:101EF0000E460024A24600BFA1460027B08900B1CB
:101F000000BF2F462C8A4CF6FF700440F088044333
:101F10002C82AC894EF6F3100440B0883189084316
:101F2000718908430443AC81AC8A4FF6FF400440FA
:101F3000B0890443AC8201A8FFF784FD1F488742A3
:101F400002D1DDF810A001E0DDF80CA0A88900F4B2
:101F5000004040B10AEBCA0000EB0A1031684900AA
:101F6000B0FBF1F807E00AEBCA0000EB0A10316899
:101F70008900B0FBF1F86420B8FBF0F004012009FF
:101F8000642101FB1089A88900F4004040B132208F
:101F900000EBC900B0FBF1F000F00700044308E0DB
:101FA000322000EB09106421B0FBF1F000F00F00CB
:101FB00004432C8106B0BDE8F087000000380140E2
:101FC00010B501210520FFF71DFD01218803FFF752
:101FD00019FD10BDC1F308028280704770B5054637
:101FE0000E46002400BF0BE0295D0748FFF7F2FF13
:101FF00000BF80210448FFF769FF0028F9D0641C66
:10200000B442F1DB70BD00000038014000BFFEE7C4
:102010000FB4054B10B503A9044A029800F0EEF87E
:1020200010BC5DF814FB0000712900089C00002022
:102030000FB4084B10B504A902AA039800F0DEF80B
:10204000044602A9002000F05CFC204610BC5DF8AC
:1020500014FB00000329000802E008C8121F08C191
:10206000002AFAD170477047002001E001C1121F19
:10207000002AFBD1704700002DE9FF5F82B00021EC
:10208000DDE90430020DDDF840B0034318D044F61A
:102090001050A2F2FF3242431514119801281FD0AC
:1020A000A5EB0B00401C5FEA000A4FF000064E4F04
:1020B000DFF83891B046504615D5CAF1000413E058
:1020C000119801244AA3012801D16FEA0B0102985B
:1020D000119AC0E90031C0E9024206B0BDE8F09FA4
:1020E000CBF10000DFE704460021404A491842EBEB
:1020F0000450CDE9001012E0E00707D032463B461D
:1021000040464946FEF7DAF88046894632463B4665
:1021100010461946FEF7D2F806460F466410002C0A
:10212000EAD1DDE90401DDE90023BAF1000F06DAA6
:10213000FEF7C4F842464B46FEF7C0F805E0FEF74E
:102140002FF942464B46FEF72BF904460E46002275
:10215000284BFEF7F7FA03D84FF0FF30014607E0AF
:102160000022254B20463146FEF72CFAFEF7D1FA25
:10217000102409E0002C0ADB0A220023FEF742F8B3
:10218000039B30321A55641E50EA0102F2D1641CDE
:10219000039AC4F111031444119A012A03D00122B5
:1021A00008430DD10AE0084304D000204FF0110B82
:1021B000119072E7A3EB0B056D1E0DE05B4504DD8E
:1021C0004FF0000205F1010504E003DA4FF00002D0
:1021D000A5F10105002AECD002981199C0E902315D
:1021E000C0E9004579E70000000014400000F03F1E
:1021F000300000000000F0430000E03F2DE9FF4FF9
:1022000095B09A46884606460025EEE1252877D106
:1022100000242746F94A0121039400E0044316F8FC
:10222000013F203B01FA03F01042F7D130782A2811
:1022300011D06FF02F033078A0F13002092A16D8A0
:10224000039A44F0020402EB820203EB42021044C0
:10225000761C0390EFE758F8042B0392002A03DA68
:10226000504244F40054039044F00204761C307849
:102270002E2816D116F8010F44F004042A280DD098
:102280006FF02F023078A0F13003092B09D807EB4B
:10229000870302EB4303C718761CF3E758F8047B67
:1022A000761C30786C280FD006DC4C2817D06828B4
:1022B0000DD06A2814D104E0742810D07A280FD1E8
:1022C0000DE044F400140AE044F4801401E044F406
:1022D00040147278824202D104F58014761C761C78
:1022E000307866280BD013DC582877D009DC00281A
:1022F00075D04528F6D04628F4D047281AD193E166
:1023000018E0632835D0642879D0652812D18BE194
:10231000702873D008DC6728F1D069286FD06E2848
:102320000DD06F2806D1ACE073282CD0752874D05E
:10233000782853D05246179990476D1C54E1C4F346
:102340000250022809D003280DD0D8F80010042824
:102350000DD00D6008F1040846E1D8F80010EA1726
:10236000C1E90052F6E7D8F800100D80F2E70D70D1
:10237000F0E718F8041B8DF8001000208DF801001C
:10238000EB46012003E058F804BB4FF0FF30610733
:102390004FF0000102D40DE009F101018946B94274
:1023A0000FDA8145F8DB1BF809100029F4D108E0A9
:1023B00009F1010189468142FADB1BF80910002965
:1023C000F6D103985346A0EB090721463846179AE1
:1023D00000F080FA284400EB090507E044E008E13A
:1023E0000DE01BF8010B524617999047B9F101090E
:1023F000F7D2534621463846179AF2E039E00A21CF
:10240000C4F302524FF0000B0091022A06D058F894
:10241000040BC117032A09D00AE023E008F10700E2
:1024200020F00702F2E80201904605E000B2C11771
:10243000042A01D140B2C117002906DA0A46002158
:10244000404261EB02012D2202E0220504D52B223D
:102450008DF80420012203E0E20701D02022F7E7F3
:10246000914657E00A2100E010214FF0000B009147
:102470000BE010214FF0000B44F0040408270091FA
:1024800003E008204FF0000B0090C4F30252022A30
:1024900005D058F8040B0021032A08D008E008F101
:1024A000070020F00702F2E80201904603E080B244
:1024B000042A00D1C0B24FF0000922072AD5327891
:1024C000702A07D0DDF800C08CF0100C5CEA0B0C11
:1024D00005D00EE040228DF80420012208E050EAE9
:1024E000010306D030238DF804308DF80520022238
:1024F0009146009B83F0080353EA0B030AD150EA8C
:10250000010201D1620705D530228DF804204FF079
:1025100001097F1E3278582A04D039A20C920CAAE5
:1025200002920BE03BA2F9E75B46009AFDF76AFED8
:102530000C9B9B5C029A521E0292137050EA01029D
:10254000F2D1029804A9081A00F1200B600702D505
:1025500024F4803400E001275F4502DDA7EB0B0087
:1025600000E0002000EB0B01009003984944401A62
:102570000390E00306D453462146179A039800F0CF
:10258000A9F90544002706E001A85246C05D179945
:1025900090476D1C7F1C4F45F6DBE0030CD553467E
:1025A0002146179A039800F095F9054404E030207D
:1025B0005246179990476D1C0099481E00900029BB
:1025C000F5DC08E00298029952460078491C029115
:1025D000179990476D1CBBF10001ABF1010BF1DCC9
:1025E0005BE100F065F90544761C307800287FF443
:1025F0000DAE19B02846BDE8F08F00000928010093
:102600003031323334353637383961626364656668
:10261000000000003031323334353637383941422A
:102620004344454600000000600700D4062708F137
:10263000070020F00700F0E80223804603F0004C7A
:102640005FEA0C0001D097A009E0200501D596A013
:1026500005E0E00701D095A001E0AFF24C00139037
:10266000307823F0004365280CD006DC452809D0DB
:1026700046281DD047287FD13BE0662818D0672820
:102680007AD136E00021112F01DB112000E0781C07
:10269000CDE9000104A90CA8FFF7EEFCDDE90D016E
:1026A0000C9A4FF0000B07F10109109200914EE0D7
:1026B0004FF000400097CDE9011004A90CA8FFF7E6
:1026C000DBFCDDE90D020C9B0F994FF0000B9146EE
:1026D0001093009211B9791C00EB0109B7EB0900C6
:1026E00003D4C0F1FF3B07F10109A9EB07000190FA
:1026F00042E0012F00DA01270021112F01DD112016
:1027000000E03846CDE9000104A90CA8FFF7B4FCAD
:10271000DDE90D010C9A00914FF0000BB9461092C3
:1027200021070FD4009A4A4503DA914601E0A9F146
:102730000109B9F1010F05DD109AA9F10101515C00
:102740003029F4D0B84202DA10F1040F03DA012183
:10275000CDE9011010E0002803DC8344A9EB00015F
:1027600002E0411C494500DD8946A0EB0B00401CFE
:1027700001904FF000400290200705D40198484591
:1027800002DB4FF0FF30019000208DF84B000298E3
:102790000DF14B07B0F1004F25D002200C902B20FB
:1027A0000D90029800280CDA404202902D200D90E6
:1027B00007E00A210298FDF773FE3031029007F816
:1027C000011D0C99481E0C900029F2DC029800288B
:1027D000EFD1791E0D980870307800F0200040F09D
:1027E000450007F8020D11A8C01BC01D02901398E8
:1027F000007800B1012000EB0901019801EBE071C4
:10280000029801440398401A401E0390E00306D446
:1028100053462146179A039800F05CF80544139834
:10282000007818B15246179990476D1CE00323D5E4
:1028300053462146179A039800F04CF805441BE0D4
:10284000BBF1000F07DB0098584504DD109817997D
:1028500010F80B0001E0179930205246904701987C
:102860000BF1010B401E05F10105019004D12E2052
:102870005246179990476D1CB9F10001A9F1010961
:10288000DEDC05E017F8010B5246179990476D1CE6
:102890000299481E02900029F4DC53462146179AFB
:1028A00003989EE62D0000002B0000002000000091
:1028B0002DE9F041044600251E461746880404D43D
:1028C00005E039462020B0476D1C641EF9D5284626
:1028D000BDE8F0812DE9F041044600251E469046F2
:1028E000C80301D5302700E02027880404D505E07F
:1028F00041463846B0476D1C641EF9D52846BDE8F0
:10290000F0810A68531C0B601070704770B5044664
:102910000026002507E0681C80B205464FF6FF71CF
:10292000884200D105E002211048FFF769F900282C
:10293000F1D000BF47F6FF750C480C30048007E06B
:10294000681C80B205464FF6FF71884200D105E051
:1029500001210648FFF754F90028F1D000BF0348D1
:102960000C300088C6B2304670BD0000003C00400C
:1029700070B504460D46E1B20548FFF72BFB00BFDA
:1029800040210348FFF7A2FA0028F9D0204670BD85
:10299000003801401CB5FEF749FD0022102120201F
:1029A00000F08AFE4549086030B9DB22444945A061
:1029B000FFF72EFB00201CBD00222021084600F05E
:1029C0007BFE4E49086030B9E0223D494CA0FFF73C
:1029D0001FFB0020EFE700220621202000F06CFE04
:1029E0005649086020B9E622354955A0FFF710FB8B
:1029F00000223821202000F05FFE5F49086030B9D6
:102A0000EB222F495DA0FFF703FB0020D3E7002056
:102A100002210346B222CDE9001065A16C4800F006
:102A2000FFFF012806D0F12225496AA0FFF7F0FA3E
:102A30000020C0E7002003210346B222CDE90010A8
:102A400074A17D4800F0ECFF012806D0F6221C4955
:102A50007A48FFF7DDFA0020ADE7002003210346A6
:102A6000B222CDE9001076A17B4800F0D9FF012801
:102A700006D0FB22124979A0FFF7CAFA00209AE794
:102A8000002004210346CA01CDE9001082A18A4832
:102A900000F0C6FF012807D040F20112084987A0C4
:102AA000FFF7B6FA002086E740F22912044993A006
:102AB000FFF7AEFA00F05EFD00207CE7000000208A
:102AC0007C3E000825732C206174204C696E653AA9
:102AD00025642C2078517565756543726561746550
:102AE00020616453616D706C6544617461517565FA
:102AF0007565206973206572720A00000400002069
:102B000025732C206174204C696E653A25642C2055
:102B1000785175657565437265617465207072657D
:102B2000737353616D706C65446174615175657543
:102B300065206973206572720A0000000C00002095
:102B400025732C206174204C696E653A25642C2015
:102B50007851756575654372656174652061647847
:102B60006C333732446174615175657565206973E2
:102B7000206572720A0000000800002025732C20D6
:102B80006174204C696E653A25642C207851756516
:102B9000756543726561746520626C655374617418
:102BA00075735175657565206973206572720A00C9
:102BB0004170705461736B4E524632344C30315315
:102BC000656E736F724461746153656E64000000DA
:102BD000F511000825732C206174204C696E653A4C
:102BE00025642C20785461736B4372656174652091
:102BF0004170705461736B4E524632344C303153D5
:102C0000656E736F724461746153656E64206572A2
:102C1000726F0A004170705461736B4144533132DA
:102C200035364D756C746950726573734368616EA7
:102C300043617074757265009D100008BC3E000809
:102C40004170705461736B4144584C4461746543E6
:102C500061707475726500004511000825732C20A1
:102C60006174204C696E653A25642C207854617338
:102C70006B437265617465204170705461736B4180
:102C800044584C4461746543617074757265206585
:102C900072726F0A000000004170705461736B53D0
:102CA000656E736F724461746155706C6F616453CB
:102CB00065727665720000002512000825732C20CD
:102CC0006174204C696E653A25642C2078546173D8
:102CD0006B437265617465204170705461736B530E
:102CE000656E736F724461746155706C6F6164538B
:102CF0006572766572206572726F0A0025732C20EA
:102D00006174204C696E653A25642C205379737484
:102D1000656D20496E6974207375636365737321F3
:102D20000A0000002DE9F04105460E4626480768D6
:102D300026480068001D00F045FB50B92348006894
:102D400090F82C10012088402149096881432048CF
:102D50000160681CD8B9D6B11E4948681B4909688A
:102D600088601A4982680968CA6018490968091D9B
:102D70008268516015490968091D8160154A134927
:102D800009684A6111460968491C11601AE07C19FA
:102D90000E4800684460BC4207D20C480168091D17
:102DA0000D48006800F03BFB0CE008480168091D75
:102DB0000A48006800F033FB09480068844201D2E9
:102DC00007480460BDE8F081500000203C0000206E
:102DD00054000020AC0200204400002040000020ED
:102DE0006C00002010B5044600F034FB2F4800684A
:102DF000401C2E4908602E48006840B92C480460E9
:102E00000846006801280DD100F072F90AE029484F
:102E1000006838B926480068C06AE16A884201D86B
:102E20002348046024480068401C2349086094F843
:102E30002C10012088402149096808431F49086077
:102E4000E16A01EB81011E4A02EB81014868A06042
:102E50008268E260211D826851608160E16A01EB55
:102E60008101174A02EB81026261E16A01EB810193
:102E7000134A52F82110491CE26A02EB8202104BFD
:102E800043F8221000F0F8FA0A48006868B10848D0
:102E90000068C06AE16A884207D24FF08050094951
:102EA0000860BFF34F8FBFF36F8F10BD4C00002041
:102EB0003C00002058000020680000205400002042
:102EC0009401002004ED00E010B516E000F0C2FA15
:102ED0000C48C068C468201D00F074FA0A480068F5
:102EE000401E0949086009480068401E07490860FB
:102EF00000F0C2FA204600F055F8044800680028A7
:102F0000E4D110BD980200204C00002048000020B1
:102F100070B504460D46206C70B1216CE068014428
:102F2000E160D4E90210884201D32168E1602846BB
:102F3000226CE168FDF797F970BD2DE9F041044678
:102F40000F4615464FF00008A66B206C28B37DB9DC
:102F50003946226C6068FDF786F9216C6068084488
:102F60006060D4E90101884217D32068606014E0F2
:102F70003946226CE068FDF776F9216CE068411A69
:102F8000E1602168E068884203D2216CA068411AA0
:102F9000E160022D01D106B1761E701CA06340468F
:102FA000BDE8F08110B50446206B00F075FA2046AC
:102FB00000F072FA10BD000030B54FF40043154820
:102FC00000F007042CB1C01D20F00700114C041BB9
:102FD0001B1B0246104C226000240F4D6C60D01861
:102FE000083820F007000D4C206000240B4D2D68A0
:102FF0006C600A4D2D682C601146441A4C60074CD9
:1030000024680C60064D4C682C60064D4C682C60A2
:1030100030BD0000C0020020800000208800002099
:10302000900000208C00002000BFFFF74DFF0648F5
:1030300000680128F9D94FF0805004490860BFF3B7
:103040004F8FBFF36F8FF0E79401002004ED00E095
:103050002DE9F04106460D4617469846069C0DB9E7
:10306000246000E02760E66325640121204600F02B
:1030700049FBBDE8F0812DE9FF5F80460E46914691
:10308000DDE90E7A109CA9F10100216B01EB800BA8
:103090002BF0070B7EB1002507E0715D04F13400D1
:1030A0004155705D00B902E06D1C202DF5D300BFC5
:1030B0000021532001550A2F00D30927E762201D64
:1030C00000F0AAF904F1180000F0A6F92461C7F194
:1030D0000A00A061646241465846039A00F060F914
:1030E0002060BAF1000F01D0CAF80040BDE8FF9F90
:1030F00010B5002407E004EB84010F4A02EB8100C5
:1031000000F07DF9641C0A2CF5D30C4800F077F927
:103110000B4800F074F90B4800F071F90A4800F010
:103120006EF90A4800F06BF9044809490860044840
:103130000849086010BD0000940100205C020020D6
:10314000700200208402002098020020AC020020BF
:10315000400000204400002010B50146164800E061
:10316000006803688B42FBD30246436813448B42DA
:1031700004D143684C682344436001460A464B68C7
:1031800013440468A34211D10C4C03682468A34281
:1031900008D04B680468646823444B6003681B686C
:1031A0000B6005E0054B1B680B6001E003680B60DA
:1031B000884200D0016010BD8000002088000020FF
:1031C00070B5054600F046F9A86B08B9012400E087
:1031D000002400F051F9204670BD70B5054600F09E
:1031E00039F9A86BE96B884201D1012400E0002481
:1031F00000F042F9204670BD09480068006808B92F
:10320000012000E0002020B14FF0FF3005490860A8
:1032100005E003480068C06800680249086070471C
:10322000400000206C00002000BFBF2080F3118808
:10323000BFF34F8FBFF36F8F00BF00BFFEE770B5C6
:10324000044600F007F994F9455010E0606A08B9A7
:10325000012000E0002038B904F1240000F0DCFC7B
:1032600018B100F071F900E003E0681E45B2002DCE
:10327000ECDC00BFFF2084F8450000F0FDF800F012
:10328000E9F894F9445010E0206908B9012000E001
:10329000002048B904F1100000F0BEFC08B100F0B5
:1032A00053F9681E45B200E001E0002DECDC00BFE0
:1032B000FF2084F8440000F0DFF870BD2DE9F047EE
:1032C00005464FF0000900F08BF93048006808B956
:1032D000FFF772FE75B105F00700C0F11008C8F1E4
:1032E000FF30A84201D2012000E0002008B9454487
:1032F00000E00025012000EBE570002841D0002D02
:103300003FD02348006885423BD8224E30460468AF
:1033100001E0264624686068A84202D2206800289E
:10332000F7D11A48006884422BD0306800F10809B0
:10333000206830606068401B102807D967196068F2
:10334000401B786065603846FFF706FF10496068EB
:103350000968081A0E490860084600680E4909689D
:10336000884203D20A4800680B490860606840F050
:10337000004060600020206008480068401C074949
:10338000086000F0CDFC4846BDE8F08788000020CA
:103390008C0000208000002090000020940000207D
:1033A000001F4FF080730360001F21F001030360D2
:1033B000001F034B03601438026020387047000080
:1033C0002932000801460A69D1E901309860D1E943
:1033D000010358605068884201D18868506000201D
:1033E00008611068401E10601068704770B5044690
:1033F00000F030F8A56B00F03FF8284670BD00F1F2
:10340000080141604FF0FF31816000F10801C160A7
:10341000016100210160704700210161704710B512
:1034200002460B685C1C0CB9106907E002F1080049
:1034300000E04068446824689C42FAD944684C60C3
:103440004C68A160886041600A611468641C146063
:1034500010BD000000BFBF2080F31188BFF34F8F65
:10346000BFF36F8F00BF03480068401C014908602C
:10347000704700007C00002006480068401E054997
:1034800008600846006820B9002080F3118800BF5A
:1034900000BF70477C00002070B506463546E6B197
:1034A000083D2C466068C00FB8B12068A8B96068B4
:1034B00020F00040606000F093F8084960680968F7
:1034C0000844064908602046FFF746FE04480068A5
:1034D000401C0349086000F023FC70BD8C000020F4
:1034E0009800002000204FF0E02108618861024828
:1034F00048610720086170473F19010070B5044614
:10350000002544B100F06CF800212046FFF70AFCCA
:1035100000F006FC05463DB94FF0805003490860B5
:10352000BFF34F8FBFF36F8F70BD000004ED00E05D
:103530000349096801600349096841607047000058
:1035400064000020500000200120014908607047FD
:103550006000002070B505460C460548016818312A
:103560002846FFF75CFF01212046FFF7DBFB70BD1B
:103570003C0000201CB5124800210B468022CDE9FA
:10358000001010A1114800F04BFA0446012C14D190
:1035900000BFBF2080F31188BFF34F8FBFF36F8F41
:1035A00000BF4FF0FF300A49086001200949086058
:1035B00000200949086000F04BF8084800681CBD6D
:1035C0007000002049444C450000000029300008EC
:1035D0006C000020580000205000002074000020E3
:1035E00002480068401C01490860704778000020CC
:1035F0001248006818B10120114908601DE0002040
:103600000F4908600F480068B0FA80F0C0F11F0150
:1036100001EB81020C4B03EB82004268526842606E
:1036200000F108024368934202D142685268426046
:103630004268D268054B1A6000BF704778000020CE
:103640006000002054000020940100203C00002075
:1036500010B50A48006840F47F0008490860084631
:10366000006840F07F400860FFF73CFF00200449FD
:103670000860FCF77BFD002010BD000020ED00E09D
:103680007C00002010B500BFBF2080F31188BFF37D
:103690004F8FBFF36F8F00BF00F0F6F918B14FF0F6
:1036A00080500449086000BF002080F3118800BFEB
:1036B00010BD000004ED00E02DE9F84304460E467D
:1036C00017460025DCB1681EB0FBF4F0B04216D3FB
:1036D00004FB06F010F1490F11D804FB06F909F1BB
:1036E0004800FFF7EBFD05464DB1A84608F1480834
:1036F0003B464246314620460095FFF7A9FC284646
:10370000BDE8F8832DE9F04105460E4601272C4619
:10371000002C41D0E06B00283ED0B91EE06BB1FB1D
:10372000F0F0216C884237D3FFF794FED4E90F12F2
:10373000206801FB0200A0600020A0632068606098
:10374000E06B401E226C216800FB0211E160FF204B
:1037500084F8440084F845009EB9206908B9012026
:1037600000E00020A8B904F1100000F055FA80B183
:103770004FF080500A490860BFF34F8FBFF36F8F3F
:1037800007E004F11000FFF73AFE04F12400FFF710
:1037900036FEFFF771FE00E000273846BDE8F081F5
:1037A00004ED00E02DE9FF4383B0074688461D463F
:1037B0004FF000093C4600BFFFF74CFEA06BE16BE9
:1037C000884201D3022D28D12A4641462046FFF7E0
:1037D000B4FB0646606A08B9012000E0002068B921
:1037E00004F1240000F018FA88B14FF080503249FB
:1037F0000860BFF34F8FBFF36F8F08E03EB14FF00B
:1038000080502D490860BFF34F8FBFF36F8FFFF7D4
:1038100033FE012007B0BDE8F083059818B9FFF723
:103820002BFE0020F6E7B9F1000F04D101A8FFF745
:103830007FFE4FF00109FFF71FFEFFF7D1FEFFF7F4
:1038400009FE94F94400401C10B9002084F844009B
:1038500094F94500401C10B9002084F84500FFF79A
:103860000BFE05A901A800F0ABF8F0B92046FFF760
:10387000B4FCA0B104F110000599FFF76BFE2046DF
:10388000FFF7DDFC00F04CFA002895D14FF0805096
:1038900009490860BFF34F8FBFF36F8F8CE7204655
:1038A000FFF7CDFC00F03CFA86E72046FFF7C7FCA7
:1038B00000F036FA0020ADE704ED00E02DE9F74115
:1038C00083B005460F464FF000082C4600BFFFF7B7
:1038D000C1FDA66BF6B139462046FFF719FB701EF5
:1038E000A063206908B9012000E0002060B904F15C
:1038F000100000F091F938B14FF080502F49086066
:10390000BFF34F8FBFF36F8FFFF7B6FD012006B0F7
:10391000BDE8F081059818B9FFF7AEFD0020F6E785
:10392000B8F1000F04D101A8FFF702FE4FF0010823
:10393000FFF7A2FDFFF754FEFFF78CFD94F944005A
:10394000401C10B9002084F8440094F94500401C44
:1039500010B9002084F84500FFF78EFD05A901A8E5
:1039600000F02EF8F0B92046FFF72AFCA0B104F1D0
:1039700024000599FFF7EEFD2046FFF760FC00F0FC
:10398000CFF90028A3D14FF080500C490860BFF355
:103990004F8FBFF36F8F9AE72046FFF750FC00F080
:1039A000BFF994E72046FFF74AFC00F0B9F920463A
:1039B000FFF706FC00288AD00020A8E704ED00E00D
:1039C00070B506460C46FFF745FD1348026870685F
:1039D000131A2068401C08B9002519E00F49306807
:1039E0000968884206D07068904203D801250020FB
:1039F00020600DE02068984207D92068C01A206036
:103A00003046FFF795FD002502E0002020600125EB
:103A1000FFF732FD284670BD5000002064000020F2
:103A20002DE9FF4F85B0804689461746DDE912AB88
:103A3000B800FFF743FC064676B15C20FFF73EFC7A
:103A400004462CB15C212046FCF726FC266304E0EA
:103A50003046FFF721FD00E000247CB10020CDE9D5
:103A600000ABCDE902403A4649464046089BFFF785
:103A700002FB2046FFF7B6F9012501E04FF0FF35C4
:103A8000284609B0BDE8F08F2DE9F04100275748DE
:103A9000006800287ED156480068451C54480560DF
:103AA0008DB95448D0F800805348006851490860E7
:103AB0005148C0F8008051480068401C4F490860D8
:103AC000FFF79AFB00BF4E480068854276D300BFDF
:103AD00048480068006808B9012000E0002020B1D3
:103AE0004FF0FF304649086067E042480068C06810
:103AF000C4686668B54202D2414806605DE060690C
:103B0000D4E902128A60D4E902214A60211D426888
:103B10008A4201D1E1684160002262610168491E68
:103B20000160A06A98B1A06AD4E907128A60D4E95A
:103B300007214A6004F1180142688A4201D1216AD2
:103B400041600022A2620168491E016000BF94F832
:103B50002C10012088402B49096808432949086036
:103B6000E16A01EB8101284A02EB81014868A0600B
:103B70008268E260211D826851608160E16A01EB28
:103B80008101214A02EB81026261E16A01EB81015C
:103B90001D4A00E022E052F82110491CE26A02EBC3
:103BA0008202194B43F822101849E06A0968C96A71
:103BB00088428DD901278BE700E000BF13480068D9
:103BC000C06A00EB8000104951F82000012800D99C
:103BD00001270F48006800B1012704E00D48006884
:103BE000401C0C4908603846BDE8F0817800002090
:103BF000500000204000002044000020640000200D
:103C00006C00002054000020940100203C000020A3
:103C1000600000205C00002070B50346D868C168D1
:103C2000886AD1E90745A560D1E90754656001F1CB
:103C300018044568A54201D10C6A446000258D62D4
:103C40000468641E04603048006800283DD148695B
:103C5000D1E90245A560D1E9025465600C1D4568B3
:103C6000A54201D1CC68446000254D610468641E02
:103C7000046091F82C400120A040244C246820438B
:103C8000224C2060CC6A04EB8404214D05EB8404B3
:103C9000606888608568CD600C1D85686C60846094
:103CA000CC6A04EB84041A4D05EB84054D61CC6AA3
:103CB00004EB8404164D55F82440641CCD6A05EBD2
:103CC0008505134E46F8254010E0124C6068C86127
:103CD00085680D6201F1180485686C6084600D4D83
:103CE0008D622C462468641C2C6000BF0A4CC86A94
:103CF0002468E46AA04204D901220120074C206014
:103D000000E00022104670BD780000205400002022
:103D100094010020840200203C000020600000206C
:103D200070B500240026FFF795FB4B480068401E45
:103D3000494908600846006800287DD14748006866
:103D4000002879D05BE04648C068C468A06AD4E91E
:103D500007128A60D4E907214A6004F11801426819
:103D60008A4201D1216A41600022A2620168491E93
:103D700001606069D4E902128A60D4E902214A60D4
:103D8000211D42688A4201D1E168416000226261DE
:103D90000168491E016094F82C10012088403149C7
:103DA000096808432F490860E16A01EB81012E4A46
:103DB00002EB81014868A0608268E260211D826890
:103DC00051608160E16A01EB8101274A02EB8102C7
:103DD0006261E16A01EB8101234A52F82110491C1A
:103DE000E26A02EB8202204B43F822101F49E06A8C
:103DF0000968C96A884202D301201D490860184831
:103E0000006808B9012000E0002000289BD00CB118
:103E1000FFF7F2F91748056865B100BFFFF734FEF8
:103E200010B10120124908606D1E002DF6D100204E
:103E3000104908600E4800E009E0006838B101262A
:103E400030070D490860BFF34F8FBFF36F8FFFF747
:103E500013FB304670BD0000780000204C000020AD
:103E60008402002054000020940100203C00002027
:103E7000600000205C00002004ED00E06D61696ED0
:103E8000004170705461736B414453313235364D8B
:103E9000756C746950726573734368616E436170C9
:103EA00074757265004170705461736B4144584C75
:103EB00044617465436170747572650025732C20CC
:103EC0006174204C696E653A25642C2078546173C6
:103ED0006B437265617465204170705461736B410E
:103EE0004453313235364D756C74694368616E43A5
:103EF000617074757265206572726F0A000000004F
:103F0000203F000800000020A0000000582000080A
:103F1000C03F0008A000002020C200006820000868
:103F20000000000000000000000000000000000091
:103F30000000000000000000000000000000000081
:103F4000000000000800000000000102030401025C
:103F50000304060708090204060800000000000028
:103F60000000000000000000000000000000000051
:103F70000000000000000000000000000000000041
:103F80000000000000000000000000000000000031
:103F9000000000000900000000000000AAAAAAAA70
:103FA0000000000000000000000000000000000011
:103FB0000000000000000000000000000000000001
:0400000508000131BD
:00000001FF
